{
  "_format": "hh-sol-artifact-1",
  "contractName": "Oracle",
  "sourceName": "contracts/Oracle.sol",
  "abi": [
    {
      "inputs": [
        {
          "internalType": "address",
          "name": "_nftContractAddress",
          "type": "address"
        }
      ],
      "stateMutability": "nonpayable",
      "type": "constructor"
    },
    {
      "inputs": [
        {
          "internalType": "address",
          "name": "owner",
          "type": "address"
        }
      ],
      "name": "OwnableInvalidOwner",
      "type": "error"
    },
    {
      "inputs": [
        {
          "internalType": "address",
          "name": "account",
          "type": "address"
        }
      ],
      "name": "OwnableUnauthorizedAccount",
      "type": "error"
    },
    {
      "anonymous": false,
      "inputs": [
        {
          "indexed": true,
          "internalType": "address",
          "name": "previousOwner",
          "type": "address"
        },
        {
          "indexed": true,
          "internalType": "address",
          "name": "newOwner",
          "type": "address"
        }
      ],
      "name": "OwnershipTransferred",
      "type": "event"
    },
    {
      "anonymous": false,
      "inputs": [
        {
          "indexed": true,
          "internalType": "uint256",
          "name": "proposalId",
          "type": "uint256"
        },
        {
          "indexed": false,
          "internalType": "string",
          "name": "location",
          "type": "string"
        },
        {
          "indexed": false,
          "internalType": "uint256",
          "name": "price",
          "type": "uint256"
        }
      ],
      "name": "ProposalAdded",
      "type": "event"
    },
    {
      "anonymous": false,
      "inputs": [
        {
          "indexed": true,
          "internalType": "uint256",
          "name": "proposalId",
          "type": "uint256"
        },
        {
          "indexed": false,
          "internalType": "enum Oracle.ProposalStatus",
          "name": "oldStatus",
          "type": "uint8"
        },
        {
          "indexed": false,
          "internalType": "enum Oracle.ProposalStatus",
          "name": "newStatus",
          "type": "uint8"
        }
      ],
      "name": "ProposalStatusUpdated",
      "type": "event"
    },
    {
      "anonymous": false,
      "inputs": [
        {
          "indexed": true,
          "internalType": "uint256",
          "name": "proposalId",
          "type": "uint256"
        }
      ],
      "name": "ProposalVerified",
      "type": "event"
    },
    {
      "inputs": [
        {
          "components": [
            {
              "internalType": "address",
              "name": "owner",
              "type": "address"
            },
            {
              "internalType": "string",
              "name": "location",
              "type": "string"
            },
            {
              "internalType": "uint256",
              "name": "price",
              "type": "uint256"
            },
            {
              "internalType": "bytes",
              "name": "contractIPFSHash",
              "type": "bytes"
            },
            {
              "internalType": "bytes",
              "name": "imagesIPFSHash",
              "type": "bytes"
            }
          ],
          "internalType": "struct Lib.LandListingProposal",
          "name": "_proposal",
          "type": "tuple"
        }
      ],
      "name": "addProposal",
      "outputs": [],
      "stateMutability": "nonpayable",
      "type": "function"
    },
    {
      "inputs": [],
      "name": "getAllProposals",
      "outputs": [
        {
          "internalType": "uint256[]",
          "name": "",
          "type": "uint256[]"
        }
      ],
      "stateMutability": "view",
      "type": "function"
    },
    {
      "inputs": [
        {
          "internalType": "uint256",
          "name": "_proposalId",
          "type": "uint256"
        }
      ],
      "name": "getProposal",
      "outputs": [
        {
          "components": [
            {
              "internalType": "address",
              "name": "owner",
              "type": "address"
            },
            {
              "internalType": "string",
              "name": "location",
              "type": "string"
            },
            {
              "internalType": "uint256",
              "name": "price",
              "type": "uint256"
            },
            {
              "internalType": "bytes",
              "name": "contractIPFSHash",
              "type": "bytes"
            },
            {
              "internalType": "bytes",
              "name": "imagesIPFSHash",
              "type": "bytes"
            }
          ],
          "internalType": "struct Lib.LandListingProposal",
          "name": "",
          "type": "tuple"
        }
      ],
      "stateMutability": "view",
      "type": "function"
    },
    {
      "inputs": [
        {
          "internalType": "uint256",
          "name": "",
          "type": "uint256"
        }
      ],
      "name": "landListingProposals",
      "outputs": [
        {
          "internalType": "address",
          "name": "owner",
          "type": "address"
        },
        {
          "internalType": "string",
          "name": "location",
          "type": "string"
        },
        {
          "internalType": "uint256",
          "name": "price",
          "type": "uint256"
        },
        {
          "internalType": "bytes",
          "name": "contractIPFSHash",
          "type": "bytes"
        },
        {
          "internalType": "bytes",
          "name": "imagesIPFSHash",
          "type": "bytes"
        }
      ],
      "stateMutability": "view",
      "type": "function"
    },
    {
      "inputs": [],
      "name": "nftContractAddress",
      "outputs": [
        {
          "internalType": "address",
          "name": "",
          "type": "address"
        }
      ],
      "stateMutability": "view",
      "type": "function"
    },
    {
      "inputs": [],
      "name": "owner",
      "outputs": [
        {
          "internalType": "address",
          "name": "",
          "type": "address"
        }
      ],
      "stateMutability": "view",
      "type": "function"
    },
    {
      "inputs": [],
      "name": "proposalId",
      "outputs": [
        {
          "internalType": "uint256",
          "name": "",
          "type": "uint256"
        }
      ],
      "stateMutability": "view",
      "type": "function"
    },
    {
      "inputs": [
        {
          "internalType": "uint256",
          "name": "",
          "type": "uint256"
        }
      ],
      "name": "proposalIds",
      "outputs": [
        {
          "internalType": "uint256",
          "name": "",
          "type": "uint256"
        }
      ],
      "stateMutability": "view",
      "type": "function"
    },
    {
      "inputs": [
        {
          "internalType": "uint256",
          "name": "",
          "type": "uint256"
        }
      ],
      "name": "proposalStatus",
      "outputs": [
        {
          "internalType": "enum Oracle.ProposalStatus",
          "name": "",
          "type": "uint8"
        }
      ],
      "stateMutability": "view",
      "type": "function"
    },
    {
      "inputs": [
        {
          "internalType": "uint256",
          "name": "_proposalId",
          "type": "uint256"
        }
      ],
      "name": "rejectProposal",
      "outputs": [],
      "stateMutability": "nonpayable",
      "type": "function"
    },
    {
      "inputs": [],
      "name": "renounceOwnership",
      "outputs": [],
      "stateMutability": "nonpayable",
      "type": "function"
    },
    {
      "inputs": [
        {
          "internalType": "address",
          "name": "_nftContractAddress",
          "type": "address"
        }
      ],
      "name": "setNFTContractAddress",
      "outputs": [],
      "stateMutability": "nonpayable",
      "type": "function"
    },
    {
      "inputs": [
        {
          "internalType": "address",
          "name": "newOwner",
          "type": "address"
        }
      ],
      "name": "transferOwnership",
      "outputs": [],
      "stateMutability": "nonpayable",
      "type": "function"
    },
    {
      "inputs": [
        {
          "internalType": "uint256",
          "name": "",
          "type": "uint256"
        }
      ],
      "name": "verifiedProposals",
      "outputs": [
        {
          "internalType": "bool",
          "name": "",
          "type": "bool"
        }
      ],
      "stateMutability": "view",
      "type": "function"
    },
    {
      "inputs": [
        {
          "internalType": "uint256",
          "name": "_proposalId",
          "type": "uint256"
        },
        {
          "internalType": "enum Oracle.ProposalStatus",
          "name": "_verfiedStep",
          "type": "uint8"
        }
      ],
      "name": "verifyStep",
      "outputs": [],
      "stateMutability": "nonpayable",
      "type": "function"
    }
  ],
  "bytecode": "0x60806040523480156200001157600080fd5b506040516200209d3803806200209d833981810160405281019062000037919062000235565b33600073ffffffffffffffffffffffffffffffffffffffff168173ffffffffffffffffffffffffffffffffffffffff1603620000ad5760006040517f1e4fbdf7000000000000000000000000000000000000000000000000000000008152600401620000a4919062000278565b60405180910390fd5b620000be816200010760201b60201c565b5080600160006101000a81548173ffffffffffffffffffffffffffffffffffffffff021916908373ffffffffffffffffffffffffffffffffffffffff1602179055505062000295565b60008060009054906101000a900473ffffffffffffffffffffffffffffffffffffffff169050816000806101000a81548173ffffffffffffffffffffffffffffffffffffffff021916908373ffffffffffffffffffffffffffffffffffffffff1602179055508173ffffffffffffffffffffffffffffffffffffffff168173ffffffffffffffffffffffffffffffffffffffff167f8be0079c531659141344cd1fd0a4f28419497f9722a3daafe3b4186f6b6457e060405160405180910390a35050565b600080fd5b600073ffffffffffffffffffffffffffffffffffffffff82169050919050565b6000620001fd82620001d0565b9050919050565b6200020f81620001f0565b81146200021b57600080fd5b50565b6000815190506200022f8162000204565b92915050565b6000602082840312156200024e576200024d620001cb565b5b60006200025e848285016200021e565b91505092915050565b6200027281620001f0565b82525050565b60006020820190506200028f600083018462000267565b92915050565b611df880620002a56000396000f3fe608060405234801561001057600080fd5b50600436106100f55760003560e01c806392e8cca211610097578063c7f758a811610066578063c7f758a814610262578063cceb68f514610292578063e9819cbd146102b0578063f2fde38b146102e0576100f5565b806392e8cca2146101c45780639b644a23146101f8578063aae282e114610228578063bc28d87814610246576100f5565b8063715018a6116100d3578063715018a61461015057806374c260cf1461015a5780637504e22b1461018a5780638da5cb5b146101a6576100f5565b806323949cd1146100fa5780632dfca445146101165780634af1662814610134575b600080fd5b610114600480360381019061010f9190610ea9565b6102fc565b005b61011e610348565b60405161012b9190610eef565b60405180910390f35b61014e60048036038101906101499190610f5b565b61034e565b005b6101586104d7565b005b610174600480360381019061016f9190610f9b565b6104eb565b604051610181919061103f565b60405180910390f35b6101a4600480360381019061019f919061107e565b61050b565b005b6101ae610604565b6040516101bb91906110d6565b60405180910390f35b6101de60048036038101906101d99190610f9b565b61062d565b6040516101ef9594939291906111d6565b60405180910390f35b610212600480360381019061020d9190610f9b565b61081b565b60405161021f9190610eef565b60405180910390f35b61023061083f565b60405161023d91906110d6565b60405180910390f35b610260600480360381019061025b9190610f9b565b610865565b005b61027c60048036038101906102779190610f9b565b610968565b6040516102899190611374565b60405180910390f35b61029a610bab565b6040516102a79190611445565b60405180910390f35b6102ca60048036038101906102c59190610f9b565b610c03565b6040516102d79190611482565b60405180910390f35b6102fa60048036038101906102f59190610ea9565b610c23565b005b610304610ca9565b80600160006101000a81548173ffffffffffffffffffffffffffffffffffffffff021916908373ffffffffffffffffffffffffffffffffffffffff16021790555050565b60025481565b610356610ca9565b60066000600254815260200190815260200160002060009054906101000a900460ff16156103b9576040517f08c379a00000000000000000000000000000000000000000000000000000000081526004016103b0906114e9565b60405180910390fd5b60008060048111156103ce576103cd610fc8565b5b8260048111156103e1576103e0610fc8565b5b036103ef5760019050610496565b6001600481111561040357610402610fc8565b5b82600481111561041657610415610fc8565b5b036104245760029050610495565b6002600481111561043857610437610fc8565b5b82600481111561044b5761044a610fc8565b5b036104595760039050610494565b6040517f08c379a000000000000000000000000000000000000000000000000000000000815260040161048b90611555565b60405180910390fd5b5b5b6002547fb66123442b5cecb65e69792eb5d9dd4e8abd4552e907d9f0f84cd98b6862fdd383836040516104ca929190611575565b60405180910390a2505050565b6104df610ca9565b6104e96000610d30565b565b60056020528060005260406000206000915054906101000a900460ff1681565b80600360006002548152602001908152602001600020818161052d9190611ccf565b905050600060056000600254815260200190815260200160002060006101000a81548160ff0219169083600481111561056957610568610fc8565b5b021790555060046002549080600181540180825580915050600190039060005260206000200160009091909190915055600260008154809291906105ac90611d0c565b91905055506002547f961208aa3e528e7624367220a862d58a9483ed782d8bc03c42f558d85e9c1ec88280602001906105e59190611683565b84604001356040516105f993929190611d90565b60405180910390a250565b60008060009054906101000a900473ffffffffffffffffffffffffffffffffffffffff16905090565b60036020528060005260406000206000915090508060000160009054906101000a900473ffffffffffffffffffffffffffffffffffffffff16908060010180546106769061174f565b80601f01602080910402602001604051908101604052809291908181526020018280546106a29061174f565b80156106ef5780601f106106c4576101008083540402835291602001916106ef565b820191906000526020600020905b8154815290600101906020018083116106d257829003601f168201915b50505050509080600201549080600301805461070a9061174f565b80601f01602080910402602001604051908101604052809291908181526020018280546107369061174f565b80156107835780601f1061075857610100808354040283529160200191610783565b820191906000526020600020905b81548152906001019060200180831161076657829003601f168201915b5050505050908060040180546107989061174f565b80601f01602080910402602001604051908101604052809291908181526020018280546107c49061174f565b80156108115780601f106107e657610100808354040283529160200191610811565b820191906000526020600020905b8154815290600101906020018083116107f457829003601f168201915b5050505050905085565b6004818154811061082b57600080fd5b906000526020600020016000915090505481565b600160009054906101000a900473ffffffffffffffffffffffffffffffffffffffff1681565b61086d610ca9565b60066000600254815260200190815260200160002060009054906101000a900460ff16156108d0576040517f08c379a00000000000000000000000000000000000000000000000000000000081526004016108c7906114e9565b60405180910390fd5b60046005600083815260200190815260200160002060006101000a81548160ff0219169083600481111561090757610906610fc8565b5b021790555060016006600083815260200190815260200160002060006101000a81548160ff021916908315150217905550807f051394e5cf50e28f5ee446d54e6b713eb0cb38f53eebc74eb30c2478c343c4ce60405160405180910390a250565b610970610dfc565b600360008381526020019081526020016000206040518060a00160405290816000820160009054906101000a900473ffffffffffffffffffffffffffffffffffffffff1673ffffffffffffffffffffffffffffffffffffffff1673ffffffffffffffffffffffffffffffffffffffff1681526020016001820180546109f49061174f565b80601f0160208091040260200160405190810160405280929190818152602001828054610a209061174f565b8015610a6d5780601f10610a4257610100808354040283529160200191610a6d565b820191906000526020600020905b815481529060010190602001808311610a5057829003601f168201915b5050505050815260200160028201548152602001600382018054610a909061174f565b80601f0160208091040260200160405190810160405280929190818152602001828054610abc9061174f565b8015610b095780601f10610ade57610100808354040283529160200191610b09565b820191906000526020600020905b815481529060010190602001808311610aec57829003601f168201915b50505050508152602001600482018054610b229061174f565b80601f0160208091040260200160405190810160405280929190818152602001828054610b4e9061174f565b8015610b9b5780601f10610b7057610100808354040283529160200191610b9b565b820191906000526020600020905b815481529060010190602001808311610b7e57829003601f168201915b5050505050815250509050919050565b60606004805480602002602001604051908101604052809291908181526020018280548015610bf957602002820191906000526020600020905b815481526020019060010190808311610be5575b5050505050905090565b60066020528060005260406000206000915054906101000a900460ff1681565b610c2b610ca9565b600073ffffffffffffffffffffffffffffffffffffffff168173ffffffffffffffffffffffffffffffffffffffff1603610c9d5760006040517f1e4fbdf7000000000000000000000000000000000000000000000000000000008152600401610c9491906110d6565b60405180910390fd5b610ca681610d30565b50565b610cb1610df4565b73ffffffffffffffffffffffffffffffffffffffff16610ccf610604565b73ffffffffffffffffffffffffffffffffffffffff1614610d2e57610cf2610df4565b6040517f118cdaa7000000000000000000000000000000000000000000000000000000008152600401610d2591906110d6565b60405180910390fd5b565b60008060009054906101000a900473ffffffffffffffffffffffffffffffffffffffff169050816000806101000a81548173ffffffffffffffffffffffffffffffffffffffff021916908373ffffffffffffffffffffffffffffffffffffffff1602179055508173ffffffffffffffffffffffffffffffffffffffff168173ffffffffffffffffffffffffffffffffffffffff167f8be0079c531659141344cd1fd0a4f28419497f9722a3daafe3b4186f6b6457e060405160405180910390a35050565b600033905090565b6040518060a00160405280600073ffffffffffffffffffffffffffffffffffffffff168152602001606081526020016000815260200160608152602001606081525090565b600080fd5b600080fd5b600073ffffffffffffffffffffffffffffffffffffffff82169050919050565b6000610e7682610e4b565b9050919050565b610e8681610e6b565b8114610e9157600080fd5b50565b600081359050610ea381610e7d565b92915050565b600060208284031215610ebf57610ebe610e41565b5b6000610ecd84828501610e94565b91505092915050565b6000819050919050565b610ee981610ed6565b82525050565b6000602082019050610f046000830184610ee0565b92915050565b610f1381610ed6565b8114610f1e57600080fd5b50565b600081359050610f3081610f0a565b92915050565b60058110610f4357600080fd5b50565b600081359050610f5581610f36565b92915050565b60008060408385031215610f7257610f71610e41565b5b6000610f8085828601610f21565b9250506020610f9185828601610f46565b9150509250929050565b600060208284031215610fb157610fb0610e41565b5b6000610fbf84828501610f21565b91505092915050565b7f4e487b7100000000000000000000000000000000000000000000000000000000600052602160045260246000fd5b6005811061100857611007610fc8565b5b50565b600081905061101982610ff7565b919050565b60006110298261100b565b9050919050565b6110398161101e565b82525050565b60006020820190506110546000830184611030565b92915050565b600080fd5b600060a082840312156110755761107461105a565b5b81905092915050565b60006020828403121561109457611093610e41565b5b600082013567ffffffffffffffff8111156110b2576110b1610e46565b5b6110be8482850161105f565b91505092915050565b6110d081610e6b565b82525050565b60006020820190506110eb60008301846110c7565b92915050565b600081519050919050565b600082825260208201905092915050565b60005b8381101561112b578082015181840152602081019050611110565b60008484015250505050565b6000601f19601f8301169050919050565b6000611153826110f1565b61115d81856110fc565b935061116d81856020860161110d565b61117681611137565b840191505092915050565b600081519050919050565b600082825260208201905092915050565b60006111a882611181565b6111b2818561118c565b93506111c281856020860161110d565b6111cb81611137565b840191505092915050565b600060a0820190506111eb60008301886110c7565b81810360208301526111fd8187611148565b905061120c6040830186610ee0565b818103606083015261121e818561119d565b90508181036080830152611232818461119d565b90509695505050505050565b61124781610e6b565b82525050565b600082825260208201905092915050565b6000611269826110f1565b611273818561124d565b935061128381856020860161110d565b61128c81611137565b840191505092915050565b6112a081610ed6565b82525050565b600082825260208201905092915050565b60006112c282611181565b6112cc81856112a6565b93506112dc81856020860161110d565b6112e581611137565b840191505092915050565b600060a083016000830151611308600086018261123e565b5060208301518482036020860152611320828261125e565b91505060408301516113356040860182611297565b506060830151848203606086015261134d82826112b7565b9150506080830151848203608086015261136782826112b7565b9150508091505092915050565b6000602082019050818103600083015261138e81846112f0565b905092915050565b600081519050919050565b600082825260208201905092915050565b6000819050602082019050919050565b60006113ce8383611297565b60208301905092915050565b6000602082019050919050565b60006113f282611396565b6113fc81856113a1565b9350611407836113b2565b8060005b8381101561143857815161141f88826113c2565b975061142a836113da565b92505060018101905061140b565b5085935050505092915050565b6000602082019050818103600083015261145f81846113e7565b905092915050565b60008115159050919050565b61147c81611467565b82525050565b60006020820190506114976000830184611473565b92915050565b7f50726f706f73616c20616c726561647920766572696669656400000000000000600082015250565b60006114d36019836110fc565b91506114de8261149d565b602082019050919050565b60006020820190508181036000830152611502816114c6565b9050919050565b7f496e76616c696420737465700000000000000000000000000000000000000000600082015250565b600061153f600c836110fc565b915061154a82611509565b602082019050919050565b6000602082019050818103600083015261156e81611532565b9050919050565b600060408201905061158a6000830185611030565b6115976020830184611030565b9392505050565b600081356115ab81610e7d565b80915050919050565b60008160001b9050919050565b600073ffffffffffffffffffffffffffffffffffffffff6115e1846115b4565b9350801983169250808416831791505092915050565b6000819050919050565b600061161c61161761161284610e4b565b6115f7565b610e4b565b9050919050565b600061162e82611601565b9050919050565b600061164082611623565b9050919050565b6000819050919050565b61165a82611635565b61166d61166682611647565b83546115c1565b8255505050565b600080fd5b600080fd5b600080fd5b600080833560016020038436030381126116a05761169f611674565b5b80840192508235915067ffffffffffffffff8211156116c2576116c1611679565b5b6020830192506001820236038313156116de576116dd61167e565b5b509250929050565b600082905092915050565b7f4e487b7100000000000000000000000000000000000000000000000000000000600052604160045260246000fd5b7f4e487b7100000000000000000000000000000000000000000000000000000000600052602260045260246000fd5b6000600282049050600182168061176757607f821691505b60208210810361177a57611779611720565b5b50919050565b60008190508160005260206000209050919050565b60006020601f8301049050919050565b600082821b905092915050565b6000600883026117e27fffffffffffffffffffffffffffffffffffffffffffffffffffffffffffffffff826117a5565b6117ec86836117a5565b95508019841693508086168417925050509392505050565b600061181f61181a61181584610ed6565b6115f7565b610ed6565b9050919050565b6000819050919050565b61183983611804565b61184d61184582611826565b8484546117b2565b825550505050565b600090565b611862611855565b61186d818484611830565b505050565b5b818110156118915761188660008261185a565b600181019050611873565b5050565b601f8211156118d6576118a781611780565b6118b084611795565b810160208510156118bf578190505b6118d36118cb85611795565b830182611872565b50505b505050565b600082821c905092915050565b60006118f9600019846008026118db565b1980831691505092915050565b600061191283836118e8565b9150826002028217905092915050565b61192c83836116e6565b67ffffffffffffffff811115611945576119446116f1565b5b61194f825461174f565b61195a828285611895565b6000601f8311600181146119895760008415611977578287013590505b6119818582611906565b8655506119e9565b601f19841661199786611780565b60005b828110156119bf5784890135825560018201915060208501945060208101905061199a565b868310156119dc57848901356119d8601f8916826118e8565b8355505b6001600288020188555050505b50505050505050565b6119fd838383611922565b505050565b60008135611a0f81610f0a565b80915050919050565b60007fffffffffffffffffffffffffffffffffffffffffffffffffffffffffffffffff611a44846115b4565b9350801983169250808416831791505092915050565b611a6382611804565b611a76611a6f82611826565b8354611a18565b8255505050565b60008083356001602003843603038112611a9a57611a99611674565b5b80840192508235915067ffffffffffffffff821115611abc57611abb611679565b5b602083019250600182023603831315611ad857611ad761167e565b5b509250929050565b600082905092915050565b60008190508160005260206000209050919050565b601f821115611b4157611b1281611aeb565b611b1b84611795565b81016020851015611b2a578190505b611b3e611b3685611795565b830182611872565b50505b505050565b611b508383611ae0565b67ffffffffffffffff811115611b6957611b686116f1565b5b611b73825461174f565b611b7e828285611b00565b6000601f831160018114611bad5760008415611b9b578287013590505b611ba58582611906565b865550611c0d565b601f198416611bbb86611aeb565b60005b82811015611be357848901358255600182019150602085019450602081019050611bbe565b86831015611c005784890135611bfc601f8916826118e8565b8355505b6001600288020188555050505b50505050505050565b611c21838383611b46565b505050565b600081016000830180611c388161159e565b9050611c448184611651565b5050506001810160208301611c598185611683565b611c648183866119f2565b50505050600281016040830180611c7a81611a02565b9050611c868184611a5a565b5050506003810160608301611c9b8185611a7d565b611ca6818386611c16565b505050506004810160808301611cbc8185611a7d565b611cc7818386611c16565b505050505050565b611cd98282611c26565b5050565b7f4e487b7100000000000000000000000000000000000000000000000000000000600052601160045260246000fd5b6000611d1782610ed6565b91507fffffffffffffffffffffffffffffffffffffffffffffffffffffffffffffffff8203611d4957611d48611cdd565b5b600182019050919050565b82818337600083830152505050565b6000611d6f83856110fc565b9350611d7c838584611d54565b611d8583611137565b840190509392505050565b60006040820190508181036000830152611dab818587611d63565b9050611dba6020830184610ee0565b94935050505056fea26469706673582212207217b66ded1b9c09d2b16ac6eeddcedf2de215cd5d3edf2dcca16dc8809c122d64736f6c63430008180033",
  "linkReferences": {},
  "deployedLinkReferences": {}
}