{
  "_format": "hh-sol-artifact-1",
  "contractName": "Land",
  "sourceName": "contracts/Land.sol",
  "abi": [
    {
      "inputs": [],
      "stateMutability": "nonpayable",
      "type": "constructor"
    },
    {
      "inputs": [
        {
          "internalType": "address",
          "name": "sender",
          "type": "address"
        },
        {
          "internalType": "uint256",
          "name": "tokenId",
          "type": "uint256"
        },
        {
          "internalType": "address",
          "name": "owner",
          "type": "address"
        }
      ],
      "name": "ERC721IncorrectOwner",
      "type": "error"
    },
    {
      "inputs": [
        {
          "internalType": "address",
          "name": "operator",
          "type": "address"
        },
        {
          "internalType": "uint256",
          "name": "tokenId",
          "type": "uint256"
        }
      ],
      "name": "ERC721InsufficientApproval",
      "type": "error"
    },
    {
      "inputs": [
        {
          "internalType": "address",
          "name": "approver",
          "type": "address"
        }
      ],
      "name": "ERC721InvalidApprover",
      "type": "error"
    },
    {
      "inputs": [
        {
          "internalType": "address",
          "name": "operator",
          "type": "address"
        }
      ],
      "name": "ERC721InvalidOperator",
      "type": "error"
    },
    {
      "inputs": [
        {
          "internalType": "address",
          "name": "owner",
          "type": "address"
        }
      ],
      "name": "ERC721InvalidOwner",
      "type": "error"
    },
    {
      "inputs": [
        {
          "internalType": "address",
          "name": "receiver",
          "type": "address"
        }
      ],
      "name": "ERC721InvalidReceiver",
      "type": "error"
    },
    {
      "inputs": [
        {
          "internalType": "address",
          "name": "sender",
          "type": "address"
        }
      ],
      "name": "ERC721InvalidSender",
      "type": "error"
    },
    {
      "inputs": [
        {
          "internalType": "uint256",
          "name": "tokenId",
          "type": "uint256"
        }
      ],
      "name": "ERC721NonexistentToken",
      "type": "error"
    },
    {
      "anonymous": false,
      "inputs": [
        {
          "indexed": true,
          "internalType": "address",
          "name": "owner",
          "type": "address"
        },
        {
          "indexed": true,
          "internalType": "address",
          "name": "approved",
          "type": "address"
        },
        {
          "indexed": true,
          "internalType": "uint256",
          "name": "tokenId",
          "type": "uint256"
        }
      ],
      "name": "Approval",
      "type": "event"
    },
    {
      "anonymous": false,
      "inputs": [
        {
          "indexed": true,
          "internalType": "address",
          "name": "owner",
          "type": "address"
        },
        {
          "indexed": true,
          "internalType": "address",
          "name": "operator",
          "type": "address"
        },
        {
          "indexed": false,
          "internalType": "bool",
          "name": "approved",
          "type": "bool"
        }
      ],
      "name": "ApprovalForAll",
      "type": "event"
    },
    {
      "anonymous": false,
      "inputs": [
        {
          "indexed": true,
          "internalType": "address",
          "name": "from",
          "type": "address"
        },
        {
          "indexed": true,
          "internalType": "address",
          "name": "to",
          "type": "address"
        },
        {
          "indexed": true,
          "internalType": "uint256",
          "name": "tokenId",
          "type": "uint256"
        }
      ],
      "name": "Transfer",
      "type": "event"
    },
    {
      "inputs": [
        {
          "internalType": "address",
          "name": "to",
          "type": "address"
        },
        {
          "internalType": "uint256",
          "name": "tokenId",
          "type": "uint256"
        }
      ],
      "name": "approve",
      "outputs": [],
      "stateMutability": "nonpayable",
      "type": "function"
    },
    {
      "inputs": [
        {
          "internalType": "address",
          "name": "owner",
          "type": "address"
        }
      ],
      "name": "balanceOf",
      "outputs": [
        {
          "internalType": "uint256",
          "name": "",
          "type": "uint256"
        }
      ],
      "stateMutability": "view",
      "type": "function"
    },
    {
      "inputs": [
        {
          "internalType": "uint256",
          "name": "tokenId",
          "type": "uint256"
        }
      ],
      "name": "getApproved",
      "outputs": [
        {
          "internalType": "address",
          "name": "",
          "type": "address"
        }
      ],
      "stateMutability": "view",
      "type": "function"
    },
    {
      "inputs": [
        {
          "internalType": "uint256",
          "name": "tokenId",
          "type": "uint256"
        }
      ],
      "name": "getMetadata",
      "outputs": [
        {
          "internalType": "string",
          "name": "",
          "type": "string"
        },
        {
          "internalType": "string",
          "name": "",
          "type": "string"
        },
        {
          "internalType": "uint256",
          "name": "",
          "type": "uint256"
        }
      ],
      "stateMutability": "view",
      "type": "function"
    },
    {
      "inputs": [
        {
          "internalType": "address",
          "name": "owner",
          "type": "address"
        },
        {
          "internalType": "address",
          "name": "operator",
          "type": "address"
        }
      ],
      "name": "isApprovedForAll",
      "outputs": [
        {
          "internalType": "bool",
          "name": "",
          "type": "bool"
        }
      ],
      "stateMutability": "view",
      "type": "function"
    },
    {
      "inputs": [
        {
          "internalType": "address",
          "name": "_to",
          "type": "address"
        },
        {
          "components": [
            {
              "internalType": "address",
              "name": "owner",
              "type": "address"
            },
            {
              "internalType": "string",
              "name": "location",
              "type": "string"
            },
            {
              "internalType": "uint256",
              "name": "price",
              "type": "uint256"
            },
            {
              "internalType": "string",
              "name": "contractIPFSHash",
              "type": "string"
            },
            {
              "internalType": "string",
              "name": "imagesIPFSHash",
              "type": "string"
            }
          ],
          "internalType": "struct Lib.LandListingProposal",
          "name": "_proposal",
          "type": "tuple"
        }
      ],
      "name": "mintLand",
      "outputs": [
        {
          "internalType": "uint256",
          "name": "",
          "type": "uint256"
        }
      ],
      "stateMutability": "nonpayable",
      "type": "function"
    },
    {
      "inputs": [],
      "name": "name",
      "outputs": [
        {
          "internalType": "string",
          "name": "",
          "type": "string"
        }
      ],
      "stateMutability": "view",
      "type": "function"
    },
    {
      "inputs": [
        {
          "internalType": "uint256",
          "name": "tokenId",
          "type": "uint256"
        }
      ],
      "name": "ownerOf",
      "outputs": [
        {
          "internalType": "address",
          "name": "",
          "type": "address"
        }
      ],
      "stateMutability": "view",
      "type": "function"
    },
    {
      "inputs": [
        {
          "internalType": "address",
          "name": "from",
          "type": "address"
        },
        {
          "internalType": "address",
          "name": "to",
          "type": "address"
        },
        {
          "internalType": "uint256",
          "name": "tokenId",
          "type": "uint256"
        }
      ],
      "name": "safeTransferFrom",
      "outputs": [],
      "stateMutability": "nonpayable",
      "type": "function"
    },
    {
      "inputs": [
        {
          "internalType": "address",
          "name": "from",
          "type": "address"
        },
        {
          "internalType": "address",
          "name": "to",
          "type": "address"
        },
        {
          "internalType": "uint256",
          "name": "tokenId",
          "type": "uint256"
        },
        {
          "internalType": "bytes",
          "name": "data",
          "type": "bytes"
        }
      ],
      "name": "safeTransferFrom",
      "outputs": [],
      "stateMutability": "nonpayable",
      "type": "function"
    },
    {
      "inputs": [
        {
          "internalType": "address",
          "name": "operator",
          "type": "address"
        },
        {
          "internalType": "bool",
          "name": "approved",
          "type": "bool"
        }
      ],
      "name": "setApprovalForAll",
      "outputs": [],
      "stateMutability": "nonpayable",
      "type": "function"
    },
    {
      "inputs": [
        {
          "internalType": "bytes4",
          "name": "interfaceId",
          "type": "bytes4"
        }
      ],
      "name": "supportsInterface",
      "outputs": [
        {
          "internalType": "bool",
          "name": "",
          "type": "bool"
        }
      ],
      "stateMutability": "view",
      "type": "function"
    },
    {
      "inputs": [],
      "name": "symbol",
      "outputs": [
        {
          "internalType": "string",
          "name": "",
          "type": "string"
        }
      ],
      "stateMutability": "view",
      "type": "function"
    },
    {
      "inputs": [
        {
          "internalType": "uint256",
          "name": "tokenId",
          "type": "uint256"
        }
      ],
      "name": "tokenURI",
      "outputs": [
        {
          "internalType": "string",
          "name": "",
          "type": "string"
        }
      ],
      "stateMutability": "view",
      "type": "function"
    },
    {
      "inputs": [
        {
          "internalType": "address",
          "name": "from",
          "type": "address"
        },
        {
          "internalType": "address",
          "name": "to",
          "type": "address"
        },
        {
          "internalType": "uint256",
          "name": "tokenId",
          "type": "uint256"
        }
      ],
      "name": "transferFrom",
      "outputs": [],
      "stateMutability": "nonpayable",
      "type": "function"
    }
  ],
  "bytecode": "0x60806040523480156200001157600080fd5b506040518060400160405280600481526020017f4c616e64000000000000000000000000000000000000000000000000000000008152506040518060400160405280600481526020017f4c414e440000000000000000000000000000000000000000000000000000000081525081600090816200008f91906200036b565b508060019081620000a191906200036b565b5050506040518060400160405280600781526020017f626173657572690000000000000000000000000000000000000000000000000081525060099081620000ea91906200036b565b5062000452565b600081519050919050565b7f4e487b7100000000000000000000000000000000000000000000000000000000600052604160045260246000fd5b7f4e487b7100000000000000000000000000000000000000000000000000000000600052602260045260246000fd5b600060028204905060018216806200017357607f821691505b6020821081036200018957620001886200012b565b5b50919050565b60008190508160005260206000209050919050565b60006020601f8301049050919050565b600082821b905092915050565b600060088302620001f37fffffffffffffffffffffffffffffffffffffffffffffffffffffffffffffffff82620001b4565b620001ff8683620001b4565b95508019841693508086168417925050509392505050565b6000819050919050565b6000819050919050565b60006200024c62000246620002408462000217565b62000221565b62000217565b9050919050565b6000819050919050565b62000268836200022b565b62000280620002778262000253565b848454620001c1565b825550505050565b600090565b6200029762000288565b620002a48184846200025d565b505050565b5b81811015620002cc57620002c06000826200028d565b600181019050620002aa565b5050565b601f8211156200031b57620002e5816200018f565b620002f084620001a4565b8101602085101562000300578190505b620003186200030f85620001a4565b830182620002a9565b50505b505050565b600082821c905092915050565b6000620003406000198460080262000320565b1980831691505092915050565b60006200035b83836200032d565b9150826002028217905092915050565b6200037682620000f1565b67ffffffffffffffff811115620003925762000391620000fc565b5b6200039e82546200015a565b620003ab828285620002d0565b600060209050601f831160018114620003e35760008415620003ce578287015190505b620003da85826200034d565b8655506200044a565b601f198416620003f3866200018f565b60005b828110156200041d57848901518255600182019150602085019450602081019050620003f6565b868310156200043d578489015162000439601f8916826200032d565b8355505b6001600288020188555050505b505050505050565b6124b080620004626000396000f3fe608060405234801561001057600080fd5b50600436106100f55760003560e01c80636352211e11610097578063a574cea411610066578063a574cea414610296578063b88d4fde146102c8578063c87b56dd146102e4578063e985e9c514610314576100f5565b80636352211e146101fc57806370a082311461022c57806395d89b411461025c578063a22cb4651461027a576100f5565b8063095ea7b3116100d3578063095ea7b3146101785780631144bab71461019457806323b872dd146101c457806342842e0e146101e0576100f5565b806301ffc9a7146100fa57806306fdde031461012a578063081812fc14610148575b600080fd5b610114600480360381019061010f919061187c565b610344565b60405161012191906118c4565b60405180910390f35b610132610426565b60405161013f919061196f565b60405180910390f35b610162600480360381019061015d91906119c7565b6104b8565b60405161016f9190611a35565b60405180910390f35b610192600480360381019061018d9190611a7c565b6104d4565b005b6101ae60048036038101906101a99190611cdb565b6104ea565b6040516101bb9190611d46565b60405180910390f35b6101de60048036038101906101d99190611d61565b610556565b005b6101fa60048036038101906101f59190611d61565b610658565b005b610216600480360381019061021191906119c7565b610678565b6040516102239190611a35565b60405180910390f35b61024660048036038101906102419190611db4565b61068a565b6040516102539190611d46565b60405180910390f35b610264610744565b604051610271919061196f565b60405180910390f35b610294600480360381019061028f9190611e0d565b6107d6565b005b6102b060048036038101906102ab91906119c7565b6107ec565b6040516102bf93929190611e4d565b60405180910390f35b6102e260048036038101906102dd9190611f33565b610ad7565b005b6102fe60048036038101906102f991906119c7565b610af4565b60405161030b919061196f565b60405180910390f35b61032e60048036038101906103299190611fb6565b610b99565b60405161033b91906118c4565b60405180910390f35b60007f80ac58cd000000000000000000000000000000000000000000000000000000007bffffffffffffffffffffffffffffffffffffffffffffffffffffffff1916827bffffffffffffffffffffffffffffffffffffffffffffffffffffffff1916148061040f57507f5b5e139f000000000000000000000000000000000000000000000000000000007bffffffffffffffffffffffffffffffffffffffffffffffffffffffff1916827bffffffffffffffffffffffffffffffffffffffffffffffffffffffff1916145b8061041f575061041e82610c2d565b5b9050919050565b60606000805461043590612025565b80601f016020809104026020016040519081016040528092919081815260200182805461046190612025565b80156104ae5780601f10610483576101008083540402835291602001916104ae565b820191906000526020600020905b81548152906001019060200180831161049157829003601f168201915b5050505050905090565b60006104c382610c97565b506104cd82610d1f565b9050919050565b6104e682826104e1610d5c565b610d64565b5050565b60006001600660008282546104ff9190612085565b92505081905550600060065490506105178482610d76565b610525818460600151610e6f565b61054c81846000015185602001518660400151876060015188606001518960800151610e94565b8091505092915050565b600073ffffffffffffffffffffffffffffffffffffffff168273ffffffffffffffffffffffffffffffffffffffff16036105c85760006040517f64a0ae920000000000000000000000000000000000000000000000000000000081526004016105bf9190611a35565b60405180910390fd5b60006105dc83836105d7610d5c565b610f49565b90508373ffffffffffffffffffffffffffffffffffffffff168173ffffffffffffffffffffffffffffffffffffffff1614610652578382826040517f64283d7b000000000000000000000000000000000000000000000000000000008152600401610649939291906120b9565b60405180910390fd5b50505050565b61067383838360405180602001604052806000815250610ad7565b505050565b600061068382610c97565b9050919050565b60008073ffffffffffffffffffffffffffffffffffffffff168273ffffffffffffffffffffffffffffffffffffffff16036106fd5760006040517f89c62b640000000000000000000000000000000000000000000000000000000081526004016106f49190611a35565b60405180910390fd5b600360008373ffffffffffffffffffffffffffffffffffffffff1673ffffffffffffffffffffffffffffffffffffffff168152602001908152602001600020549050919050565b60606001805461075390612025565b80601f016020809104026020016040519081016040528092919081815260200182805461077f90612025565b80156107cc5780601f106107a1576101008083540402835291602001916107cc565b820191906000526020600020905b8154815290600101906020018083116107af57829003601f168201915b5050505050905090565b6107e86107e1610d5c565b8383611163565b5050565b606080600080600860008681526020019081526020016000206040518060c00160405290816000820160009054906101000a900473ffffffffffffffffffffffffffffffffffffffff1673ffffffffffffffffffffffffffffffffffffffff1673ffffffffffffffffffffffffffffffffffffffff16815260200160018201805461087690612025565b80601f01602080910402602001604051908101604052809291908181526020018280546108a290612025565b80156108ef5780601f106108c4576101008083540402835291602001916108ef565b820191906000526020600020905b8154815290600101906020018083116108d257829003601f168201915b505050505081526020016002820154815260200160038201805461091290612025565b80601f016020809104026020016040519081016040528092919081815260200182805461093e90612025565b801561098b5780601f106109605761010080835404028352916020019161098b565b820191906000526020600020905b81548152906001019060200180831161096e57829003601f168201915b505050505081526020016004820180546109a490612025565b80601f01602080910402602001604051908101604052809291908181526020018280546109d090612025565b8015610a1d5780601f106109f257610100808354040283529160200191610a1d565b820191906000526020600020905b815481529060010190602001808311610a0057829003601f168201915b50505050508152602001600582018054610a3690612025565b80601f0160208091040260200160405190810160405280929190818152602001828054610a6290612025565b8015610aaf5780601f10610a8457610100808354040283529160200191610aaf565b820191906000526020600020905b815481529060010190602001808311610a9257829003601f168201915b5050505050815250509050806080015181602001518260400151935093509350509193909250565b610ae2848484610556565b610aee848484846112d2565b50505050565b6060600760008381526020019081526020016000208054610b1490612025565b80601f0160208091040260200160405190810160405280929190818152602001828054610b4090612025565b8015610b8d5780601f10610b6257610100808354040283529160200191610b8d565b820191906000526020600020905b815481529060010190602001808311610b7057829003601f168201915b50505050509050919050565b6000600560008473ffffffffffffffffffffffffffffffffffffffff1673ffffffffffffffffffffffffffffffffffffffff16815260200190815260200160002060008373ffffffffffffffffffffffffffffffffffffffff1673ffffffffffffffffffffffffffffffffffffffff16815260200190815260200160002060009054906101000a900460ff16905092915050565b60007f01ffc9a7000000000000000000000000000000000000000000000000000000007bffffffffffffffffffffffffffffffffffffffffffffffffffffffff1916827bffffffffffffffffffffffffffffffffffffffffffffffffffffffff1916149050919050565b600080610ca383611489565b9050600073ffffffffffffffffffffffffffffffffffffffff168173ffffffffffffffffffffffffffffffffffffffff1603610d1657826040517f7e273289000000000000000000000000000000000000000000000000000000008152600401610d0d9190611d46565b60405180910390fd5b80915050919050565b60006004600083815260200190815260200160002060009054906101000a900473ffffffffffffffffffffffffffffffffffffffff169050919050565b600033905090565b610d7183838360016114c6565b505050565b600073ffffffffffffffffffffffffffffffffffffffff168273ffffffffffffffffffffffffffffffffffffffff1603610de85760006040517f64a0ae92000000000000000000000000000000000000000000000000000000008152600401610ddf9190611a35565b60405180910390fd5b6000610df683836000610f49565b9050600073ffffffffffffffffffffffffffffffffffffffff168173ffffffffffffffffffffffffffffffffffffffff1614610e6a5760006040517f73c6ac6e000000000000000000000000000000000000000000000000000000008152600401610e619190611a35565b60405180910390fd5b505050565b80600760008481526020019081526020016000209081610e8f919061229c565b505050565b6000600860008981526020019081526020016000209050868160000160006101000a81548173ffffffffffffffffffffffffffffffffffffffff021916908373ffffffffffffffffffffffffffffffffffffffff16021790555085816001019081610eff919061229c565b5084816002018190555083816003019081610f1a919061229c565b5082816004019081610f2c919061229c565b5081816005019081610f3e919061229c565b505050505050505050565b600080610f5584611489565b9050600073ffffffffffffffffffffffffffffffffffffffff168373ffffffffffffffffffffffffffffffffffffffff1614610f9757610f9681848661168b565b5b600073ffffffffffffffffffffffffffffffffffffffff168173ffffffffffffffffffffffffffffffffffffffff161461102857610fd96000856000806114c6565b6001600360008373ffffffffffffffffffffffffffffffffffffffff1673ffffffffffffffffffffffffffffffffffffffff168152602001908152602001600020600082825403925050819055505b600073ffffffffffffffffffffffffffffffffffffffff168573ffffffffffffffffffffffffffffffffffffffff16146110ab576001600360008773ffffffffffffffffffffffffffffffffffffffff1673ffffffffffffffffffffffffffffffffffffffff168152602001908152602001600020600082825401925050819055505b846002600086815260200190815260200160002060006101000a81548173ffffffffffffffffffffffffffffffffffffffff021916908373ffffffffffffffffffffffffffffffffffffffff160217905550838573ffffffffffffffffffffffffffffffffffffffff168273ffffffffffffffffffffffffffffffffffffffff167fddf252ad1be2c89b69c2b068fc378daa952ba7f163c4a11628f55a4df523b3ef60405160405180910390a4809150509392505050565b600073ffffffffffffffffffffffffffffffffffffffff168273ffffffffffffffffffffffffffffffffffffffff16036111d457816040517f5b08ba180000000000000000000000000000000000000000000000000000000081526004016111cb9190611a35565b60405180910390fd5b80600560008573ffffffffffffffffffffffffffffffffffffffff1673ffffffffffffffffffffffffffffffffffffffff16815260200190815260200160002060008473ffffffffffffffffffffffffffffffffffffffff1673ffffffffffffffffffffffffffffffffffffffff16815260200190815260200160002060006101000a81548160ff0219169083151502179055508173ffffffffffffffffffffffffffffffffffffffff168373ffffffffffffffffffffffffffffffffffffffff167f17307eab39ab6107e8899845ad3d59bd9653f200f220920489ca2b5937696c31836040516112c591906118c4565b60405180910390a3505050565b60008373ffffffffffffffffffffffffffffffffffffffff163b1115611483578273ffffffffffffffffffffffffffffffffffffffff1663150b7a02611316610d5c565b8685856040518563ffffffff1660e01b815260040161133894939291906123c3565b6020604051808303816000875af192505050801561137457506040513d601f19601f820116820180604052508101906113719190612424565b60015b6113f8573d80600081146113a4576040519150601f19603f3d011682016040523d82523d6000602084013e6113a9565b606091505b5060008151036113f057836040517f64a0ae920000000000000000000000000000000000000000000000000000000081526004016113e79190611a35565b60405180910390fd5b805181602001fd5b63150b7a0260e01b7bffffffffffffffffffffffffffffffffffffffffffffffffffffffff1916817bffffffffffffffffffffffffffffffffffffffffffffffffffffffff19161461148157836040517f64a0ae920000000000000000000000000000000000000000000000000000000081526004016114789190611a35565b60405180910390fd5b505b50505050565b60006002600083815260200190815260200160002060009054906101000a900473ffffffffffffffffffffffffffffffffffffffff169050919050565b80806114ff5750600073ffffffffffffffffffffffffffffffffffffffff168273ffffffffffffffffffffffffffffffffffffffff1614155b1561163357600061150f84610c97565b9050600073ffffffffffffffffffffffffffffffffffffffff168373ffffffffffffffffffffffffffffffffffffffff161415801561157a57508273ffffffffffffffffffffffffffffffffffffffff168173ffffffffffffffffffffffffffffffffffffffff1614155b801561158d575061158b8184610b99565b155b156115cf57826040517fa9fbf51f0000000000000000000000000000000000000000000000000000000081526004016115c69190611a35565b60405180910390fd5b811561163157838573ffffffffffffffffffffffffffffffffffffffff168273ffffffffffffffffffffffffffffffffffffffff167f8c5be1e5ebec7d5bd14f71427d1e84f3dd0314c0f7b2291e5b200ac8c7c3b92560405160405180910390a45b505b836004600085815260200190815260200160002060006101000a81548173ffffffffffffffffffffffffffffffffffffffff021916908373ffffffffffffffffffffffffffffffffffffffff16021790555050505050565b61169683838361174f565b61174a57600073ffffffffffffffffffffffffffffffffffffffff168373ffffffffffffffffffffffffffffffffffffffff160361170b57806040517f7e2732890000000000000000000000000000000000000000000000000000000081526004016117029190611d46565b60405180910390fd5b81816040517f177e802f000000000000000000000000000000000000000000000000000000008152600401611741929190612451565b60405180910390fd5b505050565b60008073ffffffffffffffffffffffffffffffffffffffff168373ffffffffffffffffffffffffffffffffffffffff161415801561180757508273ffffffffffffffffffffffffffffffffffffffff168473ffffffffffffffffffffffffffffffffffffffff1614806117c857506117c78484610b99565b5b8061180657508273ffffffffffffffffffffffffffffffffffffffff166117ee83610d1f565b73ffffffffffffffffffffffffffffffffffffffff16145b5b90509392505050565b6000604051905090565b600080fd5b600080fd5b60007fffffffff0000000000000000000000000000000000000000000000000000000082169050919050565b61185981611824565b811461186457600080fd5b50565b60008135905061187681611850565b92915050565b6000602082840312156118925761189161181a565b5b60006118a084828501611867565b91505092915050565b60008115159050919050565b6118be816118a9565b82525050565b60006020820190506118d960008301846118b5565b92915050565b600081519050919050565b600082825260208201905092915050565b60005b838110156119195780820151818401526020810190506118fe565b60008484015250505050565b6000601f19601f8301169050919050565b6000611941826118df565b61194b81856118ea565b935061195b8185602086016118fb565b61196481611925565b840191505092915050565b600060208201905081810360008301526119898184611936565b905092915050565b6000819050919050565b6119a481611991565b81146119af57600080fd5b50565b6000813590506119c18161199b565b92915050565b6000602082840312156119dd576119dc61181a565b5b60006119eb848285016119b2565b91505092915050565b600073ffffffffffffffffffffffffffffffffffffffff82169050919050565b6000611a1f826119f4565b9050919050565b611a2f81611a14565b82525050565b6000602082019050611a4a6000830184611a26565b92915050565b611a5981611a14565b8114611a6457600080fd5b50565b600081359050611a7681611a50565b92915050565b60008060408385031215611a9357611a9261181a565b5b6000611aa185828601611a67565b9250506020611ab2858286016119b2565b9150509250929050565b600080fd5b7f4e487b7100000000000000000000000000000000000000000000000000000000600052604160045260246000fd5b611af982611925565b810181811067ffffffffffffffff82111715611b1857611b17611ac1565b5b80604052505050565b6000611b2b611810565b9050611b378282611af0565b919050565b600080fd5b600080fd5b600080fd5b600067ffffffffffffffff821115611b6657611b65611ac1565b5b611b6f82611925565b9050602081019050919050565b82818337600083830152505050565b6000611b9e611b9984611b4b565b611b21565b905082815260208101848484011115611bba57611bb9611b46565b5b611bc5848285611b7c565b509392505050565b600082601f830112611be257611be1611b41565b5b8135611bf2848260208601611b8b565b91505092915050565b600060a08284031215611c1157611c10611abc565b5b611c1b60a0611b21565b90506000611c2b84828501611a67565b600083015250602082013567ffffffffffffffff811115611c4f57611c4e611b3c565b5b611c5b84828501611bcd565b6020830152506040611c6f848285016119b2565b604083015250606082013567ffffffffffffffff811115611c9357611c92611b3c565b5b611c9f84828501611bcd565b606083015250608082013567ffffffffffffffff811115611cc357611cc2611b3c565b5b611ccf84828501611bcd565b60808301525092915050565b60008060408385031215611cf257611cf161181a565b5b6000611d0085828601611a67565b925050602083013567ffffffffffffffff811115611d2157611d2061181f565b5b611d2d85828601611bfb565b9150509250929050565b611d4081611991565b82525050565b6000602082019050611d5b6000830184611d37565b92915050565b600080600060608486031215611d7a57611d7961181a565b5b6000611d8886828701611a67565b9350506020611d9986828701611a67565b9250506040611daa868287016119b2565b9150509250925092565b600060208284031215611dca57611dc961181a565b5b6000611dd884828501611a67565b91505092915050565b611dea816118a9565b8114611df557600080fd5b50565b600081359050611e0781611de1565b92915050565b60008060408385031215611e2457611e2361181a565b5b6000611e3285828601611a67565b9250506020611e4385828601611df8565b9150509250929050565b60006060820190508181036000830152611e678186611936565b90508181036020830152611e7b8185611936565b9050611e8a6040830184611d37565b949350505050565b600067ffffffffffffffff821115611ead57611eac611ac1565b5b611eb682611925565b9050602081019050919050565b6000611ed6611ed184611e92565b611b21565b905082815260208101848484011115611ef257611ef1611b46565b5b611efd848285611b7c565b509392505050565b600082601f830112611f1a57611f19611b41565b5b8135611f2a848260208601611ec3565b91505092915050565b60008060008060808587031215611f4d57611f4c61181a565b5b6000611f5b87828801611a67565b9450506020611f6c87828801611a67565b9350506040611f7d878288016119b2565b925050606085013567ffffffffffffffff811115611f9e57611f9d61181f565b5b611faa87828801611f05565b91505092959194509250565b60008060408385031215611fcd57611fcc61181a565b5b6000611fdb85828601611a67565b9250506020611fec85828601611a67565b9150509250929050565b7f4e487b7100000000000000000000000000000000000000000000000000000000600052602260045260246000fd5b6000600282049050600182168061203d57607f821691505b6020821081036120505761204f611ff6565b5b50919050565b7f4e487b7100000000000000000000000000000000000000000000000000000000600052601160045260246000fd5b600061209082611991565b915061209b83611991565b92508282019050808211156120b3576120b2612056565b5b92915050565b60006060820190506120ce6000830186611a26565b6120db6020830185611d37565b6120e86040830184611a26565b949350505050565b60008190508160005260206000209050919050565b60006020601f8301049050919050565b600082821b905092915050565b6000600883026121527fffffffffffffffffffffffffffffffffffffffffffffffffffffffffffffffff82612115565b61215c8683612115565b95508019841693508086168417925050509392505050565b6000819050919050565b600061219961219461218f84611991565b612174565b611991565b9050919050565b6000819050919050565b6121b38361217e565b6121c76121bf826121a0565b848454612122565b825550505050565b600090565b6121dc6121cf565b6121e78184846121aa565b505050565b5b8181101561220b576122006000826121d4565b6001810190506121ed565b5050565b601f82111561225057612221816120f0565b61222a84612105565b81016020851015612239578190505b61224d61224585612105565b8301826121ec565b50505b505050565b600082821c905092915050565b600061227360001984600802612255565b1980831691505092915050565b600061228c8383612262565b9150826002028217905092915050565b6122a5826118df565b67ffffffffffffffff8111156122be576122bd611ac1565b5b6122c88254612025565b6122d382828561220f565b600060209050601f83116001811461230657600084156122f4578287015190505b6122fe8582612280565b865550612366565b601f198416612314866120f0565b60005b8281101561233c57848901518255600182019150602085019450602081019050612317565b868310156123595784890151612355601f891682612262565b8355505b6001600288020188555050505b505050505050565b600081519050919050565b600082825260208201905092915050565b60006123958261236e565b61239f8185612379565b93506123af8185602086016118fb565b6123b881611925565b840191505092915050565b60006080820190506123d86000830187611a26565b6123e56020830186611a26565b6123f26040830185611d37565b8181036060830152612404818461238a565b905095945050505050565b60008151905061241e81611850565b92915050565b60006020828403121561243a5761243961181a565b5b60006124488482850161240f565b91505092915050565b60006040820190506124666000830185611a26565b6124736020830184611d37565b939250505056fea2646970667358221220d6853e611a19c77a8be72fefa5dcc76ef592f52dcf9215ff2a273aedde4ebb7064736f6c63430008180033",
  "linkReferences": {},
  "deployedLinkReferences": {}
}