{
  "_format": "hh-sol-artifact-1",
  "contractName": "MainDAO",
  "sourceName": "contracts/Dao.sol",
  "abi": [
    {
      "inputs": [],
      "stateMutability": "nonpayable",
      "type": "constructor"
    },
    {
      "inputs": [
        {
          "internalType": "address",
          "name": "owner",
          "type": "address"
        }
      ],
      "name": "OwnableInvalidOwner",
      "type": "error"
    },
    {
      "inputs": [
        {
          "internalType": "address",
          "name": "account",
          "type": "address"
        }
      ],
      "name": "OwnableUnauthorizedAccount",
      "type": "error"
    },
    {
      "anonymous": false,
      "inputs": [
        {
          "indexed": true,
          "internalType": "address",
          "name": "previousOwner",
          "type": "address"
        },
        {
          "indexed": true,
          "internalType": "address",
          "name": "newOwner",
          "type": "address"
        }
      ],
      "name": "OwnershipTransferred",
      "type": "event"
    },
    {
      "anonymous": false,
      "inputs": [
        {
          "indexed": true,
          "internalType": "address",
          "name": "subDAOAddress",
          "type": "address"
        },
        {
          "indexed": false,
          "internalType": "string",
          "name": "name",
          "type": "string"
        }
      ],
      "name": "SubDAOCreated",
      "type": "event"
    },
    {
      "anonymous": false,
      "inputs": [
        {
          "indexed": true,
          "internalType": "address",
          "name": "proposer",
          "type": "address"
        },
        {
          "indexed": false,
          "internalType": "string",
          "name": "location",
          "type": "string"
        },
        {
          "indexed": false,
          "internalType": "bytes",
          "name": "proofOfLocation",
          "type": "bytes"
        },
        {
          "indexed": false,
          "internalType": "bytes",
          "name": "proofOfIndentity",
          "type": "bytes"
        }
      ],
      "name": "daoProposalCreated",
      "type": "event"
    },
    {
      "inputs": [],
      "name": "LandMarket",
      "outputs": [
        {
          "internalType": "contract LandMarketplace",
          "name": "",
          "type": "address"
        }
      ],
      "stateMutability": "view",
      "type": "function"
    },
    {
      "inputs": [
        {
          "internalType": "address",
          "name": "_proposer",
          "type": "address"
        }
      ],
      "name": "acceptDaoProposal",
      "outputs": [],
      "stateMutability": "nonpayable",
      "type": "function"
    },
    {
      "inputs": [
        {
          "internalType": "string",
          "name": "_location",
          "type": "string"
        },
        {
          "internalType": "bytes",
          "name": "_proofOfLocation",
          "type": "bytes"
        },
        {
          "internalType": "bytes",
          "name": "proofOfIndentity",
          "type": "bytes"
        }
      ],
      "name": "createDaoProposal",
      "outputs": [],
      "stateMutability": "nonpayable",
      "type": "function"
    },
    {
      "inputs": [
        {
          "internalType": "string",
          "name": "_name",
          "type": "string"
        },
        {
          "internalType": "string",
          "name": "_location",
          "type": "string"
        }
      ],
      "name": "createSubDAO",
      "outputs": [],
      "stateMutability": "nonpayable",
      "type": "function"
    },
    {
      "inputs": [
        {
          "internalType": "address",
          "name": "",
          "type": "address"
        }
      ],
      "name": "daoProposals",
      "outputs": [
        {
          "internalType": "address",
          "name": "proposer",
          "type": "address"
        },
        {
          "internalType": "string",
          "name": "location",
          "type": "string"
        },
        {
          "internalType": "bytes",
          "name": "proofOfLocation",
          "type": "bytes"
        },
        {
          "internalType": "bytes",
          "name": "proofOfIndentity",
          "type": "bytes"
        },
        {
          "internalType": "bool",
          "name": "accepted",
          "type": "bool"
        }
      ],
      "stateMutability": "view",
      "type": "function"
    },
    {
      "inputs": [],
      "name": "oracleAddress",
      "outputs": [
        {
          "internalType": "address",
          "name": "",
          "type": "address"
        }
      ],
      "stateMutability": "view",
      "type": "function"
    },
    {
      "inputs": [],
      "name": "oracleContract",
      "outputs": [
        {
          "internalType": "contract Oracle",
          "name": "",
          "type": "address"
        }
      ],
      "stateMutability": "view",
      "type": "function"
    },
    {
      "inputs": [],
      "name": "owner",
      "outputs": [
        {
          "internalType": "address",
          "name": "",
          "type": "address"
        }
      ],
      "stateMutability": "view",
      "type": "function"
    },
    {
      "inputs": [],
      "name": "renounceOwnership",
      "outputs": [],
      "stateMutability": "nonpayable",
      "type": "function"
    },
    {
      "inputs": [
        {
          "internalType": "address",
          "name": "_oracleAddress",
          "type": "address"
        }
      ],
      "name": "setOracleAddress",
      "outputs": [],
      "stateMutability": "nonpayable",
      "type": "function"
    },
    {
      "inputs": [
        {
          "internalType": "address",
          "name": "",
          "type": "address"
        }
      ],
      "name": "subDAOs",
      "outputs": [
        {
          "internalType": "address",
          "name": "subDAOAddress",
          "type": "address"
        },
        {
          "internalType": "string",
          "name": "name",
          "type": "string"
        },
        {
          "internalType": "string",
          "name": "location",
          "type": "string"
        }
      ],
      "stateMutability": "view",
      "type": "function"
    },
    {
      "inputs": [
        {
          "internalType": "address",
          "name": "newOwner",
          "type": "address"
        }
      ],
      "name": "transferOwnership",
      "outputs": [],
      "stateMutability": "nonpayable",
      "type": "function"
    }
  ],
  "bytecode": "0x60806040526000600460006101000a81548173ffffffffffffffffffffffffffffffffffffffff021916908373ffffffffffffffffffffffffffffffffffffffff1602179055503480156200005357600080fd5b5033600073ffffffffffffffffffffffffffffffffffffffff168173ffffffffffffffffffffffffffffffffffffffff1603620000ca5760006040517f1e4fbdf7000000000000000000000000000000000000000000000000000000008152600401620000c19190620001eb565b60405180910390fd5b620000db81620000e260201b60201c565b5062000208565b60008060009054906101000a900473ffffffffffffffffffffffffffffffffffffffff169050816000806101000a81548173ffffffffffffffffffffffffffffffffffffffff021916908373ffffffffffffffffffffffffffffffffffffffff1602179055508173ffffffffffffffffffffffffffffffffffffffff168173ffffffffffffffffffffffffffffffffffffffff167f8be0079c531659141344cd1fd0a4f28419497f9722a3daafe3b4186f6b6457e060405160405180910390a35050565b600073ffffffffffffffffffffffffffffffffffffffff82169050919050565b6000620001d382620001a6565b9050919050565b620001e581620001c6565b82525050565b6000602082019050620002026000830184620001da565b92915050565b6139a980620002186000396000f3fe60806040523480156200001157600080fd5b5060043610620000c45760003560e01c806389a1bd83116200007b57806389a1bd8314620001a95780638da5cb5b14620001c9578063a89ae4ba14620001eb578063bece7532146200020d578063c6b7794e146200022f578063f2fde38b146200024f57620000c4565b80634834606814620000c95780634c69c00f14620001015780635b9677bf1462000121578063715018a61462000143578063752338a2146200014f5780638861e1271462000189575b600080fd5b620000e76004803603810190620000e1919062001018565b6200026f565b604051620000f893929190620010f5565b60405180910390f35b6200011f600480360381019062000119919062001018565b620003d9565b005b6200012b62000468565b6040516200013a9190620011ab565b60405180910390f35b6200014d6200048e565b005b6200016d600480360381019062000167919062001018565b620004a6565b6040516200018095949392919062001242565b60405180910390f35b620001a76004803603810190620001a1919062001018565b620006b9565b005b620001c76004803603810190620001c19190620014b9565b62000a1b565b005b620001d362000ba5565b604051620001e2919062001572565b60405180910390f35b620001f562000bce565b60405162000204919062001572565b60405180910390f35b6200021762000bf4565b604051620002269190620015b4565b60405180910390f35b6200024d6004803603810190620002479190620015d1565b62000c1a565b005b6200026d600480360381019062000267919062001018565b62000da8565b005b60036020528060005260406000206000915090508060000160009054906101000a900473ffffffffffffffffffffffffffffffffffffffff1690806001018054620002ba9062001685565b80601f0160208091040260200160405190810160405280929190818152602001828054620002e89062001685565b8015620003395780601f106200030d5761010080835404028352916020019162000339565b820191906000526020600020905b8154815290600101906020018083116200031b57829003601f168201915b505050505090806002018054620003509062001685565b80601f01602080910402602001604051908101604052809291908181526020018280546200037e9062001685565b8015620003cf5780601f10620003a357610100808354040283529160200191620003cf565b820191906000526020600020905b815481529060010190602001808311620003b157829003601f168201915b5050505050905083565b620003e362000e35565b80600460006101000a81548173ffffffffffffffffffffffffffffffffffffffff021916908373ffffffffffffffffffffffffffffffffffffffff16021790555080600560006101000a81548173ffffffffffffffffffffffffffffffffffffffff021916908373ffffffffffffffffffffffffffffffffffffffff16021790555050565b600160009054906101000a900473ffffffffffffffffffffffffffffffffffffffff1681565b6200049862000e35565b620004a4600062000ec5565b565b60026020528060005260406000206000915090508060000160009054906101000a900473ffffffffffffffffffffffffffffffffffffffff1690806001018054620004f19062001685565b80601f01602080910402602001604051908101604052809291908181526020018280546200051f9062001685565b8015620005705780601f10620005445761010080835404028352916020019162000570565b820191906000526020600020905b8154815290600101906020018083116200055257829003601f168201915b505050505090806002018054620005879062001685565b80601f0160208091040260200160405190810160405280929190818152602001828054620005b59062001685565b8015620006065780601f10620005da5761010080835404028352916020019162000606565b820191906000526020600020905b815481529060010190602001808311620005e857829003601f168201915b5050505050908060030180546200061d9062001685565b80601f01602080910402602001604051908101604052809291908181526020018280546200064b9062001685565b80156200069c5780601f1062000670576101008083540402835291602001916200069c565b820191906000526020600020905b8154815290600101906020018083116200067e57829003601f168201915b5050505050908060040160009054906101000a900460ff16905085565b6001600260008373ffffffffffffffffffffffffffffffffffffffff1673ffffffffffffffffffffffffffffffffffffffff16815260200190815260200160002060040160006101000a81548160ff0219169083151502179055506000600260008373ffffffffffffffffffffffffffffffffffffffff1673ffffffffffffffffffffffffffffffffffffffff1681526020019081526020016000206040518060a00160405290816000820160009054906101000a900473ffffffffffffffffffffffffffffffffffffffff1673ffffffffffffffffffffffffffffffffffffffff1673ffffffffffffffffffffffffffffffffffffffff168152602001600182018054620007c89062001685565b80601f0160208091040260200160405190810160405280929190818152602001828054620007f69062001685565b8015620008475780601f106200081b5761010080835404028352916020019162000847565b820191906000526020600020905b8154815290600101906020018083116200082957829003601f168201915b50505050508152602001600282018054620008629062001685565b80601f0160208091040260200160405190810160405280929190818152602001828054620008909062001685565b8015620008e15780601f10620008b557610100808354040283529160200191620008e1565b820191906000526020600020905b815481529060010190602001808311620008c357829003601f168201915b50505050508152602001600382018054620008fc9062001685565b80601f01602080910402602001604051908101604052809291908181526020018280546200092a9062001685565b80156200097b5780601f106200094f576101008083540402835291602001916200097b565b820191906000526020600020905b8154815290600101906020018083116200095d57829003601f168201915b505050505081526020016004820160009054906101000a900460ff161515151581525050905062000a176040518060400160405280601081526020017f64616f50726f706f73616c2e6e616d65000000000000000000000000000000008152506040518060400160405280601481526020017f64616f50726f706f73616c2e6c6f636174696f6e00000000000000000000000081525062000c1a565b5050565b6040518060a001604052803373ffffffffffffffffffffffffffffffffffffffff16815260200184815260200183815260200182815260200160001515815250600260003373ffffffffffffffffffffffffffffffffffffffff1673ffffffffffffffffffffffffffffffffffffffff16815260200190815260200160002060008201518160000160006101000a81548173ffffffffffffffffffffffffffffffffffffffff021916908373ffffffffffffffffffffffffffffffffffffffff160217905550602082015181600101908162000af891906200188c565b50604082015181600201908162000b109190620019d8565b50606082015181600301908162000b289190620019d8565b5060808201518160040160006101000a81548160ff0219169083151502179055509050503373ffffffffffffffffffffffffffffffffffffffff167f2d37fea9dd9518548c4ac9bf1c83deb051ff0357e4f49b176a95abd2542515f984848460405162000b989392919062001abf565b60405180910390a2505050565b60008060009054906101000a900473ffffffffffffffffffffffffffffffffffffffff16905090565b600460009054906101000a900473ffffffffffffffffffffffffffffffffffffffff1681565b600560009054906101000a900473ffffffffffffffffffffffffffffffffffffffff1681565b62000c2462000e35565b6000828260405162000c369062000f91565b62000c4392919062001b11565b604051809103906000f08015801562000c60573d6000803e3d6000fd5b509050600081905060405180606001604052808273ffffffffffffffffffffffffffffffffffffffff16815260200185815260200184815250600360008373ffffffffffffffffffffffffffffffffffffffff1673ffffffffffffffffffffffffffffffffffffffff16815260200190815260200160002060008201518160000160006101000a81548173ffffffffffffffffffffffffffffffffffffffff021916908373ffffffffffffffffffffffffffffffffffffffff160217905550602082015181600101908162000d3691906200188c565b50604082015181600201908162000d4e91906200188c565b509050508073ffffffffffffffffffffffffffffffffffffffff167fc446f4a8a1045cdcf0e939680094e0a1106f260a68102b43df033ce2d763ccc38560405162000d9a919062001b4c565b60405180910390a250505050565b62000db262000e35565b600073ffffffffffffffffffffffffffffffffffffffff168173ffffffffffffffffffffffffffffffffffffffff160362000e275760006040517f1e4fbdf700000000000000000000000000000000000000000000000000000000815260040162000e1e919062001572565b60405180910390fd5b62000e328162000ec5565b50565b62000e3f62000f89565b73ffffffffffffffffffffffffffffffffffffffff1662000e5f62000ba5565b73ffffffffffffffffffffffffffffffffffffffff161462000ec35762000e8562000f89565b6040517f118cdaa700000000000000000000000000000000000000000000000000000000815260040162000eba919062001572565b60405180910390fd5b565b60008060009054906101000a900473ffffffffffffffffffffffffffffffffffffffff169050816000806101000a81548173ffffffffffffffffffffffffffffffffffffffff021916908373ffffffffffffffffffffffffffffffffffffffff1602179055508173ffffffffffffffffffffffffffffffffffffffff168173ffffffffffffffffffffffffffffffffffffffff167f8be0079c531659141344cd1fd0a4f28419497f9722a3daafe3b4186f6b6457e060405160405180910390a35050565b600033905090565b611e038062001b7183390190565b6000604051905090565b600080fd5b600080fd5b600073ffffffffffffffffffffffffffffffffffffffff82169050919050565b600062000fe08262000fb3565b9050919050565b62000ff28162000fd3565b811462000ffe57600080fd5b50565b600081359050620010128162000fe7565b92915050565b60006020828403121562001031576200103062000fa9565b5b6000620010418482850162001001565b91505092915050565b620010558162000fd3565b82525050565b600081519050919050565b600082825260208201905092915050565b60005b83811015620010975780820151818401526020810190506200107a565b60008484015250505050565b6000601f19601f8301169050919050565b6000620010c1826200105b565b620010cd818562001066565b9350620010df81856020860162001077565b620010ea81620010a3565b840191505092915050565b60006060820190506200110c60008301866200104a565b8181036020830152620011208185620010b4565b90508181036040830152620011368184620010b4565b9050949350505050565b6000819050919050565b60006200116b620011656200115f8462000fb3565b62001140565b62000fb3565b9050919050565b60006200117f826200114a565b9050919050565b6000620011938262001172565b9050919050565b620011a58162001186565b82525050565b6000602082019050620011c260008301846200119a565b92915050565b600081519050919050565b600082825260208201905092915050565b6000620011f182620011c8565b620011fd8185620011d3565b93506200120f81856020860162001077565b6200121a81620010a3565b840191505092915050565b60008115159050919050565b6200123c8162001225565b82525050565b600060a0820190506200125960008301886200104a565b81810360208301526200126d8187620010b4565b90508181036040830152620012838186620011e4565b90508181036060830152620012998185620011e4565b9050620012aa608083018462001231565b9695505050505050565b600080fd5b600080fd5b7f4e487b7100000000000000000000000000000000000000000000000000000000600052604160045260246000fd5b620012f882620010a3565b810181811067ffffffffffffffff821117156200131a5762001319620012be565b5b80604052505050565b60006200132f62000f9f565b90506200133d8282620012ed565b919050565b600067ffffffffffffffff82111562001360576200135f620012be565b5b6200136b82620010a3565b9050602081019050919050565b82818337600083830152505050565b60006200139e620013988462001342565b62001323565b905082815260208101848484011115620013bd57620013bc620012b9565b5b620013ca84828562001378565b509392505050565b600082601f830112620013ea57620013e9620012b4565b5b8135620013fc84826020860162001387565b91505092915050565b600067ffffffffffffffff821115620014235762001422620012be565b5b6200142e82620010a3565b9050602081019050919050565b6000620014526200144c8462001405565b62001323565b905082815260208101848484011115620014715762001470620012b9565b5b6200147e84828562001378565b509392505050565b600082601f8301126200149e576200149d620012b4565b5b8135620014b08482602086016200143b565b91505092915050565b600080600060608486031215620014d557620014d462000fa9565b5b600084013567ffffffffffffffff811115620014f657620014f562000fae565b5b6200150486828701620013d2565b935050602084013567ffffffffffffffff81111562001528576200152762000fae565b5b620015368682870162001486565b925050604084013567ffffffffffffffff8111156200155a576200155962000fae565b5b620015688682870162001486565b9150509250925092565b60006020820190506200158960008301846200104a565b92915050565b60006200159c8262001172565b9050919050565b620015ae816200158f565b82525050565b6000602082019050620015cb6000830184620015a3565b92915050565b60008060408385031215620015eb57620015ea62000fa9565b5b600083013567ffffffffffffffff8111156200160c576200160b62000fae565b5b6200161a85828601620013d2565b925050602083013567ffffffffffffffff8111156200163e576200163d62000fae565b5b6200164c85828601620013d2565b9150509250929050565b7f4e487b7100000000000000000000000000000000000000000000000000000000600052602260045260246000fd5b600060028204905060018216806200169e57607f821691505b602082108103620016b457620016b362001656565b5b50919050565b60008190508160005260206000209050919050565b60006020601f8301049050919050565b600082821b905092915050565b6000600883026200171e7fffffffffffffffffffffffffffffffffffffffffffffffffffffffffffffffff82620016df565b6200172a8683620016df565b95508019841693508086168417925050509392505050565b6000819050919050565b60006200176d62001767620017618462001742565b62001140565b62001742565b9050919050565b6000819050919050565b62001789836200174c565b620017a1620017988262001774565b848454620016ec565b825550505050565b600090565b620017b8620017a9565b620017c58184846200177e565b505050565b5b81811015620017ed57620017e1600082620017ae565b600181019050620017cb565b5050565b601f8211156200183c576200180681620016ba565b6200181184620016cf565b8101602085101562001821578190505b620018396200183085620016cf565b830182620017ca565b50505b505050565b600082821c905092915050565b6000620018616000198460080262001841565b1980831691505092915050565b60006200187c83836200184e565b9150826002028217905092915050565b62001897826200105b565b67ffffffffffffffff811115620018b357620018b2620012be565b5b620018bf825462001685565b620018cc828285620017f1565b600060209050601f831160018114620019045760008415620018ef578287015190505b620018fb85826200186e565b8655506200196b565b601f1984166200191486620016ba565b60005b828110156200193e5784890151825560018201915060208501945060208101905062001917565b868310156200195e57848901516200195a601f8916826200184e565b8355505b6001600288020188555050505b505050505050565b60008190508160005260206000209050919050565b601f821115620019d3576200199d8162001973565b620019a884620016cf565b81016020851015620019b8578190505b620019d0620019c785620016cf565b830182620017ca565b50505b505050565b620019e382620011c8565b67ffffffffffffffff811115620019ff57620019fe620012be565b5b62001a0b825462001685565b62001a1882828562001988565b600060209050601f83116001811462001a50576000841562001a3b578287015190505b62001a4785826200186e565b86555062001ab7565b601f19841662001a608662001973565b60005b8281101562001a8a5784890151825560018201915060208501945060208101905062001a63565b8683101562001aaa578489015162001aa6601f8916826200184e565b8355505b6001600288020188555050505b505050505050565b6000606082019050818103600083015262001adb8186620010b4565b9050818103602083015262001af18185620011e4565b9050818103604083015262001b078184620011e4565b9050949350505050565b6000604082019050818103600083015262001b2d8185620010b4565b9050818103602083015262001b438184620010b4565b90509392505050565b6000602082019050818103600083015262001b688184620010b4565b90509291505056fe60806040526000600360006101000a81548173ffffffffffffffffffffffffffffffffffffffff021916908373ffffffffffffffffffffffffffffffffffffffff1602179055503480156200005357600080fd5b5060405162001e0338038062001e03833981810160405281019062000079919062000238565b81600090816200008a919062000508565b5080600190816200009c919062000508565b505050620005ef565b6000604051905090565b600080fd5b600080fd5b600080fd5b600080fd5b6000601f19601f8301169050919050565b7f4e487b7100000000000000000000000000000000000000000000000000000000600052604160045260246000fd5b6200010e82620000c3565b810181811067ffffffffffffffff8211171562000130576200012f620000d4565b5b80604052505050565b600062000145620000a5565b905062000153828262000103565b919050565b600067ffffffffffffffff821115620001765762000175620000d4565b5b6200018182620000c3565b9050602081019050919050565b60005b83811015620001ae57808201518184015260208101905062000191565b60008484015250505050565b6000620001d1620001cb8462000158565b62000139565b905082815260208101848484011115620001f057620001ef620000be565b5b620001fd8482856200018e565b509392505050565b600082601f8301126200021d576200021c620000b9565b5b81516200022f848260208601620001ba565b91505092915050565b60008060408385031215620002525762000251620000af565b5b600083015167ffffffffffffffff811115620002735762000272620000b4565b5b620002818582860162000205565b925050602083015167ffffffffffffffff811115620002a557620002a4620000b4565b5b620002b38582860162000205565b9150509250929050565b600081519050919050565b7f4e487b7100000000000000000000000000000000000000000000000000000000600052602260045260246000fd5b600060028204905060018216806200031057607f821691505b602082108103620003265762000325620002c8565b5b50919050565b60008190508160005260206000209050919050565b60006020601f8301049050919050565b600082821b905092915050565b600060088302620003907fffffffffffffffffffffffffffffffffffffffffffffffffffffffffffffffff8262000351565b6200039c868362000351565b95508019841693508086168417925050509392505050565b6000819050919050565b6000819050919050565b6000620003e9620003e3620003dd84620003b4565b620003be565b620003b4565b9050919050565b6000819050919050565b6200040583620003c8565b6200041d6200041482620003f0565b8484546200035e565b825550505050565b600090565b6200043462000425565b62000441818484620003fa565b505050565b5b8181101562000469576200045d6000826200042a565b60018101905062000447565b5050565b601f821115620004b85762000482816200032c565b6200048d8462000341565b810160208510156200049d578190505b620004b5620004ac8562000341565b83018262000446565b50505b505050565b600082821c905092915050565b6000620004dd60001984600802620004bd565b1980831691505092915050565b6000620004f88383620004ca565b9150826002028217905092915050565b6200051382620002bd565b67ffffffffffffffff8111156200052f576200052e620000d4565b5b6200053b8254620002f7565b620005488282856200046d565b600060209050601f8311600181146200058057600084156200056b578287015190505b620005778582620004ea565b865550620005e7565b601f19841662000590866200032c565b60005b82811015620005ba5784890151825560018201915060208501945060208101905062000593565b86831015620005da5784890151620005d6601f891682620004ca565b8355505b6001600288020188555050505b505050505050565b61180480620005ff6000396000f3fe608060405234801561001057600080fd5b50600436106100ea5760003560e01c806360c5cc3a1161008c578063a89ae4ba11610066578063a89ae4ba1461023b578063bece753214610259578063e94e919c14610277578063fd843f0814610293576100ea565b806360c5cc3a146101bb57806374c260cf146101d757806392e8cca214610207576100ea565b80633f51f066116100c85780633f51f066146101475780634c69c00f14610163578063516f279e1461017f5780635b9677bf1461019d576100ea565b806306fdde03146100ef5780632dfca4451461010d5780633789b0301461012b575b600080fd5b6100f76102af565b6040516101049190610c0b565b60405180910390f35b61011561033d565b6040516101229190610c46565b60405180910390f35b61014560048036038101906101409190610cc9565b610343565b005b610161600480360381019061015c9190610d22565b610387565b005b61017d60048036038101906101789190610cc9565b6103f3565b005b610187610478565b6040516101949190610c0b565b60405180910390f35b6101a5610506565b6040516101b29190610dae565b60405180910390f35b6101d560048036038101906101d09190610d22565b61052c565b005b6101f160048036038101906101ec9190610d22565b610637565b6040516101fe9190610e40565b60405180910390f35b610221600480360381019061021c9190610d22565b610657565b604051610232959493929190610e6a565b60405180910390f35b610243610845565b6040516102509190610ed2565b60405180910390f35b61026161086b565b60405161026e9190610f0e565b60405180910390f35b610291600480360381019061028c9190610f8e565b610891565b005b6102ad60048036038101906102a891906110ad565b610b75565b005b600080546102bc9061115d565b80601f01602080910402602001604051908101604052809291908181526020018280546102e89061115d565b80156103355780601f1061030a57610100808354040283529160200191610335565b820191906000526020600020905b81548152906001019060200180831161031857829003601f168201915b505050505081565b60055481565b80600260006101000a81548173ffffffffffffffffffffffffffffffffffffffff021916908373ffffffffffffffffffffffffffffffffffffffff16021790555050565b60016007600083815260200190815260200160002060006101000a81548160ff021916908360028111156103be576103bd610dc9565b5b0217905550807f61abca1f903d624f2f61b1159479f0ebf4fc1be8dba30bdfbb3b7f58494586cb60405160405180910390a250565b80600360006101000a81548173ffffffffffffffffffffffffffffffffffffffff021916908373ffffffffffffffffffffffffffffffffffffffff16021790555080600460006101000a81548173ffffffffffffffffffffffffffffffffffffffff021916908373ffffffffffffffffffffffffffffffffffffffff16021790555050565b600180546104859061115d565b80601f01602080910402602001604051908101604052809291908181526020018280546104b19061115d565b80156104fe5780601f106104d3576101008083540402835291602001916104fe565b820191906000526020600020905b8154815290600101906020018083116104e157829003601f168201915b505050505081565b600260009054906101000a900473ffffffffffffffffffffffffffffffffffffffff1681565b60016007600083815260200190815260200160002060006101000a81548160ff0219169083600281111561056357610562610dc9565b5b0217905550600260009054906101000a900473ffffffffffffffffffffffffffffffffffffffff1673ffffffffffffffffffffffffffffffffffffffff166313c3d0a4600660008481526020019081526020016000206040518263ffffffff1660e01b81526004016105d5919061135a565b600060405180830381600087803b1580156105ef57600080fd5b505af1158015610603573d6000803e3d6000fd5b50505050807f61abca1f903d624f2f61b1159479f0ebf4fc1be8dba30bdfbb3b7f58494586cb60405160405180910390a250565b60076020528060005260406000206000915054906101000a900460ff1681565b60066020528060005260406000206000915090508060000160009054906101000a900473ffffffffffffffffffffffffffffffffffffffff16908060010180546106a09061115d565b80601f01602080910402602001604051908101604052809291908181526020018280546106cc9061115d565b80156107195780601f106106ee57610100808354040283529160200191610719565b820191906000526020600020905b8154815290600101906020018083116106fc57829003601f168201915b5050505050908060020154908060030180546107349061115d565b80601f01602080910402602001604051908101604052809291908181526020018280546107609061115d565b80156107ad5780601f10610782576101008083540402835291602001916107ad565b820191906000526020600020905b81548152906001019060200180831161079057829003601f168201915b5050505050908060040180546107c29061115d565b80601f01602080910402602001604051908101604052809291908181526020018280546107ee9061115d565b801561083b5780601f106108105761010080835404028352916020019161083b565b820191906000526020600020905b81548152906001019060200180831161081e57829003601f168201915b5050505050905085565b600360009054906101000a900473ffffffffffffffffffffffffffffffffffffffff1681565b600460009054906101000a900473ffffffffffffffffffffffffffffffffffffffff1681565b60006040518060a001604052803373ffffffffffffffffffffffffffffffffffffffff16815260200189898080601f016020809104026020016040519081016040528093929190818152602001838380828437600081840152601f19601f82011690508083019250505050505050815260200187815260200186868080601f016020809104026020016040519081016040528093929190818152602001838380828437600081840152601f19601f82011690508083019250505050505050815260200184848080601f016020809104026020016040519081016040528093929190818152602001838380828437600081840152601f19601f8201169050808301925050505050505081525090508060066000600554815260200190815260200160002060008201518160000160006101000a81548173ffffffffffffffffffffffffffffffffffffffff021916908373ffffffffffffffffffffffffffffffffffffffff1602179055506020820151816001019081610a109190611538565b50604082015181600201556060820151816003019081610a309190611538565b506080820151816004019081610a469190611538565b50905050600060076000600554815260200190815260200160002060006101000a81548160ff02191690836002811115610a8357610a82610dc9565b5b021790555060056000815480929190610a9b90611639565b91905055506005547f85c50eb91d140947455bded9b0ca7f48fc20422c6a071be8efaf8146615777d2898989604051610ad6939291906116bd565b60405180910390a2600460009054906101000a900473ffffffffffffffffffffffffffffffffffffffff1673ffffffffffffffffffffffffffffffffffffffff1663199758ee826040518263ffffffff1660e01b8152600401610b3991906117ac565b600060405180830381600087803b158015610b5357600080fd5b505af1158015610b67573d6000803e3d6000fd5b505050505050505050505050565b50505050565b600081519050919050565b600082825260208201905092915050565b60005b83811015610bb5578082015181840152602081019050610b9a565b60008484015250505050565b6000601f19601f8301169050919050565b6000610bdd82610b7b565b610be78185610b86565b9350610bf7818560208601610b97565b610c0081610bc1565b840191505092915050565b60006020820190508181036000830152610c258184610bd2565b905092915050565b6000819050919050565b610c4081610c2d565b82525050565b6000602082019050610c5b6000830184610c37565b92915050565b600080fd5b600080fd5b600073ffffffffffffffffffffffffffffffffffffffff82169050919050565b6000610c9682610c6b565b9050919050565b610ca681610c8b565b8114610cb157600080fd5b50565b600081359050610cc381610c9d565b92915050565b600060208284031215610cdf57610cde610c61565b5b6000610ced84828501610cb4565b91505092915050565b610cff81610c2d565b8114610d0a57600080fd5b50565b600081359050610d1c81610cf6565b92915050565b600060208284031215610d3857610d37610c61565b5b6000610d4684828501610d0d565b91505092915050565b6000819050919050565b6000610d74610d6f610d6a84610c6b565b610d4f565b610c6b565b9050919050565b6000610d8682610d59565b9050919050565b6000610d9882610d7b565b9050919050565b610da881610d8d565b82525050565b6000602082019050610dc36000830184610d9f565b92915050565b7f4e487b7100000000000000000000000000000000000000000000000000000000600052602160045260246000fd5b60038110610e0957610e08610dc9565b5b50565b6000819050610e1a82610df8565b919050565b6000610e2a82610e0c565b9050919050565b610e3a81610e1f565b82525050565b6000602082019050610e556000830184610e31565b92915050565b610e6481610c8b565b82525050565b600060a082019050610e7f6000830188610e5b565b8181036020830152610e918187610bd2565b9050610ea06040830186610c37565b8181036060830152610eb28185610bd2565b90508181036080830152610ec68184610bd2565b90509695505050505050565b6000602082019050610ee76000830184610e5b565b92915050565b6000610ef882610d7b565b9050919050565b610f0881610eed565b82525050565b6000602082019050610f236000830184610eff565b92915050565b600080fd5b600080fd5b600080fd5b60008083601f840112610f4e57610f4d610f29565b5b8235905067ffffffffffffffff811115610f6b57610f6a610f2e565b5b602083019150836001820283011115610f8757610f86610f33565b5b9250929050565b60008060008060008060006080888a031215610fad57610fac610c61565b5b600088013567ffffffffffffffff811115610fcb57610fca610c66565b5b610fd78a828b01610f38565b97509750506020610fea8a828b01610d0d565b955050604088013567ffffffffffffffff81111561100b5761100a610c66565b5b6110178a828b01610f38565b9450945050606088013567ffffffffffffffff81111561103a57611039610c66565b5b6110468a828b01610f38565b925092505092959891949750929550565b60008083601f84011261106d5761106c610f29565b5b8235905067ffffffffffffffff81111561108a57611089610f2e565b5b6020830191508360018202830111156110a6576110a5610f33565b5b9250929050565b600080600080604085870312156110c7576110c6610c61565b5b600085013567ffffffffffffffff8111156110e5576110e4610c66565b5b6110f187828801611057565b9450945050602085013567ffffffffffffffff81111561111457611113610c66565b5b61112087828801611057565b925092505092959194509250565b7f4e487b7100000000000000000000000000000000000000000000000000000000600052602260045260246000fd5b6000600282049050600182168061117557607f821691505b6020821081036111885761118761112e565b5b50919050565b60008160001c9050919050565b600073ffffffffffffffffffffffffffffffffffffffff82169050919050565b60006111ce6111c98361118e565b61119b565b9050919050565b6111de81610c8b565b82525050565b600082825260208201905092915050565b60008190508160005260206000209050919050565b600081546112178161115d565b61122181866111e4565b9450600182166000811461123c576001811461125257611285565b60ff198316865281151560200286019350611285565b61125b856111f5565b60005b8381101561127d5781548189015260018201915060208101905061125e565b808801955050505b50505092915050565b6000819050919050565b60006112ab6112a68361118e565b61128e565b9050919050565b6112bb81610c2d565b82525050565b600060a0830160008084015490506112d8816111bb565b6112e560008701826111d5565b506001840185830360208701526112fc838261120a565b9250506002840154905061130f81611298565b61131c60408701826112b2565b50600384018583036060870152611333838261120a565b92505060048401858303608087015261134c838261120a565b925050819250505092915050565b6000602082019050818103600083015261137481846112c1565b905092915050565b7f4e487b7100000000000000000000000000000000000000000000000000000000600052604160045260246000fd5b60006020601f8301049050919050565b600082821b905092915050565b6000600883026113f87fffffffffffffffffffffffffffffffffffffffffffffffffffffffffffffffff826113bb565b61140286836113bb565b95508019841693508086168417925050509392505050565b600061143561143061142b84610c2d565b610d4f565b610c2d565b9050919050565b6000819050919050565b61144f8361141a565b61146361145b8261143c565b8484546113c8565b825550505050565b600090565b61147861146b565b611483818484611446565b505050565b5b818110156114a75761149c600082611470565b600181019050611489565b5050565b601f8211156114ec576114bd816111f5565b6114c6846113ab565b810160208510156114d5578190505b6114e96114e1856113ab565b830182611488565b50505b505050565b600082821c905092915050565b600061150f600019846008026114f1565b1980831691505092915050565b600061152883836114fe565b9150826002028217905092915050565b61154182610b7b565b67ffffffffffffffff81111561155a5761155961137c565b5b611564825461115d565b61156f8282856114ab565b600060209050601f8311600181146115a25760008415611590578287015190505b61159a858261151c565b865550611602565b601f1984166115b0866111f5565b60005b828110156115d8578489015182556001820191506020850194506020810190506115b3565b868310156115f557848901516115f1601f8916826114fe565b8355505b6001600288020188555050505b505050505050565b7f4e487b7100000000000000000000000000000000000000000000000000000000600052601160045260246000fd5b600061164482610c2d565b91507fffffffffffffffffffffffffffffffffffffffffffffffffffffffffffffffff82036116765761167561160a565b5b600182019050919050565b82818337600083830152505050565b600061169c8385610b86565b93506116a9838584611681565b6116b283610bc1565b840190509392505050565b600060408201905081810360008301526116d8818587611690565b90506116e76020830184610c37565b949350505050565b60006116fa82610b7b565b61170481856111e4565b9350611714818560208601610b97565b61171d81610bc1565b840191505092915050565b600060a08301600083015161174060008601826111d5565b506020830151848203602086015261175882826116ef565b915050604083015161176d60408601826112b2565b506060830151848203606086015261178582826116ef565b9150506080830151848203608086015261179f82826116ef565b9150508091505092915050565b600060208201905081810360008301526117c68184611728565b90509291505056fea264697066735822122062f0688bec995a6eb35fe28e8017a59b4b5dca7899628dc189058db4984be04364736f6c63430008180033a2646970667358221220a095a4e1121cc56089892ac9e0dcfcb29dd78a7d3f2546f0f8b0d184ecf9f7d364736f6c63430008180033",
  "linkReferences": {},
  "deployedLinkReferences": {}
}