{
  "_format": "hh-sol-artifact-1",
  "contractName": "SubDAOContract",
  "sourceName": "contracts/Dao.sol",
  "abi": [
    {
      "inputs": [
        {
          "internalType": "string",
          "name": "_name",
          "type": "string"
        },
        {
          "internalType": "string",
          "name": "_location",
          "type": "string"
        }
      ],
      "stateMutability": "nonpayable",
      "type": "constructor"
    },
    {
      "anonymous": false,
      "inputs": [
        {
          "indexed": true,
          "internalType": "uint256",
          "name": "proposalId",
          "type": "uint256"
        },
        {
          "indexed": false,
          "internalType": "string",
          "name": "location",
          "type": "string"
        },
        {
          "indexed": false,
          "internalType": "uint256",
          "name": "price",
          "type": "uint256"
        }
      ],
      "name": "LandListingProposalCreated",
      "type": "event"
    },
    {
      "anonymous": false,
      "inputs": [
        {
          "indexed": true,
          "internalType": "uint256",
          "name": "proposalId",
          "type": "uint256"
        }
      ],
      "name": "LandListingProposalVerified",
      "type": "event"
    },
    {
      "inputs": [
        {
          "internalType": "uint256",
          "name": "_proposalId",
          "type": "uint256"
        }
      ],
      "name": "acceptProposal",
      "outputs": [],
      "stateMutability": "nonpayable",
      "type": "function"
    },
    {
      "inputs": [
        {
          "internalType": "string",
          "name": "location",
          "type": "string"
        },
        {
          "internalType": "uint256",
          "name": "price",
          "type": "uint256"
        },
        {
          "internalType": "string",
          "name": "contractIPFSHash",
          "type": "string"
        },
        {
          "internalType": "string",
          "name": "imagesIPFSHash",
          "type": "string"
        }
      ],
      "name": "createLandListingProposal",
      "outputs": [],
      "stateMutability": "nonpayable",
      "type": "function"
    },
    {
      "inputs": [
        {
          "internalType": "address",
          "name": "_user",
          "type": "address"
        }
      ],
      "name": "getUserLandListingProposals",
      "outputs": [
        {
          "components": [
            {
              "internalType": "address",
              "name": "owner",
              "type": "address"
            },
            {
              "internalType": "string",
              "name": "location",
              "type": "string"
            },
            {
              "internalType": "uint256",
              "name": "price",
              "type": "uint256"
            },
            {
              "internalType": "string",
              "name": "contractIPFSHash",
              "type": "string"
            },
            {
              "internalType": "string",
              "name": "imagesIPFSHash",
              "type": "string"
            }
          ],
          "internalType": "struct Lib.LandListingProposal[]",
          "name": "",
          "type": "tuple[]"
        }
      ],
      "stateMutability": "view",
      "type": "function"
    },
    {
      "inputs": [
        {
          "internalType": "bytes",
          "name": "proofOfLocation",
          "type": "bytes"
        },
        {
          "internalType": "bytes",
          "name": "proofOfIdentity",
          "type": "bytes"
        }
      ],
      "name": "joinDaoRequest",
      "outputs": [],
      "stateMutability": "nonpayable",
      "type": "function"
    },
    {
      "inputs": [
        {
          "internalType": "uint256",
          "name": "",
          "type": "uint256"
        }
      ],
      "name": "landListingProposals",
      "outputs": [
        {
          "internalType": "address",
          "name": "owner",
          "type": "address"
        },
        {
          "internalType": "string",
          "name": "location",
          "type": "string"
        },
        {
          "internalType": "uint256",
          "name": "price",
          "type": "uint256"
        },
        {
          "internalType": "string",
          "name": "contractIPFSHash",
          "type": "string"
        },
        {
          "internalType": "string",
          "name": "imagesIPFSHash",
          "type": "string"
        }
      ],
      "stateMutability": "view",
      "type": "function"
    },
    {
      "inputs": [],
      "name": "landMarket",
      "outputs": [
        {
          "internalType": "contract LandMarketplace",
          "name": "",
          "type": "address"
        }
      ],
      "stateMutability": "view",
      "type": "function"
    },
    {
      "inputs": [],
      "name": "location",
      "outputs": [
        {
          "internalType": "string",
          "name": "",
          "type": "string"
        }
      ],
      "stateMutability": "view",
      "type": "function"
    },
    {
      "inputs": [],
      "name": "name",
      "outputs": [
        {
          "internalType": "string",
          "name": "",
          "type": "string"
        }
      ],
      "stateMutability": "view",
      "type": "function"
    },
    {
      "inputs": [],
      "name": "oracleAddress",
      "outputs": [
        {
          "internalType": "address",
          "name": "",
          "type": "address"
        }
      ],
      "stateMutability": "view",
      "type": "function"
    },
    {
      "inputs": [],
      "name": "oracleContract",
      "outputs": [
        {
          "internalType": "contract Oracle",
          "name": "",
          "type": "address"
        }
      ],
      "stateMutability": "view",
      "type": "function"
    },
    {
      "inputs": [],
      "name": "proposalId",
      "outputs": [
        {
          "internalType": "uint256",
          "name": "",
          "type": "uint256"
        }
      ],
      "stateMutability": "view",
      "type": "function"
    },
    {
      "inputs": [
        {
          "internalType": "uint256",
          "name": "",
          "type": "uint256"
        }
      ],
      "name": "proposalStatus",
      "outputs": [
        {
          "internalType": "enum SubDAOContract.ProposalStatus",
          "name": "",
          "type": "uint8"
        }
      ],
      "stateMutability": "view",
      "type": "function"
    },
    {
      "inputs": [
        {
          "internalType": "address",
          "name": "_landMarketAddress",
          "type": "address"
        }
      ],
      "name": "setLandMarketAddress",
      "outputs": [],
      "stateMutability": "nonpayable",
      "type": "function"
    },
    {
      "inputs": [
        {
          "internalType": "address",
          "name": "_oracleAddress",
          "type": "address"
        }
      ],
      "name": "setOracleAddress",
      "outputs": [],
      "stateMutability": "nonpayable",
      "type": "function"
    },
    {
      "inputs": [
        {
          "internalType": "address",
          "name": "",
          "type": "address"
        },
        {
          "internalType": "uint256",
          "name": "",
          "type": "uint256"
        }
      ],
      "name": "userLandListingProposals",
      "outputs": [
        {
          "internalType": "address",
          "name": "owner",
          "type": "address"
        },
        {
          "internalType": "string",
          "name": "location",
          "type": "string"
        },
        {
          "internalType": "uint256",
          "name": "price",
          "type": "uint256"
        },
        {
          "internalType": "string",
          "name": "contractIPFSHash",
          "type": "string"
        },
        {
          "internalType": "string",
          "name": "imagesIPFSHash",
          "type": "string"
        }
      ],
      "stateMutability": "view",
      "type": "function"
    },
    {
      "inputs": [
        {
          "internalType": "uint256",
          "name": "_proposalId",
          "type": "uint256"
        }
      ],
      "name": "verifyLandListingProposal",
      "outputs": [],
      "stateMutability": "nonpayable",
      "type": "function"
    }
  ],
  "bytecode": "0x60806040526000600360006101000a81548173ffffffffffffffffffffffffffffffffffffffff021916908373ffffffffffffffffffffffffffffffffffffffff1602179055503480156200005357600080fd5b50604051620026df380380620026df833981810160405281019062000079919062000238565b81600090816200008a919062000508565b5080600190816200009c919062000508565b505050620005ef565b6000604051905090565b600080fd5b600080fd5b600080fd5b600080fd5b6000601f19601f8301169050919050565b7f4e487b7100000000000000000000000000000000000000000000000000000000600052604160045260246000fd5b6200010e82620000c3565b810181811067ffffffffffffffff8211171562000130576200012f620000d4565b5b80604052505050565b600062000145620000a5565b905062000153828262000103565b919050565b600067ffffffffffffffff821115620001765762000175620000d4565b5b6200018182620000c3565b9050602081019050919050565b60005b83811015620001ae57808201518184015260208101905062000191565b60008484015250505050565b6000620001d1620001cb8462000158565b62000139565b905082815260208101848484011115620001f057620001ef620000be565b5b620001fd8482856200018e565b509392505050565b600082601f8301126200021d576200021c620000b9565b5b81516200022f848260208601620001ba565b91505092915050565b60008060408385031215620002525762000251620000af565b5b600083015167ffffffffffffffff811115620002735762000272620000b4565b5b620002818582860162000205565b925050602083015167ffffffffffffffff811115620002a557620002a4620000b4565b5b620002b38582860162000205565b9150509250929050565b600081519050919050565b7f4e487b7100000000000000000000000000000000000000000000000000000000600052602260045260246000fd5b600060028204905060018216806200031057607f821691505b602082108103620003265762000325620002c8565b5b50919050565b60008190508160005260206000209050919050565b60006020601f8301049050919050565b600082821b905092915050565b600060088302620003907fffffffffffffffffffffffffffffffffffffffffffffffffffffffffffffffff8262000351565b6200039c868362000351565b95508019841693508086168417925050509392505050565b6000819050919050565b6000819050919050565b6000620003e9620003e3620003dd84620003b4565b620003be565b620003b4565b9050919050565b6000819050919050565b6200040583620003c8565b6200041d6200041482620003f0565b8484546200035e565b825550505050565b600090565b6200043462000425565b62000441818484620003fa565b505050565b5b8181101562000469576200045d6000826200042a565b60018101905062000447565b5050565b601f821115620004b85762000482816200032c565b6200048d8462000341565b810160208510156200049d578190505b620004b5620004ac8562000341565b83018262000446565b50505b505050565b600082821c905092915050565b6000620004dd60001984600802620004bd565b1980831691505092915050565b6000620004f88383620004ca565b9150826002028217905092915050565b6200051382620002bd565b67ffffffffffffffff8111156200052f576200052e620000d4565b5b6200053b8254620002f7565b620005488282856200046d565b600060209050601f8311600181146200058057600084156200056b578287015190505b620005778582620004ea565b865550620005e7565b601f19841662000590866200032c565b60005b82811015620005ba5784890151825560018201915060208501945060208101905062000593565b86831015620005da5784890151620005d6601f891682620004ca565b8355505b6001600288020188555050505b505050505050565b6120e080620005ff6000396000f3fe608060405234801561001057600080fd5b50600436106101005760003560e01c80637eb099b611610097578063bece753211610066578063bece75321461029f578063e2da572d146102bd578063e94e919c146102f1578063fd843f081461030d57610100565b80637eb099b6146101ff57806392e8cca21461021d578063a89ae4ba14610251578063abf5f1f11461026f57610100565b80634c69c00f116100d35780634c69c00f14610179578063516f279e1461019557806360c5cc3a146101b357806374c260cf146101cf57610100565b806306fdde03146101055780632dfca445146101235780633789b030146101415780633f51f0661461015d575b600080fd5b61010d610329565b60405161011a91906112d3565b60405180910390f35b61012b6103b7565b604051610138919061130e565b60405180910390f35b61015b60048036038101906101569190611391565b6103bd565b005b610177600480360381019061017291906113ea565b610401565b005b610193600480360381019061018e9190611391565b61046d565b005b61019d6104f2565b6040516101aa91906112d3565b60405180910390f35b6101cd60048036038101906101c891906113ea565b610580565b005b6101e960048036038101906101e491906113ea565b61071c565b6040516101f6919061148e565b60405180910390f35b61020761073c565b6040516102149190611508565b60405180910390f35b610237600480360381019061023291906113ea565b610762565b604051610248959493929190611532565b60405180910390f35b610259610950565b604051610266919061159a565b60405180910390f35b61028960048036038101906102849190611391565b610976565b6040516102969190611763565b60405180910390f35b6102a7610c2a565b6040516102b491906117a6565b60405180910390f35b6102d760048036038101906102d291906117c1565b610c50565b6040516102e8959493929190611532565b60405180910390f35b61030b60048036038101906103069190611866565b610e5b565b005b61032760048036038101906103229190611985565b61123d565b005b6000805461033690611a35565b80601f016020809104026020016040519081016040528092919081815260200182805461036290611a35565b80156103af5780601f10610384576101008083540402835291602001916103af565b820191906000526020600020905b81548152906001019060200180831161039257829003601f168201915b505050505081565b60055481565b80600260006101000a81548173ffffffffffffffffffffffffffffffffffffffff021916908373ffffffffffffffffffffffffffffffffffffffff16021790555050565b60016008600083815260200190815260200160002060006101000a81548160ff0219169083600281111561043857610437611417565b5b0217905550807f61abca1f903d624f2f61b1159479f0ebf4fc1be8dba30bdfbb3b7f58494586cb60405160405180910390a250565b80600360006101000a81548173ffffffffffffffffffffffffffffffffffffffff021916908373ffffffffffffffffffffffffffffffffffffffff16021790555080600460006101000a81548173ffffffffffffffffffffffffffffffffffffffff021916908373ffffffffffffffffffffffffffffffffffffffff16021790555050565b600180546104ff90611a35565b80601f016020809104026020016040519081016040528092919081815260200182805461052b90611a35565b80156105785780601f1061054d57610100808354040283529160200191610578565b820191906000526020600020905b81548152906001019060200180831161055b57829003601f168201915b505050505081565b60016008600083815260200190815260200160002060006101000a81548160ff021916908360028111156105b7576105b6611417565b5b0217905550600073ffffffffffffffffffffffffffffffffffffffff16600260009054906101000a900473ffffffffffffffffffffffffffffffffffffffff1673ffffffffffffffffffffffffffffffffffffffff160361064d576040517f08c379a000000000000000000000000000000000000000000000000000000000815260040161064490611ab2565b60405180910390fd5b600260009054906101000a900473ffffffffffffffffffffffffffffffffffffffff1673ffffffffffffffffffffffffffffffffffffffff166313c3d0a4600660008481526020019081526020016000206040518263ffffffff1660e01b81526004016106ba9190611c6f565b600060405180830381600087803b1580156106d457600080fd5b505af11580156106e8573d6000803e3d6000fd5b50505050807f61abca1f903d624f2f61b1159479f0ebf4fc1be8dba30bdfbb3b7f58494586cb60405160405180910390a250565b60086020528060005260406000206000915054906101000a900460ff1681565b600260009054906101000a900473ffffffffffffffffffffffffffffffffffffffff1681565b60066020528060005260406000206000915090508060000160009054906101000a900473ffffffffffffffffffffffffffffffffffffffff16908060010180546107ab90611a35565b80601f01602080910402602001604051908101604052809291908181526020018280546107d790611a35565b80156108245780601f106107f957610100808354040283529160200191610824565b820191906000526020600020905b81548152906001019060200180831161080757829003601f168201915b50505050509080600201549080600301805461083f90611a35565b80601f016020809104026020016040519081016040528092919081815260200182805461086b90611a35565b80156108b85780601f1061088d576101008083540402835291602001916108b8565b820191906000526020600020905b81548152906001019060200180831161089b57829003601f168201915b5050505050908060040180546108cd90611a35565b80601f01602080910402602001604051908101604052809291908181526020018280546108f990611a35565b80156109465780601f1061091b57610100808354040283529160200191610946565b820191906000526020600020905b81548152906001019060200180831161092957829003601f168201915b5050505050905085565b600360009054906101000a900473ffffffffffffffffffffffffffffffffffffffff1681565b6060600760008373ffffffffffffffffffffffffffffffffffffffff1673ffffffffffffffffffffffffffffffffffffffff168152602001908152602001600020805480602002602001604051908101604052809291908181526020016000905b82821015610c1f57838290600052602060002090600502016040518060a00160405290816000820160009054906101000a900473ffffffffffffffffffffffffffffffffffffffff1673ffffffffffffffffffffffffffffffffffffffff1673ffffffffffffffffffffffffffffffffffffffff168152602001600182018054610a6090611a35565b80601f0160208091040260200160405190810160405280929190818152602001828054610a8c90611a35565b8015610ad95780601f10610aae57610100808354040283529160200191610ad9565b820191906000526020600020905b815481529060010190602001808311610abc57829003601f168201915b5050505050815260200160028201548152602001600382018054610afc90611a35565b80601f0160208091040260200160405190810160405280929190818152602001828054610b2890611a35565b8015610b755780601f10610b4a57610100808354040283529160200191610b75565b820191906000526020600020905b815481529060010190602001808311610b5857829003601f168201915b50505050508152602001600482018054610b8e90611a35565b80601f0160208091040260200160405190810160405280929190818152602001828054610bba90611a35565b8015610c075780601f10610bdc57610100808354040283529160200191610c07565b820191906000526020600020905b815481529060010190602001808311610bea57829003601f168201915b505050505081525050815260200190600101906109d7565b505050509050919050565b600460009054906101000a900473ffffffffffffffffffffffffffffffffffffffff1681565b60076020528160005260406000208181548110610c6c57600080fd5b9060005260206000209060050201600091509150508060000160009054906101000a900473ffffffffffffffffffffffffffffffffffffffff1690806001018054610cb690611a35565b80601f0160208091040260200160405190810160405280929190818152602001828054610ce290611a35565b8015610d2f5780601f10610d0457610100808354040283529160200191610d2f565b820191906000526020600020905b815481529060010190602001808311610d1257829003601f168201915b505050505090806002015490806003018054610d4a90611a35565b80601f0160208091040260200160405190810160405280929190818152602001828054610d7690611a35565b8015610dc35780601f10610d9857610100808354040283529160200191610dc3565b820191906000526020600020905b815481529060010190602001808311610da657829003601f168201915b505050505090806004018054610dd890611a35565b80601f0160208091040260200160405190810160405280929190818152602001828054610e0490611a35565b8015610e515780601f10610e2657610100808354040283529160200191610e51565b820191906000526020600020905b815481529060010190602001808311610e3457829003601f168201915b5050505050905085565b60006040518060a001604052803373ffffffffffffffffffffffffffffffffffffffff16815260200189898080601f016020809104026020016040519081016040528093929190818152602001838380828437600081840152601f19601f82011690508083019250505050505050815260200187815260200186868080601f016020809104026020016040519081016040528093929190818152602001838380828437600081840152601f19601f82011690508083019250505050505050815260200184848080601f016020809104026020016040519081016040528093929190818152602001838380828437600081840152601f19601f8201169050808301925050505050505081525090508060066000600554815260200190815260200160002060008201518160000160006101000a81548173ffffffffffffffffffffffffffffffffffffffff021916908373ffffffffffffffffffffffffffffffffffffffff1602179055506020820151816001019081610fda9190611e4d565b50604082015181600201556060820151816003019081610ffa9190611e4d565b5060808201518160040190816110109190611e4d565b50905050600060086000600554815260200190815260200160002060006101000a81548160ff0219169083600281111561104d5761104c611417565b5b02179055506005600081548092919061106590611f4e565b9190505550600760003373ffffffffffffffffffffffffffffffffffffffff1673ffffffffffffffffffffffffffffffffffffffff16815260200190815260200160002081908060018154018082558091505060019003906000526020600020906005020160009091909190915060008201518160000160006101000a81548173ffffffffffffffffffffffffffffffffffffffff021916908373ffffffffffffffffffffffffffffffffffffffff160217905550602082015181600101908161112f9190611e4d565b5060408201518160020155606082015181600301908161114f9190611e4d565b5060808201518160040190816111659190611e4d565b5050506005547f85c50eb91d140947455bded9b0ca7f48fc20422c6a071be8efaf8146615777d289898960405161119e93929190611fd2565b60405180910390a2600460009054906101000a900473ffffffffffffffffffffffffffffffffffffffff1673ffffffffffffffffffffffffffffffffffffffff1663199758ee826040518263ffffffff1660e01b81526004016112019190612088565b600060405180830381600087803b15801561121b57600080fd5b505af115801561122f573d6000803e3d6000fd5b505050505050505050505050565b50505050565b600081519050919050565b600082825260208201905092915050565b60005b8381101561127d578082015181840152602081019050611262565b60008484015250505050565b6000601f19601f8301169050919050565b60006112a582611243565b6112af818561124e565b93506112bf81856020860161125f565b6112c881611289565b840191505092915050565b600060208201905081810360008301526112ed818461129a565b905092915050565b6000819050919050565b611308816112f5565b82525050565b600060208201905061132360008301846112ff565b92915050565b600080fd5b600080fd5b600073ffffffffffffffffffffffffffffffffffffffff82169050919050565b600061135e82611333565b9050919050565b61136e81611353565b811461137957600080fd5b50565b60008135905061138b81611365565b92915050565b6000602082840312156113a7576113a6611329565b5b60006113b58482850161137c565b91505092915050565b6113c7816112f5565b81146113d257600080fd5b50565b6000813590506113e4816113be565b92915050565b600060208284031215611400576113ff611329565b5b600061140e848285016113d5565b91505092915050565b7f4e487b7100000000000000000000000000000000000000000000000000000000600052602160045260246000fd5b6003811061145757611456611417565b5b50565b600081905061146882611446565b919050565b60006114788261145a565b9050919050565b6114888161146d565b82525050565b60006020820190506114a3600083018461147f565b92915050565b6000819050919050565b60006114ce6114c96114c484611333565b6114a9565b611333565b9050919050565b60006114e0826114b3565b9050919050565b60006114f2826114d5565b9050919050565b611502816114e7565b82525050565b600060208201905061151d60008301846114f9565b92915050565b61152c81611353565b82525050565b600060a0820190506115476000830188611523565b8181036020830152611559818761129a565b905061156860408301866112ff565b818103606083015261157a818561129a565b9050818103608083015261158e818461129a565b90509695505050505050565b60006020820190506115af6000830184611523565b92915050565b600081519050919050565b600082825260208201905092915050565b6000819050602082019050919050565b6115ea81611353565b82525050565b600082825260208201905092915050565b600061160c82611243565b61161681856115f0565b935061162681856020860161125f565b61162f81611289565b840191505092915050565b611643816112f5565b82525050565b600060a08301600083015161166160008601826115e1565b50602083015184820360208601526116798282611601565b915050604083015161168e604086018261163a565b50606083015184820360608601526116a68282611601565b915050608083015184820360808601526116c08282611601565b9150508091505092915050565b60006116d98383611649565b905092915050565b6000602082019050919050565b60006116f9826115b5565b61170381856115c0565b935083602082028501611715856115d1565b8060005b85811015611751578484038952815161173285826116cd565b945061173d836116e1565b925060208a01995050600181019050611719565b50829750879550505050505092915050565b6000602082019050818103600083015261177d81846116ee565b905092915050565b6000611790826114d5565b9050919050565b6117a081611785565b82525050565b60006020820190506117bb6000830184611797565b92915050565b600080604083850312156117d8576117d7611329565b5b60006117e68582860161137c565b92505060206117f7858286016113d5565b9150509250929050565b600080fd5b600080fd5b600080fd5b60008083601f84011261182657611825611801565b5b8235905067ffffffffffffffff81111561184357611842611806565b5b60208301915083600182028301111561185f5761185e61180b565b5b9250929050565b60008060008060008060006080888a03121561188557611884611329565b5b600088013567ffffffffffffffff8111156118a3576118a261132e565b5b6118af8a828b01611810565b975097505060206118c28a828b016113d5565b955050604088013567ffffffffffffffff8111156118e3576118e261132e565b5b6118ef8a828b01611810565b9450945050606088013567ffffffffffffffff8111156119125761191161132e565b5b61191e8a828b01611810565b925092505092959891949750929550565b60008083601f84011261194557611944611801565b5b8235905067ffffffffffffffff81111561196257611961611806565b5b60208301915083600182028301111561197e5761197d61180b565b5b9250929050565b6000806000806040858703121561199f5761199e611329565b5b600085013567ffffffffffffffff8111156119bd576119bc61132e565b5b6119c98782880161192f565b9450945050602085013567ffffffffffffffff8111156119ec576119eb61132e565b5b6119f88782880161192f565b925092505092959194509250565b7f4e487b7100000000000000000000000000000000000000000000000000000000600052602260045260246000fd5b60006002820490506001821680611a4d57607f821691505b602082108103611a6057611a5f611a06565b5b50919050565b7f4c616e644d61726b65742061646472657373206e6f7420736574000000000000600082015250565b6000611a9c601a8361124e565b9150611aa782611a66565b602082019050919050565b60006020820190508181036000830152611acb81611a8f565b9050919050565b60008160001c9050919050565b600073ffffffffffffffffffffffffffffffffffffffff82169050919050565b6000611b12611b0d83611ad2565b611adf565b9050919050565b60008190508160005260206000209050919050565b60008154611b3b81611a35565b611b4581866115f0565b94506001821660008114611b605760018114611b7657611ba9565b60ff198316865281151560200286019350611ba9565b611b7f85611b19565b60005b83811015611ba157815481890152600182019150602081019050611b82565b808801955050505b50505092915050565b6000819050919050565b6000611bcf611bca83611ad2565b611bb2565b9050919050565b600060a083016000808401549050611bed81611aff565b611bfa60008701826115e1565b50600184018583036020870152611c118382611b2e565b92505060028401549050611c2481611bbc565b611c31604087018261163a565b50600384018583036060870152611c488382611b2e565b925050600484018583036080870152611c618382611b2e565b925050819250505092915050565b60006020820190508181036000830152611c898184611bd6565b905092915050565b7f4e487b7100000000000000000000000000000000000000000000000000000000600052604160045260246000fd5b60006020601f8301049050919050565b600082821b905092915050565b600060088302611d0d7fffffffffffffffffffffffffffffffffffffffffffffffffffffffffffffffff82611cd0565b611d178683611cd0565b95508019841693508086168417925050509392505050565b6000611d4a611d45611d40846112f5565b6114a9565b6112f5565b9050919050565b6000819050919050565b611d6483611d2f565b611d78611d7082611d51565b848454611cdd565b825550505050565b600090565b611d8d611d80565b611d98818484611d5b565b505050565b5b81811015611dbc57611db1600082611d85565b600181019050611d9e565b5050565b601f821115611e0157611dd281611b19565b611ddb84611cc0565b81016020851015611dea578190505b611dfe611df685611cc0565b830182611d9d565b50505b505050565b600082821c905092915050565b6000611e2460001984600802611e06565b1980831691505092915050565b6000611e3d8383611e13565b9150826002028217905092915050565b611e5682611243565b67ffffffffffffffff811115611e6f57611e6e611c91565b5b611e798254611a35565b611e84828285611dc0565b600060209050601f831160018114611eb75760008415611ea5578287015190505b611eaf8582611e31565b865550611f17565b601f198416611ec586611b19565b60005b82811015611eed57848901518255600182019150602085019450602081019050611ec8565b86831015611f0a5784890151611f06601f891682611e13565b8355505b6001600288020188555050505b505050505050565b7f4e487b7100000000000000000000000000000000000000000000000000000000600052601160045260246000fd5b6000611f59826112f5565b91507fffffffffffffffffffffffffffffffffffffffffffffffffffffffffffffffff8203611f8b57611f8a611f1f565b5b600182019050919050565b82818337600083830152505050565b6000611fb1838561124e565b9350611fbe838584611f96565b611fc783611289565b840190509392505050565b60006040820190508181036000830152611fed818587611fa5565b9050611ffc60208301846112ff565b949350505050565b600060a08301600083015161201c60008601826115e1565b50602083015184820360208601526120348282611601565b9150506040830151612049604086018261163a565b50606083015184820360608601526120618282611601565b9150506080830151848203608086015261207b8282611601565b9150508091505092915050565b600060208201905081810360008301526120a28184612004565b90509291505056fea2646970667358221220a3eaa7e3cdc21e03fddb2f9bd8849d70e43473a57b25bf1ab83da3324967090a64736f6c63430008180033",
  "linkReferences": {},
  "deployedLinkReferences": {}
}