{
  "_format": "hh-sol-artifact-1",
  "contractName": "SubDAOContract",
  "sourceName": "contracts/Dao.sol",
  "abi": [
    {
      "inputs": [
        {
          "internalType": "string",
          "name": "_name",
          "type": "string"
        },
        {
          "internalType": "string",
          "name": "_location",
          "type": "string"
        }
      ],
      "stateMutability": "nonpayable",
      "type": "constructor"
    },
    {
      "anonymous": false,
      "inputs": [
        {
          "indexed": true,
          "internalType": "uint256",
          "name": "proposalId",
          "type": "uint256"
        },
        {
          "indexed": false,
          "internalType": "string",
          "name": "location",
          "type": "string"
        },
        {
          "indexed": false,
          "internalType": "uint256",
          "name": "price",
          "type": "uint256"
        }
      ],
      "name": "LandListingProposalCreated",
      "type": "event"
    },
    {
      "anonymous": false,
      "inputs": [
        {
          "indexed": true,
          "internalType": "uint256",
          "name": "proposalId",
          "type": "uint256"
        }
      ],
      "name": "LandListingProposalVerified",
      "type": "event"
    },
    {
      "inputs": [],
      "name": "LandMarket",
      "outputs": [
        {
          "internalType": "contract LandMarketplace",
          "name": "",
          "type": "address"
        }
      ],
      "stateMutability": "view",
      "type": "function"
    },
    {
      "inputs": [
        {
          "internalType": "uint256",
          "name": "_proposalId",
          "type": "uint256"
        }
      ],
      "name": "acceptProposal",
      "outputs": [],
      "stateMutability": "nonpayable",
      "type": "function"
    },
    {
      "inputs": [
        {
          "internalType": "string",
          "name": "location",
          "type": "string"
        },
        {
          "internalType": "uint256",
          "name": "price",
          "type": "uint256"
        },
        {
          "internalType": "string",
          "name": "contractIPFSHash",
          "type": "string"
        },
        {
          "internalType": "string",
          "name": "imagesIPFSHash",
          "type": "string"
        }
      ],
      "name": "createLandListingProposal",
      "outputs": [],
      "stateMutability": "nonpayable",
      "type": "function"
    },
    {
      "inputs": [
        {
          "internalType": "bytes",
          "name": "proofOfLocation",
          "type": "bytes"
        },
        {
          "internalType": "bytes",
          "name": "proofOfIdentity",
          "type": "bytes"
        }
      ],
      "name": "joinDaoRequest",
      "outputs": [],
      "stateMutability": "nonpayable",
      "type": "function"
    },
    {
      "inputs": [
        {
          "internalType": "uint256",
          "name": "",
          "type": "uint256"
        }
      ],
      "name": "landListingProposals",
      "outputs": [
        {
          "internalType": "address",
          "name": "owner",
          "type": "address"
        },
        {
          "internalType": "string",
          "name": "location",
          "type": "string"
        },
        {
          "internalType": "uint256",
          "name": "price",
          "type": "uint256"
        },
        {
          "internalType": "string",
          "name": "contractIPFSHash",
          "type": "string"
        },
        {
          "internalType": "string",
          "name": "imagesIPFSHash",
          "type": "string"
        }
      ],
      "stateMutability": "view",
      "type": "function"
    },
    {
      "inputs": [],
      "name": "location",
      "outputs": [
        {
          "internalType": "string",
          "name": "",
          "type": "string"
        }
      ],
      "stateMutability": "view",
      "type": "function"
    },
    {
      "inputs": [],
      "name": "name",
      "outputs": [
        {
          "internalType": "string",
          "name": "",
          "type": "string"
        }
      ],
      "stateMutability": "view",
      "type": "function"
    },
    {
      "inputs": [],
      "name": "oracleAddress",
      "outputs": [
        {
          "internalType": "address",
          "name": "",
          "type": "address"
        }
      ],
      "stateMutability": "view",
      "type": "function"
    },
    {
      "inputs": [],
      "name": "oracleContract",
      "outputs": [
        {
          "internalType": "contract Oracle",
          "name": "",
          "type": "address"
        }
      ],
      "stateMutability": "view",
      "type": "function"
    },
    {
      "inputs": [],
      "name": "proposalId",
      "outputs": [
        {
          "internalType": "uint256",
          "name": "",
          "type": "uint256"
        }
      ],
      "stateMutability": "view",
      "type": "function"
    },
    {
      "inputs": [
        {
          "internalType": "uint256",
          "name": "",
          "type": "uint256"
        }
      ],
      "name": "proposalStatus",
      "outputs": [
        {
          "internalType": "enum SubDAOContract.ProposalStatus",
          "name": "",
          "type": "uint8"
        }
      ],
      "stateMutability": "view",
      "type": "function"
    },
    {
      "inputs": [
        {
          "internalType": "address",
          "name": "_landMarketAddress",
          "type": "address"
        }
      ],
      "name": "setLandMarketAddress",
      "outputs": [],
      "stateMutability": "nonpayable",
      "type": "function"
    },
    {
      "inputs": [
        {
          "internalType": "address",
          "name": "_oracleAddress",
          "type": "address"
        }
      ],
      "name": "setOracleAddress",
      "outputs": [],
      "stateMutability": "nonpayable",
      "type": "function"
    },
    {
      "inputs": [
        {
          "internalType": "uint256",
          "name": "_proposalId",
          "type": "uint256"
        }
      ],
      "name": "verifyLandListingProposal",
      "outputs": [],
      "stateMutability": "nonpayable",
      "type": "function"
    }
  ],
  "bytecode": "0x60806040526000600360006101000a81548173ffffffffffffffffffffffffffffffffffffffff021916908373ffffffffffffffffffffffffffffffffffffffff1602179055503480156200005357600080fd5b5060405162001e0338038062001e03833981810160405281019062000079919062000238565b81600090816200008a919062000508565b5080600190816200009c919062000508565b505050620005ef565b6000604051905090565b600080fd5b600080fd5b600080fd5b600080fd5b6000601f19601f8301169050919050565b7f4e487b7100000000000000000000000000000000000000000000000000000000600052604160045260246000fd5b6200010e82620000c3565b810181811067ffffffffffffffff8211171562000130576200012f620000d4565b5b80604052505050565b600062000145620000a5565b905062000153828262000103565b919050565b600067ffffffffffffffff821115620001765762000175620000d4565b5b6200018182620000c3565b9050602081019050919050565b60005b83811015620001ae57808201518184015260208101905062000191565b60008484015250505050565b6000620001d1620001cb8462000158565b62000139565b905082815260208101848484011115620001f057620001ef620000be565b5b620001fd8482856200018e565b509392505050565b600082601f8301126200021d576200021c620000b9565b5b81516200022f848260208601620001ba565b91505092915050565b60008060408385031215620002525762000251620000af565b5b600083015167ffffffffffffffff811115620002735762000272620000b4565b5b620002818582860162000205565b925050602083015167ffffffffffffffff811115620002a557620002a4620000b4565b5b620002b38582860162000205565b9150509250929050565b600081519050919050565b7f4e487b7100000000000000000000000000000000000000000000000000000000600052602260045260246000fd5b600060028204905060018216806200031057607f821691505b602082108103620003265762000325620002c8565b5b50919050565b60008190508160005260206000209050919050565b60006020601f8301049050919050565b600082821b905092915050565b600060088302620003907fffffffffffffffffffffffffffffffffffffffffffffffffffffffffffffffff8262000351565b6200039c868362000351565b95508019841693508086168417925050509392505050565b6000819050919050565b6000819050919050565b6000620003e9620003e3620003dd84620003b4565b620003be565b620003b4565b9050919050565b6000819050919050565b6200040583620003c8565b6200041d6200041482620003f0565b8484546200035e565b825550505050565b600090565b6200043462000425565b62000441818484620003fa565b505050565b5b8181101562000469576200045d6000826200042a565b60018101905062000447565b5050565b601f821115620004b85762000482816200032c565b6200048d8462000341565b810160208510156200049d578190505b620004b5620004ac8562000341565b83018262000446565b50505b505050565b600082821c905092915050565b6000620004dd60001984600802620004bd565b1980831691505092915050565b6000620004f88383620004ca565b9150826002028217905092915050565b6200051382620002bd565b67ffffffffffffffff8111156200052f576200052e620000d4565b5b6200053b8254620002f7565b620005488282856200046d565b600060209050601f8311600181146200058057600084156200056b578287015190505b620005778582620004ea565b865550620005e7565b601f19841662000590866200032c565b60005b82811015620005ba5784890151825560018201915060208501945060208101905062000593565b86831015620005da5784890151620005d6601f891682620004ca565b8355505b6001600288020188555050505b505050505050565b61180480620005ff6000396000f3fe608060405234801561001057600080fd5b50600436106100ea5760003560e01c806360c5cc3a1161008c578063a89ae4ba11610066578063a89ae4ba1461023b578063bece753214610259578063e94e919c14610277578063fd843f0814610293576100ea565b806360c5cc3a146101bb57806374c260cf146101d757806392e8cca214610207576100ea565b80633f51f066116100c85780633f51f066146101475780634c69c00f14610163578063516f279e1461017f5780635b9677bf1461019d576100ea565b806306fdde03146100ef5780632dfca4451461010d5780633789b0301461012b575b600080fd5b6100f76102af565b6040516101049190610c0b565b60405180910390f35b61011561033d565b6040516101229190610c46565b60405180910390f35b61014560048036038101906101409190610cc9565b610343565b005b610161600480360381019061015c9190610d22565b610387565b005b61017d60048036038101906101789190610cc9565b6103f3565b005b610187610478565b6040516101949190610c0b565b60405180910390f35b6101a5610506565b6040516101b29190610dae565b60405180910390f35b6101d560048036038101906101d09190610d22565b61052c565b005b6101f160048036038101906101ec9190610d22565b610637565b6040516101fe9190610e40565b60405180910390f35b610221600480360381019061021c9190610d22565b610657565b604051610232959493929190610e6a565b60405180910390f35b610243610845565b6040516102509190610ed2565b60405180910390f35b61026161086b565b60405161026e9190610f0e565b60405180910390f35b610291600480360381019061028c9190610f8e565b610891565b005b6102ad60048036038101906102a891906110ad565b610b75565b005b600080546102bc9061115d565b80601f01602080910402602001604051908101604052809291908181526020018280546102e89061115d565b80156103355780601f1061030a57610100808354040283529160200191610335565b820191906000526020600020905b81548152906001019060200180831161031857829003601f168201915b505050505081565b60055481565b80600260006101000a81548173ffffffffffffffffffffffffffffffffffffffff021916908373ffffffffffffffffffffffffffffffffffffffff16021790555050565b60016007600083815260200190815260200160002060006101000a81548160ff021916908360028111156103be576103bd610dc9565b5b0217905550807f61abca1f903d624f2f61b1159479f0ebf4fc1be8dba30bdfbb3b7f58494586cb60405160405180910390a250565b80600360006101000a81548173ffffffffffffffffffffffffffffffffffffffff021916908373ffffffffffffffffffffffffffffffffffffffff16021790555080600460006101000a81548173ffffffffffffffffffffffffffffffffffffffff021916908373ffffffffffffffffffffffffffffffffffffffff16021790555050565b600180546104859061115d565b80601f01602080910402602001604051908101604052809291908181526020018280546104b19061115d565b80156104fe5780601f106104d3576101008083540402835291602001916104fe565b820191906000526020600020905b8154815290600101906020018083116104e157829003601f168201915b505050505081565b600260009054906101000a900473ffffffffffffffffffffffffffffffffffffffff1681565b60016007600083815260200190815260200160002060006101000a81548160ff0219169083600281111561056357610562610dc9565b5b0217905550600260009054906101000a900473ffffffffffffffffffffffffffffffffffffffff1673ffffffffffffffffffffffffffffffffffffffff166313c3d0a4600660008481526020019081526020016000206040518263ffffffff1660e01b81526004016105d5919061135a565b600060405180830381600087803b1580156105ef57600080fd5b505af1158015610603573d6000803e3d6000fd5b50505050807f61abca1f903d624f2f61b1159479f0ebf4fc1be8dba30bdfbb3b7f58494586cb60405160405180910390a250565b60076020528060005260406000206000915054906101000a900460ff1681565b60066020528060005260406000206000915090508060000160009054906101000a900473ffffffffffffffffffffffffffffffffffffffff16908060010180546106a09061115d565b80601f01602080910402602001604051908101604052809291908181526020018280546106cc9061115d565b80156107195780601f106106ee57610100808354040283529160200191610719565b820191906000526020600020905b8154815290600101906020018083116106fc57829003601f168201915b5050505050908060020154908060030180546107349061115d565b80601f01602080910402602001604051908101604052809291908181526020018280546107609061115d565b80156107ad5780601f10610782576101008083540402835291602001916107ad565b820191906000526020600020905b81548152906001019060200180831161079057829003601f168201915b5050505050908060040180546107c29061115d565b80601f01602080910402602001604051908101604052809291908181526020018280546107ee9061115d565b801561083b5780601f106108105761010080835404028352916020019161083b565b820191906000526020600020905b81548152906001019060200180831161081e57829003601f168201915b5050505050905085565b600360009054906101000a900473ffffffffffffffffffffffffffffffffffffffff1681565b600460009054906101000a900473ffffffffffffffffffffffffffffffffffffffff1681565b60006040518060a001604052803373ffffffffffffffffffffffffffffffffffffffff16815260200189898080601f016020809104026020016040519081016040528093929190818152602001838380828437600081840152601f19601f82011690508083019250505050505050815260200187815260200186868080601f016020809104026020016040519081016040528093929190818152602001838380828437600081840152601f19601f82011690508083019250505050505050815260200184848080601f016020809104026020016040519081016040528093929190818152602001838380828437600081840152601f19601f8201169050808301925050505050505081525090508060066000600554815260200190815260200160002060008201518160000160006101000a81548173ffffffffffffffffffffffffffffffffffffffff021916908373ffffffffffffffffffffffffffffffffffffffff1602179055506020820151816001019081610a109190611538565b50604082015181600201556060820151816003019081610a309190611538565b506080820151816004019081610a469190611538565b50905050600060076000600554815260200190815260200160002060006101000a81548160ff02191690836002811115610a8357610a82610dc9565b5b021790555060056000815480929190610a9b90611639565b91905055506005547f85c50eb91d140947455bded9b0ca7f48fc20422c6a071be8efaf8146615777d2898989604051610ad6939291906116bd565b60405180910390a2600460009054906101000a900473ffffffffffffffffffffffffffffffffffffffff1673ffffffffffffffffffffffffffffffffffffffff1663199758ee826040518263ffffffff1660e01b8152600401610b3991906117ac565b600060405180830381600087803b158015610b5357600080fd5b505af1158015610b67573d6000803e3d6000fd5b505050505050505050505050565b50505050565b600081519050919050565b600082825260208201905092915050565b60005b83811015610bb5578082015181840152602081019050610b9a565b60008484015250505050565b6000601f19601f8301169050919050565b6000610bdd82610b7b565b610be78185610b86565b9350610bf7818560208601610b97565b610c0081610bc1565b840191505092915050565b60006020820190508181036000830152610c258184610bd2565b905092915050565b6000819050919050565b610c4081610c2d565b82525050565b6000602082019050610c5b6000830184610c37565b92915050565b600080fd5b600080fd5b600073ffffffffffffffffffffffffffffffffffffffff82169050919050565b6000610c9682610c6b565b9050919050565b610ca681610c8b565b8114610cb157600080fd5b50565b600081359050610cc381610c9d565b92915050565b600060208284031215610cdf57610cde610c61565b5b6000610ced84828501610cb4565b91505092915050565b610cff81610c2d565b8114610d0a57600080fd5b50565b600081359050610d1c81610cf6565b92915050565b600060208284031215610d3857610d37610c61565b5b6000610d4684828501610d0d565b91505092915050565b6000819050919050565b6000610d74610d6f610d6a84610c6b565b610d4f565b610c6b565b9050919050565b6000610d8682610d59565b9050919050565b6000610d9882610d7b565b9050919050565b610da881610d8d565b82525050565b6000602082019050610dc36000830184610d9f565b92915050565b7f4e487b7100000000000000000000000000000000000000000000000000000000600052602160045260246000fd5b60038110610e0957610e08610dc9565b5b50565b6000819050610e1a82610df8565b919050565b6000610e2a82610e0c565b9050919050565b610e3a81610e1f565b82525050565b6000602082019050610e556000830184610e31565b92915050565b610e6481610c8b565b82525050565b600060a082019050610e7f6000830188610e5b565b8181036020830152610e918187610bd2565b9050610ea06040830186610c37565b8181036060830152610eb28185610bd2565b90508181036080830152610ec68184610bd2565b90509695505050505050565b6000602082019050610ee76000830184610e5b565b92915050565b6000610ef882610d7b565b9050919050565b610f0881610eed565b82525050565b6000602082019050610f236000830184610eff565b92915050565b600080fd5b600080fd5b600080fd5b60008083601f840112610f4e57610f4d610f29565b5b8235905067ffffffffffffffff811115610f6b57610f6a610f2e565b5b602083019150836001820283011115610f8757610f86610f33565b5b9250929050565b60008060008060008060006080888a031215610fad57610fac610c61565b5b600088013567ffffffffffffffff811115610fcb57610fca610c66565b5b610fd78a828b01610f38565b97509750506020610fea8a828b01610d0d565b955050604088013567ffffffffffffffff81111561100b5761100a610c66565b5b6110178a828b01610f38565b9450945050606088013567ffffffffffffffff81111561103a57611039610c66565b5b6110468a828b01610f38565b925092505092959891949750929550565b60008083601f84011261106d5761106c610f29565b5b8235905067ffffffffffffffff81111561108a57611089610f2e565b5b6020830191508360018202830111156110a6576110a5610f33565b5b9250929050565b600080600080604085870312156110c7576110c6610c61565b5b600085013567ffffffffffffffff8111156110e5576110e4610c66565b5b6110f187828801611057565b9450945050602085013567ffffffffffffffff81111561111457611113610c66565b5b61112087828801611057565b925092505092959194509250565b7f4e487b7100000000000000000000000000000000000000000000000000000000600052602260045260246000fd5b6000600282049050600182168061117557607f821691505b6020821081036111885761118761112e565b5b50919050565b60008160001c9050919050565b600073ffffffffffffffffffffffffffffffffffffffff82169050919050565b60006111ce6111c98361118e565b61119b565b9050919050565b6111de81610c8b565b82525050565b600082825260208201905092915050565b60008190508160005260206000209050919050565b600081546112178161115d565b61122181866111e4565b9450600182166000811461123c576001811461125257611285565b60ff198316865281151560200286019350611285565b61125b856111f5565b60005b8381101561127d5781548189015260018201915060208101905061125e565b808801955050505b50505092915050565b6000819050919050565b60006112ab6112a68361118e565b61128e565b9050919050565b6112bb81610c2d565b82525050565b600060a0830160008084015490506112d8816111bb565b6112e560008701826111d5565b506001840185830360208701526112fc838261120a565b9250506002840154905061130f81611298565b61131c60408701826112b2565b50600384018583036060870152611333838261120a565b92505060048401858303608087015261134c838261120a565b925050819250505092915050565b6000602082019050818103600083015261137481846112c1565b905092915050565b7f4e487b7100000000000000000000000000000000000000000000000000000000600052604160045260246000fd5b60006020601f8301049050919050565b600082821b905092915050565b6000600883026113f87fffffffffffffffffffffffffffffffffffffffffffffffffffffffffffffffff826113bb565b61140286836113bb565b95508019841693508086168417925050509392505050565b600061143561143061142b84610c2d565b610d4f565b610c2d565b9050919050565b6000819050919050565b61144f8361141a565b61146361145b8261143c565b8484546113c8565b825550505050565b600090565b61147861146b565b611483818484611446565b505050565b5b818110156114a75761149c600082611470565b600181019050611489565b5050565b601f8211156114ec576114bd816111f5565b6114c6846113ab565b810160208510156114d5578190505b6114e96114e1856113ab565b830182611488565b50505b505050565b600082821c905092915050565b600061150f600019846008026114f1565b1980831691505092915050565b600061152883836114fe565b9150826002028217905092915050565b61154182610b7b565b67ffffffffffffffff81111561155a5761155961137c565b5b611564825461115d565b61156f8282856114ab565b600060209050601f8311600181146115a25760008415611590578287015190505b61159a858261151c565b865550611602565b601f1984166115b0866111f5565b60005b828110156115d8578489015182556001820191506020850194506020810190506115b3565b868310156115f557848901516115f1601f8916826114fe565b8355505b6001600288020188555050505b505050505050565b7f4e487b7100000000000000000000000000000000000000000000000000000000600052601160045260246000fd5b600061164482610c2d565b91507fffffffffffffffffffffffffffffffffffffffffffffffffffffffffffffffff82036116765761167561160a565b5b600182019050919050565b82818337600083830152505050565b600061169c8385610b86565b93506116a9838584611681565b6116b283610bc1565b840190509392505050565b600060408201905081810360008301526116d8818587611690565b90506116e76020830184610c37565b949350505050565b60006116fa82610b7b565b61170481856111e4565b9350611714818560208601610b97565b61171d81610bc1565b840191505092915050565b600060a08301600083015161174060008601826111d5565b506020830151848203602086015261175882826116ef565b915050604083015161176d60408601826112b2565b506060830151848203606086015261178582826116ef565b9150506080830151848203608086015261179f82826116ef565b9150508091505092915050565b600060208201905081810360008301526117c68184611728565b90509291505056fea264697066735822122062f0688bec995a6eb35fe28e8017a59b4b5dca7899628dc189058db4984be04364736f6c63430008180033",
  "linkReferences": {},
  "deployedLinkReferences": {}
}