{
  "_format": "hh-sol-artifact-1",
  "contractName": "Oracle",
  "sourceName": "contracts/Oracle.sol",
  "abi": [
    {
      "inputs": [],
      "stateMutability": "nonpayable",
      "type": "constructor"
    },
    {
      "inputs": [
        {
          "internalType": "address",
          "name": "owner",
          "type": "address"
        }
      ],
      "name": "OwnableInvalidOwner",
      "type": "error"
    },
    {
      "inputs": [
        {
          "internalType": "address",
          "name": "account",
          "type": "address"
        }
      ],
      "name": "OwnableUnauthorizedAccount",
      "type": "error"
    },
    {
      "anonymous": false,
      "inputs": [
        {
          "indexed": true,
          "internalType": "address",
          "name": "previousOwner",
          "type": "address"
        },
        {
          "indexed": true,
          "internalType": "address",
          "name": "newOwner",
          "type": "address"
        }
      ],
      "name": "OwnershipTransferred",
      "type": "event"
    },
    {
      "anonymous": false,
      "inputs": [
        {
          "indexed": true,
          "internalType": "uint256",
          "name": "proposalId",
          "type": "uint256"
        },
        {
          "indexed": false,
          "internalType": "string",
          "name": "location",
          "type": "string"
        },
        {
          "indexed": false,
          "internalType": "uint256",
          "name": "price",
          "type": "uint256"
        }
      ],
      "name": "ProposalAdded",
      "type": "event"
    },
    {
      "anonymous": false,
      "inputs": [
        {
          "indexed": true,
          "internalType": "uint256",
          "name": "proposalId",
          "type": "uint256"
        },
        {
          "indexed": false,
          "internalType": "enum Oracle.ProposalStatus",
          "name": "oldStatus",
          "type": "uint8"
        },
        {
          "indexed": false,
          "internalType": "enum Oracle.ProposalStatus",
          "name": "newStatus",
          "type": "uint8"
        }
      ],
      "name": "ProposalStatusUpdated",
      "type": "event"
    },
    {
      "anonymous": false,
      "inputs": [
        {
          "indexed": true,
          "internalType": "uint256",
          "name": "proposalId",
          "type": "uint256"
        }
      ],
      "name": "ProposalVerified",
      "type": "event"
    },
    {
      "inputs": [
        {
          "components": [
            {
              "internalType": "address",
              "name": "owner",
              "type": "address"
            },
            {
              "internalType": "string",
              "name": "location",
              "type": "string"
            },
            {
              "internalType": "uint256",
              "name": "price",
              "type": "uint256"
            },
            {
              "internalType": "string",
              "name": "contractIPFSHash",
              "type": "string"
            },
            {
              "internalType": "string",
              "name": "imagesIPFSHash",
              "type": "string"
            }
          ],
          "internalType": "struct Lib.LandListingProposal",
          "name": "_proposal",
          "type": "tuple"
        }
      ],
      "name": "addProposal",
      "outputs": [],
      "stateMutability": "nonpayable",
      "type": "function"
    },
    {
      "inputs": [],
      "name": "daoContractAddress",
      "outputs": [
        {
          "internalType": "address",
          "name": "",
          "type": "address"
        }
      ],
      "stateMutability": "view",
      "type": "function"
    },
    {
      "inputs": [],
      "name": "getAllProposals",
      "outputs": [
        {
          "internalType": "uint256[]",
          "name": "",
          "type": "uint256[]"
        }
      ],
      "stateMutability": "view",
      "type": "function"
    },
    {
      "inputs": [
        {
          "internalType": "uint256",
          "name": "_proposalId",
          "type": "uint256"
        }
      ],
      "name": "getProposal",
      "outputs": [
        {
          "components": [
            {
              "internalType": "address",
              "name": "owner",
              "type": "address"
            },
            {
              "internalType": "string",
              "name": "location",
              "type": "string"
            },
            {
              "internalType": "uint256",
              "name": "price",
              "type": "uint256"
            },
            {
              "internalType": "string",
              "name": "contractIPFSHash",
              "type": "string"
            },
            {
              "internalType": "string",
              "name": "imagesIPFSHash",
              "type": "string"
            }
          ],
          "internalType": "struct Lib.LandListingProposal",
          "name": "",
          "type": "tuple"
        }
      ],
      "stateMutability": "view",
      "type": "function"
    },
    {
      "inputs": [
        {
          "internalType": "uint256",
          "name": "",
          "type": "uint256"
        }
      ],
      "name": "landListingProposals",
      "outputs": [
        {
          "internalType": "address",
          "name": "owner",
          "type": "address"
        },
        {
          "internalType": "string",
          "name": "location",
          "type": "string"
        },
        {
          "internalType": "uint256",
          "name": "price",
          "type": "uint256"
        },
        {
          "internalType": "string",
          "name": "contractIPFSHash",
          "type": "string"
        },
        {
          "internalType": "string",
          "name": "imagesIPFSHash",
          "type": "string"
        }
      ],
      "stateMutability": "view",
      "type": "function"
    },
    {
      "inputs": [],
      "name": "nftContractAddress",
      "outputs": [
        {
          "internalType": "address",
          "name": "",
          "type": "address"
        }
      ],
      "stateMutability": "view",
      "type": "function"
    },
    {
      "inputs": [],
      "name": "owner",
      "outputs": [
        {
          "internalType": "address",
          "name": "",
          "type": "address"
        }
      ],
      "stateMutability": "view",
      "type": "function"
    },
    {
      "inputs": [],
      "name": "proposalId",
      "outputs": [
        {
          "internalType": "uint256",
          "name": "",
          "type": "uint256"
        }
      ],
      "stateMutability": "view",
      "type": "function"
    },
    {
      "inputs": [
        {
          "internalType": "uint256",
          "name": "",
          "type": "uint256"
        }
      ],
      "name": "proposalIds",
      "outputs": [
        {
          "internalType": "uint256",
          "name": "",
          "type": "uint256"
        }
      ],
      "stateMutability": "view",
      "type": "function"
    },
    {
      "inputs": [
        {
          "internalType": "uint256",
          "name": "",
          "type": "uint256"
        }
      ],
      "name": "proposalStatus",
      "outputs": [
        {
          "internalType": "enum Oracle.ProposalStatus",
          "name": "",
          "type": "uint8"
        }
      ],
      "stateMutability": "view",
      "type": "function"
    },
    {
      "inputs": [
        {
          "internalType": "uint256",
          "name": "_proposalId",
          "type": "uint256"
        }
      ],
      "name": "rejectProposal",
      "outputs": [],
      "stateMutability": "nonpayable",
      "type": "function"
    },
    {
      "inputs": [],
      "name": "renounceOwnership",
      "outputs": [],
      "stateMutability": "nonpayable",
      "type": "function"
    },
    {
      "inputs": [
        {
          "internalType": "address",
          "name": "_daoContractAddress",
          "type": "address"
        }
      ],
      "name": "setDAOContractAddress",
      "outputs": [],
      "stateMutability": "nonpayable",
      "type": "function"
    },
    {
      "inputs": [
        {
          "internalType": "address",
          "name": "_nftContractAddress",
          "type": "address"
        }
      ],
      "name": "setNFTContractAddress",
      "outputs": [],
      "stateMutability": "nonpayable",
      "type": "function"
    },
    {
      "inputs": [
        {
          "internalType": "address",
          "name": "newOwner",
          "type": "address"
        }
      ],
      "name": "transferOwnership",
      "outputs": [],
      "stateMutability": "nonpayable",
      "type": "function"
    },
    {
      "inputs": [
        {
          "internalType": "uint256",
          "name": "",
          "type": "uint256"
        }
      ],
      "name": "verifiedProposals",
      "outputs": [
        {
          "internalType": "bool",
          "name": "",
          "type": "bool"
        }
      ],
      "stateMutability": "view",
      "type": "function"
    },
    {
      "inputs": [
        {
          "internalType": "uint256",
          "name": "_proposalId",
          "type": "uint256"
        },
        {
          "internalType": "enum Oracle.ProposalStatus",
          "name": "_verfiedStep",
          "type": "uint8"
        }
      ],
      "name": "verifyStep",
      "outputs": [],
      "stateMutability": "nonpayable",
      "type": "function"
    }
  ],
  "bytecode": "0x60806040523480156200001157600080fd5b5033600073ffffffffffffffffffffffffffffffffffffffff168173ffffffffffffffffffffffffffffffffffffffff1603620000885760006040517f1e4fbdf70000000000000000000000000000000000000000000000000000000081526004016200007f9190620001a9565b60405180910390fd5b6200009981620000a060201b60201c565b50620001c6565b60008060009054906101000a900473ffffffffffffffffffffffffffffffffffffffff169050816000806101000a81548173ffffffffffffffffffffffffffffffffffffffff021916908373ffffffffffffffffffffffffffffffffffffffff1602179055508173ffffffffffffffffffffffffffffffffffffffff168173ffffffffffffffffffffffffffffffffffffffff167f8be0079c531659141344cd1fd0a4f28419497f9722a3daafe3b4186f6b6457e060405160405180910390a35050565b600073ffffffffffffffffffffffffffffffffffffffff82169050919050565b6000620001918262000164565b9050919050565b620001a38162000184565b82525050565b6000602082019050620001c0600083018462000198565b92915050565b611c5a80620001d66000396000f3fe608060405234801561001057600080fd5b506004361061010b5760003560e01c80638da5cb5b116100a2578063bc28d87811610071578063bc28d87814610296578063c7f758a8146102b2578063cceb68f5146102e2578063e9819cbd14610300578063f2fde38b146103305761010b565b80638da5cb5b146101f657806392e8cca2146102145780639b644a2314610248578063aae282e1146102785761010b565b80634af16628116100de5780634af166281461018257806369c3ff981461019e578063715018a6146101bc57806374c260cf146101c65761010b565b8063199758ee1461011057806323949cd11461012c5780632dfca445146101485780633feb85c114610166575b600080fd5b61012a60048036038101906101259190610f19565b61034c565b005b61014660048036038101906101419190610fc0565b610445565b005b610150610489565b60405161015d9190611006565b60405180910390f35b610180600480360381019061017b9190610fc0565b61048f565b005b61019c60048036038101906101979190611072565b6104d3565b005b6101a6610654565b6040516101b391906110c1565b60405180910390f35b6101c461067a565b005b6101e060048036038101906101db91906110dc565b61068e565b6040516101ed9190611180565b60405180910390f35b6101fe6106ae565b60405161020b91906110c1565b60405180910390f35b61022e600480360381019061022991906110dc565b6106d7565b60405161023f95949392919061122b565b60405180910390f35b610262600480360381019061025d91906110dc565b6108c5565b60405161026f9190611006565b60405180910390f35b6102806108e9565b60405161028d91906110c1565b60405180910390f35b6102b060048036038101906102ab91906110dc565b61090f565b005b6102cc60048036038101906102c791906110dc565b610a12565b6040516102d9919061137f565b60405180910390f35b6102ea610c55565b6040516102f79190611450565b60405180910390f35b61031a600480360381019061031591906110dc565b610cad565b604051610327919061148d565b60405180910390f35b61034a60048036038101906103459190610fc0565b610ccd565b005b80600460006003548152602001908152602001600020818161036e9190611a30565b905050600060066000600354815260200190815260200160002060006101000a81548160ff021916908360048111156103aa576103a9611109565b5b021790555060056003549080600181540180825580915050600190039060005260206000200160009091909190915055600360008154809291906103ed90611a6d565b91905055506003547f961208aa3e528e7624367220a862d58a9483ed782d8bc03c42f558d85e9c1ec8828060200190610426919061158d565b846040013560405161043a93929190611af1565b60405180910390a250565b80600160006101000a81548173ffffffffffffffffffffffffffffffffffffffff021916908373ffffffffffffffffffffffffffffffffffffffff16021790555050565b60035481565b80600260006101000a81548173ffffffffffffffffffffffffffffffffffffffff021916908373ffffffffffffffffffffffffffffffffffffffff16021790555050565b60076000600354815260200190815260200160002060009054906101000a900460ff1615610536576040517f08c379a000000000000000000000000000000000000000000000000000000000815260040161052d90611b6f565b60405180910390fd5b600080600481111561054b5761054a611109565b5b82600481111561055e5761055d611109565b5b0361056c5760019050610613565b600160048111156105805761057f611109565b5b82600481111561059357610592611109565b5b036105a15760029050610612565b600260048111156105b5576105b4611109565b5b8260048111156105c8576105c7611109565b5b036105d65760039050610611565b6040517f08c379a000000000000000000000000000000000000000000000000000000000815260040161060890611bdb565b60405180910390fd5b5b5b6003547fb66123442b5cecb65e69792eb5d9dd4e8abd4552e907d9f0f84cd98b6862fdd38383604051610647929190611bfb565b60405180910390a2505050565b600260009054906101000a900473ffffffffffffffffffffffffffffffffffffffff1681565b610682610d53565b61068c6000610dda565b565b60066020528060005260406000206000915054906101000a900460ff1681565b60008060009054906101000a900473ffffffffffffffffffffffffffffffffffffffff16905090565b60046020528060005260406000206000915090508060000160009054906101000a900473ffffffffffffffffffffffffffffffffffffffff169080600101805461072090611659565b80601f016020809104026020016040519081016040528092919081815260200182805461074c90611659565b80156107995780601f1061076e57610100808354040283529160200191610799565b820191906000526020600020905b81548152906001019060200180831161077c57829003601f168201915b5050505050908060020154908060030180546107b490611659565b80601f01602080910402602001604051908101604052809291908181526020018280546107e090611659565b801561082d5780601f106108025761010080835404028352916020019161082d565b820191906000526020600020905b81548152906001019060200180831161081057829003601f168201915b50505050509080600401805461084290611659565b80601f016020809104026020016040519081016040528092919081815260200182805461086e90611659565b80156108bb5780601f10610890576101008083540402835291602001916108bb565b820191906000526020600020905b81548152906001019060200180831161089e57829003601f168201915b5050505050905085565b600581815481106108d557600080fd5b906000526020600020016000915090505481565b600160009054906101000a900473ffffffffffffffffffffffffffffffffffffffff1681565b610917610d53565b60076000600354815260200190815260200160002060009054906101000a900460ff161561097a576040517f08c379a000000000000000000000000000000000000000000000000000000000815260040161097190611b6f565b60405180910390fd5b60046006600083815260200190815260200160002060006101000a81548160ff021916908360048111156109b1576109b0611109565b5b021790555060016007600083815260200190815260200160002060006101000a81548160ff021916908315150217905550807f051394e5cf50e28f5ee446d54e6b713eb0cb38f53eebc74eb30c2478c343c4ce60405160405180910390a250565b610a1a610ea6565b600460008381526020019081526020016000206040518060a00160405290816000820160009054906101000a900473ffffffffffffffffffffffffffffffffffffffff1673ffffffffffffffffffffffffffffffffffffffff1673ffffffffffffffffffffffffffffffffffffffff168152602001600182018054610a9e90611659565b80601f0160208091040260200160405190810160405280929190818152602001828054610aca90611659565b8015610b175780601f10610aec57610100808354040283529160200191610b17565b820191906000526020600020905b815481529060010190602001808311610afa57829003601f168201915b5050505050815260200160028201548152602001600382018054610b3a90611659565b80601f0160208091040260200160405190810160405280929190818152602001828054610b6690611659565b8015610bb35780601f10610b8857610100808354040283529160200191610bb3565b820191906000526020600020905b815481529060010190602001808311610b9657829003601f168201915b50505050508152602001600482018054610bcc90611659565b80601f0160208091040260200160405190810160405280929190818152602001828054610bf890611659565b8015610c455780601f10610c1a57610100808354040283529160200191610c45565b820191906000526020600020905b815481529060010190602001808311610c2857829003601f168201915b5050505050815250509050919050565b60606005805480602002602001604051908101604052809291908181526020018280548015610ca357602002820191906000526020600020905b815481526020019060010190808311610c8f575b5050505050905090565b60076020528060005260406000206000915054906101000a900460ff1681565b610cd5610d53565b600073ffffffffffffffffffffffffffffffffffffffff168173ffffffffffffffffffffffffffffffffffffffff1603610d475760006040517f1e4fbdf7000000000000000000000000000000000000000000000000000000008152600401610d3e91906110c1565b60405180910390fd5b610d5081610dda565b50565b610d5b610e9e565b73ffffffffffffffffffffffffffffffffffffffff16610d796106ae565b73ffffffffffffffffffffffffffffffffffffffff1614610dd857610d9c610e9e565b6040517f118cdaa7000000000000000000000000000000000000000000000000000000008152600401610dcf91906110c1565b60405180910390fd5b565b60008060009054906101000a900473ffffffffffffffffffffffffffffffffffffffff169050816000806101000a81548173ffffffffffffffffffffffffffffffffffffffff021916908373ffffffffffffffffffffffffffffffffffffffff1602179055508173ffffffffffffffffffffffffffffffffffffffff168173ffffffffffffffffffffffffffffffffffffffff167f8be0079c531659141344cd1fd0a4f28419497f9722a3daafe3b4186f6b6457e060405160405180910390a35050565b600033905090565b6040518060a00160405280600073ffffffffffffffffffffffffffffffffffffffff168152602001606081526020016000815260200160608152602001606081525090565b600080fd5b600080fd5b600080fd5b600060a08284031215610f1057610f0f610ef5565b5b81905092915050565b600060208284031215610f2f57610f2e610eeb565b5b600082013567ffffffffffffffff811115610f4d57610f4c610ef0565b5b610f5984828501610efa565b91505092915050565b600073ffffffffffffffffffffffffffffffffffffffff82169050919050565b6000610f8d82610f62565b9050919050565b610f9d81610f82565b8114610fa857600080fd5b50565b600081359050610fba81610f94565b92915050565b600060208284031215610fd657610fd5610eeb565b5b6000610fe484828501610fab565b91505092915050565b6000819050919050565b61100081610fed565b82525050565b600060208201905061101b6000830184610ff7565b92915050565b61102a81610fed565b811461103557600080fd5b50565b60008135905061104781611021565b92915050565b6005811061105a57600080fd5b50565b60008135905061106c8161104d565b92915050565b6000806040838503121561108957611088610eeb565b5b600061109785828601611038565b92505060206110a88582860161105d565b9150509250929050565b6110bb81610f82565b82525050565b60006020820190506110d660008301846110b2565b92915050565b6000602082840312156110f2576110f1610eeb565b5b600061110084828501611038565b91505092915050565b7f4e487b7100000000000000000000000000000000000000000000000000000000600052602160045260246000fd5b6005811061114957611148611109565b5b50565b600081905061115a82611138565b919050565b600061116a8261114c565b9050919050565b61117a8161115f565b82525050565b60006020820190506111956000830184611171565b92915050565b600081519050919050565b600082825260208201905092915050565b60005b838110156111d55780820151818401526020810190506111ba565b60008484015250505050565b6000601f19601f8301169050919050565b60006111fd8261119b565b61120781856111a6565b93506112178185602086016111b7565b611220816111e1565b840191505092915050565b600060a08201905061124060008301886110b2565b818103602083015261125281876111f2565b90506112616040830186610ff7565b818103606083015261127381856111f2565b9050818103608083015261128781846111f2565b90509695505050505050565b61129c81610f82565b82525050565b600082825260208201905092915050565b60006112be8261119b565b6112c881856112a2565b93506112d88185602086016111b7565b6112e1816111e1565b840191505092915050565b6112f581610fed565b82525050565b600060a0830160008301516113136000860182611293565b506020830151848203602086015261132b82826112b3565b915050604083015161134060408601826112ec565b506060830151848203606086015261135882826112b3565b9150506080830151848203608086015261137282826112b3565b9150508091505092915050565b6000602082019050818103600083015261139981846112fb565b905092915050565b600081519050919050565b600082825260208201905092915050565b6000819050602082019050919050565b60006113d983836112ec565b60208301905092915050565b6000602082019050919050565b60006113fd826113a1565b61140781856113ac565b9350611412836113bd565b8060005b8381101561144357815161142a88826113cd565b9750611435836113e5565b925050600181019050611416565b5085935050505092915050565b6000602082019050818103600083015261146a81846113f2565b905092915050565b60008115159050919050565b61148781611472565b82525050565b60006020820190506114a2600083018461147e565b92915050565b600081356114b581610f94565b80915050919050565b60008160001b9050919050565b600073ffffffffffffffffffffffffffffffffffffffff6114eb846114be565b9350801983169250808416831791505092915050565b6000819050919050565b600061152661152161151c84610f62565b611501565b610f62565b9050919050565b60006115388261150b565b9050919050565b600061154a8261152d565b9050919050565b6000819050919050565b6115648261153f565b61157761157082611551565b83546114cb565b8255505050565b600080fd5b600080fd5b600080fd5b600080833560016020038436030381126115aa576115a961157e565b5b80840192508235915067ffffffffffffffff8211156115cc576115cb611583565b5b6020830192506001820236038313156115e8576115e7611588565b5b509250929050565b600082905092915050565b7f4e487b7100000000000000000000000000000000000000000000000000000000600052604160045260246000fd5b7f4e487b7100000000000000000000000000000000000000000000000000000000600052602260045260246000fd5b6000600282049050600182168061167157607f821691505b6020821081036116845761168361162a565b5b50919050565b60008190508160005260206000209050919050565b60006020601f8301049050919050565b600082821b905092915050565b6000600883026116ec7fffffffffffffffffffffffffffffffffffffffffffffffffffffffffffffffff826116af565b6116f686836116af565b95508019841693508086168417925050509392505050565b600061172961172461171f84610fed565b611501565b610fed565b9050919050565b6000819050919050565b6117438361170e565b61175761174f82611730565b8484546116bc565b825550505050565b600090565b61176c61175f565b61177781848461173a565b505050565b5b8181101561179b57611790600082611764565b60018101905061177d565b5050565b601f8211156117e0576117b18161168a565b6117ba8461169f565b810160208510156117c9578190505b6117dd6117d58561169f565b83018261177c565b50505b505050565b600082821c905092915050565b6000611803600019846008026117e5565b1980831691505092915050565b600061181c83836117f2565b9150826002028217905092915050565b61183683836115f0565b67ffffffffffffffff81111561184f5761184e6115fb565b5b6118598254611659565b61186482828561179f565b6000601f8311600181146118935760008415611881578287013590505b61188b8582611810565b8655506118f3565b601f1984166118a18661168a565b60005b828110156118c9578489013582556001820191506020850194506020810190506118a4565b868310156118e657848901356118e2601f8916826117f2565b8355505b6001600288020188555050505b50505050505050565b61190783838361182c565b505050565b6000813561191981611021565b80915050919050565b60007fffffffffffffffffffffffffffffffffffffffffffffffffffffffffffffffff61194e846114be565b9350801983169250808416831791505092915050565b61196d8261170e565b61198061197982611730565b8354611922565b8255505050565b600081016000830180611999816114a8565b90506119a5818461155b565b50505060018101602083016119ba818561158d565b6119c58183866118fc565b505050506002810160408301806119db8161190c565b90506119e78184611964565b50505060038101606083016119fc818561158d565b611a078183866118fc565b505050506004810160808301611a1d818561158d565b611a288183866118fc565b505050505050565b611a3a8282611987565b5050565b7f4e487b7100000000000000000000000000000000000000000000000000000000600052601160045260246000fd5b6000611a7882610fed565b91507fffffffffffffffffffffffffffffffffffffffffffffffffffffffffffffffff8203611aaa57611aa9611a3e565b5b600182019050919050565b82818337600083830152505050565b6000611ad083856111a6565b9350611add838584611ab5565b611ae6836111e1565b840190509392505050565b60006040820190508181036000830152611b0c818587611ac4565b9050611b1b6020830184610ff7565b949350505050565b7f50726f706f73616c20616c726561647920766572696669656400000000000000600082015250565b6000611b596019836111a6565b9150611b6482611b23565b602082019050919050565b60006020820190508181036000830152611b8881611b4c565b9050919050565b7f496e76616c696420737465700000000000000000000000000000000000000000600082015250565b6000611bc5600c836111a6565b9150611bd082611b8f565b602082019050919050565b60006020820190508181036000830152611bf481611bb8565b9050919050565b6000604082019050611c106000830185611171565b611c1d6020830184611171565b939250505056fea2646970667358221220434acef818b632843f0f7092e06867e7e6ec26ee793db18243e84c0b0e3b583b64736f6c63430008180033",
  "linkReferences": {},
  "deployedLinkReferences": {}
}