{
  "_format": "hh-sol-artifact-1",
  "contractName": "Oracle",
  "sourceName": "contracts/Oracle.sol",
  "abi": [
    {
      "inputs": [],
      "stateMutability": "nonpayable",
      "type": "constructor"
    },
    {
      "inputs": [
        {
          "internalType": "address",
          "name": "owner",
          "type": "address"
        }
      ],
      "name": "OwnableInvalidOwner",
      "type": "error"
    },
    {
      "inputs": [
        {
          "internalType": "address",
          "name": "account",
          "type": "address"
        }
      ],
      "name": "OwnableUnauthorizedAccount",
      "type": "error"
    },
    {
      "anonymous": false,
      "inputs": [
        {
          "indexed": true,
          "internalType": "address",
          "name": "previousOwner",
          "type": "address"
        },
        {
          "indexed": true,
          "internalType": "address",
          "name": "newOwner",
          "type": "address"
        }
      ],
      "name": "OwnershipTransferred",
      "type": "event"
    },
    {
      "anonymous": false,
      "inputs": [
        {
          "indexed": true,
          "internalType": "uint256",
          "name": "proposalId",
          "type": "uint256"
        },
        {
          "indexed": false,
          "internalType": "string",
          "name": "location",
          "type": "string"
        },
        {
          "indexed": false,
          "internalType": "uint256",
          "name": "price",
          "type": "uint256"
        }
      ],
      "name": "ProposalAdded",
      "type": "event"
    },
    {
      "anonymous": false,
      "inputs": [
        {
          "indexed": true,
          "internalType": "uint256",
          "name": "proposalId",
          "type": "uint256"
        },
        {
          "indexed": false,
          "internalType": "enum Oracle.ProposalStatus",
          "name": "oldStatus",
          "type": "uint8"
        },
        {
          "indexed": false,
          "internalType": "enum Oracle.ProposalStatus",
          "name": "newStatus",
          "type": "uint8"
        }
      ],
      "name": "ProposalStatusUpdated",
      "type": "event"
    },
    {
      "anonymous": false,
      "inputs": [
        {
          "indexed": true,
          "internalType": "uint256",
          "name": "proposalId",
          "type": "uint256"
        }
      ],
      "name": "ProposalVerified",
      "type": "event"
    },
    {
      "inputs": [
        {
          "components": [
            {
              "internalType": "address",
              "name": "owner",
              "type": "address"
            },
            {
              "internalType": "string",
              "name": "location",
              "type": "string"
            },
            {
              "internalType": "uint256",
              "name": "price",
              "type": "uint256"
            },
            {
              "internalType": "string",
              "name": "contractIPFSHash",
              "type": "string"
            },
            {
              "internalType": "string",
              "name": "imagesIPFSHash",
              "type": "string"
            }
          ],
          "internalType": "struct Lib.LandListingProposal",
          "name": "_proposal",
          "type": "tuple"
        }
      ],
      "name": "addProposal",
      "outputs": [],
      "stateMutability": "nonpayable",
      "type": "function"
    },
    {
      "inputs": [],
      "name": "getAllProposals",
      "outputs": [
        {
          "components": [
            {
              "internalType": "address",
              "name": "owner",
              "type": "address"
            },
            {
              "internalType": "string",
              "name": "location",
              "type": "string"
            },
            {
              "internalType": "uint256",
              "name": "price",
              "type": "uint256"
            },
            {
              "internalType": "string",
              "name": "contractIPFSHash",
              "type": "string"
            },
            {
              "internalType": "string",
              "name": "imagesIPFSHash",
              "type": "string"
            }
          ],
          "internalType": "struct Lib.LandListingProposal[]",
          "name": "",
          "type": "tuple[]"
        }
      ],
      "stateMutability": "view",
      "type": "function"
    },
    {
      "inputs": [
        {
          "internalType": "uint256",
          "name": "_proposalId",
          "type": "uint256"
        }
      ],
      "name": "getProposal",
      "outputs": [
        {
          "components": [
            {
              "internalType": "address",
              "name": "owner",
              "type": "address"
            },
            {
              "internalType": "string",
              "name": "location",
              "type": "string"
            },
            {
              "internalType": "uint256",
              "name": "price",
              "type": "uint256"
            },
            {
              "internalType": "string",
              "name": "contractIPFSHash",
              "type": "string"
            },
            {
              "internalType": "string",
              "name": "imagesIPFSHash",
              "type": "string"
            }
          ],
          "internalType": "struct Lib.LandListingProposal",
          "name": "",
          "type": "tuple"
        }
      ],
      "stateMutability": "view",
      "type": "function"
    },
    {
      "inputs": [
        {
          "internalType": "uint256",
          "name": "",
          "type": "uint256"
        }
      ],
      "name": "landListingProposals",
      "outputs": [
        {
          "internalType": "address",
          "name": "owner",
          "type": "address"
        },
        {
          "internalType": "string",
          "name": "location",
          "type": "string"
        },
        {
          "internalType": "uint256",
          "name": "price",
          "type": "uint256"
        },
        {
          "internalType": "string",
          "name": "contractIPFSHash",
          "type": "string"
        },
        {
          "internalType": "string",
          "name": "imagesIPFSHash",
          "type": "string"
        }
      ],
      "stateMutability": "view",
      "type": "function"
    },
    {
      "inputs": [
        {
          "internalType": "uint256",
          "name": "",
          "type": "uint256"
        }
      ],
      "name": "landListingProposalsArray",
      "outputs": [
        {
          "internalType": "address",
          "name": "owner",
          "type": "address"
        },
        {
          "internalType": "string",
          "name": "location",
          "type": "string"
        },
        {
          "internalType": "uint256",
          "name": "price",
          "type": "uint256"
        },
        {
          "internalType": "string",
          "name": "contractIPFSHash",
          "type": "string"
        },
        {
          "internalType": "string",
          "name": "imagesIPFSHash",
          "type": "string"
        }
      ],
      "stateMutability": "view",
      "type": "function"
    },
    {
      "inputs": [],
      "name": "nftContractAddress",
      "outputs": [
        {
          "internalType": "address",
          "name": "",
          "type": "address"
        }
      ],
      "stateMutability": "view",
      "type": "function"
    },
    {
      "inputs": [],
      "name": "owner",
      "outputs": [
        {
          "internalType": "address",
          "name": "",
          "type": "address"
        }
      ],
      "stateMutability": "view",
      "type": "function"
    },
    {
      "inputs": [],
      "name": "proposalId",
      "outputs": [
        {
          "internalType": "uint256",
          "name": "",
          "type": "uint256"
        }
      ],
      "stateMutability": "view",
      "type": "function"
    },
    {
      "inputs": [
        {
          "internalType": "uint256",
          "name": "",
          "type": "uint256"
        }
      ],
      "name": "proposalIds",
      "outputs": [
        {
          "internalType": "uint256",
          "name": "",
          "type": "uint256"
        }
      ],
      "stateMutability": "view",
      "type": "function"
    },
    {
      "inputs": [
        {
          "internalType": "uint256",
          "name": "",
          "type": "uint256"
        }
      ],
      "name": "proposalStatus",
      "outputs": [
        {
          "internalType": "enum Oracle.ProposalStatus",
          "name": "",
          "type": "uint8"
        }
      ],
      "stateMutability": "view",
      "type": "function"
    },
    {
      "inputs": [
        {
          "internalType": "uint256",
          "name": "_proposalId",
          "type": "uint256"
        }
      ],
      "name": "rejectProposal",
      "outputs": [],
      "stateMutability": "nonpayable",
      "type": "function"
    },
    {
      "inputs": [],
      "name": "renounceOwnership",
      "outputs": [],
      "stateMutability": "nonpayable",
      "type": "function"
    },
    {
      "inputs": [
        {
          "internalType": "address",
          "name": "_nftContractAddress",
          "type": "address"
        }
      ],
      "name": "setNFTContractAddress",
      "outputs": [],
      "stateMutability": "nonpayable",
      "type": "function"
    },
    {
      "inputs": [
        {
          "internalType": "address",
          "name": "_subDaoContractAddress",
          "type": "address"
        }
      ],
      "name": "setSubDAOContractAddress",
      "outputs": [],
      "stateMutability": "nonpayable",
      "type": "function"
    },
    {
      "inputs": [],
      "name": "subDaoContractAddress",
      "outputs": [
        {
          "internalType": "contract SubDAOContract",
          "name": "",
          "type": "address"
        }
      ],
      "stateMutability": "view",
      "type": "function"
    },
    {
      "inputs": [
        {
          "internalType": "address",
          "name": "newOwner",
          "type": "address"
        }
      ],
      "name": "transferOwnership",
      "outputs": [],
      "stateMutability": "nonpayable",
      "type": "function"
    },
    {
      "inputs": [
        {
          "internalType": "uint256",
          "name": "",
          "type": "uint256"
        }
      ],
      "name": "verifiedProposals",
      "outputs": [
        {
          "internalType": "bool",
          "name": "",
          "type": "bool"
        }
      ],
      "stateMutability": "view",
      "type": "function"
    },
    {
      "inputs": [
        {
          "internalType": "uint256",
          "name": "_proposalId",
          "type": "uint256"
        },
        {
          "internalType": "enum Oracle.ProposalStatus",
          "name": "_verfiedStep",
          "type": "uint8"
        }
      ],
      "name": "verifyStep",
      "outputs": [],
      "stateMutability": "nonpayable",
      "type": "function"
    }
  ],
  "bytecode": "0x60806040523480156200001157600080fd5b5033600073ffffffffffffffffffffffffffffffffffffffff168173ffffffffffffffffffffffffffffffffffffffff1603620000885760006040517f1e4fbdf70000000000000000000000000000000000000000000000000000000081526004016200007f9190620001a9565b60405180910390fd5b6200009981620000a060201b60201c565b50620001c6565b60008060009054906101000a900473ffffffffffffffffffffffffffffffffffffffff169050816000806101000a81548173ffffffffffffffffffffffffffffffffffffffff021916908373ffffffffffffffffffffffffffffffffffffffff1602179055508173ffffffffffffffffffffffffffffffffffffffff168173ffffffffffffffffffffffffffffffffffffffff167f8be0079c531659141344cd1fd0a4f28419497f9722a3daafe3b4186f6b6457e060405160405180910390a35050565b600073ffffffffffffffffffffffffffffffffffffffff82169050919050565b6000620001918262000164565b9050919050565b620001a38162000184565b82525050565b6000602082019050620001c0600083018462000198565b92915050565b6123fc80620001d66000396000f3fe608060405234801561001057600080fd5b50600436106101165760003560e01c806392e8cca2116100a2578063c7f758a811610071578063c7f758a8146102bd578063cceb68f5146102ed578063d3aa47d51461030b578063e9819cbd1461033f578063f2fde38b1461036f57610116565b806392e8cca21461021f5780639b644a2314610253578063aae282e114610283578063bc28d878146102a157610116565b80634af16628116100e95780634af166281461018f578063565800a5146101ab578063715018a6146101c757806374c260cf146101d15780638da5cb5b1461020157610116565b80630e5206a11461011b578063199758ee1461013957806323949cd1146101555780632dfca44514610171575b600080fd5b61012361038b565b60405161013091906115cd565b60405180910390f35b610153600480360381019061014e9190611616565b6103b1565b005b61016f600480360381019061016a919061169d565b6104e4565b005b610179610528565b60405161018691906116e3565b60405180910390f35b6101a960048036038101906101a4919061174f565b61052e565b005b6101c560048036038101906101c0919061169d565b61087e565b005b6101cf6108c2565b005b6101eb60048036038101906101e6919061178f565b6108d6565b6040516101f89190611833565b60405180910390f35b6102096108f6565b604051610216919061185d565b60405180910390f35b6102396004803603810190610234919061178f565b61091f565b60405161024a959493929190611908565b60405180910390f35b61026d6004803603810190610268919061178f565b610b0d565b60405161027a91906116e3565b60405180910390f35b61028b610b31565b604051610298919061185d565b60405180910390f35b6102bb60048036038101906102b6919061178f565b610b57565b005b6102d760048036038101906102d2919061178f565b610c5a565b6040516102e49190611a5c565b60405180910390f35b6102f5610e9d565b6040516103029190611bc4565b60405180910390f35b6103256004803603810190610320919061178f565b611112565b604051610336959493929190611908565b60405180910390f35b6103596004803603810190610354919061178f565b611310565b6040516103669190611c01565b60405180910390f35b6103896004803603810190610384919061169d565b611330565b005b600260009054906101000a900473ffffffffffffffffffffffffffffffffffffffff1681565b8060046000600354815260200190815260200160002081816103d39190612166565b905050600060076000600354815260200190815260200160002060006101000a81548160ff0219169083600481111561040f5761040e6117bc565b5b02179055506006600354908060018154018082558091505060019003906000526020600020016000909190919091505560036000815480929190610452906121a3565b91905055506005819080600181540180825580915050600190039060005260206000209060050201600090919091909150818161048f9190612166565b50506003547f961208aa3e528e7624367220a862d58a9483ed782d8bc03c42f558d85e9c1ec88280602001906104c59190611cc3565b84604001356040516104d993929190612227565b60405180910390a250565b80600160006101000a81548173ffffffffffffffffffffffffffffffffffffffff021916908373ffffffffffffffffffffffffffffffffffffffff16021790555050565b60035481565b60086000600354815260200190815260200160002060009054906101000a900460ff1615610591576040517f08c379a0000000000000000000000000000000000000000000000000000000008152600401610588906122a5565b60405180910390fd5b60008060048111156105a6576105a56117bc565b5b8260048111156105b9576105b86117bc565b5b036106025760019050806007600085815260200190815260200160002060006101000a81548160ff021916908360048111156105f8576105f76117bc565b5b021790555061083d565b60016004811115610616576106156117bc565b5b826004811115610629576106286117bc565b5b036106725760029050806007600085815260200190815260200160002060006101000a81548160ff02191690836004811115610668576106676117bc565b5b021790555061083c565b60026004811115610686576106856117bc565b5b826004811115610699576106986117bc565b5b036108005760039050806007600085815260200190815260200160002060006101000a81548160ff021916908360048111156106d8576106d76117bc565b5b0217905550600073ffffffffffffffffffffffffffffffffffffffff16600260009054906101000a900473ffffffffffffffffffffffffffffffffffffffff1673ffffffffffffffffffffffffffffffffffffffff160361076e576040517f08c379a000000000000000000000000000000000000000000000000000000000815260040161076590612311565b60405180910390fd5b600260009054906101000a900473ffffffffffffffffffffffffffffffffffffffff1673ffffffffffffffffffffffffffffffffffffffff166360c5cc3a846040518263ffffffff1660e01b81526004016107c991906116e3565b600060405180830381600087803b1580156107e357600080fd5b505af11580156107f7573d6000803e3d6000fd5b5050505061083b565b6040517f08c379a00000000000000000000000000000000000000000000000000000000081526004016108329061237d565b60405180910390fd5b5b5b6003547fb66123442b5cecb65e69792eb5d9dd4e8abd4552e907d9f0f84cd98b6862fdd3838360405161087192919061239d565b60405180910390a2505050565b80600260006101000a81548173ffffffffffffffffffffffffffffffffffffffff021916908373ffffffffffffffffffffffffffffffffffffffff16021790555050565b6108ca6113b6565b6108d4600061143d565b565b60076020528060005260406000206000915054906101000a900460ff1681565b60008060009054906101000a900473ffffffffffffffffffffffffffffffffffffffff16905090565b60046020528060005260406000206000915090508060000160009054906101000a900473ffffffffffffffffffffffffffffffffffffffff169080600101805461096890611d8f565b80601f016020809104026020016040519081016040528092919081815260200182805461099490611d8f565b80156109e15780601f106109b6576101008083540402835291602001916109e1565b820191906000526020600020905b8154815290600101906020018083116109c457829003601f168201915b5050505050908060020154908060030180546109fc90611d8f565b80601f0160208091040260200160405190810160405280929190818152602001828054610a2890611d8f565b8015610a755780601f10610a4a57610100808354040283529160200191610a75565b820191906000526020600020905b815481529060010190602001808311610a5857829003601f168201915b505050505090806004018054610a8a90611d8f565b80601f0160208091040260200160405190810160405280929190818152602001828054610ab690611d8f565b8015610b035780601f10610ad857610100808354040283529160200191610b03565b820191906000526020600020905b815481529060010190602001808311610ae657829003601f168201915b5050505050905085565b60068181548110610b1d57600080fd5b906000526020600020016000915090505481565b600160009054906101000a900473ffffffffffffffffffffffffffffffffffffffff1681565b610b5f6113b6565b60086000600354815260200190815260200160002060009054906101000a900460ff1615610bc2576040517f08c379a0000000000000000000000000000000000000000000000000000000008152600401610bb9906122a5565b60405180910390fd5b60046007600083815260200190815260200160002060006101000a81548160ff02191690836004811115610bf957610bf86117bc565b5b021790555060016008600083815260200190815260200160002060006101000a81548160ff021916908315150217905550807f051394e5cf50e28f5ee446d54e6b713eb0cb38f53eebc74eb30c2478c343c4ce60405160405180910390a250565b610c62611509565b600460008381526020019081526020016000206040518060a00160405290816000820160009054906101000a900473ffffffffffffffffffffffffffffffffffffffff1673ffffffffffffffffffffffffffffffffffffffff1673ffffffffffffffffffffffffffffffffffffffff168152602001600182018054610ce690611d8f565b80601f0160208091040260200160405190810160405280929190818152602001828054610d1290611d8f565b8015610d5f5780601f10610d3457610100808354040283529160200191610d5f565b820191906000526020600020905b815481529060010190602001808311610d4257829003601f168201915b5050505050815260200160028201548152602001600382018054610d8290611d8f565b80601f0160208091040260200160405190810160405280929190818152602001828054610dae90611d8f565b8015610dfb5780601f10610dd057610100808354040283529160200191610dfb565b820191906000526020600020905b815481529060010190602001808311610dde57829003601f168201915b50505050508152602001600482018054610e1490611d8f565b80601f0160208091040260200160405190810160405280929190818152602001828054610e4090611d8f565b8015610e8d5780601f10610e6257610100808354040283529160200191610e8d565b820191906000526020600020905b815481529060010190602001808311610e7057829003601f168201915b5050505050815250509050919050565b60606005805480602002602001604051908101604052809291908181526020016000905b8282101561110957838290600052602060002090600502016040518060a00160405290816000820160009054906101000a900473ffffffffffffffffffffffffffffffffffffffff1673ffffffffffffffffffffffffffffffffffffffff1673ffffffffffffffffffffffffffffffffffffffff168152602001600182018054610f4a90611d8f565b80601f0160208091040260200160405190810160405280929190818152602001828054610f7690611d8f565b8015610fc35780601f10610f9857610100808354040283529160200191610fc3565b820191906000526020600020905b815481529060010190602001808311610fa657829003601f168201915b5050505050815260200160028201548152602001600382018054610fe690611d8f565b80601f016020809104026020016040519081016040528092919081815260200182805461101290611d8f565b801561105f5780601f106110345761010080835404028352916020019161105f565b820191906000526020600020905b81548152906001019060200180831161104257829003601f168201915b5050505050815260200160048201805461107890611d8f565b80601f01602080910402602001604051908101604052809291908181526020018280546110a490611d8f565b80156110f15780601f106110c6576101008083540402835291602001916110f1565b820191906000526020600020905b8154815290600101906020018083116110d457829003601f168201915b50505050508152505081526020019060010190610ec1565b50505050905090565b6005818154811061112257600080fd5b90600052602060002090600502016000915090508060000160009054906101000a900473ffffffffffffffffffffffffffffffffffffffff169080600101805461116b90611d8f565b80601f016020809104026020016040519081016040528092919081815260200182805461119790611d8f565b80156111e45780601f106111b9576101008083540402835291602001916111e4565b820191906000526020600020905b8154815290600101906020018083116111c757829003601f168201915b5050505050908060020154908060030180546111ff90611d8f565b80601f016020809104026020016040519081016040528092919081815260200182805461122b90611d8f565b80156112785780601f1061124d57610100808354040283529160200191611278565b820191906000526020600020905b81548152906001019060200180831161125b57829003601f168201915b50505050509080600401805461128d90611d8f565b80601f01602080910402602001604051908101604052809291908181526020018280546112b990611d8f565b80156113065780601f106112db57610100808354040283529160200191611306565b820191906000526020600020905b8154815290600101906020018083116112e957829003601f168201915b5050505050905085565b60086020528060005260406000206000915054906101000a900460ff1681565b6113386113b6565b600073ffffffffffffffffffffffffffffffffffffffff168173ffffffffffffffffffffffffffffffffffffffff16036113aa5760006040517f1e4fbdf70000000000000000000000000000000000000000000000000000000081526004016113a1919061185d565b60405180910390fd5b6113b38161143d565b50565b6113be611501565b73ffffffffffffffffffffffffffffffffffffffff166113dc6108f6565b73ffffffffffffffffffffffffffffffffffffffff161461143b576113ff611501565b6040517f118cdaa7000000000000000000000000000000000000000000000000000000008152600401611432919061185d565b60405180910390fd5b565b60008060009054906101000a900473ffffffffffffffffffffffffffffffffffffffff169050816000806101000a81548173ffffffffffffffffffffffffffffffffffffffff021916908373ffffffffffffffffffffffffffffffffffffffff1602179055508173ffffffffffffffffffffffffffffffffffffffff168173ffffffffffffffffffffffffffffffffffffffff167f8be0079c531659141344cd1fd0a4f28419497f9722a3daafe3b4186f6b6457e060405160405180910390a35050565b600033905090565b6040518060a00160405280600073ffffffffffffffffffffffffffffffffffffffff168152602001606081526020016000815260200160608152602001606081525090565b600073ffffffffffffffffffffffffffffffffffffffff82169050919050565b6000819050919050565b600061159361158e6115898461154e565b61156e565b61154e565b9050919050565b60006115a582611578565b9050919050565b60006115b78261159a565b9050919050565b6115c7816115ac565b82525050565b60006020820190506115e260008301846115be565b92915050565b600080fd5b600080fd5b600080fd5b600060a0828403121561160d5761160c6115f2565b5b81905092915050565b60006020828403121561162c5761162b6115e8565b5b600082013567ffffffffffffffff81111561164a576116496115ed565b5b611656848285016115f7565b91505092915050565b600061166a8261154e565b9050919050565b61167a8161165f565b811461168557600080fd5b50565b60008135905061169781611671565b92915050565b6000602082840312156116b3576116b26115e8565b5b60006116c184828501611688565b91505092915050565b6000819050919050565b6116dd816116ca565b82525050565b60006020820190506116f860008301846116d4565b92915050565b611707816116ca565b811461171257600080fd5b50565b600081359050611724816116fe565b92915050565b6005811061173757600080fd5b50565b6000813590506117498161172a565b92915050565b60008060408385031215611766576117656115e8565b5b600061177485828601611715565b92505060206117858582860161173a565b9150509250929050565b6000602082840312156117a5576117a46115e8565b5b60006117b384828501611715565b91505092915050565b7f4e487b7100000000000000000000000000000000000000000000000000000000600052602160045260246000fd5b600581106117fc576117fb6117bc565b5b50565b600081905061180d826117eb565b919050565b600061181d826117ff565b9050919050565b61182d81611812565b82525050565b60006020820190506118486000830184611824565b92915050565b6118578161165f565b82525050565b6000602082019050611872600083018461184e565b92915050565b600081519050919050565b600082825260208201905092915050565b60005b838110156118b2578082015181840152602081019050611897565b60008484015250505050565b6000601f19601f8301169050919050565b60006118da82611878565b6118e48185611883565b93506118f4818560208601611894565b6118fd816118be565b840191505092915050565b600060a08201905061191d600083018861184e565b818103602083015261192f81876118cf565b905061193e60408301866116d4565b818103606083015261195081856118cf565b9050818103608083015261196481846118cf565b90509695505050505050565b6119798161165f565b82525050565b600082825260208201905092915050565b600061199b82611878565b6119a5818561197f565b93506119b5818560208601611894565b6119be816118be565b840191505092915050565b6119d2816116ca565b82525050565b600060a0830160008301516119f06000860182611970565b5060208301518482036020860152611a088282611990565b9150506040830151611a1d60408601826119c9565b5060608301518482036060860152611a358282611990565b91505060808301518482036080860152611a4f8282611990565b9150508091505092915050565b60006020820190508181036000830152611a7681846119d8565b905092915050565b600081519050919050565b600082825260208201905092915050565b6000819050602082019050919050565b600060a083016000830151611ac26000860182611970565b5060208301518482036020860152611ada8282611990565b9150506040830151611aef60408601826119c9565b5060608301518482036060860152611b078282611990565b91505060808301518482036080860152611b218282611990565b9150508091505092915050565b6000611b3a8383611aaa565b905092915050565b6000602082019050919050565b6000611b5a82611a7e565b611b648185611a89565b935083602082028501611b7685611a9a565b8060005b85811015611bb25784840389528151611b938582611b2e565b9450611b9e83611b42565b925060208a01995050600181019050611b7a565b50829750879550505050505092915050565b60006020820190508181036000830152611bde8184611b4f565b905092915050565b60008115159050919050565b611bfb81611be6565b82525050565b6000602082019050611c166000830184611bf2565b92915050565b60008135611c2981611671565b80915050919050565b60008160001b9050919050565b600073ffffffffffffffffffffffffffffffffffffffff611c5f84611c32565b9350801983169250808416831791505092915050565b6000611c808261159a565b9050919050565b6000819050919050565b611c9a82611c75565b611cad611ca682611c87565b8354611c3f565b8255505050565b600080fd5b600080fd5b600080fd5b60008083356001602003843603038112611ce057611cdf611cb4565b5b80840192508235915067ffffffffffffffff821115611d0257611d01611cb9565b5b602083019250600182023603831315611d1e57611d1d611cbe565b5b509250929050565b600082905092915050565b7f4e487b7100000000000000000000000000000000000000000000000000000000600052604160045260246000fd5b7f4e487b7100000000000000000000000000000000000000000000000000000000600052602260045260246000fd5b60006002820490506001821680611da757607f821691505b602082108103611dba57611db9611d60565b5b50919050565b60008190508160005260206000209050919050565b60006020601f8301049050919050565b600082821b905092915050565b600060088302611e227fffffffffffffffffffffffffffffffffffffffffffffffffffffffffffffffff82611de5565b611e2c8683611de5565b95508019841693508086168417925050509392505050565b6000611e5f611e5a611e55846116ca565b61156e565b6116ca565b9050919050565b6000819050919050565b611e7983611e44565b611e8d611e8582611e66565b848454611df2565b825550505050565b600090565b611ea2611e95565b611ead818484611e70565b505050565b5b81811015611ed157611ec6600082611e9a565b600181019050611eb3565b5050565b601f821115611f1657611ee781611dc0565b611ef084611dd5565b81016020851015611eff578190505b611f13611f0b85611dd5565b830182611eb2565b50505b505050565b600082821c905092915050565b6000611f3960001984600802611f1b565b1980831691505092915050565b6000611f528383611f28565b9150826002028217905092915050565b611f6c8383611d26565b67ffffffffffffffff811115611f8557611f84611d31565b5b611f8f8254611d8f565b611f9a828285611ed5565b6000601f831160018114611fc95760008415611fb7578287013590505b611fc18582611f46565b865550612029565b601f198416611fd786611dc0565b60005b82811015611fff57848901358255600182019150602085019450602081019050611fda565b8683101561201c5784890135612018601f891682611f28565b8355505b6001600288020188555050505b50505050505050565b61203d838383611f62565b505050565b6000813561204f816116fe565b80915050919050565b60007fffffffffffffffffffffffffffffffffffffffffffffffffffffffffffffffff61208484611c32565b9350801983169250808416831791505092915050565b6120a382611e44565b6120b66120af82611e66565b8354612058565b8255505050565b6000810160008301806120cf81611c1c565b90506120db8184611c91565b50505060018101602083016120f08185611cc3565b6120fb818386612032565b5050505060028101604083018061211181612042565b905061211d818461209a565b50505060038101606083016121328185611cc3565b61213d818386612032565b5050505060048101608083016121538185611cc3565b61215e818386612032565b505050505050565b61217082826120bd565b5050565b7f4e487b7100000000000000000000000000000000000000000000000000000000600052601160045260246000fd5b60006121ae826116ca565b91507fffffffffffffffffffffffffffffffffffffffffffffffffffffffffffffffff82036121e0576121df612174565b5b600182019050919050565b82818337600083830152505050565b60006122068385611883565b93506122138385846121eb565b61221c836118be565b840190509392505050565b600060408201905081810360008301526122428185876121fa565b905061225160208301846116d4565b949350505050565b7f50726f706f73616c20616c726561647920766572696669656400000000000000600082015250565b600061228f601983611883565b915061229a82612259565b602082019050919050565b600060208201905081810360008301526122be81612282565b9050919050565b7f53756244414f20636f6e74726163742061646472657373206e6f742073657400600082015250565b60006122fb601f83611883565b9150612306826122c5565b602082019050919050565b6000602082019050818103600083015261232a816122ee565b9050919050565b7f496e76616c696420737465700000000000000000000000000000000000000000600082015250565b6000612367600c83611883565b915061237282612331565b602082019050919050565b600060208201905081810360008301526123968161235a565b9050919050565b60006040820190506123b26000830185611824565b6123bf6020830184611824565b939250505056fea26469706673582212204172e226cfbbfdfb76c83a23878e4eb3137f52e81079d943ab0d461aecf149ba64736f6c63430008180033",
  "linkReferences": {},
  "deployedLinkReferences": {}
}