{
  "_format": "hh-sol-artifact-1",
  "contractName": "Land",
  "sourceName": "contracts/Land.sol",
  "abi": [
    {
      "inputs": [
        {
          "internalType": "string",
          "name": "_baseURI",
          "type": "string"
        }
      ],
      "stateMutability": "nonpayable",
      "type": "constructor"
    },
    {
      "inputs": [
        {
          "internalType": "address",
          "name": "sender",
          "type": "address"
        },
        {
          "internalType": "uint256",
          "name": "tokenId",
          "type": "uint256"
        },
        {
          "internalType": "address",
          "name": "owner",
          "type": "address"
        }
      ],
      "name": "ERC721IncorrectOwner",
      "type": "error"
    },
    {
      "inputs": [
        {
          "internalType": "address",
          "name": "operator",
          "type": "address"
        },
        {
          "internalType": "uint256",
          "name": "tokenId",
          "type": "uint256"
        }
      ],
      "name": "ERC721InsufficientApproval",
      "type": "error"
    },
    {
      "inputs": [
        {
          "internalType": "address",
          "name": "approver",
          "type": "address"
        }
      ],
      "name": "ERC721InvalidApprover",
      "type": "error"
    },
    {
      "inputs": [
        {
          "internalType": "address",
          "name": "operator",
          "type": "address"
        }
      ],
      "name": "ERC721InvalidOperator",
      "type": "error"
    },
    {
      "inputs": [
        {
          "internalType": "address",
          "name": "owner",
          "type": "address"
        }
      ],
      "name": "ERC721InvalidOwner",
      "type": "error"
    },
    {
      "inputs": [
        {
          "internalType": "address",
          "name": "receiver",
          "type": "address"
        }
      ],
      "name": "ERC721InvalidReceiver",
      "type": "error"
    },
    {
      "inputs": [
        {
          "internalType": "address",
          "name": "sender",
          "type": "address"
        }
      ],
      "name": "ERC721InvalidSender",
      "type": "error"
    },
    {
      "inputs": [
        {
          "internalType": "uint256",
          "name": "tokenId",
          "type": "uint256"
        }
      ],
      "name": "ERC721NonexistentToken",
      "type": "error"
    },
    {
      "anonymous": false,
      "inputs": [
        {
          "indexed": true,
          "internalType": "address",
          "name": "owner",
          "type": "address"
        },
        {
          "indexed": true,
          "internalType": "address",
          "name": "approved",
          "type": "address"
        },
        {
          "indexed": true,
          "internalType": "uint256",
          "name": "tokenId",
          "type": "uint256"
        }
      ],
      "name": "Approval",
      "type": "event"
    },
    {
      "anonymous": false,
      "inputs": [
        {
          "indexed": true,
          "internalType": "address",
          "name": "owner",
          "type": "address"
        },
        {
          "indexed": true,
          "internalType": "address",
          "name": "operator",
          "type": "address"
        },
        {
          "indexed": false,
          "internalType": "bool",
          "name": "approved",
          "type": "bool"
        }
      ],
      "name": "ApprovalForAll",
      "type": "event"
    },
    {
      "anonymous": false,
      "inputs": [
        {
          "indexed": true,
          "internalType": "address",
          "name": "from",
          "type": "address"
        },
        {
          "indexed": true,
          "internalType": "address",
          "name": "to",
          "type": "address"
        },
        {
          "indexed": true,
          "internalType": "uint256",
          "name": "tokenId",
          "type": "uint256"
        }
      ],
      "name": "Transfer",
      "type": "event"
    },
    {
      "inputs": [
        {
          "internalType": "address",
          "name": "to",
          "type": "address"
        },
        {
          "internalType": "uint256",
          "name": "tokenId",
          "type": "uint256"
        }
      ],
      "name": "approve",
      "outputs": [],
      "stateMutability": "nonpayable",
      "type": "function"
    },
    {
      "inputs": [
        {
          "internalType": "address",
          "name": "owner",
          "type": "address"
        }
      ],
      "name": "balanceOf",
      "outputs": [
        {
          "internalType": "uint256",
          "name": "",
          "type": "uint256"
        }
      ],
      "stateMutability": "view",
      "type": "function"
    },
    {
      "inputs": [
        {
          "internalType": "uint256",
          "name": "tokenId",
          "type": "uint256"
        }
      ],
      "name": "getApproved",
      "outputs": [
        {
          "internalType": "address",
          "name": "",
          "type": "address"
        }
      ],
      "stateMutability": "view",
      "type": "function"
    },
    {
      "inputs": [
        {
          "internalType": "uint256",
          "name": "tokenId",
          "type": "uint256"
        }
      ],
      "name": "getMetadata",
      "outputs": [
        {
          "internalType": "bytes",
          "name": "",
          "type": "bytes"
        },
        {
          "internalType": "string",
          "name": "",
          "type": "string"
        },
        {
          "internalType": "uint256",
          "name": "",
          "type": "uint256"
        }
      ],
      "stateMutability": "view",
      "type": "function"
    },
    {
      "inputs": [
        {
          "internalType": "address",
          "name": "owner",
          "type": "address"
        },
        {
          "internalType": "address",
          "name": "operator",
          "type": "address"
        }
      ],
      "name": "isApprovedForAll",
      "outputs": [
        {
          "internalType": "bool",
          "name": "",
          "type": "bool"
        }
      ],
      "stateMutability": "view",
      "type": "function"
    },
    {
      "inputs": [
        {
          "internalType": "address",
          "name": "_to",
          "type": "address"
        }
      ],
      "name": "mintLand",
      "outputs": [
        {
          "internalType": "uint256",
          "name": "",
          "type": "uint256"
        }
      ],
      "stateMutability": "nonpayable",
      "type": "function"
    },
    {
      "inputs": [],
      "name": "name",
      "outputs": [
        {
          "internalType": "string",
          "name": "",
          "type": "string"
        }
      ],
      "stateMutability": "view",
      "type": "function"
    },
    {
      "inputs": [
        {
          "internalType": "uint256",
          "name": "tokenId",
          "type": "uint256"
        }
      ],
      "name": "ownerOf",
      "outputs": [
        {
          "internalType": "address",
          "name": "",
          "type": "address"
        }
      ],
      "stateMutability": "view",
      "type": "function"
    },
    {
      "inputs": [
        {
          "internalType": "address",
          "name": "from",
          "type": "address"
        },
        {
          "internalType": "address",
          "name": "to",
          "type": "address"
        },
        {
          "internalType": "uint256",
          "name": "tokenId",
          "type": "uint256"
        }
      ],
      "name": "safeTransferFrom",
      "outputs": [],
      "stateMutability": "nonpayable",
      "type": "function"
    },
    {
      "inputs": [
        {
          "internalType": "address",
          "name": "from",
          "type": "address"
        },
        {
          "internalType": "address",
          "name": "to",
          "type": "address"
        },
        {
          "internalType": "uint256",
          "name": "tokenId",
          "type": "uint256"
        },
        {
          "internalType": "bytes",
          "name": "data",
          "type": "bytes"
        }
      ],
      "name": "safeTransferFrom",
      "outputs": [],
      "stateMutability": "nonpayable",
      "type": "function"
    },
    {
      "inputs": [
        {
          "internalType": "address",
          "name": "operator",
          "type": "address"
        },
        {
          "internalType": "bool",
          "name": "approved",
          "type": "bool"
        }
      ],
      "name": "setApprovalForAll",
      "outputs": [],
      "stateMutability": "nonpayable",
      "type": "function"
    },
    {
      "inputs": [
        {
          "internalType": "bytes4",
          "name": "interfaceId",
          "type": "bytes4"
        }
      ],
      "name": "supportsInterface",
      "outputs": [
        {
          "internalType": "bool",
          "name": "",
          "type": "bool"
        }
      ],
      "stateMutability": "view",
      "type": "function"
    },
    {
      "inputs": [],
      "name": "symbol",
      "outputs": [
        {
          "internalType": "string",
          "name": "",
          "type": "string"
        }
      ],
      "stateMutability": "view",
      "type": "function"
    },
    {
      "inputs": [
        {
          "internalType": "uint256",
          "name": "tokenId",
          "type": "uint256"
        }
      ],
      "name": "tokenURI",
      "outputs": [
        {
          "internalType": "string",
          "name": "",
          "type": "string"
        }
      ],
      "stateMutability": "view",
      "type": "function"
    },
    {
      "inputs": [
        {
          "internalType": "address",
          "name": "from",
          "type": "address"
        },
        {
          "internalType": "address",
          "name": "to",
          "type": "address"
        },
        {
          "internalType": "uint256",
          "name": "tokenId",
          "type": "uint256"
        }
      ],
      "name": "transferFrom",
      "outputs": [],
      "stateMutability": "nonpayable",
      "type": "function"
    }
  ],
  "bytecode": "0x60806040523480156200001157600080fd5b50604051620024ed380380620024ed833981810160405281019062000037919062000275565b6040518060400160405280600481526020017f4c616e64000000000000000000000000000000000000000000000000000000008152506040518060400160405280600481526020017f4c414e44000000000000000000000000000000000000000000000000000000008152508160009081620000b4919062000511565b508060019081620000c6919062000511565b5050508060099081620000da919062000511565b5050620005f8565b6000604051905090565b600080fd5b600080fd5b600080fd5b600080fd5b6000601f19601f8301169050919050565b7f4e487b7100000000000000000000000000000000000000000000000000000000600052604160045260246000fd5b6200014b8262000100565b810181811067ffffffffffffffff821117156200016d576200016c62000111565b5b80604052505050565b600062000182620000e2565b905062000190828262000140565b919050565b600067ffffffffffffffff821115620001b357620001b262000111565b5b620001be8262000100565b9050602081019050919050565b60005b83811015620001eb578082015181840152602081019050620001ce565b60008484015250505050565b60006200020e620002088462000195565b62000176565b9050828152602081018484840111156200022d576200022c620000fb565b5b6200023a848285620001cb565b509392505050565b600082601f8301126200025a5762000259620000f6565b5b81516200026c848260208601620001f7565b91505092915050565b6000602082840312156200028e576200028d620000ec565b5b600082015167ffffffffffffffff811115620002af57620002ae620000f1565b5b620002bd8482850162000242565b91505092915050565b600081519050919050565b7f4e487b7100000000000000000000000000000000000000000000000000000000600052602260045260246000fd5b600060028204905060018216806200031957607f821691505b6020821081036200032f576200032e620002d1565b5b50919050565b60008190508160005260206000209050919050565b60006020601f8301049050919050565b600082821b905092915050565b600060088302620003997fffffffffffffffffffffffffffffffffffffffffffffffffffffffffffffffff826200035a565b620003a586836200035a565b95508019841693508086168417925050509392505050565b6000819050919050565b6000819050919050565b6000620003f2620003ec620003e684620003bd565b620003c7565b620003bd565b9050919050565b6000819050919050565b6200040e83620003d1565b620004266200041d82620003f9565b84845462000367565b825550505050565b600090565b6200043d6200042e565b6200044a81848462000403565b505050565b5b8181101562000472576200046660008262000433565b60018101905062000450565b5050565b601f821115620004c1576200048b8162000335565b62000496846200034a565b81016020851015620004a6578190505b620004be620004b5856200034a565b8301826200044f565b50505b505050565b600082821c905092915050565b6000620004e660001984600802620004c6565b1980831691505092915050565b6000620005018383620004d3565b9150826002028217905092915050565b6200051c82620002c6565b67ffffffffffffffff81111562000538576200053762000111565b5b62000544825462000300565b6200055182828562000476565b600060209050601f83116001811462000589576000841562000574578287015190505b620005808582620004f3565b865550620005f0565b601f198416620005998662000335565b60005b82811015620005c3578489015182556001820191506020850194506020810190506200059c565b86831015620005e35784890151620005df601f891682620004d3565b8355505b6001600288020188555050505b505050505050565b611ee580620006086000396000f3fe608060405234801561001057600080fd5b50600436106100f55760003560e01c80636352211e11610097578063a574cea411610066578063a574cea414610296578063b88d4fde146102c8578063c87b56dd146102e4578063e985e9c514610314576100f5565b80636352211e146101fc57806370a082311461022c57806395d89b411461025c578063a22cb4651461027a576100f5565b8063095ea7b3116100d3578063095ea7b3146101785780630d4e96a31461019457806323b872dd146101c457806342842e0e146101e0576100f5565b806301ffc9a7146100fa57806306fdde031461012a578063081812fc14610148575b600080fd5b610114600480360381019061010f9190611716565b610344565b604051610121919061175e565b60405180910390f35b610132610426565b60405161013f9190611809565b60405180910390f35b610162600480360381019061015d9190611861565b6104b8565b60405161016f91906118cf565b60405180910390f35b610192600480360381019061018d9190611916565b6104d4565b005b6101ae60048036038101906101a99190611956565b6104ea565b6040516101bb9190611992565b60405180910390f35b6101de60048036038101906101d991906119ad565b610520565b005b6101fa60048036038101906101f591906119ad565b610622565b005b61021660048036038101906102119190611861565b610642565b60405161022391906118cf565b60405180910390f35b61024660048036038101906102419190611956565b610654565b6040516102539190611992565b60405180910390f35b61026461070e565b6040516102719190611809565b60405180910390f35b610294600480360381019061028f9190611a2c565b6107a0565b005b6102b060048036038101906102ab9190611861565b6107b6565b6040516102bf93929190611ac1565b60405180910390f35b6102e260048036038101906102dd9190611c3b565b610a4b565b005b6102fe60048036038101906102f99190611861565b610a68565b60405161030b9190611809565b60405180910390f35b61032e60048036038101906103299190611cbe565b610b0d565b60405161033b919061175e565b60405180910390f35b60007f80ac58cd000000000000000000000000000000000000000000000000000000007bffffffffffffffffffffffffffffffffffffffffffffffffffffffff1916827bffffffffffffffffffffffffffffffffffffffffffffffffffffffff1916148061040f57507f5b5e139f000000000000000000000000000000000000000000000000000000007bffffffffffffffffffffffffffffffffffffffffffffffffffffffff1916827bffffffffffffffffffffffffffffffffffffffffffffffffffffffff1916145b8061041f575061041e82610ba1565b5b9050919050565b60606000805461043590611d2d565b80601f016020809104026020016040519081016040528092919081815260200182805461046190611d2d565b80156104ae5780601f10610483576101008083540402835291602001916104ae565b820191906000526020600020905b81548152906001019060200180831161049157829003601f168201915b5050505050905090565b60006104c382610c0b565b506104cd82610c93565b9050919050565b6104e682826104e1610cd0565b610cd8565b5050565b60006001600660008282546104ff9190611d8d565b92505081905550600060065490506105178382610cea565b80915050919050565b600073ffffffffffffffffffffffffffffffffffffffff168273ffffffffffffffffffffffffffffffffffffffff16036105925760006040517f64a0ae9200000000000000000000000000000000000000000000000000000000815260040161058991906118cf565b60405180910390fd5b60006105a683836105a1610cd0565b610de3565b90508373ffffffffffffffffffffffffffffffffffffffff168173ffffffffffffffffffffffffffffffffffffffff161461061c578382826040517f64283d7b00000000000000000000000000000000000000000000000000000000815260040161061393929190611dc1565b60405180910390fd5b50505050565b61063d83838360405180602001604052806000815250610a4b565b505050565b600061064d82610c0b565b9050919050565b60008073ffffffffffffffffffffffffffffffffffffffff168273ffffffffffffffffffffffffffffffffffffffff16036106c75760006040517f89c62b640000000000000000000000000000000000000000000000000000000081526004016106be91906118cf565b60405180910390fd5b600360008373ffffffffffffffffffffffffffffffffffffffff1673ffffffffffffffffffffffffffffffffffffffff168152602001908152602001600020549050919050565b60606001805461071d90611d2d565b80601f016020809104026020016040519081016040528092919081815260200182805461074990611d2d565b80156107965780601f1061076b57610100808354040283529160200191610796565b820191906000526020600020905b81548152906001019060200180831161077957829003601f168201915b5050505050905090565b6107b26107ab610cd0565b8383610ffd565b5050565b606080600080600860008681526020019081526020016000206040518060a00160405290816000820180546107ea90611d2d565b80601f016020809104026020016040519081016040528092919081815260200182805461081690611d2d565b80156108635780601f1061083857610100808354040283529160200191610863565b820191906000526020600020905b81548152906001019060200180831161084657829003601f168201915b505050505081526020016001820154815260200160028201805461088690611d2d565b80601f01602080910402602001604051908101604052809291908181526020018280546108b290611d2d565b80156108ff5780601f106108d4576101008083540402835291602001916108ff565b820191906000526020600020905b8154815290600101906020018083116108e257829003601f168201915b5050505050815260200160038201805461091890611d2d565b80601f016020809104026020016040519081016040528092919081815260200182805461094490611d2d565b80156109915780601f1061096657610100808354040283529160200191610991565b820191906000526020600020905b81548152906001019060200180831161097457829003601f168201915b505050505081526020016004820180546109aa90611d2d565b80601f01602080910402602001604051908101604052809291908181526020018280546109d690611d2d565b8015610a235780601f106109f857610100808354040283529160200191610a23565b820191906000526020600020905b815481529060010190602001808311610a0657829003601f168201915b5050505050815250509050806060015181600001518260200151935093509350509193909250565b610a56848484610520565b610a628484848461116c565b50505050565b6060600760008381526020019081526020016000208054610a8890611d2d565b80601f0160208091040260200160405190810160405280929190818152602001828054610ab490611d2d565b8015610b015780601f10610ad657610100808354040283529160200191610b01565b820191906000526020600020905b815481529060010190602001808311610ae457829003601f168201915b50505050509050919050565b6000600560008473ffffffffffffffffffffffffffffffffffffffff1673ffffffffffffffffffffffffffffffffffffffff16815260200190815260200160002060008373ffffffffffffffffffffffffffffffffffffffff1673ffffffffffffffffffffffffffffffffffffffff16815260200190815260200160002060009054906101000a900460ff16905092915050565b60007f01ffc9a7000000000000000000000000000000000000000000000000000000007bffffffffffffffffffffffffffffffffffffffffffffffffffffffff1916827bffffffffffffffffffffffffffffffffffffffffffffffffffffffff1916149050919050565b600080610c1783611323565b9050600073ffffffffffffffffffffffffffffffffffffffff168173ffffffffffffffffffffffffffffffffffffffff1603610c8a57826040517f7e273289000000000000000000000000000000000000000000000000000000008152600401610c819190611992565b60405180910390fd5b80915050919050565b60006004600083815260200190815260200160002060009054906101000a900473ffffffffffffffffffffffffffffffffffffffff169050919050565b600033905090565b610ce58383836001611360565b505050565b600073ffffffffffffffffffffffffffffffffffffffff168273ffffffffffffffffffffffffffffffffffffffff1603610d5c5760006040517f64a0ae92000000000000000000000000000000000000000000000000000000008152600401610d5391906118cf565b60405180910390fd5b6000610d6a83836000610de3565b9050600073ffffffffffffffffffffffffffffffffffffffff168173ffffffffffffffffffffffffffffffffffffffff1614610dde5760006040517f73c6ac6e000000000000000000000000000000000000000000000000000000008152600401610dd591906118cf565b60405180910390fd5b505050565b600080610def84611323565b9050600073ffffffffffffffffffffffffffffffffffffffff168373ffffffffffffffffffffffffffffffffffffffff1614610e3157610e30818486611525565b5b600073ffffffffffffffffffffffffffffffffffffffff168173ffffffffffffffffffffffffffffffffffffffff1614610ec257610e73600085600080611360565b6001600360008373ffffffffffffffffffffffffffffffffffffffff1673ffffffffffffffffffffffffffffffffffffffff168152602001908152602001600020600082825403925050819055505b600073ffffffffffffffffffffffffffffffffffffffff168573ffffffffffffffffffffffffffffffffffffffff1614610f45576001600360008773ffffffffffffffffffffffffffffffffffffffff1673ffffffffffffffffffffffffffffffffffffffff168152602001908152602001600020600082825401925050819055505b846002600086815260200190815260200160002060006101000a81548173ffffffffffffffffffffffffffffffffffffffff021916908373ffffffffffffffffffffffffffffffffffffffff160217905550838573ffffffffffffffffffffffffffffffffffffffff168273ffffffffffffffffffffffffffffffffffffffff167fddf252ad1be2c89b69c2b068fc378daa952ba7f163c4a11628f55a4df523b3ef60405160405180910390a4809150509392505050565b600073ffffffffffffffffffffffffffffffffffffffff168273ffffffffffffffffffffffffffffffffffffffff160361106e57816040517f5b08ba1800000000000000000000000000000000000000000000000000000000815260040161106591906118cf565b60405180910390fd5b80600560008573ffffffffffffffffffffffffffffffffffffffff1673ffffffffffffffffffffffffffffffffffffffff16815260200190815260200160002060008473ffffffffffffffffffffffffffffffffffffffff1673ffffffffffffffffffffffffffffffffffffffff16815260200190815260200160002060006101000a81548160ff0219169083151502179055508173ffffffffffffffffffffffffffffffffffffffff168373ffffffffffffffffffffffffffffffffffffffff167f17307eab39ab6107e8899845ad3d59bd9653f200f220920489ca2b5937696c318360405161115f919061175e565b60405180910390a3505050565b60008373ffffffffffffffffffffffffffffffffffffffff163b111561131d578273ffffffffffffffffffffffffffffffffffffffff1663150b7a026111b0610cd0565b8685856040518563ffffffff1660e01b81526004016111d29493929190611df8565b6020604051808303816000875af192505050801561120e57506040513d601f19601f8201168201806040525081019061120b9190611e59565b60015b611292573d806000811461123e576040519150601f19603f3d011682016040523d82523d6000602084013e611243565b606091505b50600081510361128a57836040517f64a0ae9200000000000000000000000000000000000000000000000000000000815260040161128191906118cf565b60405180910390fd5b805181602001fd5b63150b7a0260e01b7bffffffffffffffffffffffffffffffffffffffffffffffffffffffff1916817bffffffffffffffffffffffffffffffffffffffffffffffffffffffff19161461131b57836040517f64a0ae9200000000000000000000000000000000000000000000000000000000815260040161131291906118cf565b60405180910390fd5b505b50505050565b60006002600083815260200190815260200160002060009054906101000a900473ffffffffffffffffffffffffffffffffffffffff169050919050565b80806113995750600073ffffffffffffffffffffffffffffffffffffffff168273ffffffffffffffffffffffffffffffffffffffff1614155b156114cd5760006113a984610c0b565b9050600073ffffffffffffffffffffffffffffffffffffffff168373ffffffffffffffffffffffffffffffffffffffff161415801561141457508273ffffffffffffffffffffffffffffffffffffffff168173ffffffffffffffffffffffffffffffffffffffff1614155b801561142757506114258184610b0d565b155b1561146957826040517fa9fbf51f00000000000000000000000000000000000000000000000000000000815260040161146091906118cf565b60405180910390fd5b81156114cb57838573ffffffffffffffffffffffffffffffffffffffff168273ffffffffffffffffffffffffffffffffffffffff167f8c5be1e5ebec7d5bd14f71427d1e84f3dd0314c0f7b2291e5b200ac8c7c3b92560405160405180910390a45b505b836004600085815260200190815260200160002060006101000a81548173ffffffffffffffffffffffffffffffffffffffff021916908373ffffffffffffffffffffffffffffffffffffffff16021790555050505050565b6115308383836115e9565b6115e457600073ffffffffffffffffffffffffffffffffffffffff168373ffffffffffffffffffffffffffffffffffffffff16036115a557806040517f7e27328900000000000000000000000000000000000000000000000000000000815260040161159c9190611992565b60405180910390fd5b81816040517f177e802f0000000000000000000000000000000000000000000000000000000081526004016115db929190611e86565b60405180910390fd5b505050565b60008073ffffffffffffffffffffffffffffffffffffffff168373ffffffffffffffffffffffffffffffffffffffff16141580156116a157508273ffffffffffffffffffffffffffffffffffffffff168473ffffffffffffffffffffffffffffffffffffffff16148061166257506116618484610b0d565b5b806116a057508273ffffffffffffffffffffffffffffffffffffffff1661168883610c93565b73ffffffffffffffffffffffffffffffffffffffff16145b5b90509392505050565b6000604051905090565b600080fd5b600080fd5b60007fffffffff0000000000000000000000000000000000000000000000000000000082169050919050565b6116f3816116be565b81146116fe57600080fd5b50565b600081359050611710816116ea565b92915050565b60006020828403121561172c5761172b6116b4565b5b600061173a84828501611701565b91505092915050565b60008115159050919050565b61175881611743565b82525050565b6000602082019050611773600083018461174f565b92915050565b600081519050919050565b600082825260208201905092915050565b60005b838110156117b3578082015181840152602081019050611798565b60008484015250505050565b6000601f19601f8301169050919050565b60006117db82611779565b6117e58185611784565b93506117f5818560208601611795565b6117fe816117bf565b840191505092915050565b6000602082019050818103600083015261182381846117d0565b905092915050565b6000819050919050565b61183e8161182b565b811461184957600080fd5b50565b60008135905061185b81611835565b92915050565b600060208284031215611877576118766116b4565b5b60006118858482850161184c565b91505092915050565b600073ffffffffffffffffffffffffffffffffffffffff82169050919050565b60006118b98261188e565b9050919050565b6118c9816118ae565b82525050565b60006020820190506118e460008301846118c0565b92915050565b6118f3816118ae565b81146118fe57600080fd5b50565b600081359050611910816118ea565b92915050565b6000806040838503121561192d5761192c6116b4565b5b600061193b85828601611901565b925050602061194c8582860161184c565b9150509250929050565b60006020828403121561196c5761196b6116b4565b5b600061197a84828501611901565b91505092915050565b61198c8161182b565b82525050565b60006020820190506119a76000830184611983565b92915050565b6000806000606084860312156119c6576119c56116b4565b5b60006119d486828701611901565b93505060206119e586828701611901565b92505060406119f68682870161184c565b9150509250925092565b611a0981611743565b8114611a1457600080fd5b50565b600081359050611a2681611a00565b92915050565b60008060408385031215611a4357611a426116b4565b5b6000611a5185828601611901565b9250506020611a6285828601611a17565b9150509250929050565b600081519050919050565b600082825260208201905092915050565b6000611a9382611a6c565b611a9d8185611a77565b9350611aad818560208601611795565b611ab6816117bf565b840191505092915050565b60006060820190508181036000830152611adb8186611a88565b90508181036020830152611aef81856117d0565b9050611afe6040830184611983565b949350505050565b600080fd5b600080fd5b7f4e487b7100000000000000000000000000000000000000000000000000000000600052604160045260246000fd5b611b48826117bf565b810181811067ffffffffffffffff82111715611b6757611b66611b10565b5b80604052505050565b6000611b7a6116aa565b9050611b868282611b3f565b919050565b600067ffffffffffffffff821115611ba657611ba5611b10565b5b611baf826117bf565b9050602081019050919050565b82818337600083830152505050565b6000611bde611bd984611b8b565b611b70565b905082815260208101848484011115611bfa57611bf9611b0b565b5b611c05848285611bbc565b509392505050565b600082601f830112611c2257611c21611b06565b5b8135611c32848260208601611bcb565b91505092915050565b60008060008060808587031215611c5557611c546116b4565b5b6000611c6387828801611901565b9450506020611c7487828801611901565b9350506040611c858782880161184c565b925050606085013567ffffffffffffffff811115611ca657611ca56116b9565b5b611cb287828801611c0d565b91505092959194509250565b60008060408385031215611cd557611cd46116b4565b5b6000611ce385828601611901565b9250506020611cf485828601611901565b9150509250929050565b7f4e487b7100000000000000000000000000000000000000000000000000000000600052602260045260246000fd5b60006002820490506001821680611d4557607f821691505b602082108103611d5857611d57611cfe565b5b50919050565b7f4e487b7100000000000000000000000000000000000000000000000000000000600052601160045260246000fd5b6000611d988261182b565b9150611da38361182b565b9250828201905080821115611dbb57611dba611d5e565b5b92915050565b6000606082019050611dd660008301866118c0565b611de36020830185611983565b611df060408301846118c0565b949350505050565b6000608082019050611e0d60008301876118c0565b611e1a60208301866118c0565b611e276040830185611983565b8181036060830152611e398184611a88565b905095945050505050565b600081519050611e53816116ea565b92915050565b600060208284031215611e6f57611e6e6116b4565b5b6000611e7d84828501611e44565b91505092915050565b6000604082019050611e9b60008301856118c0565b611ea86020830184611983565b939250505056fea26469706673582212201fb4b350a0b6a7ecdb3577eec1d76d1df8f49274572300bf682784b7c69f9f6764736f6c63430008180033",
  "linkReferences": {},
  "deployedLinkReferences": {}
}