{
  "_format": "hh-sol-artifact-1",
  "contractName": "SubDAOContract",
  "sourceName": "contracts/Dao.sol",
  "abi": [
    {
      "inputs": [
        {
          "internalType": "string",
          "name": "_name",
          "type": "string"
        },
        {
          "internalType": "string",
          "name": "_location",
          "type": "string"
        }
      ],
      "stateMutability": "nonpayable",
      "type": "constructor"
    },
    {
      "anonymous": false,
      "inputs": [
        {
          "indexed": true,
          "internalType": "uint256",
          "name": "proposalId",
          "type": "uint256"
        },
        {
          "indexed": false,
          "internalType": "string",
          "name": "location",
          "type": "string"
        },
        {
          "indexed": false,
          "internalType": "uint256",
          "name": "price",
          "type": "uint256"
        }
      ],
      "name": "LandListingProposalCreated",
      "type": "event"
    },
    {
      "anonymous": false,
      "inputs": [
        {
          "indexed": true,
          "internalType": "uint256",
          "name": "proposalId",
          "type": "uint256"
        }
      ],
      "name": "LandListingProposalVerified",
      "type": "event"
    },
    {
      "inputs": [
        {
          "internalType": "string",
          "name": "location",
          "type": "string"
        },
        {
          "internalType": "uint256",
          "name": "price",
          "type": "uint256"
        },
        {
          "internalType": "bytes",
          "name": "contractIPFSHash",
          "type": "bytes"
        },
        {
          "internalType": "bytes",
          "name": "imagesIPFSHash",
          "type": "bytes"
        }
      ],
      "name": "createLandListingProposal",
      "outputs": [],
      "stateMutability": "nonpayable",
      "type": "function"
    },
    {
      "inputs": [
        {
          "internalType": "bytes",
          "name": "proofOfLocation",
          "type": "bytes"
        },
        {
          "internalType": "bytes",
          "name": "proofOfIdentity",
          "type": "bytes"
        }
      ],
      "name": "joinDaoRequest",
      "outputs": [],
      "stateMutability": "nonpayable",
      "type": "function"
    },
    {
      "inputs": [
        {
          "internalType": "uint256",
          "name": "",
          "type": "uint256"
        }
      ],
      "name": "landListingProposals",
      "outputs": [
        {
          "internalType": "address",
          "name": "owner",
          "type": "address"
        },
        {
          "internalType": "string",
          "name": "location",
          "type": "string"
        },
        {
          "internalType": "uint256",
          "name": "price",
          "type": "uint256"
        },
        {
          "internalType": "bytes",
          "name": "contractIPFSHash",
          "type": "bytes"
        },
        {
          "internalType": "bytes",
          "name": "imagesIPFSHash",
          "type": "bytes"
        }
      ],
      "stateMutability": "view",
      "type": "function"
    },
    {
      "inputs": [],
      "name": "location",
      "outputs": [
        {
          "internalType": "string",
          "name": "",
          "type": "string"
        }
      ],
      "stateMutability": "view",
      "type": "function"
    },
    {
      "inputs": [],
      "name": "name",
      "outputs": [
        {
          "internalType": "string",
          "name": "",
          "type": "string"
        }
      ],
      "stateMutability": "view",
      "type": "function"
    },
    {
      "inputs": [],
      "name": "oracleAddress",
      "outputs": [
        {
          "internalType": "address",
          "name": "",
          "type": "address"
        }
      ],
      "stateMutability": "view",
      "type": "function"
    },
    {
      "inputs": [],
      "name": "oracleContract",
      "outputs": [
        {
          "internalType": "contract Oracle",
          "name": "",
          "type": "address"
        }
      ],
      "stateMutability": "view",
      "type": "function"
    },
    {
      "inputs": [],
      "name": "proposalId",
      "outputs": [
        {
          "internalType": "uint256",
          "name": "",
          "type": "uint256"
        }
      ],
      "stateMutability": "view",
      "type": "function"
    },
    {
      "inputs": [
        {
          "internalType": "uint256",
          "name": "",
          "type": "uint256"
        }
      ],
      "name": "proposalStatus",
      "outputs": [
        {
          "internalType": "enum SubDAOContract.ProposalStatus",
          "name": "",
          "type": "uint8"
        }
      ],
      "stateMutability": "view",
      "type": "function"
    },
    {
      "inputs": [
        {
          "internalType": "uint256",
          "name": "_proposalId",
          "type": "uint256"
        }
      ],
      "name": "verifyLandListingProposal",
      "outputs": [],
      "stateMutability": "nonpayable",
      "type": "function"
    }
  ],
  "bytecode": "0x60806040526000600260006101000a81548173ffffffffffffffffffffffffffffffffffffffff021916908373ffffffffffffffffffffffffffffffffffffffff1602179055503480156200005357600080fd5b5060405162001ad838038062001ad8833981810160405281019062000079919062000238565b81600090816200008a919062000508565b5080600190816200009c919062000508565b505050620005ef565b6000604051905090565b600080fd5b600080fd5b600080fd5b600080fd5b6000601f19601f8301169050919050565b7f4e487b7100000000000000000000000000000000000000000000000000000000600052604160045260246000fd5b6200010e82620000c3565b810181811067ffffffffffffffff8211171562000130576200012f620000d4565b5b80604052505050565b600062000145620000a5565b905062000153828262000103565b919050565b600067ffffffffffffffff821115620001765762000175620000d4565b5b6200018182620000c3565b9050602081019050919050565b60005b83811015620001ae57808201518184015260208101905062000191565b60008484015250505050565b6000620001d1620001cb8462000158565b62000139565b905082815260208101848484011115620001f057620001ef620000be565b5b620001fd8482856200018e565b509392505050565b600082601f8301126200021d576200021c620000b9565b5b81516200022f848260208601620001ba565b91505092915050565b60008060408385031215620002525762000251620000af565b5b600083015167ffffffffffffffff811115620002735762000272620000b4565b5b620002818582860162000205565b925050602083015167ffffffffffffffff811115620002a557620002a4620000b4565b5b620002b38582860162000205565b9150509250929050565b600081519050919050565b7f4e487b7100000000000000000000000000000000000000000000000000000000600052602260045260246000fd5b600060028204905060018216806200031057607f821691505b602082108103620003265762000325620002c8565b5b50919050565b60008190508160005260206000209050919050565b60006020601f8301049050919050565b600082821b905092915050565b600060088302620003907fffffffffffffffffffffffffffffffffffffffffffffffffffffffffffffffff8262000351565b6200039c868362000351565b95508019841693508086168417925050509392505050565b6000819050919050565b6000819050919050565b6000620003e9620003e3620003dd84620003b4565b620003be565b620003b4565b9050919050565b6000819050919050565b6200040583620003c8565b6200041d6200041482620003f0565b8484546200035e565b825550505050565b600090565b6200043462000425565b62000441818484620003fa565b505050565b5b8181101562000469576200045d6000826200042a565b60018101905062000447565b5050565b601f821115620004b85762000482816200032c565b6200048d8462000341565b810160208510156200049d578190505b620004b5620004ac8562000341565b83018262000446565b50505b505050565b600082821c905092915050565b6000620004dd60001984600802620004bd565b1980831691505092915050565b6000620004f88383620004ca565b9150826002028217905092915050565b6200051382620002bd565b67ffffffffffffffff8111156200052f576200052e620000d4565b5b6200053b8254620002f7565b620005488282856200046d565b600060209050601f8311600181146200058057600084156200056b578287015190505b620005778582620004ea565b865550620005e7565b601f19841662000590866200032c565b60005b82811015620005ba5784890151825560018201915060208501945060208101905062000593565b86831015620005da5784890151620005d6601f891682620004ca565b8355505b6001600288020188555050505b505050505050565b6114d980620005ff6000396000f3fe608060405234801561001057600080fd5b506004361061009e5760003560e01c806374c260cf1161006657806374c260cf1461013557806392e8cca214610165578063a89ae4ba14610199578063bece7532146101b7578063fd843f08146101d55761009e565b806301c35d0e146100a357806306fdde03146100bf5780632dfca445146100dd5780633f51f066146100fb578063516f279e14610117575b600080fd5b6100bd60048036038101906100b891906109be565b6101f1565b005b6100c76104d5565b6040516100d49190610b17565b60405180910390f35b6100e5610563565b6040516100f29190610b48565b60405180910390f35b61011560048036038101906101109190610b63565b610569565b005b61011f6105d5565b60405161012c9190610b17565b60405180910390f35b61014f600480360381019061014a9190610b63565b610663565b60405161015c9190610c07565b60405180910390f35b61017f600480360381019061017a9190610b63565b610683565b604051610190959493929190610cb8565b60405180910390f35b6101a1610871565b6040516101ae9190610d20565b60405180910390f35b6101bf610897565b6040516101cc9190610d9a565b60405180910390f35b6101ef60048036038101906101ea9190610db5565b6108bd565b005b60006040518060a001604052803373ffffffffffffffffffffffffffffffffffffffff16815260200189898080601f016020809104026020016040519081016040528093929190818152602001838380828437600081840152601f19601f82011690508083019250505050505050815260200187815260200186868080601f016020809104026020016040519081016040528093929190818152602001838380828437600081840152601f19601f82011690508083019250505050505050815260200184848080601f016020809104026020016040519081016040528093929190818152602001838380828437600081840152601f19601f8201169050808301925050505050505081525090508060056000600454815260200190815260200160002060008201518160000160006101000a81548173ffffffffffffffffffffffffffffffffffffffff021916908373ffffffffffffffffffffffffffffffffffffffff16021790555060208201518160010190816103709190611067565b506040820151816002015560608201518160030190816103909190611194565b5060808201518160040190816103a69190611194565b50905050600060066000600454815260200190815260200160002060006101000a81548160ff021916908360028111156103e3576103e2610b90565b5b0217905550600460008154809291906103fb90611295565b91905055506004547f85c50eb91d140947455bded9b0ca7f48fc20422c6a071be8efaf8146615777d289898960405161043693929190611319565b60405180910390a2600360009054906101000a900473ffffffffffffffffffffffffffffffffffffffff1673ffffffffffffffffffffffffffffffffffffffff16637504e22b826040518263ffffffff1660e01b81526004016104999190611481565b600060405180830381600087803b1580156104b357600080fd5b505af11580156104c7573d6000803e3d6000fd5b505050505050505050505050565b600080546104e290610e94565b80601f016020809104026020016040519081016040528092919081815260200182805461050e90610e94565b801561055b5780601f106105305761010080835404028352916020019161055b565b820191906000526020600020905b81548152906001019060200180831161053e57829003601f168201915b505050505081565b60045481565b60016006600083815260200190815260200160002060006101000a81548160ff021916908360028111156105a05761059f610b90565b5b0217905550807f61abca1f903d624f2f61b1159479f0ebf4fc1be8dba30bdfbb3b7f58494586cb60405160405180910390a250565b600180546105e290610e94565b80601f016020809104026020016040519081016040528092919081815260200182805461060e90610e94565b801561065b5780601f106106305761010080835404028352916020019161065b565b820191906000526020600020905b81548152906001019060200180831161063e57829003601f168201915b505050505081565b60066020528060005260406000206000915054906101000a900460ff1681565b60056020528060005260406000206000915090508060000160009054906101000a900473ffffffffffffffffffffffffffffffffffffffff16908060010180546106cc90610e94565b80601f01602080910402602001604051908101604052809291908181526020018280546106f890610e94565b80156107455780601f1061071a57610100808354040283529160200191610745565b820191906000526020600020905b81548152906001019060200180831161072857829003601f168201915b50505050509080600201549080600301805461076090610e94565b80601f016020809104026020016040519081016040528092919081815260200182805461078c90610e94565b80156107d95780601f106107ae576101008083540402835291602001916107d9565b820191906000526020600020905b8154815290600101906020018083116107bc57829003601f168201915b5050505050908060040180546107ee90610e94565b80601f016020809104026020016040519081016040528092919081815260200182805461081a90610e94565b80156108675780601f1061083c57610100808354040283529160200191610867565b820191906000526020600020905b81548152906001019060200180831161084a57829003601f168201915b5050505050905085565b600260009054906101000a900473ffffffffffffffffffffffffffffffffffffffff1681565b600360009054906101000a900473ffffffffffffffffffffffffffffffffffffffff1681565b50505050565b600080fd5b600080fd5b600080fd5b600080fd5b600080fd5b60008083601f8401126108f2576108f16108cd565b5b8235905067ffffffffffffffff81111561090f5761090e6108d2565b5b60208301915083600182028301111561092b5761092a6108d7565b5b9250929050565b6000819050919050565b61094581610932565b811461095057600080fd5b50565b6000813590506109628161093c565b92915050565b60008083601f84011261097e5761097d6108cd565b5b8235905067ffffffffffffffff81111561099b5761099a6108d2565b5b6020830191508360018202830111156109b7576109b66108d7565b5b9250929050565b60008060008060008060006080888a0312156109dd576109dc6108c3565b5b600088013567ffffffffffffffff8111156109fb576109fa6108c8565b5b610a078a828b016108dc565b97509750506020610a1a8a828b01610953565b955050604088013567ffffffffffffffff811115610a3b57610a3a6108c8565b5b610a478a828b01610968565b9450945050606088013567ffffffffffffffff811115610a6a57610a696108c8565b5b610a768a828b01610968565b925092505092959891949750929550565b600081519050919050565b600082825260208201905092915050565b60005b83811015610ac1578082015181840152602081019050610aa6565b60008484015250505050565b6000601f19601f8301169050919050565b6000610ae982610a87565b610af38185610a92565b9350610b03818560208601610aa3565b610b0c81610acd565b840191505092915050565b60006020820190508181036000830152610b318184610ade565b905092915050565b610b4281610932565b82525050565b6000602082019050610b5d6000830184610b39565b92915050565b600060208284031215610b7957610b786108c3565b5b6000610b8784828501610953565b91505092915050565b7f4e487b7100000000000000000000000000000000000000000000000000000000600052602160045260246000fd5b60038110610bd057610bcf610b90565b5b50565b6000819050610be182610bbf565b919050565b6000610bf182610bd3565b9050919050565b610c0181610be6565b82525050565b6000602082019050610c1c6000830184610bf8565b92915050565b600073ffffffffffffffffffffffffffffffffffffffff82169050919050565b6000610c4d82610c22565b9050919050565b610c5d81610c42565b82525050565b600081519050919050565b600082825260208201905092915050565b6000610c8a82610c63565b610c948185610c6e565b9350610ca4818560208601610aa3565b610cad81610acd565b840191505092915050565b600060a082019050610ccd6000830188610c54565b8181036020830152610cdf8187610ade565b9050610cee6040830186610b39565b8181036060830152610d008185610c7f565b90508181036080830152610d148184610c7f565b90509695505050505050565b6000602082019050610d356000830184610c54565b92915050565b6000819050919050565b6000610d60610d5b610d5684610c22565b610d3b565b610c22565b9050919050565b6000610d7282610d45565b9050919050565b6000610d8482610d67565b9050919050565b610d9481610d79565b82525050565b6000602082019050610daf6000830184610d8b565b92915050565b60008060008060408587031215610dcf57610dce6108c3565b5b600085013567ffffffffffffffff811115610ded57610dec6108c8565b5b610df987828801610968565b9450945050602085013567ffffffffffffffff811115610e1c57610e1b6108c8565b5b610e2887828801610968565b925092505092959194509250565b7f4e487b7100000000000000000000000000000000000000000000000000000000600052604160045260246000fd5b7f4e487b7100000000000000000000000000000000000000000000000000000000600052602260045260246000fd5b60006002820490506001821680610eac57607f821691505b602082108103610ebf57610ebe610e65565b5b50919050565b60008190508160005260206000209050919050565b60006020601f8301049050919050565b600082821b905092915050565b600060088302610f277fffffffffffffffffffffffffffffffffffffffffffffffffffffffffffffffff82610eea565b610f318683610eea565b95508019841693508086168417925050509392505050565b6000610f64610f5f610f5a84610932565b610d3b565b610932565b9050919050565b6000819050919050565b610f7e83610f49565b610f92610f8a82610f6b565b848454610ef7565b825550505050565b600090565b610fa7610f9a565b610fb2818484610f75565b505050565b5b81811015610fd657610fcb600082610f9f565b600181019050610fb8565b5050565b601f82111561101b57610fec81610ec5565b610ff584610eda565b81016020851015611004578190505b61101861101085610eda565b830182610fb7565b50505b505050565b600082821c905092915050565b600061103e60001984600802611020565b1980831691505092915050565b6000611057838361102d565b9150826002028217905092915050565b61107082610a87565b67ffffffffffffffff81111561108957611088610e36565b5b6110938254610e94565b61109e828285610fda565b600060209050601f8311600181146110d157600084156110bf578287015190505b6110c9858261104b565b865550611131565b601f1984166110df86610ec5565b60005b82811015611107578489015182556001820191506020850194506020810190506110e2565b868310156111245784890151611120601f89168261102d565b8355505b6001600288020188555050505b505050505050565b60008190508160005260206000209050919050565b601f82111561118f5761116081611139565b61116984610eda565b81016020851015611178578190505b61118c61118485610eda565b830182610fb7565b50505b505050565b61119d82610c63565b67ffffffffffffffff8111156111b6576111b5610e36565b5b6111c08254610e94565b6111cb82828561114e565b600060209050601f8311600181146111fe57600084156111ec578287015190505b6111f6858261104b565b86555061125e565b601f19841661120c86611139565b60005b828110156112345784890151825560018201915060208501945060208101905061120f565b86831015611251578489015161124d601f89168261102d565b8355505b6001600288020188555050505b505050505050565b7f4e487b7100000000000000000000000000000000000000000000000000000000600052601160045260246000fd5b60006112a082610932565b91507fffffffffffffffffffffffffffffffffffffffffffffffffffffffffffffffff82036112d2576112d1611266565b5b600182019050919050565b82818337600083830152505050565b60006112f88385610a92565b93506113058385846112dd565b61130e83610acd565b840190509392505050565b600060408201905081810360008301526113348185876112ec565b90506113436020830184610b39565b949350505050565b61135481610c42565b82525050565b600082825260208201905092915050565b600061137682610a87565b611380818561135a565b9350611390818560208601610aa3565b61139981610acd565b840191505092915050565b6113ad81610932565b82525050565b600082825260208201905092915050565b60006113cf82610c63565b6113d981856113b3565b93506113e9818560208601610aa3565b6113f281610acd565b840191505092915050565b600060a083016000830151611415600086018261134b565b506020830151848203602086015261142d828261136b565b915050604083015161144260408601826113a4565b506060830151848203606086015261145a82826113c4565b9150506080830151848203608086015261147482826113c4565b9150508091505092915050565b6000602082019050818103600083015261149b81846113fd565b90509291505056fea264697066735822122008902f539a174ea267abbfbc4235d4d2d249e31c8510ad342c2247f36366bb0364736f6c63430008180033",
  "linkReferences": {},
  "deployedLinkReferences": {}
}