{
  "_format": "hh-sol-artifact-1",
  "contractName": "LandMarketplace",
  "sourceName": "contracts/LandMarket.sol",
  "abi": [
    {
      "inputs": [
        {
          "internalType": "address",
          "name": "_landNFTContract",
          "type": "address"
        }
      ],
      "stateMutability": "nonpayable",
      "type": "constructor"
    },
    {
      "inputs": [
        {
          "internalType": "address",
          "name": "owner",
          "type": "address"
        }
      ],
      "name": "OwnableInvalidOwner",
      "type": "error"
    },
    {
      "inputs": [
        {
          "internalType": "address",
          "name": "account",
          "type": "address"
        }
      ],
      "name": "OwnableUnauthorizedAccount",
      "type": "error"
    },
    {
      "anonymous": false,
      "inputs": [
        {
          "indexed": true,
          "internalType": "uint256",
          "name": "tokenId",
          "type": "uint256"
        },
        {
          "indexed": true,
          "internalType": "address",
          "name": "buyer",
          "type": "address"
        },
        {
          "indexed": false,
          "internalType": "address",
          "name": "seller",
          "type": "address"
        },
        {
          "indexed": false,
          "internalType": "uint256",
          "name": "price",
          "type": "uint256"
        }
      ],
      "name": "LandBought",
      "type": "event"
    },
    {
      "anonymous": false,
      "inputs": [
        {
          "indexed": true,
          "internalType": "uint256",
          "name": "tokenId",
          "type": "uint256"
        }
      ],
      "name": "LandOfferCancelled",
      "type": "event"
    },
    {
      "anonymous": false,
      "inputs": [
        {
          "indexed": true,
          "internalType": "uint256",
          "name": "tokenId",
          "type": "uint256"
        },
        {
          "indexed": true,
          "internalType": "address",
          "name": "seller",
          "type": "address"
        },
        {
          "indexed": false,
          "internalType": "uint256",
          "name": "price",
          "type": "uint256"
        }
      ],
      "name": "LandOffered",
      "type": "event"
    },
    {
      "anonymous": false,
      "inputs": [
        {
          "indexed": true,
          "internalType": "address",
          "name": "previousOwner",
          "type": "address"
        },
        {
          "indexed": true,
          "internalType": "address",
          "name": "newOwner",
          "type": "address"
        }
      ],
      "name": "OwnershipTransferred",
      "type": "event"
    },
    {
      "inputs": [
        {
          "components": [
            {
              "internalType": "address",
              "name": "owner",
              "type": "address"
            },
            {
              "internalType": "string",
              "name": "location",
              "type": "string"
            },
            {
              "internalType": "uint256",
              "name": "price",
              "type": "uint256"
            },
            {
              "internalType": "string",
              "name": "contractIPFSHash",
              "type": "string"
            },
            {
              "internalType": "string",
              "name": "imagesIPFSHash",
              "type": "string"
            }
          ],
          "internalType": "struct Lib.LandListingProposal",
          "name": "_proposal",
          "type": "tuple"
        }
      ],
      "name": "addListing",
      "outputs": [],
      "stateMutability": "nonpayable",
      "type": "function"
    },
    {
      "inputs": [
        {
          "internalType": "uint256",
          "name": "tokenId",
          "type": "uint256"
        }
      ],
      "name": "buyLand",
      "outputs": [],
      "stateMutability": "payable",
      "type": "function"
    },
    {
      "inputs": [
        {
          "internalType": "uint256",
          "name": "tokenId",
          "type": "uint256"
        }
      ],
      "name": "cancelLandOffer",
      "outputs": [],
      "stateMutability": "nonpayable",
      "type": "function"
    },
    {
      "inputs": [],
      "name": "daoAddress",
      "outputs": [
        {
          "internalType": "address",
          "name": "",
          "type": "address"
        }
      ],
      "stateMutability": "view",
      "type": "function"
    },
    {
      "inputs": [],
      "name": "getAllLandOffers",
      "outputs": [
        {
          "components": [
            {
              "internalType": "uint256",
              "name": "tokenId",
              "type": "uint256"
            },
            {
              "internalType": "address",
              "name": "seller",
              "type": "address"
            },
            {
              "internalType": "uint256",
              "name": "price",
              "type": "uint256"
            },
            {
              "internalType": "bool",
              "name": "isActive",
              "type": "bool"
            }
          ],
          "internalType": "struct LandMarketplace.LandOffer[]",
          "name": "",
          "type": "tuple[]"
        }
      ],
      "stateMutability": "view",
      "type": "function"
    },
    {
      "inputs": [],
      "name": "landNFTContract",
      "outputs": [
        {
          "internalType": "contract Land",
          "name": "",
          "type": "address"
        }
      ],
      "stateMutability": "view",
      "type": "function"
    },
    {
      "inputs": [
        {
          "internalType": "uint256",
          "name": "",
          "type": "uint256"
        }
      ],
      "name": "landOffers",
      "outputs": [
        {
          "internalType": "uint256",
          "name": "tokenId",
          "type": "uint256"
        },
        {
          "internalType": "address",
          "name": "seller",
          "type": "address"
        },
        {
          "internalType": "uint256",
          "name": "price",
          "type": "uint256"
        },
        {
          "internalType": "bool",
          "name": "isActive",
          "type": "bool"
        }
      ],
      "stateMutability": "view",
      "type": "function"
    },
    {
      "inputs": [
        {
          "internalType": "uint256",
          "name": "",
          "type": "uint256"
        }
      ],
      "name": "landOffersArray",
      "outputs": [
        {
          "internalType": "uint256",
          "name": "tokenId",
          "type": "uint256"
        },
        {
          "internalType": "address",
          "name": "seller",
          "type": "address"
        },
        {
          "internalType": "uint256",
          "name": "price",
          "type": "uint256"
        },
        {
          "internalType": "bool",
          "name": "isActive",
          "type": "bool"
        }
      ],
      "stateMutability": "view",
      "type": "function"
    },
    {
      "inputs": [
        {
          "internalType": "uint256",
          "name": "tokenId",
          "type": "uint256"
        },
        {
          "internalType": "uint256",
          "name": "price",
          "type": "uint256"
        }
      ],
      "name": "offerLand",
      "outputs": [],
      "stateMutability": "nonpayable",
      "type": "function"
    },
    {
      "inputs": [],
      "name": "owner",
      "outputs": [
        {
          "internalType": "address",
          "name": "",
          "type": "address"
        }
      ],
      "stateMutability": "view",
      "type": "function"
    },
    {
      "inputs": [],
      "name": "renounceOwnership",
      "outputs": [],
      "stateMutability": "nonpayable",
      "type": "function"
    },
    {
      "inputs": [
        {
          "internalType": "address",
          "name": "_landNFTContract",
          "type": "address"
        }
      ],
      "name": "setLandNFTContract",
      "outputs": [],
      "stateMutability": "nonpayable",
      "type": "function"
    },
    {
      "inputs": [
        {
          "internalType": "address",
          "name": "newOwner",
          "type": "address"
        }
      ],
      "name": "transferOwnership",
      "outputs": [],
      "stateMutability": "nonpayable",
      "type": "function"
    }
  ],
  "bytecode": "0x60806040526000600260006101000a81548173ffffffffffffffffffffffffffffffffffffffff021916908373ffffffffffffffffffffffffffffffffffffffff1602179055503480156200005357600080fd5b5060405162001ecc38038062001ecc833981810160405281019062000079919062000277565b33600073ffffffffffffffffffffffffffffffffffffffff168173ffffffffffffffffffffffffffffffffffffffff1603620000ef5760006040517f1e4fbdf7000000000000000000000000000000000000000000000000000000008152600401620000e69190620002ba565b60405180910390fd5b62000100816200014960201b60201c565b5080600160006101000a81548173ffffffffffffffffffffffffffffffffffffffff021916908373ffffffffffffffffffffffffffffffffffffffff16021790555050620002d7565b60008060009054906101000a900473ffffffffffffffffffffffffffffffffffffffff169050816000806101000a81548173ffffffffffffffffffffffffffffffffffffffff021916908373ffffffffffffffffffffffffffffffffffffffff1602179055508173ffffffffffffffffffffffffffffffffffffffff168173ffffffffffffffffffffffffffffffffffffffff167f8be0079c531659141344cd1fd0a4f28419497f9722a3daafe3b4186f6b6457e060405160405180910390a35050565b600080fd5b600073ffffffffffffffffffffffffffffffffffffffff82169050919050565b60006200023f8262000212565b9050919050565b620002518162000232565b81146200025d57600080fd5b50565b600081519050620002718162000246565b92915050565b60006020828403121562000290576200028f6200020d565b5b6000620002a08482850162000260565b91505092915050565b620002b48162000232565b82525050565b6000602082019050620002d16000830184620002a9565b92915050565b611be580620002e76000396000f3fe6080604052600436106100c25760003560e01c806390b326cd1161007f578063ced3955811610059578063ced395581461025c578063ddb32d6d14610278578063dfeac9ca146102a1578063f2fde38b146102ca576100c2565b806390b326cd146101c8578063a7cab3d9146101f1578063b2859f6d1461021c576100c2565b806313c3d0a4146100c75780632131c68c146100f05780632b359bc51461011b578063715018a6146101465780638da5cb5b1461015d578063901322f814610188575b600080fd5b3480156100d357600080fd5b506100ee60048036038101906100e99190611449565b6102f3565b005b3480156100fc57600080fd5b506101056106cd565b60405161011291906114a1565b60405180910390f35b34801561012757600080fd5b506101306106f3565b60405161013d919061151b565b60405180910390f35b34801561015257600080fd5b5061015b610719565b005b34801561016957600080fd5b5061017261072d565b60405161017f91906114a1565b60405180910390f35b34801561019457600080fd5b506101af60048036038101906101aa9190611536565b610756565b6040516101bf949392919061158d565b60405180910390f35b3480156101d457600080fd5b506101ef60048036038101906101ea91906115d2565b6107c3565b005b3480156101fd57600080fd5b50610206610a00565b6040516102139190611743565b60405180910390f35b34801561022857600080fd5b50610243600480360381019061023e9190611536565b610ae4565b604051610253949392919061158d565b60405180910390f35b61027660048036038101906102719190611536565b610b41565b005b34801561028457600080fd5b5061029f600480360381019061029a9190611536565b610e17565b005b3480156102ad57600080fd5b506102c860048036038101906102c39190611765565b610f4c565b005b3480156102d657600080fd5b506102f160048036038101906102ec9190611765565b610f98565b005b600073ffffffffffffffffffffffffffffffffffffffff16600160009054906101000a900473ffffffffffffffffffffffffffffffffffffffff1673ffffffffffffffffffffffffffffffffffffffff1603610384576040517f08c379a000000000000000000000000000000000000000000000000000000000815260040161037b906117ef565b60405180910390fd5b6000600160009054906101000a900473ffffffffffffffffffffffffffffffffffffffff1673ffffffffffffffffffffffffffffffffffffffff16631144bab78360000151846040518363ffffffff1660e01b81526004016103e7929190611912565b6020604051808303816000875af1158015610406573d6000803e3d6000fd5b505050506040513d601f19601f8201168201806040525081019061042a9190611957565b90506040518060800160405280828152602001836000015173ffffffffffffffffffffffffffffffffffffffff1681526020018360400151815260200160011515815250600360008381526020019081526020016000206000820151816000015560208201518160010160006101000a81548173ffffffffffffffffffffffffffffffffffffffff021916908373ffffffffffffffffffffffffffffffffffffffff1602179055506040820151816002015560608201518160030160006101000a81548160ff0219169083151502179055509050506004600360008381526020019081526020016000209080600181540180825580915050600190039060005260206000209060040201600090919091909150600082015481600001556001820160009054906101000a900473ffffffffffffffffffffffffffffffffffffffff168160010160006101000a81548173ffffffffffffffffffffffffffffffffffffffff021916908373ffffffffffffffffffffffffffffffffffffffff160217905550600282015481600201556003820160009054906101000a900460ff168160030160006101000a81548160ff0219169083151502179055505050600160009054906101000a900473ffffffffffffffffffffffffffffffffffffffff1673ffffffffffffffffffffffffffffffffffffffff1663095ea7b330836040518363ffffffff1660e01b8152600401610644929190611984565b600060405180830381600087803b15801561065e57600080fd5b505af1158015610672573d6000803e3d6000fd5b505050503373ffffffffffffffffffffffffffffffffffffffff16817f27f0a41758cbe6d32b587474cb4518033d86123865a2821284b8aca87969bf8d84604001516040516106c191906119ad565b60405180910390a35050565b600260009054906101000a900473ffffffffffffffffffffffffffffffffffffffff1681565b600160009054906101000a900473ffffffffffffffffffffffffffffffffffffffff1681565b61072161101e565b61072b60006110a5565b565b60008060009054906101000a900473ffffffffffffffffffffffffffffffffffffffff16905090565b6004818154811061076657600080fd5b90600052602060002090600402016000915090508060000154908060010160009054906101000a900473ffffffffffffffffffffffffffffffffffffffff16908060020154908060030160009054906101000a900460ff16905084565b600260009054906101000a900473ffffffffffffffffffffffffffffffffffffffff1673ffffffffffffffffffffffffffffffffffffffff163373ffffffffffffffffffffffffffffffffffffffff1614610853576040517f08c379a000000000000000000000000000000000000000000000000000000000815260040161084a90611a14565b60405180910390fd5b60405180608001604052808381526020013373ffffffffffffffffffffffffffffffffffffffff16815260200182815260200160011515815250600360008481526020019081526020016000206000820151816000015560208201518160010160006101000a81548173ffffffffffffffffffffffffffffffffffffffff021916908373ffffffffffffffffffffffffffffffffffffffff1602179055506040820151816002015560608201518160030160006101000a81548160ff021916908315150217905550905050600160009054906101000a900473ffffffffffffffffffffffffffffffffffffffff1673ffffffffffffffffffffffffffffffffffffffff1663095ea7b330846040518363ffffffff1660e01b815260040161097b929190611984565b600060405180830381600087803b15801561099557600080fd5b505af11580156109a9573d6000803e3d6000fd5b505050503373ffffffffffffffffffffffffffffffffffffffff16827f27f0a41758cbe6d32b587474cb4518033d86123865a2821284b8aca87969bf8d836040516109f491906119ad565b60405180910390a35050565b60606004805480602002602001604051908101604052809291908181526020016000905b82821015610adb5783829060005260206000209060040201604051806080016040529081600082015481526020016001820160009054906101000a900473ffffffffffffffffffffffffffffffffffffffff1673ffffffffffffffffffffffffffffffffffffffff1673ffffffffffffffffffffffffffffffffffffffff168152602001600282015481526020016003820160009054906101000a900460ff16151515158152505081526020019060010190610a24565b50505050905090565b60036020528060005260406000206000915090508060000154908060010160009054906101000a900473ffffffffffffffffffffffffffffffffffffffff16908060020154908060030160009054906101000a900460ff16905084565b600060036000838152602001908152602001600020604051806080016040529081600082015481526020016001820160009054906101000a900473ffffffffffffffffffffffffffffffffffffffff1673ffffffffffffffffffffffffffffffffffffffff1673ffffffffffffffffffffffffffffffffffffffff168152602001600282015481526020016003820160009054906101000a900460ff16151515158152505090508060600151610c2c576040517f08c379a0000000000000000000000000000000000000000000000000000000008152600401610c2390611a80565b60405180910390fd5b8060400151341015610c73576040517f08c379a0000000000000000000000000000000000000000000000000000000008152600401610c6a90611aec565b60405180910390fd5b6000816020015190508073ffffffffffffffffffffffffffffffffffffffff166108fc349081150290604051600060405180830381858888f19350505050158015610cc2573d6000803e3d6000fd5b50600160009054906101000a900473ffffffffffffffffffffffffffffffffffffffff1673ffffffffffffffffffffffffffffffffffffffff166342842e0e836020015133866040518463ffffffff1660e01b8152600401610d2693929190611b0c565b600060405180830381600087803b158015610d4057600080fd5b505af1158015610d54573d6000803e3d6000fd5b505050503373ffffffffffffffffffffffffffffffffffffffff16837f3f3320bc4441b688e1a43ec99355d292d7f8adf5f959239d8f73a1783415b5e784602001518560400151604051610da9929190611984565b60405180910390a3600360008481526020019081526020016000206000808201600090556001820160006101000a81549073ffffffffffffffffffffffffffffffffffffffff021916905560028201600090556003820160006101000a81549060ff02191690555050505050565b3373ffffffffffffffffffffffffffffffffffffffff166003600083815260200190815260200160002060010160009054906101000a900473ffffffffffffffffffffffffffffffffffffffff1673ffffffffffffffffffffffffffffffffffffffff1614610ebb576040517f08c379a0000000000000000000000000000000000000000000000000000000008152600401610eb290611b8f565b60405180910390fd5b600360008281526020019081526020016000206000808201600090556001820160006101000a81549073ffffffffffffffffffffffffffffffffffffffff021916905560028201600090556003820160006101000a81549060ff02191690555050807fb557a9728d1869eee1601adafcf4807db14b733ecba9200b791e9981603ffc8160405160405180910390a250565b610f5461101e565b80600160006101000a81548173ffffffffffffffffffffffffffffffffffffffff021916908373ffffffffffffffffffffffffffffffffffffffff16021790555050565b610fa061101e565b600073ffffffffffffffffffffffffffffffffffffffff168173ffffffffffffffffffffffffffffffffffffffff16036110125760006040517f1e4fbdf700000000000000000000000000000000000000000000000000000000815260040161100991906114a1565b60405180910390fd5b61101b816110a5565b50565b611026611169565b73ffffffffffffffffffffffffffffffffffffffff1661104461072d565b73ffffffffffffffffffffffffffffffffffffffff16146110a357611067611169565b6040517f118cdaa700000000000000000000000000000000000000000000000000000000815260040161109a91906114a1565b60405180910390fd5b565b60008060009054906101000a900473ffffffffffffffffffffffffffffffffffffffff169050816000806101000a81548173ffffffffffffffffffffffffffffffffffffffff021916908373ffffffffffffffffffffffffffffffffffffffff1602179055508173ffffffffffffffffffffffffffffffffffffffff168173ffffffffffffffffffffffffffffffffffffffff167f8be0079c531659141344cd1fd0a4f28419497f9722a3daafe3b4186f6b6457e060405160405180910390a35050565b600033905090565b6000604051905090565b600080fd5b600080fd5b600080fd5b6000601f19601f8301169050919050565b7f4e487b7100000000000000000000000000000000000000000000000000000000600052604160045260246000fd5b6111d38261118a565b810181811067ffffffffffffffff821117156111f2576111f161119b565b5b80604052505050565b6000611205611171565b905061121182826111ca565b919050565b600080fd5b600073ffffffffffffffffffffffffffffffffffffffff82169050919050565b60006112468261121b565b9050919050565b6112568161123b565b811461126157600080fd5b50565b6000813590506112738161124d565b92915050565b600080fd5b600080fd5b600067ffffffffffffffff82111561129e5761129d61119b565b5b6112a78261118a565b9050602081019050919050565b82818337600083830152505050565b60006112d66112d184611283565b6111fb565b9050828152602081018484840111156112f2576112f161127e565b5b6112fd8482856112b4565b509392505050565b600082601f83011261131a57611319611279565b5b813561132a8482602086016112c3565b91505092915050565b6000819050919050565b61134681611333565b811461135157600080fd5b50565b6000813590506113638161133d565b92915050565b600060a0828403121561137f5761137e611185565b5b61138960a06111fb565b9050600061139984828501611264565b600083015250602082013567ffffffffffffffff8111156113bd576113bc611216565b5b6113c984828501611305565b60208301525060406113dd84828501611354565b604083015250606082013567ffffffffffffffff81111561140157611400611216565b5b61140d84828501611305565b606083015250608082013567ffffffffffffffff81111561143157611430611216565b5b61143d84828501611305565b60808301525092915050565b60006020828403121561145f5761145e61117b565b5b600082013567ffffffffffffffff81111561147d5761147c611180565b5b61148984828501611369565b91505092915050565b61149b8161123b565b82525050565b60006020820190506114b66000830184611492565b92915050565b6000819050919050565b60006114e16114dc6114d78461121b565b6114bc565b61121b565b9050919050565b60006114f3826114c6565b9050919050565b6000611505826114e8565b9050919050565b611515816114fa565b82525050565b6000602082019050611530600083018461150c565b92915050565b60006020828403121561154c5761154b61117b565b5b600061155a84828501611354565b91505092915050565b61156c81611333565b82525050565b60008115159050919050565b61158781611572565b82525050565b60006080820190506115a26000830187611563565b6115af6020830186611492565b6115bc6040830185611563565b6115c9606083018461157e565b95945050505050565b600080604083850312156115e9576115e861117b565b5b60006115f785828601611354565b925050602061160885828601611354565b9150509250929050565b600081519050919050565b600082825260208201905092915050565b6000819050602082019050919050565b61164781611333565b82525050565b6116568161123b565b82525050565b61166581611572565b82525050565b608082016000820151611681600085018261163e565b506020820151611694602085018261164d565b5060408201516116a7604085018261163e565b5060608201516116ba606085018261165c565b50505050565b60006116cc838361166b565b60808301905092915050565b6000602082019050919050565b60006116f082611612565b6116fa818561161d565b93506117058361162e565b8060005b8381101561173657815161171d88826116c0565b9750611728836116d8565b925050600181019050611709565b5085935050505092915050565b6000602082019050818103600083015261175d81846116e5565b905092915050565b60006020828403121561177b5761177a61117b565b5b600061178984828501611264565b91505092915050565b600082825260208201905092915050565b7f4c616e64204e465420636f6e7472616374206e6f742073657400000000000000600082015250565b60006117d9601983611792565b91506117e4826117a3565b602082019050919050565b60006020820190508181036000830152611808816117cc565b9050919050565b600081519050919050565b600082825260208201905092915050565b60005b8381101561184957808201518184015260208101905061182e565b60008484015250505050565b60006118608261180f565b61186a818561181a565b935061187a81856020860161182b565b6118838161118a565b840191505092915050565b600060a0830160008301516118a6600086018261164d565b50602083015184820360208601526118be8282611855565b91505060408301516118d3604086018261163e565b50606083015184820360608601526118eb8282611855565b915050608083015184820360808601526119058282611855565b9150508091505092915050565b60006040820190506119276000830185611492565b8181036020830152611939818461188e565b90509392505050565b6000815190506119518161133d565b92915050565b60006020828403121561196d5761196c61117b565b5b600061197b84828501611942565b91505092915050565b60006040820190506119996000830185611492565b6119a66020830184611563565b9392505050565b60006020820190506119c26000830184611563565b92915050565b7f4f6e6c792044414f2063616e2063616c6c20746869732066756e6374696f6e00600082015250565b60006119fe601f83611792565b9150611a09826119c8565b602082019050919050565b60006020820190508181036000830152611a2d816119f1565b9050919050565b7f4c616e64206973206e6f7420666f722073616c65000000000000000000000000600082015250565b6000611a6a601483611792565b9150611a7582611a34565b602082019050919050565b60006020820190508181036000830152611a9981611a5d565b9050919050565b7f496e73756666696369656e742066756e64730000000000000000000000000000600082015250565b6000611ad6601283611792565b9150611ae182611aa0565b602082019050919050565b60006020820190508181036000830152611b0581611ac9565b9050919050565b6000606082019050611b216000830186611492565b611b2e6020830185611492565b611b3b6040830184611563565b949350505050565b7f596f7520617265206e6f74207468652073656c6c657200000000000000000000600082015250565b6000611b79601683611792565b9150611b8482611b43565b602082019050919050565b60006020820190508181036000830152611ba881611b6c565b905091905056fea26469706673582212205ffea89b3276b9043cd2772ab54ea7a6083b9ebe85bc5c9e598025a4e611f55a64736f6c63430008180033",
  "linkReferences": {},
  "deployedLinkReferences": {}
}