{
  "_format": "hh-sol-artifact-1",
  "contractName": "LandMarketplace",
  "sourceName": "contracts/LandMarket.sol",
  "abi": [
    {
      "inputs": [
        {
          "internalType": "address",
          "name": "_landNFTContract",
          "type": "address"
        }
      ],
      "stateMutability": "nonpayable",
      "type": "constructor"
    },
    {
      "inputs": [
        {
          "internalType": "address",
          "name": "owner",
          "type": "address"
        }
      ],
      "name": "OwnableInvalidOwner",
      "type": "error"
    },
    {
      "inputs": [
        {
          "internalType": "address",
          "name": "account",
          "type": "address"
        }
      ],
      "name": "OwnableUnauthorizedAccount",
      "type": "error"
    },
    {
      "anonymous": false,
      "inputs": [
        {
          "indexed": true,
          "internalType": "uint256",
          "name": "tokenId",
          "type": "uint256"
        },
        {
          "indexed": true,
          "internalType": "address",
          "name": "buyer",
          "type": "address"
        },
        {
          "indexed": false,
          "internalType": "address",
          "name": "seller",
          "type": "address"
        },
        {
          "indexed": false,
          "internalType": "uint256",
          "name": "price",
          "type": "uint256"
        }
      ],
      "name": "LandBought",
      "type": "event"
    },
    {
      "anonymous": false,
      "inputs": [
        {
          "indexed": true,
          "internalType": "uint256",
          "name": "tokenId",
          "type": "uint256"
        }
      ],
      "name": "LandOfferCancelled",
      "type": "event"
    },
    {
      "anonymous": false,
      "inputs": [
        {
          "indexed": true,
          "internalType": "uint256",
          "name": "tokenId",
          "type": "uint256"
        },
        {
          "indexed": true,
          "internalType": "address",
          "name": "seller",
          "type": "address"
        },
        {
          "indexed": false,
          "internalType": "uint256",
          "name": "price",
          "type": "uint256"
        }
      ],
      "name": "LandOffered",
      "type": "event"
    },
    {
      "anonymous": false,
      "inputs": [
        {
          "indexed": true,
          "internalType": "address",
          "name": "previousOwner",
          "type": "address"
        },
        {
          "indexed": true,
          "internalType": "address",
          "name": "newOwner",
          "type": "address"
        }
      ],
      "name": "OwnershipTransferred",
      "type": "event"
    },
    {
      "inputs": [
        {
          "components": [
            {
              "internalType": "address",
              "name": "owner",
              "type": "address"
            },
            {
              "internalType": "string",
              "name": "location",
              "type": "string"
            },
            {
              "internalType": "uint256",
              "name": "price",
              "type": "uint256"
            },
            {
              "internalType": "string",
              "name": "contractIPFSHash",
              "type": "string"
            },
            {
              "internalType": "string",
              "name": "imagesIPFSHash",
              "type": "string"
            }
          ],
          "internalType": "struct Lib.LandListingProposal",
          "name": "_proposal",
          "type": "tuple"
        }
      ],
      "name": "addListing",
      "outputs": [],
      "stateMutability": "nonpayable",
      "type": "function"
    },
    {
      "inputs": [
        {
          "internalType": "uint256",
          "name": "tokenId",
          "type": "uint256"
        }
      ],
      "name": "buyLand",
      "outputs": [],
      "stateMutability": "payable",
      "type": "function"
    },
    {
      "inputs": [
        {
          "internalType": "uint256",
          "name": "tokenId",
          "type": "uint256"
        }
      ],
      "name": "cancelLandOffer",
      "outputs": [],
      "stateMutability": "nonpayable",
      "type": "function"
    },
    {
      "inputs": [],
      "name": "daoAddress",
      "outputs": [
        {
          "internalType": "address",
          "name": "",
          "type": "address"
        }
      ],
      "stateMutability": "view",
      "type": "function"
    },
    {
      "inputs": [],
      "name": "landNFTContract",
      "outputs": [
        {
          "internalType": "contract Land",
          "name": "",
          "type": "address"
        }
      ],
      "stateMutability": "view",
      "type": "function"
    },
    {
      "inputs": [
        {
          "internalType": "uint256",
          "name": "",
          "type": "uint256"
        }
      ],
      "name": "landOffers",
      "outputs": [
        {
          "internalType": "address",
          "name": "seller",
          "type": "address"
        },
        {
          "internalType": "uint256",
          "name": "price",
          "type": "uint256"
        },
        {
          "internalType": "bool",
          "name": "isActive",
          "type": "bool"
        }
      ],
      "stateMutability": "view",
      "type": "function"
    },
    {
      "inputs": [
        {
          "internalType": "uint256",
          "name": "tokenId",
          "type": "uint256"
        },
        {
          "internalType": "uint256",
          "name": "price",
          "type": "uint256"
        }
      ],
      "name": "offerLand",
      "outputs": [],
      "stateMutability": "nonpayable",
      "type": "function"
    },
    {
      "inputs": [],
      "name": "owner",
      "outputs": [
        {
          "internalType": "address",
          "name": "",
          "type": "address"
        }
      ],
      "stateMutability": "view",
      "type": "function"
    },
    {
      "inputs": [],
      "name": "renounceOwnership",
      "outputs": [],
      "stateMutability": "nonpayable",
      "type": "function"
    },
    {
      "inputs": [
        {
          "internalType": "address",
          "name": "newOwner",
          "type": "address"
        }
      ],
      "name": "transferOwnership",
      "outputs": [],
      "stateMutability": "nonpayable",
      "type": "function"
    }
  ],
  "bytecode": "0x60806040526000600260006101000a81548173ffffffffffffffffffffffffffffffffffffffff021916908373ffffffffffffffffffffffffffffffffffffffff1602179055503480156200005357600080fd5b506040516200190138038062001901833981810160405281019062000079919062000277565b33600073ffffffffffffffffffffffffffffffffffffffff168173ffffffffffffffffffffffffffffffffffffffff1603620000ef5760006040517f1e4fbdf7000000000000000000000000000000000000000000000000000000008152600401620000e69190620002ba565b60405180910390fd5b62000100816200014960201b60201c565b5080600160006101000a81548173ffffffffffffffffffffffffffffffffffffffff021916908373ffffffffffffffffffffffffffffffffffffffff16021790555050620002d7565b60008060009054906101000a900473ffffffffffffffffffffffffffffffffffffffff169050816000806101000a81548173ffffffffffffffffffffffffffffffffffffffff021916908373ffffffffffffffffffffffffffffffffffffffff1602179055508173ffffffffffffffffffffffffffffffffffffffff168173ffffffffffffffffffffffffffffffffffffffff167f8be0079c531659141344cd1fd0a4f28419497f9722a3daafe3b4186f6b6457e060405160405180910390a35050565b600080fd5b600073ffffffffffffffffffffffffffffffffffffffff82169050919050565b60006200023f8262000212565b9050919050565b620002518162000232565b81146200025d57600080fd5b50565b600081519050620002718162000246565b92915050565b60006020828403121562000290576200028f6200020d565b5b6000620002a08482850162000260565b91505092915050565b620002b48162000232565b82525050565b6000602082019050620002d16000830184620002a9565b92915050565b61161a80620002e76000396000f3fe6080604052600436106100915760003560e01c806390b326cd1161005957806390b326cd14610157578063b2859f6d14610180578063ced39558146101bf578063ddb32d6d146101db578063f2fde38b1461020457610091565b806313c3d0a4146100965780632131c68c146100bf5780632b359bc5146100ea578063715018a6146101155780638da5cb5b1461012c575b600080fd5b3480156100a257600080fd5b506100bd60048036038101906100b8919061102d565b61022d565b005b3480156100cb57600080fd5b506100d461047e565b6040516100e19190611085565b60405180910390f35b3480156100f657600080fd5b506100ff6104a4565b60405161010c91906110ff565b60405180910390f35b34801561012157600080fd5b5061012a6104ca565b005b34801561013857600080fd5b506101416104de565b60405161014e9190611085565b60405180910390f35b34801561016357600080fd5b5061017e6004803603810190610179919061111a565b610507565b005b34801561018c57600080fd5b506101a760048036038101906101a2919061115a565b610734565b6040516101b6939291906111b1565b60405180910390f35b6101d960048036038101906101d4919061115a565b61078b565b005b3480156101e757600080fd5b5061020260048036038101906101fd919061115a565b610a4f565b005b34801561021057600080fd5b5061022b600480360381019061022691906111e8565b610b7c565b005b6000600160009054906101000a900473ffffffffffffffffffffffffffffffffffffffff1673ffffffffffffffffffffffffffffffffffffffff16631144bab78360000151846040518363ffffffff1660e01b8152600401610290929190611336565b6020604051808303816000875af11580156102af573d6000803e3d6000fd5b505050506040513d601f19601f820116820180604052508101906102d3919061137b565b90506040518060600160405280836000015173ffffffffffffffffffffffffffffffffffffffff16815260200183604001518152602001600115158152506003600083815260200190815260200160002060008201518160000160006101000a81548173ffffffffffffffffffffffffffffffffffffffff021916908373ffffffffffffffffffffffffffffffffffffffff1602179055506020820151816001015560408201518160020160006101000a81548160ff021916908315150217905550905050600160009054906101000a900473ffffffffffffffffffffffffffffffffffffffff1673ffffffffffffffffffffffffffffffffffffffff1663095ea7b330836040518363ffffffff1660e01b81526004016103f59291906113a8565b600060405180830381600087803b15801561040f57600080fd5b505af1158015610423573d6000803e3d6000fd5b505050503373ffffffffffffffffffffffffffffffffffffffff16817f27f0a41758cbe6d32b587474cb4518033d86123865a2821284b8aca87969bf8d846040015160405161047291906113d1565b60405180910390a35050565b600260009054906101000a900473ffffffffffffffffffffffffffffffffffffffff1681565b600160009054906101000a900473ffffffffffffffffffffffffffffffffffffffff1681565b6104d2610c02565b6104dc6000610c89565b565b60008060009054906101000a900473ffffffffffffffffffffffffffffffffffffffff16905090565b600260009054906101000a900473ffffffffffffffffffffffffffffffffffffffff1673ffffffffffffffffffffffffffffffffffffffff163373ffffffffffffffffffffffffffffffffffffffff1614610597576040517f08c379a000000000000000000000000000000000000000000000000000000000815260040161058e90611449565b60405180910390fd5b60405180606001604052803373ffffffffffffffffffffffffffffffffffffffff168152602001828152602001600115158152506003600084815260200190815260200160002060008201518160000160006101000a81548173ffffffffffffffffffffffffffffffffffffffff021916908373ffffffffffffffffffffffffffffffffffffffff1602179055506020820151816001015560408201518160020160006101000a81548160ff021916908315150217905550905050600160009054906101000a900473ffffffffffffffffffffffffffffffffffffffff1673ffffffffffffffffffffffffffffffffffffffff1663095ea7b330846040518363ffffffff1660e01b81526004016106af9291906113a8565b600060405180830381600087803b1580156106c957600080fd5b505af11580156106dd573d6000803e3d6000fd5b505050503373ffffffffffffffffffffffffffffffffffffffff16827f27f0a41758cbe6d32b587474cb4518033d86123865a2821284b8aca87969bf8d8360405161072891906113d1565b60405180910390a35050565b60036020528060005260406000206000915090508060000160009054906101000a900473ffffffffffffffffffffffffffffffffffffffff16908060010154908060020160009054906101000a900460ff16905083565b6000600360008381526020019081526020016000206040518060600160405290816000820160009054906101000a900473ffffffffffffffffffffffffffffffffffffffff1673ffffffffffffffffffffffffffffffffffffffff1673ffffffffffffffffffffffffffffffffffffffff168152602001600182015481526020016002820160009054906101000a900460ff1615151515815250509050806040015161086c576040517f08c379a0000000000000000000000000000000000000000000000000000000008152600401610863906114b5565b60405180910390fd5b80602001513410156108b3576040517f08c379a00000000000000000000000000000000000000000000000000000000081526004016108aa90611521565b60405180910390fd5b6000816000015190508073ffffffffffffffffffffffffffffffffffffffff166108fc349081150290604051600060405180830381858888f19350505050158015610902573d6000803e3d6000fd5b50600160009054906101000a900473ffffffffffffffffffffffffffffffffffffffff1673ffffffffffffffffffffffffffffffffffffffff166342842e0e836000015133866040518463ffffffff1660e01b815260040161096693929190611541565b600060405180830381600087803b15801561098057600080fd5b505af1158015610994573d6000803e3d6000fd5b505050503373ffffffffffffffffffffffffffffffffffffffff16837f3f3320bc4441b688e1a43ec99355d292d7f8adf5f959239d8f73a1783415b5e7846000015185602001516040516109e99291906113a8565b60405180910390a360036000848152602001908152602001600020600080820160006101000a81549073ffffffffffffffffffffffffffffffffffffffff021916905560018201600090556002820160006101000a81549060ff02191690555050505050565b3373ffffffffffffffffffffffffffffffffffffffff166003600083815260200190815260200160002060000160009054906101000a900473ffffffffffffffffffffffffffffffffffffffff1673ffffffffffffffffffffffffffffffffffffffff1614610af3576040517f08c379a0000000000000000000000000000000000000000000000000000000008152600401610aea906115c4565b60405180910390fd5b60036000828152602001908152602001600020600080820160006101000a81549073ffffffffffffffffffffffffffffffffffffffff021916905560018201600090556002820160006101000a81549060ff02191690555050807fb557a9728d1869eee1601adafcf4807db14b733ecba9200b791e9981603ffc8160405160405180910390a250565b610b84610c02565b600073ffffffffffffffffffffffffffffffffffffffff168173ffffffffffffffffffffffffffffffffffffffff1603610bf65760006040517f1e4fbdf7000000000000000000000000000000000000000000000000000000008152600401610bed9190611085565b60405180910390fd5b610bff81610c89565b50565b610c0a610d4d565b73ffffffffffffffffffffffffffffffffffffffff16610c286104de565b73ffffffffffffffffffffffffffffffffffffffff1614610c8757610c4b610d4d565b6040517f118cdaa7000000000000000000000000000000000000000000000000000000008152600401610c7e9190611085565b60405180910390fd5b565b60008060009054906101000a900473ffffffffffffffffffffffffffffffffffffffff169050816000806101000a81548173ffffffffffffffffffffffffffffffffffffffff021916908373ffffffffffffffffffffffffffffffffffffffff1602179055508173ffffffffffffffffffffffffffffffffffffffff168173ffffffffffffffffffffffffffffffffffffffff167f8be0079c531659141344cd1fd0a4f28419497f9722a3daafe3b4186f6b6457e060405160405180910390a35050565b600033905090565b6000604051905090565b600080fd5b600080fd5b600080fd5b6000601f19601f8301169050919050565b7f4e487b7100000000000000000000000000000000000000000000000000000000600052604160045260246000fd5b610db782610d6e565b810181811067ffffffffffffffff82111715610dd657610dd5610d7f565b5b80604052505050565b6000610de9610d55565b9050610df58282610dae565b919050565b600080fd5b600073ffffffffffffffffffffffffffffffffffffffff82169050919050565b6000610e2a82610dff565b9050919050565b610e3a81610e1f565b8114610e4557600080fd5b50565b600081359050610e5781610e31565b92915050565b600080fd5b600080fd5b600067ffffffffffffffff821115610e8257610e81610d7f565b5b610e8b82610d6e565b9050602081019050919050565b82818337600083830152505050565b6000610eba610eb584610e67565b610ddf565b905082815260208101848484011115610ed657610ed5610e62565b5b610ee1848285610e98565b509392505050565b600082601f830112610efe57610efd610e5d565b5b8135610f0e848260208601610ea7565b91505092915050565b6000819050919050565b610f2a81610f17565b8114610f3557600080fd5b50565b600081359050610f4781610f21565b92915050565b600060a08284031215610f6357610f62610d69565b5b610f6d60a0610ddf565b90506000610f7d84828501610e48565b600083015250602082013567ffffffffffffffff811115610fa157610fa0610dfa565b5b610fad84828501610ee9565b6020830152506040610fc184828501610f38565b604083015250606082013567ffffffffffffffff811115610fe557610fe4610dfa565b5b610ff184828501610ee9565b606083015250608082013567ffffffffffffffff81111561101557611014610dfa565b5b61102184828501610ee9565b60808301525092915050565b60006020828403121561104357611042610d5f565b5b600082013567ffffffffffffffff81111561106157611060610d64565b5b61106d84828501610f4d565b91505092915050565b61107f81610e1f565b82525050565b600060208201905061109a6000830184611076565b92915050565b6000819050919050565b60006110c56110c06110bb84610dff565b6110a0565b610dff565b9050919050565b60006110d7826110aa565b9050919050565b60006110e9826110cc565b9050919050565b6110f9816110de565b82525050565b600060208201905061111460008301846110f0565b92915050565b6000806040838503121561113157611130610d5f565b5b600061113f85828601610f38565b925050602061115085828601610f38565b9150509250929050565b6000602082840312156111705761116f610d5f565b5b600061117e84828501610f38565b91505092915050565b61119081610f17565b82525050565b60008115159050919050565b6111ab81611196565b82525050565b60006060820190506111c66000830186611076565b6111d36020830185611187565b6111e060408301846111a2565b949350505050565b6000602082840312156111fe576111fd610d5f565b5b600061120c84828501610e48565b91505092915050565b61121e81610e1f565b82525050565b600081519050919050565b600082825260208201905092915050565b60005b8381101561125e578082015181840152602081019050611243565b60008484015250505050565b600061127582611224565b61127f818561122f565b935061128f818560208601611240565b61129881610d6e565b840191505092915050565b6112ac81610f17565b82525050565b600060a0830160008301516112ca6000860182611215565b50602083015184820360208601526112e2828261126a565b91505060408301516112f760408601826112a3565b506060830151848203606086015261130f828261126a565b91505060808301518482036080860152611329828261126a565b9150508091505092915050565b600060408201905061134b6000830185611076565b818103602083015261135d81846112b2565b90509392505050565b60008151905061137581610f21565b92915050565b60006020828403121561139157611390610d5f565b5b600061139f84828501611366565b91505092915050565b60006040820190506113bd6000830185611076565b6113ca6020830184611187565b9392505050565b60006020820190506113e66000830184611187565b92915050565b600082825260208201905092915050565b7f4f6e6c792044414f2063616e2063616c6c20746869732066756e6374696f6e00600082015250565b6000611433601f836113ec565b915061143e826113fd565b602082019050919050565b6000602082019050818103600083015261146281611426565b9050919050565b7f4c616e64206973206e6f7420666f722073616c65000000000000000000000000600082015250565b600061149f6014836113ec565b91506114aa82611469565b602082019050919050565b600060208201905081810360008301526114ce81611492565b9050919050565b7f496e73756666696369656e742066756e64730000000000000000000000000000600082015250565b600061150b6012836113ec565b9150611516826114d5565b602082019050919050565b6000602082019050818103600083015261153a816114fe565b9050919050565b60006060820190506115566000830186611076565b6115636020830185611076565b6115706040830184611187565b949350505050565b7f596f7520617265206e6f74207468652073656c6c657200000000000000000000600082015250565b60006115ae6016836113ec565b91506115b982611578565b602082019050919050565b600060208201905081810360008301526115dd816115a1565b905091905056fea26469706673582212205e6605486fffe24919c57fb455be3b45dce2aa8f52f8bfcd6f1c3d02feda37ce64736f6c63430008180033",
  "linkReferences": {},
  "deployedLinkReferences": {}
}