{"contracts/Oracle.sol":{"Oracle":{"abi":[{"inputs":[],"stateMutability":"nonpayable","type":"constructor"},{"inputs":[{"internalType":"address","name":"owner","type":"address"}],"name":"OwnableInvalidOwner","type":"error"},{"inputs":[{"internalType":"address","name":"account","type":"address"}],"name":"OwnableUnauthorizedAccount","type":"error"},{"anonymous":false,"inputs":[{"indexed":true,"internalType":"address","name":"previousOwner","type":"address"},{"indexed":true,"internalType":"address","name":"newOwner","type":"address"}],"name":"OwnershipTransferred","type":"event"},{"anonymous":false,"inputs":[{"indexed":true,"internalType":"uint256","name":"proposalId","type":"uint256"},{"indexed":false,"internalType":"string","name":"location","type":"string"},{"indexed":false,"internalType":"uint256","name":"price","type":"uint256"}],"name":"ProposalAdded","type":"event"},{"anonymous":false,"inputs":[{"indexed":true,"internalType":"uint256","name":"proposalId","type":"uint256"},{"indexed":false,"internalType":"enum Oracle.ProposalStatus","name":"oldStatus","type":"uint8"},{"indexed":false,"internalType":"enum Oracle.ProposalStatus","name":"newStatus","type":"uint8"}],"name":"ProposalStatusUpdated","type":"event"},{"anonymous":false,"inputs":[{"indexed":true,"internalType":"uint256","name":"proposalId","type":"uint256"}],"name":"ProposalVerified","type":"event"},{"inputs":[{"components":[{"internalType":"address","name":"owner","type":"address"},{"internalType":"string","name":"location","type":"string"},{"internalType":"uint256","name":"price","type":"uint256"},{"internalType":"bytes","name":"contractIPFSHash","type":"bytes"},{"internalType":"bytes","name":"imagesIPFSHash","type":"bytes"}],"internalType":"struct Lib.LandListingProposal","name":"_proposal","type":"tuple"}],"name":"addProposal","outputs":[],"stateMutability":"nonpayable","type":"function"},{"inputs":[],"name":"daoContractAddress","outputs":[{"internalType":"address","name":"","type":"address"}],"stateMutability":"view","type":"function"},{"inputs":[],"name":"getAllProposals","outputs":[{"internalType":"uint256[]","name":"","type":"uint256[]"}],"stateMutability":"view","type":"function"},{"inputs":[{"internalType":"uint256","name":"_proposalId","type":"uint256"}],"name":"getProposal","outputs":[{"components":[{"internalType":"address","name":"owner","type":"address"},{"internalType":"string","name":"location","type":"string"},{"internalType":"uint256","name":"price","type":"uint256"},{"internalType":"bytes","name":"contractIPFSHash","type":"bytes"},{"internalType":"bytes","name":"imagesIPFSHash","type":"bytes"}],"internalType":"struct Lib.LandListingProposal","name":"","type":"tuple"}],"stateMutability":"view","type":"function"},{"inputs":[{"internalType":"uint256","name":"","type":"uint256"}],"name":"landListingProposals","outputs":[{"internalType":"address","name":"owner","type":"address"},{"internalType":"string","name":"location","type":"string"},{"internalType":"uint256","name":"price","type":"uint256"},{"internalType":"bytes","name":"contractIPFSHash","type":"bytes"},{"internalType":"bytes","name":"imagesIPFSHash","type":"bytes"}],"stateMutability":"view","type":"function"},{"inputs":[],"name":"nftContractAddress","outputs":[{"internalType":"address","name":"","type":"address"}],"stateMutability":"view","type":"function"},{"inputs":[],"name":"owner","outputs":[{"internalType":"address","name":"","type":"address"}],"stateMutability":"view","type":"function"},{"inputs":[],"name":"proposalId","outputs":[{"internalType":"uint256","name":"","type":"uint256"}],"stateMutability":"view","type":"function"},{"inputs":[{"internalType":"uint256","name":"","type":"uint256"}],"name":"proposalIds","outputs":[{"internalType":"uint256","name":"","type":"uint256"}],"stateMutability":"view","type":"function"},{"inputs":[{"internalType":"uint256","name":"","type":"uint256"}],"name":"proposalStatus","outputs":[{"internalType":"enum Oracle.ProposalStatus","name":"","type":"uint8"}],"stateMutability":"view","type":"function"},{"inputs":[{"internalType":"uint256","name":"_proposalId","type":"uint256"}],"name":"rejectProposal","outputs":[],"stateMutability":"nonpayable","type":"function"},{"inputs":[],"name":"renounceOwnership","outputs":[],"stateMutability":"nonpayable","type":"function"},{"inputs":[{"internalType":"address","name":"_daoContractAddress","type":"address"}],"name":"setDAOContractAddress","outputs":[],"stateMutability":"nonpayable","type":"function"},{"inputs":[{"internalType":"address","name":"_nftContractAddress","type":"address"}],"name":"setNFTContractAddress","outputs":[],"stateMutability":"nonpayable","type":"function"},{"inputs":[{"internalType":"address","name":"newOwner","type":"address"}],"name":"transferOwnership","outputs":[],"stateMutability":"nonpayable","type":"function"},{"inputs":[{"internalType":"uint256","name":"","type":"uint256"}],"name":"verifiedProposals","outputs":[{"internalType":"bool","name":"","type":"bool"}],"stateMutability":"view","type":"function"},{"inputs":[{"internalType":"uint256","name":"_proposalId","type":"uint256"},{"internalType":"enum Oracle.ProposalStatus","name":"_verfiedStep","type":"uint8"}],"name":"verifyStep","outputs":[],"stateMutability":"nonpayable","type":"function"}],"evm":{"bytecode":{"linkReferences":{},"object":"60806040523480156200001157600080fd5b5033600073ffffffffffffffffffffffffffffffffffffffff168173ffffffffffffffffffffffffffffffffffffffff1603620000885760006040517f1e4fbdf70000000000000000000000000000000000000000000000000000000081526004016200007f9190620001a9565b60405180910390fd5b6200009981620000a060201b60201c565b50620001c6565b60008060009054906101000a900473ffffffffffffffffffffffffffffffffffffffff169050816000806101000a81548173ffffffffffffffffffffffffffffffffffffffff021916908373ffffffffffffffffffffffffffffffffffffffff1602179055508173ffffffffffffffffffffffffffffffffffffffff168173ffffffffffffffffffffffffffffffffffffffff167f8be0079c531659141344cd1fd0a4f28419497f9722a3daafe3b4186f6b6457e060405160405180910390a35050565b600073ffffffffffffffffffffffffffffffffffffffff82169050919050565b6000620001918262000164565b9050919050565b620001a38162000184565b82525050565b6000602082019050620001c0600083018462000198565b92915050565b611ea280620001d66000396000f3fe608060405234801561001057600080fd5b506004361061010b5760003560e01c80638da5cb5b116100a2578063bc28d87811610071578063bc28d87814610296578063c7f758a8146102b2578063cceb68f5146102e2578063e9819cbd14610300578063f2fde38b146103305761010b565b80638da5cb5b146101f657806392e8cca2146102145780639b644a2314610248578063aae282e1146102785761010b565b806369c3ff98116100de57806369c3ff9814610182578063715018a6146101a057806374c260cf146101aa5780637504e22b146101da5761010b565b806323949cd1146101105780632dfca4451461012c5780633feb85c11461014a5780634af1662814610166575b600080fd5b61012a60048036038101906101259190610f53565b61034c565b005b610134610390565b6040516101419190610f99565b60405180910390f35b610164600480360381019061015f9190610f53565b610396565b005b610180600480360381019061017b9190611005565b6103da565b005b61018a61055b565b6040516101979190611054565b60405180910390f35b6101a8610581565b005b6101c460048036038101906101bf919061106f565b610595565b6040516101d19190611113565b60405180910390f35b6101f460048036038101906101ef9190611152565b6105b5565b005b6101fe6106ae565b60405161020b9190611054565b60405180910390f35b61022e6004803603810190610229919061106f565b6106d7565b60405161023f959493929190611280565b60405180910390f35b610262600480360381019061025d919061106f565b6108c5565b60405161026f9190610f99565b60405180910390f35b6102806108e9565b60405161028d9190611054565b60405180910390f35b6102b060048036038101906102ab919061106f565b61090f565b005b6102cc60048036038101906102c7919061106f565b610a12565b6040516102d9919061141e565b60405180910390f35b6102ea610c55565b6040516102f791906114ef565b60405180910390f35b61031a6004803603810190610315919061106f565b610cad565b604051610327919061152c565b60405180910390f35b61034a60048036038101906103459190610f53565b610ccd565b005b80600160006101000a81548173ffffffffffffffffffffffffffffffffffffffff021916908373ffffffffffffffffffffffffffffffffffffffff16021790555050565b60035481565b80600260006101000a81548173ffffffffffffffffffffffffffffffffffffffff021916908373ffffffffffffffffffffffffffffffffffffffff16021790555050565b60076000600354815260200190815260200160002060009054906101000a900460ff161561043d576040517f08c379a000000000000000000000000000000000000000000000000000000000815260040161043490611593565b60405180910390fd5b60008060048111156104525761045161109c565b5b8260048111156104655761046461109c565b5b03610473576001905061051a565b600160048111156104875761048661109c565b5b82600481111561049a5761049961109c565b5b036104a85760029050610519565b600260048111156104bc576104bb61109c565b5b8260048111156104cf576104ce61109c565b5b036104dd5760039050610518565b6040517f08c379a000000000000000000000000000000000000000000000000000000000815260040161050f906115ff565b60405180910390fd5b5b5b6003547fb66123442b5cecb65e69792eb5d9dd4e8abd4552e907d9f0f84cd98b6862fdd3838360405161054e92919061161f565b60405180910390a2505050565b600260009054906101000a900473ffffffffffffffffffffffffffffffffffffffff1681565b610589610d53565b6105936000610dda565b565b60066020528060005260406000206000915054906101000a900460ff1681565b8060046000600354815260200190815260200160002081816105d79190611d79565b905050600060066000600354815260200190815260200160002060006101000a81548160ff021916908360048111156106135761061261109c565b5b0217905550600560035490806001815401808255809150506001900390600052602060002001600090919091909150556003600081548092919061065690611db6565b91905055506003547f961208aa3e528e7624367220a862d58a9483ed782d8bc03c42f558d85e9c1ec882806020019061068f919061172d565b84604001356040516106a393929190611e3a565b60405180910390a250565b60008060009054906101000a900473ffffffffffffffffffffffffffffffffffffffff16905090565b60046020528060005260406000206000915090508060000160009054906101000a900473ffffffffffffffffffffffffffffffffffffffff1690806001018054610720906117f9565b80601f016020809104026020016040519081016040528092919081815260200182805461074c906117f9565b80156107995780601f1061076e57610100808354040283529160200191610799565b820191906000526020600020905b81548152906001019060200180831161077c57829003601f168201915b5050505050908060020154908060030180546107b4906117f9565b80601f01602080910402602001604051908101604052809291908181526020018280546107e0906117f9565b801561082d5780601f106108025761010080835404028352916020019161082d565b820191906000526020600020905b81548152906001019060200180831161081057829003601f168201915b505050505090806004018054610842906117f9565b80601f016020809104026020016040519081016040528092919081815260200182805461086e906117f9565b80156108bb5780601f10610890576101008083540402835291602001916108bb565b820191906000526020600020905b81548152906001019060200180831161089e57829003601f168201915b5050505050905085565b600581815481106108d557600080fd5b906000526020600020016000915090505481565b600160009054906101000a900473ffffffffffffffffffffffffffffffffffffffff1681565b610917610d53565b60076000600354815260200190815260200160002060009054906101000a900460ff161561097a576040517f08c379a000000000000000000000000000000000000000000000000000000000815260040161097190611593565b60405180910390fd5b60046006600083815260200190815260200160002060006101000a81548160ff021916908360048111156109b1576109b061109c565b5b021790555060016007600083815260200190815260200160002060006101000a81548160ff021916908315150217905550807f051394e5cf50e28f5ee446d54e6b713eb0cb38f53eebc74eb30c2478c343c4ce60405160405180910390a250565b610a1a610ea6565b600460008381526020019081526020016000206040518060a00160405290816000820160009054906101000a900473ffffffffffffffffffffffffffffffffffffffff1673ffffffffffffffffffffffffffffffffffffffff1673ffffffffffffffffffffffffffffffffffffffff168152602001600182018054610a9e906117f9565b80601f0160208091040260200160405190810160405280929190818152602001828054610aca906117f9565b8015610b175780601f10610aec57610100808354040283529160200191610b17565b820191906000526020600020905b815481529060010190602001808311610afa57829003601f168201915b5050505050815260200160028201548152602001600382018054610b3a906117f9565b80601f0160208091040260200160405190810160405280929190818152602001828054610b66906117f9565b8015610bb35780601f10610b8857610100808354040283529160200191610bb3565b820191906000526020600020905b815481529060010190602001808311610b9657829003601f168201915b50505050508152602001600482018054610bcc906117f9565b80601f0160208091040260200160405190810160405280929190818152602001828054610bf8906117f9565b8015610c455780601f10610c1a57610100808354040283529160200191610c45565b820191906000526020600020905b815481529060010190602001808311610c2857829003601f168201915b5050505050815250509050919050565b60606005805480602002602001604051908101604052809291908181526020018280548015610ca357602002820191906000526020600020905b815481526020019060010190808311610c8f575b5050505050905090565b60076020528060005260406000206000915054906101000a900460ff1681565b610cd5610d53565b600073ffffffffffffffffffffffffffffffffffffffff168173ffffffffffffffffffffffffffffffffffffffff1603610d475760006040517f1e4fbdf7000000000000000000000000000000000000000000000000000000008152600401610d3e9190611054565b60405180910390fd5b610d5081610dda565b50565b610d5b610e9e565b73ffffffffffffffffffffffffffffffffffffffff16610d796106ae565b73ffffffffffffffffffffffffffffffffffffffff1614610dd857610d9c610e9e565b6040517f118cdaa7000000000000000000000000000000000000000000000000000000008152600401610dcf9190611054565b60405180910390fd5b565b60008060009054906101000a900473ffffffffffffffffffffffffffffffffffffffff169050816000806101000a81548173ffffffffffffffffffffffffffffffffffffffff021916908373ffffffffffffffffffffffffffffffffffffffff1602179055508173ffffffffffffffffffffffffffffffffffffffff168173ffffffffffffffffffffffffffffffffffffffff167f8be0079c531659141344cd1fd0a4f28419497f9722a3daafe3b4186f6b6457e060405160405180910390a35050565b600033905090565b6040518060a00160405280600073ffffffffffffffffffffffffffffffffffffffff168152602001606081526020016000815260200160608152602001606081525090565b600080fd5b600080fd5b600073ffffffffffffffffffffffffffffffffffffffff82169050919050565b6000610f2082610ef5565b9050919050565b610f3081610f15565b8114610f3b57600080fd5b50565b600081359050610f4d81610f27565b92915050565b600060208284031215610f6957610f68610eeb565b5b6000610f7784828501610f3e565b91505092915050565b6000819050919050565b610f9381610f80565b82525050565b6000602082019050610fae6000830184610f8a565b92915050565b610fbd81610f80565b8114610fc857600080fd5b50565b600081359050610fda81610fb4565b92915050565b60058110610fed57600080fd5b50565b600081359050610fff81610fe0565b92915050565b6000806040838503121561101c5761101b610eeb565b5b600061102a85828601610fcb565b925050602061103b85828601610ff0565b9150509250929050565b61104e81610f15565b82525050565b60006020820190506110696000830184611045565b92915050565b60006020828403121561108557611084610eeb565b5b600061109384828501610fcb565b91505092915050565b7f4e487b7100000000000000000000000000000000000000000000000000000000600052602160045260246000fd5b600581106110dc576110db61109c565b5b50565b60008190506110ed826110cb565b919050565b60006110fd826110df565b9050919050565b61110d816110f2565b82525050565b60006020820190506111286000830184611104565b92915050565b600080fd5b600060a082840312156111495761114861112e565b5b81905092915050565b60006020828403121561116857611167610eeb565b5b600082013567ffffffffffffffff81111561118657611185610ef0565b5b61119284828501611133565b91505092915050565b600081519050919050565b600082825260208201905092915050565b60005b838110156111d55780820151818401526020810190506111ba565b60008484015250505050565b6000601f19601f8301169050919050565b60006111fd8261119b565b61120781856111a6565b93506112178185602086016111b7565b611220816111e1565b840191505092915050565b600081519050919050565b600082825260208201905092915050565b60006112528261122b565b61125c8185611236565b935061126c8185602086016111b7565b611275816111e1565b840191505092915050565b600060a0820190506112956000830188611045565b81810360208301526112a781876111f2565b90506112b66040830186610f8a565b81810360608301526112c88185611247565b905081810360808301526112dc8184611247565b90509695505050505050565b6112f181610f15565b82525050565b600082825260208201905092915050565b60006113138261119b565b61131d81856112f7565b935061132d8185602086016111b7565b611336816111e1565b840191505092915050565b61134a81610f80565b82525050565b600082825260208201905092915050565b600061136c8261122b565b6113768185611350565b93506113868185602086016111b7565b61138f816111e1565b840191505092915050565b600060a0830160008301516113b260008601826112e8565b50602083015184820360208601526113ca8282611308565b91505060408301516113df6040860182611341565b50606083015184820360608601526113f78282611361565b915050608083015184820360808601526114118282611361565b9150508091505092915050565b60006020820190508181036000830152611438818461139a565b905092915050565b600081519050919050565b600082825260208201905092915050565b6000819050602082019050919050565b60006114788383611341565b60208301905092915050565b6000602082019050919050565b600061149c82611440565b6114a6818561144b565b93506114b18361145c565b8060005b838110156114e25781516114c9888261146c565b97506114d483611484565b9250506001810190506114b5565b5085935050505092915050565b600060208201905081810360008301526115098184611491565b905092915050565b60008115159050919050565b61152681611511565b82525050565b6000602082019050611541600083018461151d565b92915050565b7f50726f706f73616c20616c726561647920766572696669656400000000000000600082015250565b600061157d6019836111a6565b915061158882611547565b602082019050919050565b600060208201905081810360008301526115ac81611570565b9050919050565b7f496e76616c696420737465700000000000000000000000000000000000000000600082015250565b60006115e9600c836111a6565b91506115f4826115b3565b602082019050919050565b60006020820190508181036000830152611618816115dc565b9050919050565b60006040820190506116346000830185611104565b6116416020830184611104565b9392505050565b6000813561165581610f27565b80915050919050565b60008160001b9050919050565b600073ffffffffffffffffffffffffffffffffffffffff61168b8461165e565b9350801983169250808416831791505092915050565b6000819050919050565b60006116c66116c16116bc84610ef5565b6116a1565b610ef5565b9050919050565b60006116d8826116ab565b9050919050565b60006116ea826116cd565b9050919050565b6000819050919050565b611704826116df565b611717611710826116f1565b835461166b565b8255505050565b600080fd5b600080fd5b600080fd5b6000808335600160200384360303811261174a5761174961171e565b5b80840192508235915067ffffffffffffffff82111561176c5761176b611723565b5b60208301925060018202360383131561178857611787611728565b5b509250929050565b600082905092915050565b7f4e487b7100000000000000000000000000000000000000000000000000000000600052604160045260246000fd5b7f4e487b7100000000000000000000000000000000000000000000000000000000600052602260045260246000fd5b6000600282049050600182168061181157607f821691505b602082108103611824576118236117ca565b5b50919050565b60008190508160005260206000209050919050565b60006020601f8301049050919050565b600082821b905092915050565b60006008830261188c7fffffffffffffffffffffffffffffffffffffffffffffffffffffffffffffffff8261184f565b611896868361184f565b95508019841693508086168417925050509392505050565b60006118c96118c46118bf84610f80565b6116a1565b610f80565b9050919050565b6000819050919050565b6118e3836118ae565b6118f76118ef826118d0565b84845461185c565b825550505050565b600090565b61190c6118ff565b6119178184846118da565b505050565b5b8181101561193b57611930600082611904565b60018101905061191d565b5050565b601f821115611980576119518161182a565b61195a8461183f565b81016020851015611969578190505b61197d6119758561183f565b83018261191c565b50505b505050565b600082821c905092915050565b60006119a360001984600802611985565b1980831691505092915050565b60006119bc8383611992565b9150826002028217905092915050565b6119d68383611790565b67ffffffffffffffff8111156119ef576119ee61179b565b5b6119f982546117f9565b611a0482828561193f565b6000601f831160018114611a335760008415611a21578287013590505b611a2b85826119b0565b865550611a93565b601f198416611a418661182a565b60005b82811015611a6957848901358255600182019150602085019450602081019050611a44565b86831015611a865784890135611a82601f891682611992565b8355505b6001600288020188555050505b50505050505050565b611aa78383836119cc565b505050565b60008135611ab981610fb4565b80915050919050565b60007fffffffffffffffffffffffffffffffffffffffffffffffffffffffffffffffff611aee8461165e565b9350801983169250808416831791505092915050565b611b0d826118ae565b611b20611b19826118d0565b8354611ac2565b8255505050565b60008083356001602003843603038112611b4457611b4361171e565b5b80840192508235915067ffffffffffffffff821115611b6657611b65611723565b5b602083019250600182023603831315611b8257611b81611728565b5b509250929050565b600082905092915050565b60008190508160005260206000209050919050565b601f821115611beb57611bbc81611b95565b611bc58461183f565b81016020851015611bd4578190505b611be8611be08561183f565b83018261191c565b50505b505050565b611bfa8383611b8a565b67ffffffffffffffff811115611c1357611c1261179b565b5b611c1d82546117f9565b611c28828285611baa565b6000601f831160018114611c575760008415611c45578287013590505b611c4f85826119b0565b865550611cb7565b601f198416611c6586611b95565b60005b82811015611c8d57848901358255600182019150602085019450602081019050611c68565b86831015611caa5784890135611ca6601f891682611992565b8355505b6001600288020188555050505b50505050505050565b611ccb838383611bf0565b505050565b600081016000830180611ce281611648565b9050611cee81846116fb565b5050506001810160208301611d03818561172d565b611d0e818386611a9c565b50505050600281016040830180611d2481611aac565b9050611d308184611b04565b5050506003810160608301611d458185611b27565b611d50818386611cc0565b505050506004810160808301611d668185611b27565b611d71818386611cc0565b505050505050565b611d838282611cd0565b5050565b7f4e487b7100000000000000000000000000000000000000000000000000000000600052601160045260246000fd5b6000611dc182610f80565b91507fffffffffffffffffffffffffffffffffffffffffffffffffffffffffffffffff8203611df357611df2611d87565b5b600182019050919050565b82818337600083830152505050565b6000611e1983856111a6565b9350611e26838584611dfe565b611e2f836111e1565b840190509392505050565b60006040820190508181036000830152611e55818587611e0d565b9050611e646020830184610f8a565b94935050505056fea2646970667358221220ed0513a2636232acc3d9829e38a74fb63251eb6c75a408aa067710138a636a6364736f6c63430008180033","opcodes":"PUSH1 0x80 PUSH1 0x40 MSTORE CALLVALUE DUP1 ISZERO PUSH3 0x11 JUMPI PUSH1 0x0 DUP1 REVERT JUMPDEST POP CALLER PUSH1 0x0 PUSH20 0xFFFFFFFFFFFFFFFFFFFFFFFFFFFFFFFFFFFFFFFF AND DUP2 PUSH20 0xFFFFFFFFFFFFFFFFFFFFFFFFFFFFFFFFFFFFFFFF AND SUB PUSH3 0x88 JUMPI PUSH1 0x0 PUSH1 0x40 MLOAD PUSH32 0x1E4FBDF700000000000000000000000000000000000000000000000000000000 DUP2 MSTORE PUSH1 0x4 ADD PUSH3 0x7F SWAP2 SWAP1 PUSH3 0x1A9 JUMP JUMPDEST PUSH1 0x40 MLOAD DUP1 SWAP2 SUB SWAP1 REVERT JUMPDEST PUSH3 0x99 DUP2 PUSH3 0xA0 PUSH1 0x20 SHL PUSH1 0x20 SHR JUMP JUMPDEST POP PUSH3 0x1C6 JUMP JUMPDEST PUSH1 0x0 DUP1 PUSH1 0x0 SWAP1 SLOAD SWAP1 PUSH2 0x100 EXP SWAP1 DIV PUSH20 0xFFFFFFFFFFFFFFFFFFFFFFFFFFFFFFFFFFFFFFFF AND SWAP1 POP DUP2 PUSH1 0x0 DUP1 PUSH2 0x100 EXP DUP2 SLOAD DUP2 PUSH20 0xFFFFFFFFFFFFFFFFFFFFFFFFFFFFFFFFFFFFFFFF MUL NOT AND SWAP1 DUP4 PUSH20 0xFFFFFFFFFFFFFFFFFFFFFFFFFFFFFFFFFFFFFFFF AND MUL OR SWAP1 SSTORE POP DUP2 PUSH20 0xFFFFFFFFFFFFFFFFFFFFFFFFFFFFFFFFFFFFFFFF AND DUP2 PUSH20 0xFFFFFFFFFFFFFFFFFFFFFFFFFFFFFFFFFFFFFFFF AND PUSH32 0x8BE0079C531659141344CD1FD0A4F28419497F9722A3DAAFE3B4186F6B6457E0 PUSH1 0x40 MLOAD PUSH1 0x40 MLOAD DUP1 SWAP2 SUB SWAP1 LOG3 POP POP JUMP JUMPDEST PUSH1 0x0 PUSH20 0xFFFFFFFFFFFFFFFFFFFFFFFFFFFFFFFFFFFFFFFF DUP3 AND SWAP1 POP SWAP2 SWAP1 POP JUMP JUMPDEST PUSH1 0x0 PUSH3 0x191 DUP3 PUSH3 0x164 JUMP JUMPDEST SWAP1 POP SWAP2 SWAP1 POP JUMP JUMPDEST PUSH3 0x1A3 DUP2 PUSH3 0x184 JUMP JUMPDEST DUP3 MSTORE POP POP JUMP JUMPDEST PUSH1 0x0 PUSH1 0x20 DUP3 ADD SWAP1 POP PUSH3 0x1C0 PUSH1 0x0 DUP4 ADD DUP5 PUSH3 0x198 JUMP JUMPDEST SWAP3 SWAP2 POP POP JUMP JUMPDEST PUSH2 0x1EA2 DUP1 PUSH3 0x1D6 PUSH1 0x0 CODECOPY PUSH1 0x0 RETURN INVALID PUSH1 0x80 PUSH1 0x40 MSTORE CALLVALUE DUP1 ISZERO PUSH2 0x10 JUMPI PUSH1 0x0 DUP1 REVERT JUMPDEST POP PUSH1 0x4 CALLDATASIZE LT PUSH2 0x10B JUMPI PUSH1 0x0 CALLDATALOAD PUSH1 0xE0 SHR DUP1 PUSH4 0x8DA5CB5B GT PUSH2 0xA2 JUMPI DUP1 PUSH4 0xBC28D878 GT PUSH2 0x71 JUMPI DUP1 PUSH4 0xBC28D878 EQ PUSH2 0x296 JUMPI DUP1 PUSH4 0xC7F758A8 EQ PUSH2 0x2B2 JUMPI DUP1 PUSH4 0xCCEB68F5 EQ PUSH2 0x2E2 JUMPI DUP1 PUSH4 0xE9819CBD EQ PUSH2 0x300 JUMPI DUP1 PUSH4 0xF2FDE38B EQ PUSH2 0x330 JUMPI PUSH2 0x10B JUMP JUMPDEST DUP1 PUSH4 0x8DA5CB5B EQ PUSH2 0x1F6 JUMPI DUP1 PUSH4 0x92E8CCA2 EQ PUSH2 0x214 JUMPI DUP1 PUSH4 0x9B644A23 EQ PUSH2 0x248 JUMPI DUP1 PUSH4 0xAAE282E1 EQ PUSH2 0x278 JUMPI PUSH2 0x10B JUMP JUMPDEST DUP1 PUSH4 0x69C3FF98 GT PUSH2 0xDE JUMPI DUP1 PUSH4 0x69C3FF98 EQ PUSH2 0x182 JUMPI DUP1 PUSH4 0x715018A6 EQ PUSH2 0x1A0 JUMPI DUP1 PUSH4 0x74C260CF EQ PUSH2 0x1AA JUMPI DUP1 PUSH4 0x7504E22B EQ PUSH2 0x1DA JUMPI PUSH2 0x10B JUMP JUMPDEST DUP1 PUSH4 0x23949CD1 EQ PUSH2 0x110 JUMPI DUP1 PUSH4 0x2DFCA445 EQ PUSH2 0x12C JUMPI DUP1 PUSH4 0x3FEB85C1 EQ PUSH2 0x14A JUMPI DUP1 PUSH4 0x4AF16628 EQ PUSH2 0x166 JUMPI JUMPDEST PUSH1 0x0 DUP1 REVERT JUMPDEST PUSH2 0x12A PUSH1 0x4 DUP1 CALLDATASIZE SUB DUP2 ADD SWAP1 PUSH2 0x125 SWAP2 SWAP1 PUSH2 0xF53 JUMP JUMPDEST PUSH2 0x34C JUMP JUMPDEST STOP JUMPDEST PUSH2 0x134 PUSH2 0x390 JUMP JUMPDEST PUSH1 0x40 MLOAD PUSH2 0x141 SWAP2 SWAP1 PUSH2 0xF99 JUMP JUMPDEST PUSH1 0x40 MLOAD DUP1 SWAP2 SUB SWAP1 RETURN JUMPDEST PUSH2 0x164 PUSH1 0x4 DUP1 CALLDATASIZE SUB DUP2 ADD SWAP1 PUSH2 0x15F SWAP2 SWAP1 PUSH2 0xF53 JUMP JUMPDEST PUSH2 0x396 JUMP JUMPDEST STOP JUMPDEST PUSH2 0x180 PUSH1 0x4 DUP1 CALLDATASIZE SUB DUP2 ADD SWAP1 PUSH2 0x17B SWAP2 SWAP1 PUSH2 0x1005 JUMP JUMPDEST PUSH2 0x3DA JUMP JUMPDEST STOP JUMPDEST PUSH2 0x18A PUSH2 0x55B JUMP JUMPDEST PUSH1 0x40 MLOAD PUSH2 0x197 SWAP2 SWAP1 PUSH2 0x1054 JUMP JUMPDEST PUSH1 0x40 MLOAD DUP1 SWAP2 SUB SWAP1 RETURN JUMPDEST PUSH2 0x1A8 PUSH2 0x581 JUMP JUMPDEST STOP JUMPDEST PUSH2 0x1C4 PUSH1 0x4 DUP1 CALLDATASIZE SUB DUP2 ADD SWAP1 PUSH2 0x1BF SWAP2 SWAP1 PUSH2 0x106F JUMP JUMPDEST PUSH2 0x595 JUMP JUMPDEST PUSH1 0x40 MLOAD PUSH2 0x1D1 SWAP2 SWAP1 PUSH2 0x1113 JUMP JUMPDEST PUSH1 0x40 MLOAD DUP1 SWAP2 SUB SWAP1 RETURN JUMPDEST PUSH2 0x1F4 PUSH1 0x4 DUP1 CALLDATASIZE SUB DUP2 ADD SWAP1 PUSH2 0x1EF SWAP2 SWAP1 PUSH2 0x1152 JUMP JUMPDEST PUSH2 0x5B5 JUMP JUMPDEST STOP JUMPDEST PUSH2 0x1FE PUSH2 0x6AE JUMP JUMPDEST PUSH1 0x40 MLOAD PUSH2 0x20B SWAP2 SWAP1 PUSH2 0x1054 JUMP JUMPDEST PUSH1 0x40 MLOAD DUP1 SWAP2 SUB SWAP1 RETURN JUMPDEST PUSH2 0x22E PUSH1 0x4 DUP1 CALLDATASIZE SUB DUP2 ADD SWAP1 PUSH2 0x229 SWAP2 SWAP1 PUSH2 0x106F JUMP JUMPDEST PUSH2 0x6D7 JUMP JUMPDEST PUSH1 0x40 MLOAD PUSH2 0x23F SWAP6 SWAP5 SWAP4 SWAP3 SWAP2 SWAP1 PUSH2 0x1280 JUMP JUMPDEST PUSH1 0x40 MLOAD DUP1 SWAP2 SUB SWAP1 RETURN JUMPDEST PUSH2 0x262 PUSH1 0x4 DUP1 CALLDATASIZE SUB DUP2 ADD SWAP1 PUSH2 0x25D SWAP2 SWAP1 PUSH2 0x106F JUMP JUMPDEST PUSH2 0x8C5 JUMP JUMPDEST PUSH1 0x40 MLOAD PUSH2 0x26F SWAP2 SWAP1 PUSH2 0xF99 JUMP JUMPDEST PUSH1 0x40 MLOAD DUP1 SWAP2 SUB SWAP1 RETURN JUMPDEST PUSH2 0x280 PUSH2 0x8E9 JUMP JUMPDEST PUSH1 0x40 MLOAD PUSH2 0x28D SWAP2 SWAP1 PUSH2 0x1054 JUMP JUMPDEST PUSH1 0x40 MLOAD DUP1 SWAP2 SUB SWAP1 RETURN JUMPDEST PUSH2 0x2B0 PUSH1 0x4 DUP1 CALLDATASIZE SUB DUP2 ADD SWAP1 PUSH2 0x2AB SWAP2 SWAP1 PUSH2 0x106F JUMP JUMPDEST PUSH2 0x90F JUMP JUMPDEST STOP JUMPDEST PUSH2 0x2CC PUSH1 0x4 DUP1 CALLDATASIZE SUB DUP2 ADD SWAP1 PUSH2 0x2C7 SWAP2 SWAP1 PUSH2 0x106F JUMP JUMPDEST PUSH2 0xA12 JUMP JUMPDEST PUSH1 0x40 MLOAD PUSH2 0x2D9 SWAP2 SWAP1 PUSH2 0x141E JUMP JUMPDEST PUSH1 0x40 MLOAD DUP1 SWAP2 SUB SWAP1 RETURN JUMPDEST PUSH2 0x2EA PUSH2 0xC55 JUMP JUMPDEST PUSH1 0x40 MLOAD PUSH2 0x2F7 SWAP2 SWAP1 PUSH2 0x14EF JUMP JUMPDEST PUSH1 0x40 MLOAD DUP1 SWAP2 SUB SWAP1 RETURN JUMPDEST PUSH2 0x31A PUSH1 0x4 DUP1 CALLDATASIZE SUB DUP2 ADD SWAP1 PUSH2 0x315 SWAP2 SWAP1 PUSH2 0x106F JUMP JUMPDEST PUSH2 0xCAD JUMP JUMPDEST PUSH1 0x40 MLOAD PUSH2 0x327 SWAP2 SWAP1 PUSH2 0x152C JUMP JUMPDEST PUSH1 0x40 MLOAD DUP1 SWAP2 SUB SWAP1 RETURN JUMPDEST PUSH2 0x34A PUSH1 0x4 DUP1 CALLDATASIZE SUB DUP2 ADD SWAP1 PUSH2 0x345 SWAP2 SWAP1 PUSH2 0xF53 JUMP JUMPDEST PUSH2 0xCCD JUMP JUMPDEST STOP JUMPDEST DUP1 PUSH1 0x1 PUSH1 0x0 PUSH2 0x100 EXP DUP2 SLOAD DUP2 PUSH20 0xFFFFFFFFFFFFFFFFFFFFFFFFFFFFFFFFFFFFFFFF MUL NOT AND SWAP1 DUP4 PUSH20 0xFFFFFFFFFFFFFFFFFFFFFFFFFFFFFFFFFFFFFFFF AND MUL OR SWAP1 SSTORE POP POP JUMP JUMPDEST PUSH1 0x3 SLOAD DUP2 JUMP JUMPDEST DUP1 PUSH1 0x2 PUSH1 0x0 PUSH2 0x100 EXP DUP2 SLOAD DUP2 PUSH20 0xFFFFFFFFFFFFFFFFFFFFFFFFFFFFFFFFFFFFFFFF MUL NOT AND SWAP1 DUP4 PUSH20 0xFFFFFFFFFFFFFFFFFFFFFFFFFFFFFFFFFFFFFFFF AND MUL OR SWAP1 SSTORE POP POP JUMP JUMPDEST PUSH1 0x7 PUSH1 0x0 PUSH1 0x3 SLOAD DUP2 MSTORE PUSH1 0x20 ADD SWAP1 DUP2 MSTORE PUSH1 0x20 ADD PUSH1 0x0 KECCAK256 PUSH1 0x0 SWAP1 SLOAD SWAP1 PUSH2 0x100 EXP SWAP1 DIV PUSH1 0xFF AND ISZERO PUSH2 0x43D JUMPI PUSH1 0x40 MLOAD PUSH32 0x8C379A000000000000000000000000000000000000000000000000000000000 DUP2 MSTORE PUSH1 0x4 ADD PUSH2 0x434 SWAP1 PUSH2 0x1593 JUMP JUMPDEST PUSH1 0x40 MLOAD DUP1 SWAP2 SUB SWAP1 REVERT JUMPDEST PUSH1 0x0 DUP1 PUSH1 0x4 DUP2 GT ISZERO PUSH2 0x452 JUMPI PUSH2 0x451 PUSH2 0x109C JUMP JUMPDEST JUMPDEST DUP3 PUSH1 0x4 DUP2 GT ISZERO PUSH2 0x465 JUMPI PUSH2 0x464 PUSH2 0x109C JUMP JUMPDEST JUMPDEST SUB PUSH2 0x473 JUMPI PUSH1 0x1 SWAP1 POP PUSH2 0x51A JUMP JUMPDEST PUSH1 0x1 PUSH1 0x4 DUP2 GT ISZERO PUSH2 0x487 JUMPI PUSH2 0x486 PUSH2 0x109C JUMP JUMPDEST JUMPDEST DUP3 PUSH1 0x4 DUP2 GT ISZERO PUSH2 0x49A JUMPI PUSH2 0x499 PUSH2 0x109C JUMP JUMPDEST JUMPDEST SUB PUSH2 0x4A8 JUMPI PUSH1 0x2 SWAP1 POP PUSH2 0x519 JUMP JUMPDEST PUSH1 0x2 PUSH1 0x4 DUP2 GT ISZERO PUSH2 0x4BC JUMPI PUSH2 0x4BB PUSH2 0x109C JUMP JUMPDEST JUMPDEST DUP3 PUSH1 0x4 DUP2 GT ISZERO PUSH2 0x4CF JUMPI PUSH2 0x4CE PUSH2 0x109C JUMP JUMPDEST JUMPDEST SUB PUSH2 0x4DD JUMPI PUSH1 0x3 SWAP1 POP PUSH2 0x518 JUMP JUMPDEST PUSH1 0x40 MLOAD PUSH32 0x8C379A000000000000000000000000000000000000000000000000000000000 DUP2 MSTORE PUSH1 0x4 ADD PUSH2 0x50F SWAP1 PUSH2 0x15FF JUMP JUMPDEST PUSH1 0x40 MLOAD DUP1 SWAP2 SUB SWAP1 REVERT JUMPDEST JUMPDEST JUMPDEST PUSH1 0x3 SLOAD PUSH32 0xB66123442B5CECB65E69792EB5D9DD4E8ABD4552E907D9F0F84CD98B6862FDD3 DUP4 DUP4 PUSH1 0x40 MLOAD PUSH2 0x54E SWAP3 SWAP2 SWAP1 PUSH2 0x161F JUMP JUMPDEST PUSH1 0x40 MLOAD DUP1 SWAP2 SUB SWAP1 LOG2 POP POP POP JUMP JUMPDEST PUSH1 0x2 PUSH1 0x0 SWAP1 SLOAD SWAP1 PUSH2 0x100 EXP SWAP1 DIV PUSH20 0xFFFFFFFFFFFFFFFFFFFFFFFFFFFFFFFFFFFFFFFF AND DUP2 JUMP JUMPDEST PUSH2 0x589 PUSH2 0xD53 JUMP JUMPDEST PUSH2 0x593 PUSH1 0x0 PUSH2 0xDDA JUMP JUMPDEST JUMP JUMPDEST PUSH1 0x6 PUSH1 0x20 MSTORE DUP1 PUSH1 0x0 MSTORE PUSH1 0x40 PUSH1 0x0 KECCAK256 PUSH1 0x0 SWAP2 POP SLOAD SWAP1 PUSH2 0x100 EXP SWAP1 DIV PUSH1 0xFF AND DUP2 JUMP JUMPDEST DUP1 PUSH1 0x4 PUSH1 0x0 PUSH1 0x3 SLOAD DUP2 MSTORE PUSH1 0x20 ADD SWAP1 DUP2 MSTORE PUSH1 0x20 ADD PUSH1 0x0 KECCAK256 DUP2 DUP2 PUSH2 0x5D7 SWAP2 SWAP1 PUSH2 0x1D79 JUMP JUMPDEST SWAP1 POP POP PUSH1 0x0 PUSH1 0x6 PUSH1 0x0 PUSH1 0x3 SLOAD DUP2 MSTORE PUSH1 0x20 ADD SWAP1 DUP2 MSTORE PUSH1 0x20 ADD PUSH1 0x0 KECCAK256 PUSH1 0x0 PUSH2 0x100 EXP DUP2 SLOAD DUP2 PUSH1 0xFF MUL NOT AND SWAP1 DUP4 PUSH1 0x4 DUP2 GT ISZERO PUSH2 0x613 JUMPI PUSH2 0x612 PUSH2 0x109C JUMP JUMPDEST JUMPDEST MUL OR SWAP1 SSTORE POP PUSH1 0x5 PUSH1 0x3 SLOAD SWAP1 DUP1 PUSH1 0x1 DUP2 SLOAD ADD DUP1 DUP3 SSTORE DUP1 SWAP2 POP POP PUSH1 0x1 SWAP1 SUB SWAP1 PUSH1 0x0 MSTORE PUSH1 0x20 PUSH1 0x0 KECCAK256 ADD PUSH1 0x0 SWAP1 SWAP2 SWAP1 SWAP2 SWAP1 SWAP2 POP SSTORE PUSH1 0x3 PUSH1 0x0 DUP2 SLOAD DUP1 SWAP3 SWAP2 SWAP1 PUSH2 0x656 SWAP1 PUSH2 0x1DB6 JUMP JUMPDEST SWAP2 SWAP1 POP SSTORE POP PUSH1 0x3 SLOAD PUSH32 0x961208AA3E528E7624367220A862D58A9483ED782D8BC03C42F558D85E9C1EC8 DUP3 DUP1 PUSH1 0x20 ADD SWAP1 PUSH2 0x68F SWAP2 SWAP1 PUSH2 0x172D JUMP JUMPDEST DUP5 PUSH1 0x40 ADD CALLDATALOAD PUSH1 0x40 MLOAD PUSH2 0x6A3 SWAP4 SWAP3 SWAP2 SWAP1 PUSH2 0x1E3A JUMP JUMPDEST PUSH1 0x40 MLOAD DUP1 SWAP2 SUB SWAP1 LOG2 POP JUMP JUMPDEST PUSH1 0x0 DUP1 PUSH1 0x0 SWAP1 SLOAD SWAP1 PUSH2 0x100 EXP SWAP1 DIV PUSH20 0xFFFFFFFFFFFFFFFFFFFFFFFFFFFFFFFFFFFFFFFF AND SWAP1 POP SWAP1 JUMP JUMPDEST PUSH1 0x4 PUSH1 0x20 MSTORE DUP1 PUSH1 0x0 MSTORE PUSH1 0x40 PUSH1 0x0 KECCAK256 PUSH1 0x0 SWAP2 POP SWAP1 POP DUP1 PUSH1 0x0 ADD PUSH1 0x0 SWAP1 SLOAD SWAP1 PUSH2 0x100 EXP SWAP1 DIV PUSH20 0xFFFFFFFFFFFFFFFFFFFFFFFFFFFFFFFFFFFFFFFF AND SWAP1 DUP1 PUSH1 0x1 ADD DUP1 SLOAD PUSH2 0x720 SWAP1 PUSH2 0x17F9 JUMP JUMPDEST DUP1 PUSH1 0x1F ADD PUSH1 0x20 DUP1 SWAP2 DIV MUL PUSH1 0x20 ADD PUSH1 0x40 MLOAD SWAP1 DUP2 ADD PUSH1 0x40 MSTORE DUP1 SWAP3 SWAP2 SWAP1 DUP2 DUP2 MSTORE PUSH1 0x20 ADD DUP3 DUP1 SLOAD PUSH2 0x74C SWAP1 PUSH2 0x17F9 JUMP JUMPDEST DUP1 ISZERO PUSH2 0x799 JUMPI DUP1 PUSH1 0x1F LT PUSH2 0x76E JUMPI PUSH2 0x100 DUP1 DUP4 SLOAD DIV MUL DUP4 MSTORE SWAP2 PUSH1 0x20 ADD SWAP2 PUSH2 0x799 JUMP JUMPDEST DUP3 ADD SWAP2 SWAP1 PUSH1 0x0 MSTORE PUSH1 0x20 PUSH1 0x0 KECCAK256 SWAP1 JUMPDEST DUP2 SLOAD DUP2 MSTORE SWAP1 PUSH1 0x1 ADD SWAP1 PUSH1 0x20 ADD DUP1 DUP4 GT PUSH2 0x77C JUMPI DUP3 SWAP1 SUB PUSH1 0x1F AND DUP3 ADD SWAP2 JUMPDEST POP POP POP POP POP SWAP1 DUP1 PUSH1 0x2 ADD SLOAD SWAP1 DUP1 PUSH1 0x3 ADD DUP1 SLOAD PUSH2 0x7B4 SWAP1 PUSH2 0x17F9 JUMP JUMPDEST DUP1 PUSH1 0x1F ADD PUSH1 0x20 DUP1 SWAP2 DIV MUL PUSH1 0x20 ADD PUSH1 0x40 MLOAD SWAP1 DUP2 ADD PUSH1 0x40 MSTORE DUP1 SWAP3 SWAP2 SWAP1 DUP2 DUP2 MSTORE PUSH1 0x20 ADD DUP3 DUP1 SLOAD PUSH2 0x7E0 SWAP1 PUSH2 0x17F9 JUMP JUMPDEST DUP1 ISZERO PUSH2 0x82D JUMPI DUP1 PUSH1 0x1F LT PUSH2 0x802 JUMPI PUSH2 0x100 DUP1 DUP4 SLOAD DIV MUL DUP4 MSTORE SWAP2 PUSH1 0x20 ADD SWAP2 PUSH2 0x82D JUMP JUMPDEST DUP3 ADD SWAP2 SWAP1 PUSH1 0x0 MSTORE PUSH1 0x20 PUSH1 0x0 KECCAK256 SWAP1 JUMPDEST DUP2 SLOAD DUP2 MSTORE SWAP1 PUSH1 0x1 ADD SWAP1 PUSH1 0x20 ADD DUP1 DUP4 GT PUSH2 0x810 JUMPI DUP3 SWAP1 SUB PUSH1 0x1F AND DUP3 ADD SWAP2 JUMPDEST POP POP POP POP POP SWAP1 DUP1 PUSH1 0x4 ADD DUP1 SLOAD PUSH2 0x842 SWAP1 PUSH2 0x17F9 JUMP JUMPDEST DUP1 PUSH1 0x1F ADD PUSH1 0x20 DUP1 SWAP2 DIV MUL PUSH1 0x20 ADD PUSH1 0x40 MLOAD SWAP1 DUP2 ADD PUSH1 0x40 MSTORE DUP1 SWAP3 SWAP2 SWAP1 DUP2 DUP2 MSTORE PUSH1 0x20 ADD DUP3 DUP1 SLOAD PUSH2 0x86E SWAP1 PUSH2 0x17F9 JUMP JUMPDEST DUP1 ISZERO PUSH2 0x8BB JUMPI DUP1 PUSH1 0x1F LT PUSH2 0x890 JUMPI PUSH2 0x100 DUP1 DUP4 SLOAD DIV MUL DUP4 MSTORE SWAP2 PUSH1 0x20 ADD SWAP2 PUSH2 0x8BB JUMP JUMPDEST DUP3 ADD SWAP2 SWAP1 PUSH1 0x0 MSTORE PUSH1 0x20 PUSH1 0x0 KECCAK256 SWAP1 JUMPDEST DUP2 SLOAD DUP2 MSTORE SWAP1 PUSH1 0x1 ADD SWAP1 PUSH1 0x20 ADD DUP1 DUP4 GT PUSH2 0x89E JUMPI DUP3 SWAP1 SUB PUSH1 0x1F AND DUP3 ADD SWAP2 JUMPDEST POP POP POP POP POP SWAP1 POP DUP6 JUMP JUMPDEST PUSH1 0x5 DUP2 DUP2 SLOAD DUP2 LT PUSH2 0x8D5 JUMPI PUSH1 0x0 DUP1 REVERT JUMPDEST SWAP1 PUSH1 0x0 MSTORE PUSH1 0x20 PUSH1 0x0 KECCAK256 ADD PUSH1 0x0 SWAP2 POP SWAP1 POP SLOAD DUP2 JUMP JUMPDEST PUSH1 0x1 PUSH1 0x0 SWAP1 SLOAD SWAP1 PUSH2 0x100 EXP SWAP1 DIV PUSH20 0xFFFFFFFFFFFFFFFFFFFFFFFFFFFFFFFFFFFFFFFF AND DUP2 JUMP JUMPDEST PUSH2 0x917 PUSH2 0xD53 JUMP JUMPDEST PUSH1 0x7 PUSH1 0x0 PUSH1 0x3 SLOAD DUP2 MSTORE PUSH1 0x20 ADD SWAP1 DUP2 MSTORE PUSH1 0x20 ADD PUSH1 0x0 KECCAK256 PUSH1 0x0 SWAP1 SLOAD SWAP1 PUSH2 0x100 EXP SWAP1 DIV PUSH1 0xFF AND ISZERO PUSH2 0x97A JUMPI PUSH1 0x40 MLOAD PUSH32 0x8C379A000000000000000000000000000000000000000000000000000000000 DUP2 MSTORE PUSH1 0x4 ADD PUSH2 0x971 SWAP1 PUSH2 0x1593 JUMP JUMPDEST PUSH1 0x40 MLOAD DUP1 SWAP2 SUB SWAP1 REVERT JUMPDEST PUSH1 0x4 PUSH1 0x6 PUSH1 0x0 DUP4 DUP2 MSTORE PUSH1 0x20 ADD SWAP1 DUP2 MSTORE PUSH1 0x20 ADD PUSH1 0x0 KECCAK256 PUSH1 0x0 PUSH2 0x100 EXP DUP2 SLOAD DUP2 PUSH1 0xFF MUL NOT AND SWAP1 DUP4 PUSH1 0x4 DUP2 GT ISZERO PUSH2 0x9B1 JUMPI PUSH2 0x9B0 PUSH2 0x109C JUMP JUMPDEST JUMPDEST MUL OR SWAP1 SSTORE POP PUSH1 0x1 PUSH1 0x7 PUSH1 0x0 DUP4 DUP2 MSTORE PUSH1 0x20 ADD SWAP1 DUP2 MSTORE PUSH1 0x20 ADD PUSH1 0x0 KECCAK256 PUSH1 0x0 PUSH2 0x100 EXP DUP2 SLOAD DUP2 PUSH1 0xFF MUL NOT AND SWAP1 DUP4 ISZERO ISZERO MUL OR SWAP1 SSTORE POP DUP1 PUSH32 0x51394E5CF50E28F5EE446D54E6B713EB0CB38F53EEBC74EB30C2478C343C4CE PUSH1 0x40 MLOAD PUSH1 0x40 MLOAD DUP1 SWAP2 SUB SWAP1 LOG2 POP JUMP JUMPDEST PUSH2 0xA1A PUSH2 0xEA6 JUMP JUMPDEST PUSH1 0x4 PUSH1 0x0 DUP4 DUP2 MSTORE PUSH1 0x20 ADD SWAP1 DUP2 MSTORE PUSH1 0x20 ADD PUSH1 0x0 KECCAK256 PUSH1 0x40 MLOAD DUP1 PUSH1 0xA0 ADD PUSH1 0x40 MSTORE SWAP1 DUP2 PUSH1 0x0 DUP3 ADD PUSH1 0x0 SWAP1 SLOAD SWAP1 PUSH2 0x100 EXP SWAP1 DIV PUSH20 0xFFFFFFFFFFFFFFFFFFFFFFFFFFFFFFFFFFFFFFFF AND PUSH20 0xFFFFFFFFFFFFFFFFFFFFFFFFFFFFFFFFFFFFFFFF AND PUSH20 0xFFFFFFFFFFFFFFFFFFFFFFFFFFFFFFFFFFFFFFFF AND DUP2 MSTORE PUSH1 0x20 ADD PUSH1 0x1 DUP3 ADD DUP1 SLOAD PUSH2 0xA9E SWAP1 PUSH2 0x17F9 JUMP JUMPDEST DUP1 PUSH1 0x1F ADD PUSH1 0x20 DUP1 SWAP2 DIV MUL PUSH1 0x20 ADD PUSH1 0x40 MLOAD SWAP1 DUP2 ADD PUSH1 0x40 MSTORE DUP1 SWAP3 SWAP2 SWAP1 DUP2 DUP2 MSTORE PUSH1 0x20 ADD DUP3 DUP1 SLOAD PUSH2 0xACA SWAP1 PUSH2 0x17F9 JUMP JUMPDEST DUP1 ISZERO PUSH2 0xB17 JUMPI DUP1 PUSH1 0x1F LT PUSH2 0xAEC JUMPI PUSH2 0x100 DUP1 DUP4 SLOAD DIV MUL DUP4 MSTORE SWAP2 PUSH1 0x20 ADD SWAP2 PUSH2 0xB17 JUMP JUMPDEST DUP3 ADD SWAP2 SWAP1 PUSH1 0x0 MSTORE PUSH1 0x20 PUSH1 0x0 KECCAK256 SWAP1 JUMPDEST DUP2 SLOAD DUP2 MSTORE SWAP1 PUSH1 0x1 ADD SWAP1 PUSH1 0x20 ADD DUP1 DUP4 GT PUSH2 0xAFA JUMPI DUP3 SWAP1 SUB PUSH1 0x1F AND DUP3 ADD SWAP2 JUMPDEST POP POP POP POP POP DUP2 MSTORE PUSH1 0x20 ADD PUSH1 0x2 DUP3 ADD SLOAD DUP2 MSTORE PUSH1 0x20 ADD PUSH1 0x3 DUP3 ADD DUP1 SLOAD PUSH2 0xB3A SWAP1 PUSH2 0x17F9 JUMP JUMPDEST DUP1 PUSH1 0x1F ADD PUSH1 0x20 DUP1 SWAP2 DIV MUL PUSH1 0x20 ADD PUSH1 0x40 MLOAD SWAP1 DUP2 ADD PUSH1 0x40 MSTORE DUP1 SWAP3 SWAP2 SWAP1 DUP2 DUP2 MSTORE PUSH1 0x20 ADD DUP3 DUP1 SLOAD PUSH2 0xB66 SWAP1 PUSH2 0x17F9 JUMP JUMPDEST DUP1 ISZERO PUSH2 0xBB3 JUMPI DUP1 PUSH1 0x1F LT PUSH2 0xB88 JUMPI PUSH2 0x100 DUP1 DUP4 SLOAD DIV MUL DUP4 MSTORE SWAP2 PUSH1 0x20 ADD SWAP2 PUSH2 0xBB3 JUMP JUMPDEST DUP3 ADD SWAP2 SWAP1 PUSH1 0x0 MSTORE PUSH1 0x20 PUSH1 0x0 KECCAK256 SWAP1 JUMPDEST DUP2 SLOAD DUP2 MSTORE SWAP1 PUSH1 0x1 ADD SWAP1 PUSH1 0x20 ADD DUP1 DUP4 GT PUSH2 0xB96 JUMPI DUP3 SWAP1 SUB PUSH1 0x1F AND DUP3 ADD SWAP2 JUMPDEST POP POP POP POP POP DUP2 MSTORE PUSH1 0x20 ADD PUSH1 0x4 DUP3 ADD DUP1 SLOAD PUSH2 0xBCC SWAP1 PUSH2 0x17F9 JUMP JUMPDEST DUP1 PUSH1 0x1F ADD PUSH1 0x20 DUP1 SWAP2 DIV MUL PUSH1 0x20 ADD PUSH1 0x40 MLOAD SWAP1 DUP2 ADD PUSH1 0x40 MSTORE DUP1 SWAP3 SWAP2 SWAP1 DUP2 DUP2 MSTORE PUSH1 0x20 ADD DUP3 DUP1 SLOAD PUSH2 0xBF8 SWAP1 PUSH2 0x17F9 JUMP JUMPDEST DUP1 ISZERO PUSH2 0xC45 JUMPI DUP1 PUSH1 0x1F LT PUSH2 0xC1A JUMPI PUSH2 0x100 DUP1 DUP4 SLOAD DIV MUL DUP4 MSTORE SWAP2 PUSH1 0x20 ADD SWAP2 PUSH2 0xC45 JUMP JUMPDEST DUP3 ADD SWAP2 SWAP1 PUSH1 0x0 MSTORE PUSH1 0x20 PUSH1 0x0 KECCAK256 SWAP1 JUMPDEST DUP2 SLOAD DUP2 MSTORE SWAP1 PUSH1 0x1 ADD SWAP1 PUSH1 0x20 ADD DUP1 DUP4 GT PUSH2 0xC28 JUMPI DUP3 SWAP1 SUB PUSH1 0x1F AND DUP3 ADD SWAP2 JUMPDEST POP POP POP POP POP DUP2 MSTORE POP POP SWAP1 POP SWAP2 SWAP1 POP JUMP JUMPDEST PUSH1 0x60 PUSH1 0x5 DUP1 SLOAD DUP1 PUSH1 0x20 MUL PUSH1 0x20 ADD PUSH1 0x40 MLOAD SWAP1 DUP2 ADD PUSH1 0x40 MSTORE DUP1 SWAP3 SWAP2 SWAP1 DUP2 DUP2 MSTORE PUSH1 0x20 ADD DUP3 DUP1 SLOAD DUP1 ISZERO PUSH2 0xCA3 JUMPI PUSH1 0x20 MUL DUP3 ADD SWAP2 SWAP1 PUSH1 0x0 MSTORE PUSH1 0x20 PUSH1 0x0 KECCAK256 SWAP1 JUMPDEST DUP2 SLOAD DUP2 MSTORE PUSH1 0x20 ADD SWAP1 PUSH1 0x1 ADD SWAP1 DUP1 DUP4 GT PUSH2 0xC8F JUMPI JUMPDEST POP POP POP POP POP SWAP1 POP SWAP1 JUMP JUMPDEST PUSH1 0x7 PUSH1 0x20 MSTORE DUP1 PUSH1 0x0 MSTORE PUSH1 0x40 PUSH1 0x0 KECCAK256 PUSH1 0x0 SWAP2 POP SLOAD SWAP1 PUSH2 0x100 EXP SWAP1 DIV PUSH1 0xFF AND DUP2 JUMP JUMPDEST PUSH2 0xCD5 PUSH2 0xD53 JUMP JUMPDEST PUSH1 0x0 PUSH20 0xFFFFFFFFFFFFFFFFFFFFFFFFFFFFFFFFFFFFFFFF AND DUP2 PUSH20 0xFFFFFFFFFFFFFFFFFFFFFFFFFFFFFFFFFFFFFFFF AND SUB PUSH2 0xD47 JUMPI PUSH1 0x0 PUSH1 0x40 MLOAD PUSH32 0x1E4FBDF700000000000000000000000000000000000000000000000000000000 DUP2 MSTORE PUSH1 0x4 ADD PUSH2 0xD3E SWAP2 SWAP1 PUSH2 0x1054 JUMP JUMPDEST PUSH1 0x40 MLOAD DUP1 SWAP2 SUB SWAP1 REVERT JUMPDEST PUSH2 0xD50 DUP2 PUSH2 0xDDA JUMP JUMPDEST POP JUMP JUMPDEST PUSH2 0xD5B PUSH2 0xE9E JUMP JUMPDEST PUSH20 0xFFFFFFFFFFFFFFFFFFFFFFFFFFFFFFFFFFFFFFFF AND PUSH2 0xD79 PUSH2 0x6AE JUMP JUMPDEST PUSH20 0xFFFFFFFFFFFFFFFFFFFFFFFFFFFFFFFFFFFFFFFF AND EQ PUSH2 0xDD8 JUMPI PUSH2 0xD9C PUSH2 0xE9E JUMP JUMPDEST PUSH1 0x40 MLOAD PUSH32 0x118CDAA700000000000000000000000000000000000000000000000000000000 DUP2 MSTORE PUSH1 0x4 ADD PUSH2 0xDCF SWAP2 SWAP1 PUSH2 0x1054 JUMP JUMPDEST PUSH1 0x40 MLOAD DUP1 SWAP2 SUB SWAP1 REVERT JUMPDEST JUMP JUMPDEST PUSH1 0x0 DUP1 PUSH1 0x0 SWAP1 SLOAD SWAP1 PUSH2 0x100 EXP SWAP1 DIV PUSH20 0xFFFFFFFFFFFFFFFFFFFFFFFFFFFFFFFFFFFFFFFF AND SWAP1 POP DUP2 PUSH1 0x0 DUP1 PUSH2 0x100 EXP DUP2 SLOAD DUP2 PUSH20 0xFFFFFFFFFFFFFFFFFFFFFFFFFFFFFFFFFFFFFFFF MUL NOT AND SWAP1 DUP4 PUSH20 0xFFFFFFFFFFFFFFFFFFFFFFFFFFFFFFFFFFFFFFFF AND MUL OR SWAP1 SSTORE POP DUP2 PUSH20 0xFFFFFFFFFFFFFFFFFFFFFFFFFFFFFFFFFFFFFFFF AND DUP2 PUSH20 0xFFFFFFFFFFFFFFFFFFFFFFFFFFFFFFFFFFFFFFFF AND PUSH32 0x8BE0079C531659141344CD1FD0A4F28419497F9722A3DAAFE3B4186F6B6457E0 PUSH1 0x40 MLOAD PUSH1 0x40 MLOAD DUP1 SWAP2 SUB SWAP1 LOG3 POP POP JUMP JUMPDEST PUSH1 0x0 CALLER SWAP1 POP SWAP1 JUMP JUMPDEST PUSH1 0x40 MLOAD DUP1 PUSH1 0xA0 ADD PUSH1 0x40 MSTORE DUP1 PUSH1 0x0 PUSH20 0xFFFFFFFFFFFFFFFFFFFFFFFFFFFFFFFFFFFFFFFF AND DUP2 MSTORE PUSH1 0x20 ADD PUSH1 0x60 DUP2 MSTORE PUSH1 0x20 ADD PUSH1 0x0 DUP2 MSTORE PUSH1 0x20 ADD PUSH1 0x60 DUP2 MSTORE PUSH1 0x20 ADD PUSH1 0x60 DUP2 MSTORE POP SWAP1 JUMP JUMPDEST PUSH1 0x0 DUP1 REVERT JUMPDEST PUSH1 0x0 DUP1 REVERT JUMPDEST PUSH1 0x0 PUSH20 0xFFFFFFFFFFFFFFFFFFFFFFFFFFFFFFFFFFFFFFFF DUP3 AND SWAP1 POP SWAP2 SWAP1 POP JUMP JUMPDEST PUSH1 0x0 PUSH2 0xF20 DUP3 PUSH2 0xEF5 JUMP JUMPDEST SWAP1 POP SWAP2 SWAP1 POP JUMP JUMPDEST PUSH2 0xF30 DUP2 PUSH2 0xF15 JUMP JUMPDEST DUP2 EQ PUSH2 0xF3B JUMPI PUSH1 0x0 DUP1 REVERT JUMPDEST POP JUMP JUMPDEST PUSH1 0x0 DUP2 CALLDATALOAD SWAP1 POP PUSH2 0xF4D DUP2 PUSH2 0xF27 JUMP JUMPDEST SWAP3 SWAP2 POP POP JUMP JUMPDEST PUSH1 0x0 PUSH1 0x20 DUP3 DUP5 SUB SLT ISZERO PUSH2 0xF69 JUMPI PUSH2 0xF68 PUSH2 0xEEB JUMP JUMPDEST JUMPDEST PUSH1 0x0 PUSH2 0xF77 DUP5 DUP3 DUP6 ADD PUSH2 0xF3E JUMP JUMPDEST SWAP2 POP POP SWAP3 SWAP2 POP POP JUMP JUMPDEST PUSH1 0x0 DUP2 SWAP1 POP SWAP2 SWAP1 POP JUMP JUMPDEST PUSH2 0xF93 DUP2 PUSH2 0xF80 JUMP JUMPDEST DUP3 MSTORE POP POP JUMP JUMPDEST PUSH1 0x0 PUSH1 0x20 DUP3 ADD SWAP1 POP PUSH2 0xFAE PUSH1 0x0 DUP4 ADD DUP5 PUSH2 0xF8A JUMP JUMPDEST SWAP3 SWAP2 POP POP JUMP JUMPDEST PUSH2 0xFBD DUP2 PUSH2 0xF80 JUMP JUMPDEST DUP2 EQ PUSH2 0xFC8 JUMPI PUSH1 0x0 DUP1 REVERT JUMPDEST POP JUMP JUMPDEST PUSH1 0x0 DUP2 CALLDATALOAD SWAP1 POP PUSH2 0xFDA DUP2 PUSH2 0xFB4 JUMP JUMPDEST SWAP3 SWAP2 POP POP JUMP JUMPDEST PUSH1 0x5 DUP2 LT PUSH2 0xFED JUMPI PUSH1 0x0 DUP1 REVERT JUMPDEST POP JUMP JUMPDEST PUSH1 0x0 DUP2 CALLDATALOAD SWAP1 POP PUSH2 0xFFF DUP2 PUSH2 0xFE0 JUMP JUMPDEST SWAP3 SWAP2 POP POP JUMP JUMPDEST PUSH1 0x0 DUP1 PUSH1 0x40 DUP4 DUP6 SUB SLT ISZERO PUSH2 0x101C JUMPI PUSH2 0x101B PUSH2 0xEEB JUMP JUMPDEST JUMPDEST PUSH1 0x0 PUSH2 0x102A DUP6 DUP3 DUP7 ADD PUSH2 0xFCB JUMP JUMPDEST SWAP3 POP POP PUSH1 0x20 PUSH2 0x103B DUP6 DUP3 DUP7 ADD PUSH2 0xFF0 JUMP JUMPDEST SWAP2 POP POP SWAP3 POP SWAP3 SWAP1 POP JUMP JUMPDEST PUSH2 0x104E DUP2 PUSH2 0xF15 JUMP JUMPDEST DUP3 MSTORE POP POP JUMP JUMPDEST PUSH1 0x0 PUSH1 0x20 DUP3 ADD SWAP1 POP PUSH2 0x1069 PUSH1 0x0 DUP4 ADD DUP5 PUSH2 0x1045 JUMP JUMPDEST SWAP3 SWAP2 POP POP JUMP JUMPDEST PUSH1 0x0 PUSH1 0x20 DUP3 DUP5 SUB SLT ISZERO PUSH2 0x1085 JUMPI PUSH2 0x1084 PUSH2 0xEEB JUMP JUMPDEST JUMPDEST PUSH1 0x0 PUSH2 0x1093 DUP5 DUP3 DUP6 ADD PUSH2 0xFCB JUMP JUMPDEST SWAP2 POP POP SWAP3 SWAP2 POP POP JUMP JUMPDEST PUSH32 0x4E487B7100000000000000000000000000000000000000000000000000000000 PUSH1 0x0 MSTORE PUSH1 0x21 PUSH1 0x4 MSTORE PUSH1 0x24 PUSH1 0x0 REVERT JUMPDEST PUSH1 0x5 DUP2 LT PUSH2 0x10DC JUMPI PUSH2 0x10DB PUSH2 0x109C JUMP JUMPDEST JUMPDEST POP JUMP JUMPDEST PUSH1 0x0 DUP2 SWAP1 POP PUSH2 0x10ED DUP3 PUSH2 0x10CB JUMP JUMPDEST SWAP2 SWAP1 POP JUMP JUMPDEST PUSH1 0x0 PUSH2 0x10FD DUP3 PUSH2 0x10DF JUMP JUMPDEST SWAP1 POP SWAP2 SWAP1 POP JUMP JUMPDEST PUSH2 0x110D DUP2 PUSH2 0x10F2 JUMP JUMPDEST DUP3 MSTORE POP POP JUMP JUMPDEST PUSH1 0x0 PUSH1 0x20 DUP3 ADD SWAP1 POP PUSH2 0x1128 PUSH1 0x0 DUP4 ADD DUP5 PUSH2 0x1104 JUMP JUMPDEST SWAP3 SWAP2 POP POP JUMP JUMPDEST PUSH1 0x0 DUP1 REVERT JUMPDEST PUSH1 0x0 PUSH1 0xA0 DUP3 DUP5 SUB SLT ISZERO PUSH2 0x1149 JUMPI PUSH2 0x1148 PUSH2 0x112E JUMP JUMPDEST JUMPDEST DUP2 SWAP1 POP SWAP3 SWAP2 POP POP JUMP JUMPDEST PUSH1 0x0 PUSH1 0x20 DUP3 DUP5 SUB SLT ISZERO PUSH2 0x1168 JUMPI PUSH2 0x1167 PUSH2 0xEEB JUMP JUMPDEST JUMPDEST PUSH1 0x0 DUP3 ADD CALLDATALOAD PUSH8 0xFFFFFFFFFFFFFFFF DUP2 GT ISZERO PUSH2 0x1186 JUMPI PUSH2 0x1185 PUSH2 0xEF0 JUMP JUMPDEST JUMPDEST PUSH2 0x1192 DUP5 DUP3 DUP6 ADD PUSH2 0x1133 JUMP JUMPDEST SWAP2 POP POP SWAP3 SWAP2 POP POP JUMP JUMPDEST PUSH1 0x0 DUP2 MLOAD SWAP1 POP SWAP2 SWAP1 POP JUMP JUMPDEST PUSH1 0x0 DUP3 DUP3 MSTORE PUSH1 0x20 DUP3 ADD SWAP1 POP SWAP3 SWAP2 POP POP JUMP JUMPDEST PUSH1 0x0 JUMPDEST DUP4 DUP2 LT ISZERO PUSH2 0x11D5 JUMPI DUP1 DUP3 ADD MLOAD DUP2 DUP5 ADD MSTORE PUSH1 0x20 DUP2 ADD SWAP1 POP PUSH2 0x11BA JUMP JUMPDEST PUSH1 0x0 DUP5 DUP5 ADD MSTORE POP POP POP POP JUMP JUMPDEST PUSH1 0x0 PUSH1 0x1F NOT PUSH1 0x1F DUP4 ADD AND SWAP1 POP SWAP2 SWAP1 POP JUMP JUMPDEST PUSH1 0x0 PUSH2 0x11FD DUP3 PUSH2 0x119B JUMP JUMPDEST PUSH2 0x1207 DUP2 DUP6 PUSH2 0x11A6 JUMP JUMPDEST SWAP4 POP PUSH2 0x1217 DUP2 DUP6 PUSH1 0x20 DUP7 ADD PUSH2 0x11B7 JUMP JUMPDEST PUSH2 0x1220 DUP2 PUSH2 0x11E1 JUMP JUMPDEST DUP5 ADD SWAP2 POP POP SWAP3 SWAP2 POP POP JUMP JUMPDEST PUSH1 0x0 DUP2 MLOAD SWAP1 POP SWAP2 SWAP1 POP JUMP JUMPDEST PUSH1 0x0 DUP3 DUP3 MSTORE PUSH1 0x20 DUP3 ADD SWAP1 POP SWAP3 SWAP2 POP POP JUMP JUMPDEST PUSH1 0x0 PUSH2 0x1252 DUP3 PUSH2 0x122B JUMP JUMPDEST PUSH2 0x125C DUP2 DUP6 PUSH2 0x1236 JUMP JUMPDEST SWAP4 POP PUSH2 0x126C DUP2 DUP6 PUSH1 0x20 DUP7 ADD PUSH2 0x11B7 JUMP JUMPDEST PUSH2 0x1275 DUP2 PUSH2 0x11E1 JUMP JUMPDEST DUP5 ADD SWAP2 POP POP SWAP3 SWAP2 POP POP JUMP JUMPDEST PUSH1 0x0 PUSH1 0xA0 DUP3 ADD SWAP1 POP PUSH2 0x1295 PUSH1 0x0 DUP4 ADD DUP9 PUSH2 0x1045 JUMP JUMPDEST DUP2 DUP2 SUB PUSH1 0x20 DUP4 ADD MSTORE PUSH2 0x12A7 DUP2 DUP8 PUSH2 0x11F2 JUMP JUMPDEST SWAP1 POP PUSH2 0x12B6 PUSH1 0x40 DUP4 ADD DUP7 PUSH2 0xF8A JUMP JUMPDEST DUP2 DUP2 SUB PUSH1 0x60 DUP4 ADD MSTORE PUSH2 0x12C8 DUP2 DUP6 PUSH2 0x1247 JUMP JUMPDEST SWAP1 POP DUP2 DUP2 SUB PUSH1 0x80 DUP4 ADD MSTORE PUSH2 0x12DC DUP2 DUP5 PUSH2 0x1247 JUMP JUMPDEST SWAP1 POP SWAP7 SWAP6 POP POP POP POP POP POP JUMP JUMPDEST PUSH2 0x12F1 DUP2 PUSH2 0xF15 JUMP JUMPDEST DUP3 MSTORE POP POP JUMP JUMPDEST PUSH1 0x0 DUP3 DUP3 MSTORE PUSH1 0x20 DUP3 ADD SWAP1 POP SWAP3 SWAP2 POP POP JUMP JUMPDEST PUSH1 0x0 PUSH2 0x1313 DUP3 PUSH2 0x119B JUMP JUMPDEST PUSH2 0x131D DUP2 DUP6 PUSH2 0x12F7 JUMP JUMPDEST SWAP4 POP PUSH2 0x132D DUP2 DUP6 PUSH1 0x20 DUP7 ADD PUSH2 0x11B7 JUMP JUMPDEST PUSH2 0x1336 DUP2 PUSH2 0x11E1 JUMP JUMPDEST DUP5 ADD SWAP2 POP POP SWAP3 SWAP2 POP POP JUMP JUMPDEST PUSH2 0x134A DUP2 PUSH2 0xF80 JUMP JUMPDEST DUP3 MSTORE POP POP JUMP JUMPDEST PUSH1 0x0 DUP3 DUP3 MSTORE PUSH1 0x20 DUP3 ADD SWAP1 POP SWAP3 SWAP2 POP POP JUMP JUMPDEST PUSH1 0x0 PUSH2 0x136C DUP3 PUSH2 0x122B JUMP JUMPDEST PUSH2 0x1376 DUP2 DUP6 PUSH2 0x1350 JUMP JUMPDEST SWAP4 POP PUSH2 0x1386 DUP2 DUP6 PUSH1 0x20 DUP7 ADD PUSH2 0x11B7 JUMP JUMPDEST PUSH2 0x138F DUP2 PUSH2 0x11E1 JUMP JUMPDEST DUP5 ADD SWAP2 POP POP SWAP3 SWAP2 POP POP JUMP JUMPDEST PUSH1 0x0 PUSH1 0xA0 DUP4 ADD PUSH1 0x0 DUP4 ADD MLOAD PUSH2 0x13B2 PUSH1 0x0 DUP7 ADD DUP3 PUSH2 0x12E8 JUMP JUMPDEST POP PUSH1 0x20 DUP4 ADD MLOAD DUP5 DUP3 SUB PUSH1 0x20 DUP7 ADD MSTORE PUSH2 0x13CA DUP3 DUP3 PUSH2 0x1308 JUMP JUMPDEST SWAP2 POP POP PUSH1 0x40 DUP4 ADD MLOAD PUSH2 0x13DF PUSH1 0x40 DUP7 ADD DUP3 PUSH2 0x1341 JUMP JUMPDEST POP PUSH1 0x60 DUP4 ADD MLOAD DUP5 DUP3 SUB PUSH1 0x60 DUP7 ADD MSTORE PUSH2 0x13F7 DUP3 DUP3 PUSH2 0x1361 JUMP JUMPDEST SWAP2 POP POP PUSH1 0x80 DUP4 ADD MLOAD DUP5 DUP3 SUB PUSH1 0x80 DUP7 ADD MSTORE PUSH2 0x1411 DUP3 DUP3 PUSH2 0x1361 JUMP JUMPDEST SWAP2 POP POP DUP1 SWAP2 POP POP SWAP3 SWAP2 POP POP JUMP JUMPDEST PUSH1 0x0 PUSH1 0x20 DUP3 ADD SWAP1 POP DUP2 DUP2 SUB PUSH1 0x0 DUP4 ADD MSTORE PUSH2 0x1438 DUP2 DUP5 PUSH2 0x139A JUMP JUMPDEST SWAP1 POP SWAP3 SWAP2 POP POP JUMP JUMPDEST PUSH1 0x0 DUP2 MLOAD SWAP1 POP SWAP2 SWAP1 POP JUMP JUMPDEST PUSH1 0x0 DUP3 DUP3 MSTORE PUSH1 0x20 DUP3 ADD SWAP1 POP SWAP3 SWAP2 POP POP JUMP JUMPDEST PUSH1 0x0 DUP2 SWAP1 POP PUSH1 0x20 DUP3 ADD SWAP1 POP SWAP2 SWAP1 POP JUMP JUMPDEST PUSH1 0x0 PUSH2 0x1478 DUP4 DUP4 PUSH2 0x1341 JUMP JUMPDEST PUSH1 0x20 DUP4 ADD SWAP1 POP SWAP3 SWAP2 POP POP JUMP JUMPDEST PUSH1 0x0 PUSH1 0x20 DUP3 ADD SWAP1 POP SWAP2 SWAP1 POP JUMP JUMPDEST PUSH1 0x0 PUSH2 0x149C DUP3 PUSH2 0x1440 JUMP JUMPDEST PUSH2 0x14A6 DUP2 DUP6 PUSH2 0x144B JUMP JUMPDEST SWAP4 POP PUSH2 0x14B1 DUP4 PUSH2 0x145C JUMP JUMPDEST DUP1 PUSH1 0x0 JUMPDEST DUP4 DUP2 LT ISZERO PUSH2 0x14E2 JUMPI DUP2 MLOAD PUSH2 0x14C9 DUP9 DUP3 PUSH2 0x146C JUMP JUMPDEST SWAP8 POP PUSH2 0x14D4 DUP4 PUSH2 0x1484 JUMP JUMPDEST SWAP3 POP POP PUSH1 0x1 DUP2 ADD SWAP1 POP PUSH2 0x14B5 JUMP JUMPDEST POP DUP6 SWAP4 POP POP POP POP SWAP3 SWAP2 POP POP JUMP JUMPDEST PUSH1 0x0 PUSH1 0x20 DUP3 ADD SWAP1 POP DUP2 DUP2 SUB PUSH1 0x0 DUP4 ADD MSTORE PUSH2 0x1509 DUP2 DUP5 PUSH2 0x1491 JUMP JUMPDEST SWAP1 POP SWAP3 SWAP2 POP POP JUMP JUMPDEST PUSH1 0x0 DUP2 ISZERO ISZERO SWAP1 POP SWAP2 SWAP1 POP JUMP JUMPDEST PUSH2 0x1526 DUP2 PUSH2 0x1511 JUMP JUMPDEST DUP3 MSTORE POP POP JUMP JUMPDEST PUSH1 0x0 PUSH1 0x20 DUP3 ADD SWAP1 POP PUSH2 0x1541 PUSH1 0x0 DUP4 ADD DUP5 PUSH2 0x151D JUMP JUMPDEST SWAP3 SWAP2 POP POP JUMP JUMPDEST PUSH32 0x50726F706F73616C20616C726561647920766572696669656400000000000000 PUSH1 0x0 DUP3 ADD MSTORE POP JUMP JUMPDEST PUSH1 0x0 PUSH2 0x157D PUSH1 0x19 DUP4 PUSH2 0x11A6 JUMP JUMPDEST SWAP2 POP PUSH2 0x1588 DUP3 PUSH2 0x1547 JUMP JUMPDEST PUSH1 0x20 DUP3 ADD SWAP1 POP SWAP2 SWAP1 POP JUMP JUMPDEST PUSH1 0x0 PUSH1 0x20 DUP3 ADD SWAP1 POP DUP2 DUP2 SUB PUSH1 0x0 DUP4 ADD MSTORE PUSH2 0x15AC DUP2 PUSH2 0x1570 JUMP JUMPDEST SWAP1 POP SWAP2 SWAP1 POP JUMP JUMPDEST PUSH32 0x496E76616C696420737465700000000000000000000000000000000000000000 PUSH1 0x0 DUP3 ADD MSTORE POP JUMP JUMPDEST PUSH1 0x0 PUSH2 0x15E9 PUSH1 0xC DUP4 PUSH2 0x11A6 JUMP JUMPDEST SWAP2 POP PUSH2 0x15F4 DUP3 PUSH2 0x15B3 JUMP JUMPDEST PUSH1 0x20 DUP3 ADD SWAP1 POP SWAP2 SWAP1 POP JUMP JUMPDEST PUSH1 0x0 PUSH1 0x20 DUP3 ADD SWAP1 POP DUP2 DUP2 SUB PUSH1 0x0 DUP4 ADD MSTORE PUSH2 0x1618 DUP2 PUSH2 0x15DC JUMP JUMPDEST SWAP1 POP SWAP2 SWAP1 POP JUMP JUMPDEST PUSH1 0x0 PUSH1 0x40 DUP3 ADD SWAP1 POP PUSH2 0x1634 PUSH1 0x0 DUP4 ADD DUP6 PUSH2 0x1104 JUMP JUMPDEST PUSH2 0x1641 PUSH1 0x20 DUP4 ADD DUP5 PUSH2 0x1104 JUMP JUMPDEST SWAP4 SWAP3 POP POP POP JUMP JUMPDEST PUSH1 0x0 DUP2 CALLDATALOAD PUSH2 0x1655 DUP2 PUSH2 0xF27 JUMP JUMPDEST DUP1 SWAP2 POP POP SWAP2 SWAP1 POP JUMP JUMPDEST PUSH1 0x0 DUP2 PUSH1 0x0 SHL SWAP1 POP SWAP2 SWAP1 POP JUMP JUMPDEST PUSH1 0x0 PUSH20 0xFFFFFFFFFFFFFFFFFFFFFFFFFFFFFFFFFFFFFFFF PUSH2 0x168B DUP5 PUSH2 0x165E JUMP JUMPDEST SWAP4 POP DUP1 NOT DUP4 AND SWAP3 POP DUP1 DUP5 AND DUP4 OR SWAP2 POP POP SWAP3 SWAP2 POP POP JUMP JUMPDEST PUSH1 0x0 DUP2 SWAP1 POP SWAP2 SWAP1 POP JUMP JUMPDEST PUSH1 0x0 PUSH2 0x16C6 PUSH2 0x16C1 PUSH2 0x16BC DUP5 PUSH2 0xEF5 JUMP JUMPDEST PUSH2 0x16A1 JUMP JUMPDEST PUSH2 0xEF5 JUMP JUMPDEST SWAP1 POP SWAP2 SWAP1 POP JUMP JUMPDEST PUSH1 0x0 PUSH2 0x16D8 DUP3 PUSH2 0x16AB JUMP JUMPDEST SWAP1 POP SWAP2 SWAP1 POP JUMP JUMPDEST PUSH1 0x0 PUSH2 0x16EA DUP3 PUSH2 0x16CD JUMP JUMPDEST SWAP1 POP SWAP2 SWAP1 POP JUMP JUMPDEST PUSH1 0x0 DUP2 SWAP1 POP SWAP2 SWAP1 POP JUMP JUMPDEST PUSH2 0x1704 DUP3 PUSH2 0x16DF JUMP JUMPDEST PUSH2 0x1717 PUSH2 0x1710 DUP3 PUSH2 0x16F1 JUMP JUMPDEST DUP4 SLOAD PUSH2 0x166B JUMP JUMPDEST DUP3 SSTORE POP POP POP JUMP JUMPDEST PUSH1 0x0 DUP1 REVERT JUMPDEST PUSH1 0x0 DUP1 REVERT JUMPDEST PUSH1 0x0 DUP1 REVERT JUMPDEST PUSH1 0x0 DUP1 DUP4 CALLDATALOAD PUSH1 0x1 PUSH1 0x20 SUB DUP5 CALLDATASIZE SUB SUB DUP2 SLT PUSH2 0x174A JUMPI PUSH2 0x1749 PUSH2 0x171E JUMP JUMPDEST JUMPDEST DUP1 DUP5 ADD SWAP3 POP DUP3 CALLDATALOAD SWAP2 POP PUSH8 0xFFFFFFFFFFFFFFFF DUP3 GT ISZERO PUSH2 0x176C JUMPI PUSH2 0x176B PUSH2 0x1723 JUMP JUMPDEST JUMPDEST PUSH1 0x20 DUP4 ADD SWAP3 POP PUSH1 0x1 DUP3 MUL CALLDATASIZE SUB DUP4 SGT ISZERO PUSH2 0x1788 JUMPI PUSH2 0x1787 PUSH2 0x1728 JUMP JUMPDEST JUMPDEST POP SWAP3 POP SWAP3 SWAP1 POP JUMP JUMPDEST PUSH1 0x0 DUP3 SWAP1 POP SWAP3 SWAP2 POP POP JUMP JUMPDEST PUSH32 0x4E487B7100000000000000000000000000000000000000000000000000000000 PUSH1 0x0 MSTORE PUSH1 0x41 PUSH1 0x4 MSTORE PUSH1 0x24 PUSH1 0x0 REVERT JUMPDEST PUSH32 0x4E487B7100000000000000000000000000000000000000000000000000000000 PUSH1 0x0 MSTORE PUSH1 0x22 PUSH1 0x4 MSTORE PUSH1 0x24 PUSH1 0x0 REVERT JUMPDEST PUSH1 0x0 PUSH1 0x2 DUP3 DIV SWAP1 POP PUSH1 0x1 DUP3 AND DUP1 PUSH2 0x1811 JUMPI PUSH1 0x7F DUP3 AND SWAP2 POP JUMPDEST PUSH1 0x20 DUP3 LT DUP2 SUB PUSH2 0x1824 JUMPI PUSH2 0x1823 PUSH2 0x17CA JUMP JUMPDEST JUMPDEST POP SWAP2 SWAP1 POP JUMP JUMPDEST PUSH1 0x0 DUP2 SWAP1 POP DUP2 PUSH1 0x0 MSTORE PUSH1 0x20 PUSH1 0x0 KECCAK256 SWAP1 POP SWAP2 SWAP1 POP JUMP JUMPDEST PUSH1 0x0 PUSH1 0x20 PUSH1 0x1F DUP4 ADD DIV SWAP1 POP SWAP2 SWAP1 POP JUMP JUMPDEST PUSH1 0x0 DUP3 DUP3 SHL SWAP1 POP SWAP3 SWAP2 POP POP JUMP JUMPDEST PUSH1 0x0 PUSH1 0x8 DUP4 MUL PUSH2 0x188C PUSH32 0xFFFFFFFFFFFFFFFFFFFFFFFFFFFFFFFFFFFFFFFFFFFFFFFFFFFFFFFFFFFFFFFF DUP3 PUSH2 0x184F JUMP JUMPDEST PUSH2 0x1896 DUP7 DUP4 PUSH2 0x184F JUMP JUMPDEST SWAP6 POP DUP1 NOT DUP5 AND SWAP4 POP DUP1 DUP7 AND DUP5 OR SWAP3 POP POP POP SWAP4 SWAP3 POP POP POP JUMP JUMPDEST PUSH1 0x0 PUSH2 0x18C9 PUSH2 0x18C4 PUSH2 0x18BF DUP5 PUSH2 0xF80 JUMP JUMPDEST PUSH2 0x16A1 JUMP JUMPDEST PUSH2 0xF80 JUMP JUMPDEST SWAP1 POP SWAP2 SWAP1 POP JUMP JUMPDEST PUSH1 0x0 DUP2 SWAP1 POP SWAP2 SWAP1 POP JUMP JUMPDEST PUSH2 0x18E3 DUP4 PUSH2 0x18AE JUMP JUMPDEST PUSH2 0x18F7 PUSH2 0x18EF DUP3 PUSH2 0x18D0 JUMP JUMPDEST DUP5 DUP5 SLOAD PUSH2 0x185C JUMP JUMPDEST DUP3 SSTORE POP POP POP POP JUMP JUMPDEST PUSH1 0x0 SWAP1 JUMP JUMPDEST PUSH2 0x190C PUSH2 0x18FF JUMP JUMPDEST PUSH2 0x1917 DUP2 DUP5 DUP5 PUSH2 0x18DA JUMP JUMPDEST POP POP POP JUMP JUMPDEST JUMPDEST DUP2 DUP2 LT ISZERO PUSH2 0x193B JUMPI PUSH2 0x1930 PUSH1 0x0 DUP3 PUSH2 0x1904 JUMP JUMPDEST PUSH1 0x1 DUP2 ADD SWAP1 POP PUSH2 0x191D JUMP JUMPDEST POP POP JUMP JUMPDEST PUSH1 0x1F DUP3 GT ISZERO PUSH2 0x1980 JUMPI PUSH2 0x1951 DUP2 PUSH2 0x182A JUMP JUMPDEST PUSH2 0x195A DUP5 PUSH2 0x183F JUMP JUMPDEST DUP2 ADD PUSH1 0x20 DUP6 LT ISZERO PUSH2 0x1969 JUMPI DUP2 SWAP1 POP JUMPDEST PUSH2 0x197D PUSH2 0x1975 DUP6 PUSH2 0x183F JUMP JUMPDEST DUP4 ADD DUP3 PUSH2 0x191C JUMP JUMPDEST POP POP JUMPDEST POP POP POP JUMP JUMPDEST PUSH1 0x0 DUP3 DUP3 SHR SWAP1 POP SWAP3 SWAP2 POP POP JUMP JUMPDEST PUSH1 0x0 PUSH2 0x19A3 PUSH1 0x0 NOT DUP5 PUSH1 0x8 MUL PUSH2 0x1985 JUMP JUMPDEST NOT DUP1 DUP4 AND SWAP2 POP POP SWAP3 SWAP2 POP POP JUMP JUMPDEST PUSH1 0x0 PUSH2 0x19BC DUP4 DUP4 PUSH2 0x1992 JUMP JUMPDEST SWAP2 POP DUP3 PUSH1 0x2 MUL DUP3 OR SWAP1 POP SWAP3 SWAP2 POP POP JUMP JUMPDEST PUSH2 0x19D6 DUP4 DUP4 PUSH2 0x1790 JUMP JUMPDEST PUSH8 0xFFFFFFFFFFFFFFFF DUP2 GT ISZERO PUSH2 0x19EF JUMPI PUSH2 0x19EE PUSH2 0x179B JUMP JUMPDEST JUMPDEST PUSH2 0x19F9 DUP3 SLOAD PUSH2 0x17F9 JUMP JUMPDEST PUSH2 0x1A04 DUP3 DUP3 DUP6 PUSH2 0x193F JUMP JUMPDEST PUSH1 0x0 PUSH1 0x1F DUP4 GT PUSH1 0x1 DUP2 EQ PUSH2 0x1A33 JUMPI PUSH1 0x0 DUP5 ISZERO PUSH2 0x1A21 JUMPI DUP3 DUP8 ADD CALLDATALOAD SWAP1 POP JUMPDEST PUSH2 0x1A2B DUP6 DUP3 PUSH2 0x19B0 JUMP JUMPDEST DUP7 SSTORE POP PUSH2 0x1A93 JUMP JUMPDEST PUSH1 0x1F NOT DUP5 AND PUSH2 0x1A41 DUP7 PUSH2 0x182A JUMP JUMPDEST PUSH1 0x0 JUMPDEST DUP3 DUP2 LT ISZERO PUSH2 0x1A69 JUMPI DUP5 DUP10 ADD CALLDATALOAD DUP3 SSTORE PUSH1 0x1 DUP3 ADD SWAP2 POP PUSH1 0x20 DUP6 ADD SWAP5 POP PUSH1 0x20 DUP2 ADD SWAP1 POP PUSH2 0x1A44 JUMP JUMPDEST DUP7 DUP4 LT ISZERO PUSH2 0x1A86 JUMPI DUP5 DUP10 ADD CALLDATALOAD PUSH2 0x1A82 PUSH1 0x1F DUP10 AND DUP3 PUSH2 0x1992 JUMP JUMPDEST DUP4 SSTORE POP JUMPDEST PUSH1 0x1 PUSH1 0x2 DUP9 MUL ADD DUP9 SSTORE POP POP POP JUMPDEST POP POP POP POP POP POP POP JUMP JUMPDEST PUSH2 0x1AA7 DUP4 DUP4 DUP4 PUSH2 0x19CC JUMP JUMPDEST POP POP POP JUMP JUMPDEST PUSH1 0x0 DUP2 CALLDATALOAD PUSH2 0x1AB9 DUP2 PUSH2 0xFB4 JUMP JUMPDEST DUP1 SWAP2 POP POP SWAP2 SWAP1 POP JUMP JUMPDEST PUSH1 0x0 PUSH32 0xFFFFFFFFFFFFFFFFFFFFFFFFFFFFFFFFFFFFFFFFFFFFFFFFFFFFFFFFFFFFFFFF PUSH2 0x1AEE DUP5 PUSH2 0x165E JUMP JUMPDEST SWAP4 POP DUP1 NOT DUP4 AND SWAP3 POP DUP1 DUP5 AND DUP4 OR SWAP2 POP POP SWAP3 SWAP2 POP POP JUMP JUMPDEST PUSH2 0x1B0D DUP3 PUSH2 0x18AE JUMP JUMPDEST PUSH2 0x1B20 PUSH2 0x1B19 DUP3 PUSH2 0x18D0 JUMP JUMPDEST DUP4 SLOAD PUSH2 0x1AC2 JUMP JUMPDEST DUP3 SSTORE POP POP POP JUMP JUMPDEST PUSH1 0x0 DUP1 DUP4 CALLDATALOAD PUSH1 0x1 PUSH1 0x20 SUB DUP5 CALLDATASIZE SUB SUB DUP2 SLT PUSH2 0x1B44 JUMPI PUSH2 0x1B43 PUSH2 0x171E JUMP JUMPDEST JUMPDEST DUP1 DUP5 ADD SWAP3 POP DUP3 CALLDATALOAD SWAP2 POP PUSH8 0xFFFFFFFFFFFFFFFF DUP3 GT ISZERO PUSH2 0x1B66 JUMPI PUSH2 0x1B65 PUSH2 0x1723 JUMP JUMPDEST JUMPDEST PUSH1 0x20 DUP4 ADD SWAP3 POP PUSH1 0x1 DUP3 MUL CALLDATASIZE SUB DUP4 SGT ISZERO PUSH2 0x1B82 JUMPI PUSH2 0x1B81 PUSH2 0x1728 JUMP JUMPDEST JUMPDEST POP SWAP3 POP SWAP3 SWAP1 POP JUMP JUMPDEST PUSH1 0x0 DUP3 SWAP1 POP SWAP3 SWAP2 POP POP JUMP JUMPDEST PUSH1 0x0 DUP2 SWAP1 POP DUP2 PUSH1 0x0 MSTORE PUSH1 0x20 PUSH1 0x0 KECCAK256 SWAP1 POP SWAP2 SWAP1 POP JUMP JUMPDEST PUSH1 0x1F DUP3 GT ISZERO PUSH2 0x1BEB JUMPI PUSH2 0x1BBC DUP2 PUSH2 0x1B95 JUMP JUMPDEST PUSH2 0x1BC5 DUP5 PUSH2 0x183F JUMP JUMPDEST DUP2 ADD PUSH1 0x20 DUP6 LT ISZERO PUSH2 0x1BD4 JUMPI DUP2 SWAP1 POP JUMPDEST PUSH2 0x1BE8 PUSH2 0x1BE0 DUP6 PUSH2 0x183F JUMP JUMPDEST DUP4 ADD DUP3 PUSH2 0x191C JUMP JUMPDEST POP POP JUMPDEST POP POP POP JUMP JUMPDEST PUSH2 0x1BFA DUP4 DUP4 PUSH2 0x1B8A JUMP JUMPDEST PUSH8 0xFFFFFFFFFFFFFFFF DUP2 GT ISZERO PUSH2 0x1C13 JUMPI PUSH2 0x1C12 PUSH2 0x179B JUMP JUMPDEST JUMPDEST PUSH2 0x1C1D DUP3 SLOAD PUSH2 0x17F9 JUMP JUMPDEST PUSH2 0x1C28 DUP3 DUP3 DUP6 PUSH2 0x1BAA JUMP JUMPDEST PUSH1 0x0 PUSH1 0x1F DUP4 GT PUSH1 0x1 DUP2 EQ PUSH2 0x1C57 JUMPI PUSH1 0x0 DUP5 ISZERO PUSH2 0x1C45 JUMPI DUP3 DUP8 ADD CALLDATALOAD SWAP1 POP JUMPDEST PUSH2 0x1C4F DUP6 DUP3 PUSH2 0x19B0 JUMP JUMPDEST DUP7 SSTORE POP PUSH2 0x1CB7 JUMP JUMPDEST PUSH1 0x1F NOT DUP5 AND PUSH2 0x1C65 DUP7 PUSH2 0x1B95 JUMP JUMPDEST PUSH1 0x0 JUMPDEST DUP3 DUP2 LT ISZERO PUSH2 0x1C8D JUMPI DUP5 DUP10 ADD CALLDATALOAD DUP3 SSTORE PUSH1 0x1 DUP3 ADD SWAP2 POP PUSH1 0x20 DUP6 ADD SWAP5 POP PUSH1 0x20 DUP2 ADD SWAP1 POP PUSH2 0x1C68 JUMP JUMPDEST DUP7 DUP4 LT ISZERO PUSH2 0x1CAA JUMPI DUP5 DUP10 ADD CALLDATALOAD PUSH2 0x1CA6 PUSH1 0x1F DUP10 AND DUP3 PUSH2 0x1992 JUMP JUMPDEST DUP4 SSTORE POP JUMPDEST PUSH1 0x1 PUSH1 0x2 DUP9 MUL ADD DUP9 SSTORE POP POP POP JUMPDEST POP POP POP POP POP POP POP JUMP JUMPDEST PUSH2 0x1CCB DUP4 DUP4 DUP4 PUSH2 0x1BF0 JUMP JUMPDEST POP POP POP JUMP JUMPDEST PUSH1 0x0 DUP2 ADD PUSH1 0x0 DUP4 ADD DUP1 PUSH2 0x1CE2 DUP2 PUSH2 0x1648 JUMP JUMPDEST SWAP1 POP PUSH2 0x1CEE DUP2 DUP5 PUSH2 0x16FB JUMP JUMPDEST POP POP POP PUSH1 0x1 DUP2 ADD PUSH1 0x20 DUP4 ADD PUSH2 0x1D03 DUP2 DUP6 PUSH2 0x172D JUMP JUMPDEST PUSH2 0x1D0E DUP2 DUP4 DUP7 PUSH2 0x1A9C JUMP JUMPDEST POP POP POP POP PUSH1 0x2 DUP2 ADD PUSH1 0x40 DUP4 ADD DUP1 PUSH2 0x1D24 DUP2 PUSH2 0x1AAC JUMP JUMPDEST SWAP1 POP PUSH2 0x1D30 DUP2 DUP5 PUSH2 0x1B04 JUMP JUMPDEST POP POP POP PUSH1 0x3 DUP2 ADD PUSH1 0x60 DUP4 ADD PUSH2 0x1D45 DUP2 DUP6 PUSH2 0x1B27 JUMP JUMPDEST PUSH2 0x1D50 DUP2 DUP4 DUP7 PUSH2 0x1CC0 JUMP JUMPDEST POP POP POP POP PUSH1 0x4 DUP2 ADD PUSH1 0x80 DUP4 ADD PUSH2 0x1D66 DUP2 DUP6 PUSH2 0x1B27 JUMP JUMPDEST PUSH2 0x1D71 DUP2 DUP4 DUP7 PUSH2 0x1CC0 JUMP JUMPDEST POP POP POP POP POP POP JUMP JUMPDEST PUSH2 0x1D83 DUP3 DUP3 PUSH2 0x1CD0 JUMP JUMPDEST POP POP JUMP JUMPDEST PUSH32 0x4E487B7100000000000000000000000000000000000000000000000000000000 PUSH1 0x0 MSTORE PUSH1 0x11 PUSH1 0x4 MSTORE PUSH1 0x24 PUSH1 0x0 REVERT JUMPDEST PUSH1 0x0 PUSH2 0x1DC1 DUP3 PUSH2 0xF80 JUMP JUMPDEST SWAP2 POP PUSH32 0xFFFFFFFFFFFFFFFFFFFFFFFFFFFFFFFFFFFFFFFFFFFFFFFFFFFFFFFFFFFFFFFF DUP3 SUB PUSH2 0x1DF3 JUMPI PUSH2 0x1DF2 PUSH2 0x1D87 JUMP JUMPDEST JUMPDEST PUSH1 0x1 DUP3 ADD SWAP1 POP SWAP2 SWAP1 POP JUMP JUMPDEST DUP3 DUP2 DUP4 CALLDATACOPY PUSH1 0x0 DUP4 DUP4 ADD MSTORE POP POP POP JUMP JUMPDEST PUSH1 0x0 PUSH2 0x1E19 DUP4 DUP6 PUSH2 0x11A6 JUMP JUMPDEST SWAP4 POP PUSH2 0x1E26 DUP4 DUP6 DUP5 PUSH2 0x1DFE JUMP JUMPDEST PUSH2 0x1E2F DUP4 PUSH2 0x11E1 JUMP JUMPDEST DUP5 ADD SWAP1 POP SWAP4 SWAP3 POP POP POP JUMP JUMPDEST PUSH1 0x0 PUSH1 0x40 DUP3 ADD SWAP1 POP DUP2 DUP2 SUB PUSH1 0x0 DUP4 ADD MSTORE PUSH2 0x1E55 DUP2 DUP6 DUP8 PUSH2 0x1E0D JUMP JUMPDEST SWAP1 POP PUSH2 0x1E64 PUSH1 0x20 DUP4 ADD DUP5 PUSH2 0xF8A JUMP JUMPDEST SWAP5 SWAP4 POP POP POP POP JUMP INVALID LOG2 PUSH5 0x6970667358 0x22 SLT KECCAK256 0xED SDIV SGT LOG2 PUSH4 0x6232ACC3 0xD9 DUP3 SWAP15 CODESIZE 0xA7 0x4F 0xB6 ORIGIN MLOAD 0xEB PUSH13 0x75A408AA067710138A636A6364 PUSH20 0x6F6C634300081800330000000000000000000000 "},"methodIdentifiers":{"addProposal((address,string,uint256,bytes,bytes))":"7504e22b","daoContractAddress()":"69c3ff98","getAllProposals()":"cceb68f5","getProposal(uint256)":"c7f758a8","landListingProposals(uint256)":"92e8cca2","nftContractAddress()":"aae282e1","owner()":"8da5cb5b","proposalId()":"2dfca445","proposalIds(uint256)":"9b644a23","proposalStatus(uint256)":"74c260cf","rejectProposal(uint256)":"bc28d878","renounceOwnership()":"715018a6","setDAOContractAddress(address)":"3feb85c1","setNFTContractAddress(address)":"23949cd1","transferOwnership(address)":"f2fde38b","verifiedProposals(uint256)":"e9819cbd","verifyStep(uint256,uint8)":"4af16628"}},"storageLayout":{"storage":[{"astId":8,"contract":"contracts/Oracle.sol:Oracle","label":"_owner","offset":0,"slot":"0","type":"t_address"},{"astId":3969,"contract":"contracts/Oracle.sol:Oracle","label":"nftContractAddress","offset":0,"slot":"1","type":"t_address"},{"astId":3971,"contract":"contracts/Oracle.sol:Oracle","label":"daoContractAddress","offset":0,"slot":"2","type":"t_address"},{"astId":3973,"contract":"contracts/Oracle.sol:Oracle","label":"proposalId","offset":0,"slot":"3","type":"t_uint256"},{"astId":3978,"contract":"contracts/Oracle.sol:Oracle","label":"landListingProposals","offset":0,"slot":"4","type":"t_mapping(t_uint256,t_struct(LandListingProposal)3845_storage)"},{"astId":3981,"contract":"contracts/Oracle.sol:Oracle","label":"proposalIds","offset":0,"slot":"5","type":"t_array(t_uint256)dyn_storage"},{"astId":3986,"contract":"contracts/Oracle.sol:Oracle","label":"proposalStatus","offset":0,"slot":"6","type":"t_mapping(t_uint256,t_enum(ProposalStatus)3992)"},{"astId":3996,"contract":"contracts/Oracle.sol:Oracle","label":"verifiedProposals","offset":0,"slot":"7","type":"t_mapping(t_uint256,t_bool)"}],"types":{"t_address":{"encoding":"inplace","label":"address","numberOfBytes":"20"},"t_array(t_uint256)dyn_storage":{"base":"t_uint256","encoding":"dynamic_array","label":"uint256[]","numberOfBytes":"32"},"t_bool":{"encoding":"inplace","label":"bool","numberOfBytes":"1"},"t_bytes_storage":{"encoding":"bytes","label":"bytes","numberOfBytes":"32"},"t_enum(ProposalStatus)3992":{"encoding":"inplace","label":"enum Oracle.ProposalStatus","numberOfBytes":"1"},"t_mapping(t_uint256,t_bool)":{"encoding":"mapping","key":"t_uint256","label":"mapping(uint256 => bool)","numberOfBytes":"32","value":"t_bool"},"t_mapping(t_uint256,t_enum(ProposalStatus)3992)":{"encoding":"mapping","key":"t_uint256","label":"mapping(uint256 => enum Oracle.ProposalStatus)","numberOfBytes":"32","value":"t_enum(ProposalStatus)3992"},"t_mapping(t_uint256,t_struct(LandListingProposal)3845_storage)":{"encoding":"mapping","key":"t_uint256","label":"mapping(uint256 => struct Lib.LandListingProposal)","numberOfBytes":"32","value":"t_struct(LandListingProposal)3845_storage"},"t_string_storage":{"encoding":"bytes","label":"string","numberOfBytes":"32"},"t_struct(LandListingProposal)3845_storage":{"encoding":"inplace","label":"struct Lib.LandListingProposal","members":[{"astId":3836,"contract":"contracts/Oracle.sol:Oracle","label":"owner","offset":0,"slot":"0","type":"t_address"},{"astId":3838,"contract":"contracts/Oracle.sol:Oracle","label":"location","offset":0,"slot":"1","type":"t_string_storage"},{"astId":3840,"contract":"contracts/Oracle.sol:Oracle","label":"price","offset":0,"slot":"2","type":"t_uint256"},{"astId":3842,"contract":"contracts/Oracle.sol:Oracle","label":"contractIPFSHash","offset":0,"slot":"3","type":"t_bytes_storage"},{"astId":3844,"contract":"contracts/Oracle.sol:Oracle","label":"imagesIPFSHash","offset":0,"slot":"4","type":"t_bytes_storage"}],"numberOfBytes":"160"},"t_uint256":{"encoding":"inplace","label":"uint256","numberOfBytes":"32"}}}}}}