{"contracts/Dao.sol":{"SubDAOContract":{"abi":[{"inputs":[{"internalType":"string","name":"_name","type":"string"},{"internalType":"string","name":"_location","type":"string"}],"stateMutability":"nonpayable","type":"constructor"},{"anonymous":false,"inputs":[{"indexed":true,"internalType":"uint256","name":"proposalId","type":"uint256"},{"indexed":false,"internalType":"string","name":"location","type":"string"},{"indexed":false,"internalType":"uint256","name":"price","type":"uint256"}],"name":"LandListingProposalCreated","type":"event"},{"anonymous":false,"inputs":[{"indexed":true,"internalType":"uint256","name":"proposalId","type":"uint256"}],"name":"LandListingProposalVerified","type":"event"},{"inputs":[],"name":"LandMarket","outputs":[{"internalType":"contract LandMarketplace","name":"","type":"address"}],"stateMutability":"view","type":"function"},{"inputs":[{"internalType":"uint256","name":"_proposalId","type":"uint256"}],"name":"acceptProposal","outputs":[],"stateMutability":"nonpayable","type":"function"},{"inputs":[{"internalType":"string","name":"location","type":"string"},{"internalType":"uint256","name":"price","type":"uint256"},{"internalType":"bytes","name":"contractIPFSHash","type":"bytes"},{"internalType":"bytes","name":"imagesIPFSHash","type":"bytes"}],"name":"createLandListingProposal","outputs":[],"stateMutability":"nonpayable","type":"function"},{"inputs":[{"internalType":"bytes","name":"proofOfLocation","type":"bytes"},{"internalType":"bytes","name":"proofOfIdentity","type":"bytes"}],"name":"joinDaoRequest","outputs":[],"stateMutability":"nonpayable","type":"function"},{"inputs":[{"internalType":"uint256","name":"","type":"uint256"}],"name":"landListingProposals","outputs":[{"internalType":"address","name":"owner","type":"address"},{"internalType":"string","name":"location","type":"string"},{"internalType":"uint256","name":"price","type":"uint256"},{"internalType":"bytes","name":"contractIPFSHash","type":"bytes"},{"internalType":"bytes","name":"imagesIPFSHash","type":"bytes"}],"stateMutability":"view","type":"function"},{"inputs":[],"name":"location","outputs":[{"internalType":"string","name":"","type":"string"}],"stateMutability":"view","type":"function"},{"inputs":[],"name":"name","outputs":[{"internalType":"string","name":"","type":"string"}],"stateMutability":"view","type":"function"},{"inputs":[],"name":"oracleAddress","outputs":[{"internalType":"address","name":"","type":"address"}],"stateMutability":"view","type":"function"},{"inputs":[],"name":"oracleContract","outputs":[{"internalType":"contract Oracle","name":"","type":"address"}],"stateMutability":"view","type":"function"},{"inputs":[],"name":"proposalId","outputs":[{"internalType":"uint256","name":"","type":"uint256"}],"stateMutability":"view","type":"function"},{"inputs":[{"internalType":"uint256","name":"","type":"uint256"}],"name":"proposalStatus","outputs":[{"internalType":"enum SubDAOContract.ProposalStatus","name":"","type":"uint8"}],"stateMutability":"view","type":"function"},{"inputs":[{"internalType":"address","name":"_landMarketAddress","type":"address"}],"name":"setLandMarketAddress","outputs":[],"stateMutability":"nonpayable","type":"function"},{"inputs":[{"internalType":"address","name":"_oracleAddress","type":"address"}],"name":"setOracleAddress","outputs":[],"stateMutability":"nonpayable","type":"function"},{"inputs":[{"internalType":"uint256","name":"_proposalId","type":"uint256"}],"name":"verifyLandListingProposal","outputs":[],"stateMutability":"nonpayable","type":"function"}],"evm":{"bytecode":{"linkReferences":{},"object":"60806040526000600360006101000a81548173ffffffffffffffffffffffffffffffffffffffff021916908373ffffffffffffffffffffffffffffffffffffffff1602179055503480156200005357600080fd5b506040516200205338038062002053833981810160405281019062000079919062000238565b81600090816200008a919062000508565b5080600190816200009c919062000508565b505050620005ef565b6000604051905090565b600080fd5b600080fd5b600080fd5b600080fd5b6000601f19601f8301169050919050565b7f4e487b7100000000000000000000000000000000000000000000000000000000600052604160045260246000fd5b6200010e82620000c3565b810181811067ffffffffffffffff8211171562000130576200012f620000d4565b5b80604052505050565b600062000145620000a5565b905062000153828262000103565b919050565b600067ffffffffffffffff821115620001765762000175620000d4565b5b6200018182620000c3565b9050602081019050919050565b60005b83811015620001ae57808201518184015260208101905062000191565b60008484015250505050565b6000620001d1620001cb8462000158565b62000139565b905082815260208101848484011115620001f057620001ef620000be565b5b620001fd8482856200018e565b509392505050565b600082601f8301126200021d576200021c620000b9565b5b81516200022f848260208601620001ba565b91505092915050565b60008060408385031215620002525762000251620000af565b5b600083015167ffffffffffffffff811115620002735762000272620000b4565b5b620002818582860162000205565b925050602083015167ffffffffffffffff811115620002a557620002a4620000b4565b5b620002b38582860162000205565b9150509250929050565b600081519050919050565b7f4e487b7100000000000000000000000000000000000000000000000000000000600052602260045260246000fd5b600060028204905060018216806200031057607f821691505b602082108103620003265762000325620002c8565b5b50919050565b60008190508160005260206000209050919050565b60006020601f8301049050919050565b600082821b905092915050565b600060088302620003907fffffffffffffffffffffffffffffffffffffffffffffffffffffffffffffffff8262000351565b6200039c868362000351565b95508019841693508086168417925050509392505050565b6000819050919050565b6000819050919050565b6000620003e9620003e3620003dd84620003b4565b620003be565b620003b4565b9050919050565b6000819050919050565b6200040583620003c8565b6200041d6200041482620003f0565b8484546200035e565b825550505050565b600090565b6200043462000425565b62000441818484620003fa565b505050565b5b8181101562000469576200045d6000826200042a565b60018101905062000447565b5050565b601f821115620004b85762000482816200032c565b6200048d8462000341565b810160208510156200049d578190505b620004b5620004ac8562000341565b83018262000446565b50505b505050565b600082821c905092915050565b6000620004dd60001984600802620004bd565b1980831691505092915050565b6000620004f88383620004ca565b9150826002028217905092915050565b6200051382620002bd565b67ffffffffffffffff8111156200052f576200052e620000d4565b5b6200053b8254620002f7565b620005488282856200046d565b600060209050601f8311600181146200058057600084156200056b578287015190505b620005778582620004ea565b865550620005e7565b601f19841662000590866200032c565b60005b82811015620005ba5784890151825560018201915060208501945060208101905062000593565b86831015620005da5784890151620005d6601f891682620004ca565b8355505b6001600288020188555050505b505050505050565b611a5480620005ff6000396000f3fe608060405234801561001057600080fd5b50600436106100ea5760003560e01c80635b9677bf1161008c57806392e8cca21161006657806392e8cca214610223578063a89ae4ba14610257578063bece753214610275578063fd843f0814610293576100ea565b80635b9677bf146101b957806360c5cc3a146101d757806374c260cf146101f3576100ea565b80633789b030116100c85780633789b030146101475780633f51f066146101635780634c69c00f1461017f578063516f279e1461019b576100ea565b806301c35d0e146100ef57806306fdde031461010b5780632dfca44514610129575b600080fd5b61010960048036038101906101049190610c76565b6102af565b005b610113610593565b6040516101209190610dcf565b60405180910390f35b610131610621565b60405161013e9190610e00565b60405180910390f35b610161600480360381019061015c9190610e79565b610627565b005b61017d60048036038101906101789190610ea6565b61066b565b005b61019960048036038101906101949190610e79565b6106d7565b005b6101a361075c565b6040516101b09190610dcf565b60405180910390f35b6101c16107ea565b6040516101ce9190610f32565b60405180910390f35b6101f160048036038101906101ec9190610ea6565b610810565b005b61020d60048036038101906102089190610ea6565b61091b565b60405161021a9190610fc4565b60405180910390f35b61023d60048036038101906102389190610ea6565b61093b565b60405161024e959493929190611043565b60405180910390f35b61025f610b29565b60405161026c91906110ab565b60405180910390f35b61027d610b4f565b60405161028a91906110e7565b60405180910390f35b6102ad60048036038101906102a89190611102565b610b75565b005b60006040518060a001604052803373ffffffffffffffffffffffffffffffffffffffff16815260200189898080601f016020809104026020016040519081016040528093929190818152602001838380828437600081840152601f19601f82011690508083019250505050505050815260200187815260200186868080601f016020809104026020016040519081016040528093929190818152602001838380828437600081840152601f19601f82011690508083019250505050505050815260200184848080601f016020809104026020016040519081016040528093929190818152602001838380828437600081840152601f19601f8201169050808301925050505050505081525090508060066000600554815260200190815260200160002060008201518160000160006101000a81548173ffffffffffffffffffffffffffffffffffffffff021916908373ffffffffffffffffffffffffffffffffffffffff160217905550602082015181600101908161042e91906113b4565b5060408201518160020155606082015181600301908161044e91906114e1565b50608082015181600401908161046491906114e1565b50905050600060076000600554815260200190815260200160002060006101000a81548160ff021916908360028111156104a1576104a0610f4d565b5b0217905550600560008154809291906104b9906115e2565b91905055506005547f85c50eb91d140947455bded9b0ca7f48fc20422c6a071be8efaf8146615777d28989896040516104f493929190611666565b60405180910390a2600460009054906101000a900473ffffffffffffffffffffffffffffffffffffffff1673ffffffffffffffffffffffffffffffffffffffff16637504e22b826040518263ffffffff1660e01b815260040161055791906117ce565b600060405180830381600087803b15801561057157600080fd5b505af1158015610585573d6000803e3d6000fd5b505050505050505050505050565b600080546105a0906111e1565b80601f01602080910402602001604051908101604052809291908181526020018280546105cc906111e1565b80156106195780601f106105ee57610100808354040283529160200191610619565b820191906000526020600020905b8154815290600101906020018083116105fc57829003601f168201915b505050505081565b60055481565b80600260006101000a81548173ffffffffffffffffffffffffffffffffffffffff021916908373ffffffffffffffffffffffffffffffffffffffff16021790555050565b60016007600083815260200190815260200160002060006101000a81548160ff021916908360028111156106a2576106a1610f4d565b5b0217905550807f61abca1f903d624f2f61b1159479f0ebf4fc1be8dba30bdfbb3b7f58494586cb60405160405180910390a250565b80600360006101000a81548173ffffffffffffffffffffffffffffffffffffffff021916908373ffffffffffffffffffffffffffffffffffffffff16021790555080600460006101000a81548173ffffffffffffffffffffffffffffffffffffffff021916908373ffffffffffffffffffffffffffffffffffffffff16021790555050565b60018054610769906111e1565b80601f0160208091040260200160405190810160405280929190818152602001828054610795906111e1565b80156107e25780601f106107b7576101008083540402835291602001916107e2565b820191906000526020600020905b8154815290600101906020018083116107c557829003601f168201915b505050505081565b600260009054906101000a900473ffffffffffffffffffffffffffffffffffffffff1681565b60016007600083815260200190815260200160002060006101000a81548160ff0219169083600281111561084757610846610f4d565b5b0217905550600260009054906101000a900473ffffffffffffffffffffffffffffffffffffffff1673ffffffffffffffffffffffffffffffffffffffff1663ea1fd93e600660008481526020019081526020016000206040518263ffffffff1660e01b81526004016108b991906119fc565b600060405180830381600087803b1580156108d357600080fd5b505af11580156108e7573d6000803e3d6000fd5b50505050807f61abca1f903d624f2f61b1159479f0ebf4fc1be8dba30bdfbb3b7f58494586cb60405160405180910390a250565b60076020528060005260406000206000915054906101000a900460ff1681565b60066020528060005260406000206000915090508060000160009054906101000a900473ffffffffffffffffffffffffffffffffffffffff1690806001018054610984906111e1565b80601f01602080910402602001604051908101604052809291908181526020018280546109b0906111e1565b80156109fd5780601f106109d2576101008083540402835291602001916109fd565b820191906000526020600020905b8154815290600101906020018083116109e057829003601f168201915b505050505090806002015490806003018054610a18906111e1565b80601f0160208091040260200160405190810160405280929190818152602001828054610a44906111e1565b8015610a915780601f10610a6657610100808354040283529160200191610a91565b820191906000526020600020905b815481529060010190602001808311610a7457829003601f168201915b505050505090806004018054610aa6906111e1565b80601f0160208091040260200160405190810160405280929190818152602001828054610ad2906111e1565b8015610b1f5780601f10610af457610100808354040283529160200191610b1f565b820191906000526020600020905b815481529060010190602001808311610b0257829003601f168201915b5050505050905085565b600360009054906101000a900473ffffffffffffffffffffffffffffffffffffffff1681565b600460009054906101000a900473ffffffffffffffffffffffffffffffffffffffff1681565b50505050565b600080fd5b600080fd5b600080fd5b600080fd5b600080fd5b60008083601f840112610baa57610ba9610b85565b5b8235905067ffffffffffffffff811115610bc757610bc6610b8a565b5b602083019150836001820283011115610be357610be2610b8f565b5b9250929050565b6000819050919050565b610bfd81610bea565b8114610c0857600080fd5b50565b600081359050610c1a81610bf4565b92915050565b60008083601f840112610c3657610c35610b85565b5b8235905067ffffffffffffffff811115610c5357610c52610b8a565b5b602083019150836001820283011115610c6f57610c6e610b8f565b5b9250929050565b60008060008060008060006080888a031215610c9557610c94610b7b565b5b600088013567ffffffffffffffff811115610cb357610cb2610b80565b5b610cbf8a828b01610b94565b97509750506020610cd28a828b01610c0b565b955050604088013567ffffffffffffffff811115610cf357610cf2610b80565b5b610cff8a828b01610c20565b9450945050606088013567ffffffffffffffff811115610d2257610d21610b80565b5b610d2e8a828b01610c20565b925092505092959891949750929550565b600081519050919050565b600082825260208201905092915050565b60005b83811015610d79578082015181840152602081019050610d5e565b60008484015250505050565b6000601f19601f8301169050919050565b6000610da182610d3f565b610dab8185610d4a565b9350610dbb818560208601610d5b565b610dc481610d85565b840191505092915050565b60006020820190508181036000830152610de98184610d96565b905092915050565b610dfa81610bea565b82525050565b6000602082019050610e156000830184610df1565b92915050565b600073ffffffffffffffffffffffffffffffffffffffff82169050919050565b6000610e4682610e1b565b9050919050565b610e5681610e3b565b8114610e6157600080fd5b50565b600081359050610e7381610e4d565b92915050565b600060208284031215610e8f57610e8e610b7b565b5b6000610e9d84828501610e64565b91505092915050565b600060208284031215610ebc57610ebb610b7b565b5b6000610eca84828501610c0b565b91505092915050565b6000819050919050565b6000610ef8610ef3610eee84610e1b565b610ed3565b610e1b565b9050919050565b6000610f0a82610edd565b9050919050565b6000610f1c82610eff565b9050919050565b610f2c81610f11565b82525050565b6000602082019050610f476000830184610f23565b92915050565b7f4e487b7100000000000000000000000000000000000000000000000000000000600052602160045260246000fd5b60038110610f8d57610f8c610f4d565b5b50565b6000819050610f9e82610f7c565b919050565b6000610fae82610f90565b9050919050565b610fbe81610fa3565b82525050565b6000602082019050610fd96000830184610fb5565b92915050565b610fe881610e3b565b82525050565b600081519050919050565b600082825260208201905092915050565b600061101582610fee565b61101f8185610ff9565b935061102f818560208601610d5b565b61103881610d85565b840191505092915050565b600060a0820190506110586000830188610fdf565b818103602083015261106a8187610d96565b90506110796040830186610df1565b818103606083015261108b818561100a565b9050818103608083015261109f818461100a565b90509695505050505050565b60006020820190506110c06000830184610fdf565b92915050565b60006110d182610eff565b9050919050565b6110e1816110c6565b82525050565b60006020820190506110fc60008301846110d8565b92915050565b6000806000806040858703121561111c5761111b610b7b565b5b600085013567ffffffffffffffff81111561113a57611139610b80565b5b61114687828801610c20565b9450945050602085013567ffffffffffffffff81111561116957611168610b80565b5b61117587828801610c20565b925092505092959194509250565b7f4e487b7100000000000000000000000000000000000000000000000000000000600052604160045260246000fd5b7f4e487b7100000000000000000000000000000000000000000000000000000000600052602260045260246000fd5b600060028204905060018216806111f957607f821691505b60208210810361120c5761120b6111b2565b5b50919050565b60008190508160005260206000209050919050565b60006020601f8301049050919050565b600082821b905092915050565b6000600883026112747fffffffffffffffffffffffffffffffffffffffffffffffffffffffffffffffff82611237565b61127e8683611237565b95508019841693508086168417925050509392505050565b60006112b16112ac6112a784610bea565b610ed3565b610bea565b9050919050565b6000819050919050565b6112cb83611296565b6112df6112d7826112b8565b848454611244565b825550505050565b600090565b6112f46112e7565b6112ff8184846112c2565b505050565b5b81811015611323576113186000826112ec565b600181019050611305565b5050565b601f8211156113685761133981611212565b61134284611227565b81016020851015611351578190505b61136561135d85611227565b830182611304565b50505b505050565b600082821c905092915050565b600061138b6000198460080261136d565b1980831691505092915050565b60006113a4838361137a565b9150826002028217905092915050565b6113bd82610d3f565b67ffffffffffffffff8111156113d6576113d5611183565b5b6113e082546111e1565b6113eb828285611327565b600060209050601f83116001811461141e576000841561140c578287015190505b6114168582611398565b86555061147e565b601f19841661142c86611212565b60005b828110156114545784890151825560018201915060208501945060208101905061142f565b86831015611471578489015161146d601f89168261137a565b8355505b6001600288020188555050505b505050505050565b60008190508160005260206000209050919050565b601f8211156114dc576114ad81611486565b6114b684611227565b810160208510156114c5578190505b6114d96114d185611227565b830182611304565b50505b505050565b6114ea82610fee565b67ffffffffffffffff81111561150357611502611183565b5b61150d82546111e1565b61151882828561149b565b600060209050601f83116001811461154b5760008415611539578287015190505b6115438582611398565b8655506115ab565b601f19841661155986611486565b60005b828110156115815784890151825560018201915060208501945060208101905061155c565b8683101561159e578489015161159a601f89168261137a565b8355505b6001600288020188555050505b505050505050565b7f4e487b7100000000000000000000000000000000000000000000000000000000600052601160045260246000fd5b60006115ed82610bea565b91507fffffffffffffffffffffffffffffffffffffffffffffffffffffffffffffffff820361161f5761161e6115b3565b5b600182019050919050565b82818337600083830152505050565b60006116458385610d4a565b935061165283858461162a565b61165b83610d85565b840190509392505050565b60006040820190508181036000830152611681818587611639565b90506116906020830184610df1565b949350505050565b6116a181610e3b565b82525050565b600082825260208201905092915050565b60006116c382610d3f565b6116cd81856116a7565b93506116dd818560208601610d5b565b6116e681610d85565b840191505092915050565b6116fa81610bea565b82525050565b600082825260208201905092915050565b600061171c82610fee565b6117268185611700565b9350611736818560208601610d5b565b61173f81610d85565b840191505092915050565b600060a0830160008301516117626000860182611698565b506020830151848203602086015261177a82826116b8565b915050604083015161178f60408601826116f1565b50606083015184820360608601526117a78282611711565b915050608083015184820360808601526117c18282611711565b9150508091505092915050565b600060208201905081810360008301526117e8818461174a565b905092915050565b60008160001c9050919050565b600073ffffffffffffffffffffffffffffffffffffffff82169050919050565b600061183061182b836117f0565b6117fd565b9050919050565b60008154611844816111e1565b61184e81866116a7565b94506001821660008114611869576001811461187f576118b2565b60ff1983168652811515602002860193506118b2565b61188885611212565b60005b838110156118aa5781548189015260018201915060208101905061188b565b808801955050505b50505092915050565b6000819050919050565b60006118d86118d3836117f0565b6118bb565b9050919050565b600081546118ec816111e1565b6118f68186611700565b9450600182166000811461191157600181146119275761195a565b60ff19831686528115156020028601935061195a565b61193085611486565b60005b8381101561195257815481890152600182019150602081019050611933565b808801955050505b50505092915050565b600060a08301600080840154905061197a8161181d565b6119876000870182611698565b5060018401858303602087015261199e8382611837565b925050600284015490506119b1816118c5565b6119be60408701826116f1565b506003840185830360608701526119d583826118df565b9250506004840185830360808701526119ee83826118df565b925050819250505092915050565b60006020820190508181036000830152611a168184611963565b90509291505056fea26469706673582212202f2009aec110393c687d5f05490fd2aafff0eb45507205a04d0381e41fde120c64736f6c63430008180033","opcodes":"PUSH1 0x80 PUSH1 0x40 MSTORE PUSH1 0x0 PUSH1 0x3 PUSH1 0x0 PUSH2 0x100 EXP DUP2 SLOAD DUP2 PUSH20 0xFFFFFFFFFFFFFFFFFFFFFFFFFFFFFFFFFFFFFFFF MUL NOT AND SWAP1 DUP4 PUSH20 0xFFFFFFFFFFFFFFFFFFFFFFFFFFFFFFFFFFFFFFFF AND MUL OR SWAP1 SSTORE POP CALLVALUE DUP1 ISZERO PUSH3 0x53 JUMPI PUSH1 0x0 DUP1 REVERT JUMPDEST POP PUSH1 0x40 MLOAD PUSH3 0x2053 CODESIZE SUB DUP1 PUSH3 0x2053 DUP4 CODECOPY DUP2 DUP2 ADD PUSH1 0x40 MSTORE DUP2 ADD SWAP1 PUSH3 0x79 SWAP2 SWAP1 PUSH3 0x238 JUMP JUMPDEST DUP2 PUSH1 0x0 SWAP1 DUP2 PUSH3 0x8A SWAP2 SWAP1 PUSH3 0x508 JUMP JUMPDEST POP DUP1 PUSH1 0x1 SWAP1 DUP2 PUSH3 0x9C SWAP2 SWAP1 PUSH3 0x508 JUMP JUMPDEST POP POP POP PUSH3 0x5EF JUMP JUMPDEST PUSH1 0x0 PUSH1 0x40 MLOAD SWAP1 POP SWAP1 JUMP JUMPDEST PUSH1 0x0 DUP1 REVERT JUMPDEST PUSH1 0x0 DUP1 REVERT JUMPDEST PUSH1 0x0 DUP1 REVERT JUMPDEST PUSH1 0x0 DUP1 REVERT JUMPDEST PUSH1 0x0 PUSH1 0x1F NOT PUSH1 0x1F DUP4 ADD AND SWAP1 POP SWAP2 SWAP1 POP JUMP JUMPDEST PUSH32 0x4E487B7100000000000000000000000000000000000000000000000000000000 PUSH1 0x0 MSTORE PUSH1 0x41 PUSH1 0x4 MSTORE PUSH1 0x24 PUSH1 0x0 REVERT JUMPDEST PUSH3 0x10E DUP3 PUSH3 0xC3 JUMP JUMPDEST DUP2 ADD DUP2 DUP2 LT PUSH8 0xFFFFFFFFFFFFFFFF DUP3 GT OR ISZERO PUSH3 0x130 JUMPI PUSH3 0x12F PUSH3 0xD4 JUMP JUMPDEST JUMPDEST DUP1 PUSH1 0x40 MSTORE POP POP POP JUMP JUMPDEST PUSH1 0x0 PUSH3 0x145 PUSH3 0xA5 JUMP JUMPDEST SWAP1 POP PUSH3 0x153 DUP3 DUP3 PUSH3 0x103 JUMP JUMPDEST SWAP2 SWAP1 POP JUMP JUMPDEST PUSH1 0x0 PUSH8 0xFFFFFFFFFFFFFFFF DUP3 GT ISZERO PUSH3 0x176 JUMPI PUSH3 0x175 PUSH3 0xD4 JUMP JUMPDEST JUMPDEST PUSH3 0x181 DUP3 PUSH3 0xC3 JUMP JUMPDEST SWAP1 POP PUSH1 0x20 DUP2 ADD SWAP1 POP SWAP2 SWAP1 POP JUMP JUMPDEST PUSH1 0x0 JUMPDEST DUP4 DUP2 LT ISZERO PUSH3 0x1AE JUMPI DUP1 DUP3 ADD MLOAD DUP2 DUP5 ADD MSTORE PUSH1 0x20 DUP2 ADD SWAP1 POP PUSH3 0x191 JUMP JUMPDEST PUSH1 0x0 DUP5 DUP5 ADD MSTORE POP POP POP POP JUMP JUMPDEST PUSH1 0x0 PUSH3 0x1D1 PUSH3 0x1CB DUP5 PUSH3 0x158 JUMP JUMPDEST PUSH3 0x139 JUMP JUMPDEST SWAP1 POP DUP3 DUP2 MSTORE PUSH1 0x20 DUP2 ADD DUP5 DUP5 DUP5 ADD GT ISZERO PUSH3 0x1F0 JUMPI PUSH3 0x1EF PUSH3 0xBE JUMP JUMPDEST JUMPDEST PUSH3 0x1FD DUP5 DUP3 DUP6 PUSH3 0x18E JUMP JUMPDEST POP SWAP4 SWAP3 POP POP POP JUMP JUMPDEST PUSH1 0x0 DUP3 PUSH1 0x1F DUP4 ADD SLT PUSH3 0x21D JUMPI PUSH3 0x21C PUSH3 0xB9 JUMP JUMPDEST JUMPDEST DUP2 MLOAD PUSH3 0x22F DUP5 DUP3 PUSH1 0x20 DUP7 ADD PUSH3 0x1BA JUMP JUMPDEST SWAP2 POP POP SWAP3 SWAP2 POP POP JUMP JUMPDEST PUSH1 0x0 DUP1 PUSH1 0x40 DUP4 DUP6 SUB SLT ISZERO PUSH3 0x252 JUMPI PUSH3 0x251 PUSH3 0xAF JUMP JUMPDEST JUMPDEST PUSH1 0x0 DUP4 ADD MLOAD PUSH8 0xFFFFFFFFFFFFFFFF DUP2 GT ISZERO PUSH3 0x273 JUMPI PUSH3 0x272 PUSH3 0xB4 JUMP JUMPDEST JUMPDEST PUSH3 0x281 DUP6 DUP3 DUP7 ADD PUSH3 0x205 JUMP JUMPDEST SWAP3 POP POP PUSH1 0x20 DUP4 ADD MLOAD PUSH8 0xFFFFFFFFFFFFFFFF DUP2 GT ISZERO PUSH3 0x2A5 JUMPI PUSH3 0x2A4 PUSH3 0xB4 JUMP JUMPDEST JUMPDEST PUSH3 0x2B3 DUP6 DUP3 DUP7 ADD PUSH3 0x205 JUMP JUMPDEST SWAP2 POP POP SWAP3 POP SWAP3 SWAP1 POP JUMP JUMPDEST PUSH1 0x0 DUP2 MLOAD SWAP1 POP SWAP2 SWAP1 POP JUMP JUMPDEST PUSH32 0x4E487B7100000000000000000000000000000000000000000000000000000000 PUSH1 0x0 MSTORE PUSH1 0x22 PUSH1 0x4 MSTORE PUSH1 0x24 PUSH1 0x0 REVERT JUMPDEST PUSH1 0x0 PUSH1 0x2 DUP3 DIV SWAP1 POP PUSH1 0x1 DUP3 AND DUP1 PUSH3 0x310 JUMPI PUSH1 0x7F DUP3 AND SWAP2 POP JUMPDEST PUSH1 0x20 DUP3 LT DUP2 SUB PUSH3 0x326 JUMPI PUSH3 0x325 PUSH3 0x2C8 JUMP JUMPDEST JUMPDEST POP SWAP2 SWAP1 POP JUMP JUMPDEST PUSH1 0x0 DUP2 SWAP1 POP DUP2 PUSH1 0x0 MSTORE PUSH1 0x20 PUSH1 0x0 KECCAK256 SWAP1 POP SWAP2 SWAP1 POP JUMP JUMPDEST PUSH1 0x0 PUSH1 0x20 PUSH1 0x1F DUP4 ADD DIV SWAP1 POP SWAP2 SWAP1 POP JUMP JUMPDEST PUSH1 0x0 DUP3 DUP3 SHL SWAP1 POP SWAP3 SWAP2 POP POP JUMP JUMPDEST PUSH1 0x0 PUSH1 0x8 DUP4 MUL PUSH3 0x390 PUSH32 0xFFFFFFFFFFFFFFFFFFFFFFFFFFFFFFFFFFFFFFFFFFFFFFFFFFFFFFFFFFFFFFFF DUP3 PUSH3 0x351 JUMP JUMPDEST PUSH3 0x39C DUP7 DUP4 PUSH3 0x351 JUMP JUMPDEST SWAP6 POP DUP1 NOT DUP5 AND SWAP4 POP DUP1 DUP7 AND DUP5 OR SWAP3 POP POP POP SWAP4 SWAP3 POP POP POP JUMP JUMPDEST PUSH1 0x0 DUP2 SWAP1 POP SWAP2 SWAP1 POP JUMP JUMPDEST PUSH1 0x0 DUP2 SWAP1 POP SWAP2 SWAP1 POP JUMP JUMPDEST PUSH1 0x0 PUSH3 0x3E9 PUSH3 0x3E3 PUSH3 0x3DD DUP5 PUSH3 0x3B4 JUMP JUMPDEST PUSH3 0x3BE JUMP JUMPDEST PUSH3 0x3B4 JUMP JUMPDEST SWAP1 POP SWAP2 SWAP1 POP JUMP JUMPDEST PUSH1 0x0 DUP2 SWAP1 POP SWAP2 SWAP1 POP JUMP JUMPDEST PUSH3 0x405 DUP4 PUSH3 0x3C8 JUMP JUMPDEST PUSH3 0x41D PUSH3 0x414 DUP3 PUSH3 0x3F0 JUMP JUMPDEST DUP5 DUP5 SLOAD PUSH3 0x35E JUMP JUMPDEST DUP3 SSTORE POP POP POP POP JUMP JUMPDEST PUSH1 0x0 SWAP1 JUMP JUMPDEST PUSH3 0x434 PUSH3 0x425 JUMP JUMPDEST PUSH3 0x441 DUP2 DUP5 DUP5 PUSH3 0x3FA JUMP JUMPDEST POP POP POP JUMP JUMPDEST JUMPDEST DUP2 DUP2 LT ISZERO PUSH3 0x469 JUMPI PUSH3 0x45D PUSH1 0x0 DUP3 PUSH3 0x42A JUMP JUMPDEST PUSH1 0x1 DUP2 ADD SWAP1 POP PUSH3 0x447 JUMP JUMPDEST POP POP JUMP JUMPDEST PUSH1 0x1F DUP3 GT ISZERO PUSH3 0x4B8 JUMPI PUSH3 0x482 DUP2 PUSH3 0x32C JUMP JUMPDEST PUSH3 0x48D DUP5 PUSH3 0x341 JUMP JUMPDEST DUP2 ADD PUSH1 0x20 DUP6 LT ISZERO PUSH3 0x49D JUMPI DUP2 SWAP1 POP JUMPDEST PUSH3 0x4B5 PUSH3 0x4AC DUP6 PUSH3 0x341 JUMP JUMPDEST DUP4 ADD DUP3 PUSH3 0x446 JUMP JUMPDEST POP POP JUMPDEST POP POP POP JUMP JUMPDEST PUSH1 0x0 DUP3 DUP3 SHR SWAP1 POP SWAP3 SWAP2 POP POP JUMP JUMPDEST PUSH1 0x0 PUSH3 0x4DD PUSH1 0x0 NOT DUP5 PUSH1 0x8 MUL PUSH3 0x4BD JUMP JUMPDEST NOT DUP1 DUP4 AND SWAP2 POP POP SWAP3 SWAP2 POP POP JUMP JUMPDEST PUSH1 0x0 PUSH3 0x4F8 DUP4 DUP4 PUSH3 0x4CA JUMP JUMPDEST SWAP2 POP DUP3 PUSH1 0x2 MUL DUP3 OR SWAP1 POP SWAP3 SWAP2 POP POP JUMP JUMPDEST PUSH3 0x513 DUP3 PUSH3 0x2BD JUMP JUMPDEST PUSH8 0xFFFFFFFFFFFFFFFF DUP2 GT ISZERO PUSH3 0x52F JUMPI PUSH3 0x52E PUSH3 0xD4 JUMP JUMPDEST JUMPDEST PUSH3 0x53B DUP3 SLOAD PUSH3 0x2F7 JUMP JUMPDEST PUSH3 0x548 DUP3 DUP3 DUP6 PUSH3 0x46D JUMP JUMPDEST PUSH1 0x0 PUSH1 0x20 SWAP1 POP PUSH1 0x1F DUP4 GT PUSH1 0x1 DUP2 EQ PUSH3 0x580 JUMPI PUSH1 0x0 DUP5 ISZERO PUSH3 0x56B JUMPI DUP3 DUP8 ADD MLOAD SWAP1 POP JUMPDEST PUSH3 0x577 DUP6 DUP3 PUSH3 0x4EA JUMP JUMPDEST DUP7 SSTORE POP PUSH3 0x5E7 JUMP JUMPDEST PUSH1 0x1F NOT DUP5 AND PUSH3 0x590 DUP7 PUSH3 0x32C JUMP JUMPDEST PUSH1 0x0 JUMPDEST DUP3 DUP2 LT ISZERO PUSH3 0x5BA JUMPI DUP5 DUP10 ADD MLOAD DUP3 SSTORE PUSH1 0x1 DUP3 ADD SWAP2 POP PUSH1 0x20 DUP6 ADD SWAP5 POP PUSH1 0x20 DUP2 ADD SWAP1 POP PUSH3 0x593 JUMP JUMPDEST DUP7 DUP4 LT ISZERO PUSH3 0x5DA JUMPI DUP5 DUP10 ADD MLOAD PUSH3 0x5D6 PUSH1 0x1F DUP10 AND DUP3 PUSH3 0x4CA JUMP JUMPDEST DUP4 SSTORE POP JUMPDEST PUSH1 0x1 PUSH1 0x2 DUP9 MUL ADD DUP9 SSTORE POP POP POP JUMPDEST POP POP POP POP POP POP JUMP JUMPDEST PUSH2 0x1A54 DUP1 PUSH3 0x5FF PUSH1 0x0 CODECOPY PUSH1 0x0 RETURN INVALID PUSH1 0x80 PUSH1 0x40 MSTORE CALLVALUE DUP1 ISZERO PUSH2 0x10 JUMPI PUSH1 0x0 DUP1 REVERT JUMPDEST POP PUSH1 0x4 CALLDATASIZE LT PUSH2 0xEA JUMPI PUSH1 0x0 CALLDATALOAD PUSH1 0xE0 SHR DUP1 PUSH4 0x5B9677BF GT PUSH2 0x8C JUMPI DUP1 PUSH4 0x92E8CCA2 GT PUSH2 0x66 JUMPI DUP1 PUSH4 0x92E8CCA2 EQ PUSH2 0x223 JUMPI DUP1 PUSH4 0xA89AE4BA EQ PUSH2 0x257 JUMPI DUP1 PUSH4 0xBECE7532 EQ PUSH2 0x275 JUMPI DUP1 PUSH4 0xFD843F08 EQ PUSH2 0x293 JUMPI PUSH2 0xEA JUMP JUMPDEST DUP1 PUSH4 0x5B9677BF EQ PUSH2 0x1B9 JUMPI DUP1 PUSH4 0x60C5CC3A EQ PUSH2 0x1D7 JUMPI DUP1 PUSH4 0x74C260CF EQ PUSH2 0x1F3 JUMPI PUSH2 0xEA JUMP JUMPDEST DUP1 PUSH4 0x3789B030 GT PUSH2 0xC8 JUMPI DUP1 PUSH4 0x3789B030 EQ PUSH2 0x147 JUMPI DUP1 PUSH4 0x3F51F066 EQ PUSH2 0x163 JUMPI DUP1 PUSH4 0x4C69C00F EQ PUSH2 0x17F JUMPI DUP1 PUSH4 0x516F279E EQ PUSH2 0x19B JUMPI PUSH2 0xEA JUMP JUMPDEST DUP1 PUSH4 0x1C35D0E EQ PUSH2 0xEF JUMPI DUP1 PUSH4 0x6FDDE03 EQ PUSH2 0x10B JUMPI DUP1 PUSH4 0x2DFCA445 EQ PUSH2 0x129 JUMPI JUMPDEST PUSH1 0x0 DUP1 REVERT JUMPDEST PUSH2 0x109 PUSH1 0x4 DUP1 CALLDATASIZE SUB DUP2 ADD SWAP1 PUSH2 0x104 SWAP2 SWAP1 PUSH2 0xC76 JUMP JUMPDEST PUSH2 0x2AF JUMP JUMPDEST STOP JUMPDEST PUSH2 0x113 PUSH2 0x593 JUMP JUMPDEST PUSH1 0x40 MLOAD PUSH2 0x120 SWAP2 SWAP1 PUSH2 0xDCF JUMP JUMPDEST PUSH1 0x40 MLOAD DUP1 SWAP2 SUB SWAP1 RETURN JUMPDEST PUSH2 0x131 PUSH2 0x621 JUMP JUMPDEST PUSH1 0x40 MLOAD PUSH2 0x13E SWAP2 SWAP1 PUSH2 0xE00 JUMP JUMPDEST PUSH1 0x40 MLOAD DUP1 SWAP2 SUB SWAP1 RETURN JUMPDEST PUSH2 0x161 PUSH1 0x4 DUP1 CALLDATASIZE SUB DUP2 ADD SWAP1 PUSH2 0x15C SWAP2 SWAP1 PUSH2 0xE79 JUMP JUMPDEST PUSH2 0x627 JUMP JUMPDEST STOP JUMPDEST PUSH2 0x17D PUSH1 0x4 DUP1 CALLDATASIZE SUB DUP2 ADD SWAP1 PUSH2 0x178 SWAP2 SWAP1 PUSH2 0xEA6 JUMP JUMPDEST PUSH2 0x66B JUMP JUMPDEST STOP JUMPDEST PUSH2 0x199 PUSH1 0x4 DUP1 CALLDATASIZE SUB DUP2 ADD SWAP1 PUSH2 0x194 SWAP2 SWAP1 PUSH2 0xE79 JUMP JUMPDEST PUSH2 0x6D7 JUMP JUMPDEST STOP JUMPDEST PUSH2 0x1A3 PUSH2 0x75C JUMP JUMPDEST PUSH1 0x40 MLOAD PUSH2 0x1B0 SWAP2 SWAP1 PUSH2 0xDCF JUMP JUMPDEST PUSH1 0x40 MLOAD DUP1 SWAP2 SUB SWAP1 RETURN JUMPDEST PUSH2 0x1C1 PUSH2 0x7EA JUMP JUMPDEST PUSH1 0x40 MLOAD PUSH2 0x1CE SWAP2 SWAP1 PUSH2 0xF32 JUMP JUMPDEST PUSH1 0x40 MLOAD DUP1 SWAP2 SUB SWAP1 RETURN JUMPDEST PUSH2 0x1F1 PUSH1 0x4 DUP1 CALLDATASIZE SUB DUP2 ADD SWAP1 PUSH2 0x1EC SWAP2 SWAP1 PUSH2 0xEA6 JUMP JUMPDEST PUSH2 0x810 JUMP JUMPDEST STOP JUMPDEST PUSH2 0x20D PUSH1 0x4 DUP1 CALLDATASIZE SUB DUP2 ADD SWAP1 PUSH2 0x208 SWAP2 SWAP1 PUSH2 0xEA6 JUMP JUMPDEST PUSH2 0x91B JUMP JUMPDEST PUSH1 0x40 MLOAD PUSH2 0x21A SWAP2 SWAP1 PUSH2 0xFC4 JUMP JUMPDEST PUSH1 0x40 MLOAD DUP1 SWAP2 SUB SWAP1 RETURN JUMPDEST PUSH2 0x23D PUSH1 0x4 DUP1 CALLDATASIZE SUB DUP2 ADD SWAP1 PUSH2 0x238 SWAP2 SWAP1 PUSH2 0xEA6 JUMP JUMPDEST PUSH2 0x93B JUMP JUMPDEST PUSH1 0x40 MLOAD PUSH2 0x24E SWAP6 SWAP5 SWAP4 SWAP3 SWAP2 SWAP1 PUSH2 0x1043 JUMP JUMPDEST PUSH1 0x40 MLOAD DUP1 SWAP2 SUB SWAP1 RETURN JUMPDEST PUSH2 0x25F PUSH2 0xB29 JUMP JUMPDEST PUSH1 0x40 MLOAD PUSH2 0x26C SWAP2 SWAP1 PUSH2 0x10AB JUMP JUMPDEST PUSH1 0x40 MLOAD DUP1 SWAP2 SUB SWAP1 RETURN JUMPDEST PUSH2 0x27D PUSH2 0xB4F JUMP JUMPDEST PUSH1 0x40 MLOAD PUSH2 0x28A SWAP2 SWAP1 PUSH2 0x10E7 JUMP JUMPDEST PUSH1 0x40 MLOAD DUP1 SWAP2 SUB SWAP1 RETURN JUMPDEST PUSH2 0x2AD PUSH1 0x4 DUP1 CALLDATASIZE SUB DUP2 ADD SWAP1 PUSH2 0x2A8 SWAP2 SWAP1 PUSH2 0x1102 JUMP JUMPDEST PUSH2 0xB75 JUMP JUMPDEST STOP JUMPDEST PUSH1 0x0 PUSH1 0x40 MLOAD DUP1 PUSH1 0xA0 ADD PUSH1 0x40 MSTORE DUP1 CALLER PUSH20 0xFFFFFFFFFFFFFFFFFFFFFFFFFFFFFFFFFFFFFFFF AND DUP2 MSTORE PUSH1 0x20 ADD DUP10 DUP10 DUP1 DUP1 PUSH1 0x1F ADD PUSH1 0x20 DUP1 SWAP2 DIV MUL PUSH1 0x20 ADD PUSH1 0x40 MLOAD SWAP1 DUP2 ADD PUSH1 0x40 MSTORE DUP1 SWAP4 SWAP3 SWAP2 SWAP1 DUP2 DUP2 MSTORE PUSH1 0x20 ADD DUP4 DUP4 DUP1 DUP3 DUP5 CALLDATACOPY PUSH1 0x0 DUP2 DUP5 ADD MSTORE PUSH1 0x1F NOT PUSH1 0x1F DUP3 ADD AND SWAP1 POP DUP1 DUP4 ADD SWAP3 POP POP POP POP POP POP POP DUP2 MSTORE PUSH1 0x20 ADD DUP8 DUP2 MSTORE PUSH1 0x20 ADD DUP7 DUP7 DUP1 DUP1 PUSH1 0x1F ADD PUSH1 0x20 DUP1 SWAP2 DIV MUL PUSH1 0x20 ADD PUSH1 0x40 MLOAD SWAP1 DUP2 ADD PUSH1 0x40 MSTORE DUP1 SWAP4 SWAP3 SWAP2 SWAP1 DUP2 DUP2 MSTORE PUSH1 0x20 ADD DUP4 DUP4 DUP1 DUP3 DUP5 CALLDATACOPY PUSH1 0x0 DUP2 DUP5 ADD MSTORE PUSH1 0x1F NOT PUSH1 0x1F DUP3 ADD AND SWAP1 POP DUP1 DUP4 ADD SWAP3 POP POP POP POP POP POP POP DUP2 MSTORE PUSH1 0x20 ADD DUP5 DUP5 DUP1 DUP1 PUSH1 0x1F ADD PUSH1 0x20 DUP1 SWAP2 DIV MUL PUSH1 0x20 ADD PUSH1 0x40 MLOAD SWAP1 DUP2 ADD PUSH1 0x40 MSTORE DUP1 SWAP4 SWAP3 SWAP2 SWAP1 DUP2 DUP2 MSTORE PUSH1 0x20 ADD DUP4 DUP4 DUP1 DUP3 DUP5 CALLDATACOPY PUSH1 0x0 DUP2 DUP5 ADD MSTORE PUSH1 0x1F NOT PUSH1 0x1F DUP3 ADD AND SWAP1 POP DUP1 DUP4 ADD SWAP3 POP POP POP POP POP POP POP DUP2 MSTORE POP SWAP1 POP DUP1 PUSH1 0x6 PUSH1 0x0 PUSH1 0x5 SLOAD DUP2 MSTORE PUSH1 0x20 ADD SWAP1 DUP2 MSTORE PUSH1 0x20 ADD PUSH1 0x0 KECCAK256 PUSH1 0x0 DUP3 ADD MLOAD DUP2 PUSH1 0x0 ADD PUSH1 0x0 PUSH2 0x100 EXP DUP2 SLOAD DUP2 PUSH20 0xFFFFFFFFFFFFFFFFFFFFFFFFFFFFFFFFFFFFFFFF MUL NOT AND SWAP1 DUP4 PUSH20 0xFFFFFFFFFFFFFFFFFFFFFFFFFFFFFFFFFFFFFFFF AND MUL OR SWAP1 SSTORE POP PUSH1 0x20 DUP3 ADD MLOAD DUP2 PUSH1 0x1 ADD SWAP1 DUP2 PUSH2 0x42E SWAP2 SWAP1 PUSH2 0x13B4 JUMP JUMPDEST POP PUSH1 0x40 DUP3 ADD MLOAD DUP2 PUSH1 0x2 ADD SSTORE PUSH1 0x60 DUP3 ADD MLOAD DUP2 PUSH1 0x3 ADD SWAP1 DUP2 PUSH2 0x44E SWAP2 SWAP1 PUSH2 0x14E1 JUMP JUMPDEST POP PUSH1 0x80 DUP3 ADD MLOAD DUP2 PUSH1 0x4 ADD SWAP1 DUP2 PUSH2 0x464 SWAP2 SWAP1 PUSH2 0x14E1 JUMP JUMPDEST POP SWAP1 POP POP PUSH1 0x0 PUSH1 0x7 PUSH1 0x0 PUSH1 0x5 SLOAD DUP2 MSTORE PUSH1 0x20 ADD SWAP1 DUP2 MSTORE PUSH1 0x20 ADD PUSH1 0x0 KECCAK256 PUSH1 0x0 PUSH2 0x100 EXP DUP2 SLOAD DUP2 PUSH1 0xFF MUL NOT AND SWAP1 DUP4 PUSH1 0x2 DUP2 GT ISZERO PUSH2 0x4A1 JUMPI PUSH2 0x4A0 PUSH2 0xF4D JUMP JUMPDEST JUMPDEST MUL OR SWAP1 SSTORE POP PUSH1 0x5 PUSH1 0x0 DUP2 SLOAD DUP1 SWAP3 SWAP2 SWAP1 PUSH2 0x4B9 SWAP1 PUSH2 0x15E2 JUMP JUMPDEST SWAP2 SWAP1 POP SSTORE POP PUSH1 0x5 SLOAD PUSH32 0x85C50EB91D140947455BDED9B0CA7F48FC20422C6A071BE8EFAF8146615777D2 DUP10 DUP10 DUP10 PUSH1 0x40 MLOAD PUSH2 0x4F4 SWAP4 SWAP3 SWAP2 SWAP1 PUSH2 0x1666 JUMP JUMPDEST PUSH1 0x40 MLOAD DUP1 SWAP2 SUB SWAP1 LOG2 PUSH1 0x4 PUSH1 0x0 SWAP1 SLOAD SWAP1 PUSH2 0x100 EXP SWAP1 DIV PUSH20 0xFFFFFFFFFFFFFFFFFFFFFFFFFFFFFFFFFFFFFFFF AND PUSH20 0xFFFFFFFFFFFFFFFFFFFFFFFFFFFFFFFFFFFFFFFF AND PUSH4 0x7504E22B DUP3 PUSH1 0x40 MLOAD DUP3 PUSH4 0xFFFFFFFF AND PUSH1 0xE0 SHL DUP2 MSTORE PUSH1 0x4 ADD PUSH2 0x557 SWAP2 SWAP1 PUSH2 0x17CE JUMP JUMPDEST PUSH1 0x0 PUSH1 0x40 MLOAD DUP1 DUP4 SUB DUP2 PUSH1 0x0 DUP8 DUP1 EXTCODESIZE ISZERO DUP1 ISZERO PUSH2 0x571 JUMPI PUSH1 0x0 DUP1 REVERT JUMPDEST POP GAS CALL ISZERO DUP1 ISZERO PUSH2 0x585 JUMPI RETURNDATASIZE PUSH1 0x0 DUP1 RETURNDATACOPY RETURNDATASIZE PUSH1 0x0 REVERT JUMPDEST POP POP POP POP POP POP POP POP POP POP POP POP JUMP JUMPDEST PUSH1 0x0 DUP1 SLOAD PUSH2 0x5A0 SWAP1 PUSH2 0x11E1 JUMP JUMPDEST DUP1 PUSH1 0x1F ADD PUSH1 0x20 DUP1 SWAP2 DIV MUL PUSH1 0x20 ADD PUSH1 0x40 MLOAD SWAP1 DUP2 ADD PUSH1 0x40 MSTORE DUP1 SWAP3 SWAP2 SWAP1 DUP2 DUP2 MSTORE PUSH1 0x20 ADD DUP3 DUP1 SLOAD PUSH2 0x5CC SWAP1 PUSH2 0x11E1 JUMP JUMPDEST DUP1 ISZERO PUSH2 0x619 JUMPI DUP1 PUSH1 0x1F LT PUSH2 0x5EE JUMPI PUSH2 0x100 DUP1 DUP4 SLOAD DIV MUL DUP4 MSTORE SWAP2 PUSH1 0x20 ADD SWAP2 PUSH2 0x619 JUMP JUMPDEST DUP3 ADD SWAP2 SWAP1 PUSH1 0x0 MSTORE PUSH1 0x20 PUSH1 0x0 KECCAK256 SWAP1 JUMPDEST DUP2 SLOAD DUP2 MSTORE SWAP1 PUSH1 0x1 ADD SWAP1 PUSH1 0x20 ADD DUP1 DUP4 GT PUSH2 0x5FC JUMPI DUP3 SWAP1 SUB PUSH1 0x1F AND DUP3 ADD SWAP2 JUMPDEST POP POP POP POP POP DUP2 JUMP JUMPDEST PUSH1 0x5 SLOAD DUP2 JUMP JUMPDEST DUP1 PUSH1 0x2 PUSH1 0x0 PUSH2 0x100 EXP DUP2 SLOAD DUP2 PUSH20 0xFFFFFFFFFFFFFFFFFFFFFFFFFFFFFFFFFFFFFFFF MUL NOT AND SWAP1 DUP4 PUSH20 0xFFFFFFFFFFFFFFFFFFFFFFFFFFFFFFFFFFFFFFFF AND MUL OR SWAP1 SSTORE POP POP JUMP JUMPDEST PUSH1 0x1 PUSH1 0x7 PUSH1 0x0 DUP4 DUP2 MSTORE PUSH1 0x20 ADD SWAP1 DUP2 MSTORE PUSH1 0x20 ADD PUSH1 0x0 KECCAK256 PUSH1 0x0 PUSH2 0x100 EXP DUP2 SLOAD DUP2 PUSH1 0xFF MUL NOT AND SWAP1 DUP4 PUSH1 0x2 DUP2 GT ISZERO PUSH2 0x6A2 JUMPI PUSH2 0x6A1 PUSH2 0xF4D JUMP JUMPDEST JUMPDEST MUL OR SWAP1 SSTORE POP DUP1 PUSH32 0x61ABCA1F903D624F2F61B1159479F0EBF4FC1BE8DBA30BDFBB3B7F58494586CB PUSH1 0x40 MLOAD PUSH1 0x40 MLOAD DUP1 SWAP2 SUB SWAP1 LOG2 POP JUMP JUMPDEST DUP1 PUSH1 0x3 PUSH1 0x0 PUSH2 0x100 EXP DUP2 SLOAD DUP2 PUSH20 0xFFFFFFFFFFFFFFFFFFFFFFFFFFFFFFFFFFFFFFFF MUL NOT AND SWAP1 DUP4 PUSH20 0xFFFFFFFFFFFFFFFFFFFFFFFFFFFFFFFFFFFFFFFF AND MUL OR SWAP1 SSTORE POP DUP1 PUSH1 0x4 PUSH1 0x0 PUSH2 0x100 EXP DUP2 SLOAD DUP2 PUSH20 0xFFFFFFFFFFFFFFFFFFFFFFFFFFFFFFFFFFFFFFFF MUL NOT AND SWAP1 DUP4 PUSH20 0xFFFFFFFFFFFFFFFFFFFFFFFFFFFFFFFFFFFFFFFF AND MUL OR SWAP1 SSTORE POP POP JUMP JUMPDEST PUSH1 0x1 DUP1 SLOAD PUSH2 0x769 SWAP1 PUSH2 0x11E1 JUMP JUMPDEST DUP1 PUSH1 0x1F ADD PUSH1 0x20 DUP1 SWAP2 DIV MUL PUSH1 0x20 ADD PUSH1 0x40 MLOAD SWAP1 DUP2 ADD PUSH1 0x40 MSTORE DUP1 SWAP3 SWAP2 SWAP1 DUP2 DUP2 MSTORE PUSH1 0x20 ADD DUP3 DUP1 SLOAD PUSH2 0x795 SWAP1 PUSH2 0x11E1 JUMP JUMPDEST DUP1 ISZERO PUSH2 0x7E2 JUMPI DUP1 PUSH1 0x1F LT PUSH2 0x7B7 JUMPI PUSH2 0x100 DUP1 DUP4 SLOAD DIV MUL DUP4 MSTORE SWAP2 PUSH1 0x20 ADD SWAP2 PUSH2 0x7E2 JUMP JUMPDEST DUP3 ADD SWAP2 SWAP1 PUSH1 0x0 MSTORE PUSH1 0x20 PUSH1 0x0 KECCAK256 SWAP1 JUMPDEST DUP2 SLOAD DUP2 MSTORE SWAP1 PUSH1 0x1 ADD SWAP1 PUSH1 0x20 ADD DUP1 DUP4 GT PUSH2 0x7C5 JUMPI DUP3 SWAP1 SUB PUSH1 0x1F AND DUP3 ADD SWAP2 JUMPDEST POP POP POP POP POP DUP2 JUMP JUMPDEST PUSH1 0x2 PUSH1 0x0 SWAP1 SLOAD SWAP1 PUSH2 0x100 EXP SWAP1 DIV PUSH20 0xFFFFFFFFFFFFFFFFFFFFFFFFFFFFFFFFFFFFFFFF AND DUP2 JUMP JUMPDEST PUSH1 0x1 PUSH1 0x7 PUSH1 0x0 DUP4 DUP2 MSTORE PUSH1 0x20 ADD SWAP1 DUP2 MSTORE PUSH1 0x20 ADD PUSH1 0x0 KECCAK256 PUSH1 0x0 PUSH2 0x100 EXP DUP2 SLOAD DUP2 PUSH1 0xFF MUL NOT AND SWAP1 DUP4 PUSH1 0x2 DUP2 GT ISZERO PUSH2 0x847 JUMPI PUSH2 0x846 PUSH2 0xF4D JUMP JUMPDEST JUMPDEST MUL OR SWAP1 SSTORE POP PUSH1 0x2 PUSH1 0x0 SWAP1 SLOAD SWAP1 PUSH2 0x100 EXP SWAP1 DIV PUSH20 0xFFFFFFFFFFFFFFFFFFFFFFFFFFFFFFFFFFFFFFFF AND PUSH20 0xFFFFFFFFFFFFFFFFFFFFFFFFFFFFFFFFFFFFFFFF AND PUSH4 0xEA1FD93E PUSH1 0x6 PUSH1 0x0 DUP5 DUP2 MSTORE PUSH1 0x20 ADD SWAP1 DUP2 MSTORE PUSH1 0x20 ADD PUSH1 0x0 KECCAK256 PUSH1 0x40 MLOAD DUP3 PUSH4 0xFFFFFFFF AND PUSH1 0xE0 SHL DUP2 MSTORE PUSH1 0x4 ADD PUSH2 0x8B9 SWAP2 SWAP1 PUSH2 0x19FC JUMP JUMPDEST PUSH1 0x0 PUSH1 0x40 MLOAD DUP1 DUP4 SUB DUP2 PUSH1 0x0 DUP8 DUP1 EXTCODESIZE ISZERO DUP1 ISZERO PUSH2 0x8D3 JUMPI PUSH1 0x0 DUP1 REVERT JUMPDEST POP GAS CALL ISZERO DUP1 ISZERO PUSH2 0x8E7 JUMPI RETURNDATASIZE PUSH1 0x0 DUP1 RETURNDATACOPY RETURNDATASIZE PUSH1 0x0 REVERT JUMPDEST POP POP POP POP DUP1 PUSH32 0x61ABCA1F903D624F2F61B1159479F0EBF4FC1BE8DBA30BDFBB3B7F58494586CB PUSH1 0x40 MLOAD PUSH1 0x40 MLOAD DUP1 SWAP2 SUB SWAP1 LOG2 POP JUMP JUMPDEST PUSH1 0x7 PUSH1 0x20 MSTORE DUP1 PUSH1 0x0 MSTORE PUSH1 0x40 PUSH1 0x0 KECCAK256 PUSH1 0x0 SWAP2 POP SLOAD SWAP1 PUSH2 0x100 EXP SWAP1 DIV PUSH1 0xFF AND DUP2 JUMP JUMPDEST PUSH1 0x6 PUSH1 0x20 MSTORE DUP1 PUSH1 0x0 MSTORE PUSH1 0x40 PUSH1 0x0 KECCAK256 PUSH1 0x0 SWAP2 POP SWAP1 POP DUP1 PUSH1 0x0 ADD PUSH1 0x0 SWAP1 SLOAD SWAP1 PUSH2 0x100 EXP SWAP1 DIV PUSH20 0xFFFFFFFFFFFFFFFFFFFFFFFFFFFFFFFFFFFFFFFF AND SWAP1 DUP1 PUSH1 0x1 ADD DUP1 SLOAD PUSH2 0x984 SWAP1 PUSH2 0x11E1 JUMP JUMPDEST DUP1 PUSH1 0x1F ADD PUSH1 0x20 DUP1 SWAP2 DIV MUL PUSH1 0x20 ADD PUSH1 0x40 MLOAD SWAP1 DUP2 ADD PUSH1 0x40 MSTORE DUP1 SWAP3 SWAP2 SWAP1 DUP2 DUP2 MSTORE PUSH1 0x20 ADD DUP3 DUP1 SLOAD PUSH2 0x9B0 SWAP1 PUSH2 0x11E1 JUMP JUMPDEST DUP1 ISZERO PUSH2 0x9FD JUMPI DUP1 PUSH1 0x1F LT PUSH2 0x9D2 JUMPI PUSH2 0x100 DUP1 DUP4 SLOAD DIV MUL DUP4 MSTORE SWAP2 PUSH1 0x20 ADD SWAP2 PUSH2 0x9FD JUMP JUMPDEST DUP3 ADD SWAP2 SWAP1 PUSH1 0x0 MSTORE PUSH1 0x20 PUSH1 0x0 KECCAK256 SWAP1 JUMPDEST DUP2 SLOAD DUP2 MSTORE SWAP1 PUSH1 0x1 ADD SWAP1 PUSH1 0x20 ADD DUP1 DUP4 GT PUSH2 0x9E0 JUMPI DUP3 SWAP1 SUB PUSH1 0x1F AND DUP3 ADD SWAP2 JUMPDEST POP POP POP POP POP SWAP1 DUP1 PUSH1 0x2 ADD SLOAD SWAP1 DUP1 PUSH1 0x3 ADD DUP1 SLOAD PUSH2 0xA18 SWAP1 PUSH2 0x11E1 JUMP JUMPDEST DUP1 PUSH1 0x1F ADD PUSH1 0x20 DUP1 SWAP2 DIV MUL PUSH1 0x20 ADD PUSH1 0x40 MLOAD SWAP1 DUP2 ADD PUSH1 0x40 MSTORE DUP1 SWAP3 SWAP2 SWAP1 DUP2 DUP2 MSTORE PUSH1 0x20 ADD DUP3 DUP1 SLOAD PUSH2 0xA44 SWAP1 PUSH2 0x11E1 JUMP JUMPDEST DUP1 ISZERO PUSH2 0xA91 JUMPI DUP1 PUSH1 0x1F LT PUSH2 0xA66 JUMPI PUSH2 0x100 DUP1 DUP4 SLOAD DIV MUL DUP4 MSTORE SWAP2 PUSH1 0x20 ADD SWAP2 PUSH2 0xA91 JUMP JUMPDEST DUP3 ADD SWAP2 SWAP1 PUSH1 0x0 MSTORE PUSH1 0x20 PUSH1 0x0 KECCAK256 SWAP1 JUMPDEST DUP2 SLOAD DUP2 MSTORE SWAP1 PUSH1 0x1 ADD SWAP1 PUSH1 0x20 ADD DUP1 DUP4 GT PUSH2 0xA74 JUMPI DUP3 SWAP1 SUB PUSH1 0x1F AND DUP3 ADD SWAP2 JUMPDEST POP POP POP POP POP SWAP1 DUP1 PUSH1 0x4 ADD DUP1 SLOAD PUSH2 0xAA6 SWAP1 PUSH2 0x11E1 JUMP JUMPDEST DUP1 PUSH1 0x1F ADD PUSH1 0x20 DUP1 SWAP2 DIV MUL PUSH1 0x20 ADD PUSH1 0x40 MLOAD SWAP1 DUP2 ADD PUSH1 0x40 MSTORE DUP1 SWAP3 SWAP2 SWAP1 DUP2 DUP2 MSTORE PUSH1 0x20 ADD DUP3 DUP1 SLOAD PUSH2 0xAD2 SWAP1 PUSH2 0x11E1 JUMP JUMPDEST DUP1 ISZERO PUSH2 0xB1F JUMPI DUP1 PUSH1 0x1F LT PUSH2 0xAF4 JUMPI PUSH2 0x100 DUP1 DUP4 SLOAD DIV MUL DUP4 MSTORE SWAP2 PUSH1 0x20 ADD SWAP2 PUSH2 0xB1F JUMP JUMPDEST DUP3 ADD SWAP2 SWAP1 PUSH1 0x0 MSTORE PUSH1 0x20 PUSH1 0x0 KECCAK256 SWAP1 JUMPDEST DUP2 SLOAD DUP2 MSTORE SWAP1 PUSH1 0x1 ADD SWAP1 PUSH1 0x20 ADD DUP1 DUP4 GT PUSH2 0xB02 JUMPI DUP3 SWAP1 SUB PUSH1 0x1F AND DUP3 ADD SWAP2 JUMPDEST POP POP POP POP POP SWAP1 POP DUP6 JUMP JUMPDEST PUSH1 0x3 PUSH1 0x0 SWAP1 SLOAD SWAP1 PUSH2 0x100 EXP SWAP1 DIV PUSH20 0xFFFFFFFFFFFFFFFFFFFFFFFFFFFFFFFFFFFFFFFF AND DUP2 JUMP JUMPDEST PUSH1 0x4 PUSH1 0x0 SWAP1 SLOAD SWAP1 PUSH2 0x100 EXP SWAP1 DIV PUSH20 0xFFFFFFFFFFFFFFFFFFFFFFFFFFFFFFFFFFFFFFFF AND DUP2 JUMP JUMPDEST POP POP POP POP JUMP JUMPDEST PUSH1 0x0 DUP1 REVERT JUMPDEST PUSH1 0x0 DUP1 REVERT JUMPDEST PUSH1 0x0 DUP1 REVERT JUMPDEST PUSH1 0x0 DUP1 REVERT JUMPDEST PUSH1 0x0 DUP1 REVERT JUMPDEST PUSH1 0x0 DUP1 DUP4 PUSH1 0x1F DUP5 ADD SLT PUSH2 0xBAA JUMPI PUSH2 0xBA9 PUSH2 0xB85 JUMP JUMPDEST JUMPDEST DUP3 CALLDATALOAD SWAP1 POP PUSH8 0xFFFFFFFFFFFFFFFF DUP2 GT ISZERO PUSH2 0xBC7 JUMPI PUSH2 0xBC6 PUSH2 0xB8A JUMP JUMPDEST JUMPDEST PUSH1 0x20 DUP4 ADD SWAP2 POP DUP4 PUSH1 0x1 DUP3 MUL DUP4 ADD GT ISZERO PUSH2 0xBE3 JUMPI PUSH2 0xBE2 PUSH2 0xB8F JUMP JUMPDEST JUMPDEST SWAP3 POP SWAP3 SWAP1 POP JUMP JUMPDEST PUSH1 0x0 DUP2 SWAP1 POP SWAP2 SWAP1 POP JUMP JUMPDEST PUSH2 0xBFD DUP2 PUSH2 0xBEA JUMP JUMPDEST DUP2 EQ PUSH2 0xC08 JUMPI PUSH1 0x0 DUP1 REVERT JUMPDEST POP JUMP JUMPDEST PUSH1 0x0 DUP2 CALLDATALOAD SWAP1 POP PUSH2 0xC1A DUP2 PUSH2 0xBF4 JUMP JUMPDEST SWAP3 SWAP2 POP POP JUMP JUMPDEST PUSH1 0x0 DUP1 DUP4 PUSH1 0x1F DUP5 ADD SLT PUSH2 0xC36 JUMPI PUSH2 0xC35 PUSH2 0xB85 JUMP JUMPDEST JUMPDEST DUP3 CALLDATALOAD SWAP1 POP PUSH8 0xFFFFFFFFFFFFFFFF DUP2 GT ISZERO PUSH2 0xC53 JUMPI PUSH2 0xC52 PUSH2 0xB8A JUMP JUMPDEST JUMPDEST PUSH1 0x20 DUP4 ADD SWAP2 POP DUP4 PUSH1 0x1 DUP3 MUL DUP4 ADD GT ISZERO PUSH2 0xC6F JUMPI PUSH2 0xC6E PUSH2 0xB8F JUMP JUMPDEST JUMPDEST SWAP3 POP SWAP3 SWAP1 POP JUMP JUMPDEST PUSH1 0x0 DUP1 PUSH1 0x0 DUP1 PUSH1 0x0 DUP1 PUSH1 0x0 PUSH1 0x80 DUP9 DUP11 SUB SLT ISZERO PUSH2 0xC95 JUMPI PUSH2 0xC94 PUSH2 0xB7B JUMP JUMPDEST JUMPDEST PUSH1 0x0 DUP9 ADD CALLDATALOAD PUSH8 0xFFFFFFFFFFFFFFFF DUP2 GT ISZERO PUSH2 0xCB3 JUMPI PUSH2 0xCB2 PUSH2 0xB80 JUMP JUMPDEST JUMPDEST PUSH2 0xCBF DUP11 DUP3 DUP12 ADD PUSH2 0xB94 JUMP JUMPDEST SWAP8 POP SWAP8 POP POP PUSH1 0x20 PUSH2 0xCD2 DUP11 DUP3 DUP12 ADD PUSH2 0xC0B JUMP JUMPDEST SWAP6 POP POP PUSH1 0x40 DUP9 ADD CALLDATALOAD PUSH8 0xFFFFFFFFFFFFFFFF DUP2 GT ISZERO PUSH2 0xCF3 JUMPI PUSH2 0xCF2 PUSH2 0xB80 JUMP JUMPDEST JUMPDEST PUSH2 0xCFF DUP11 DUP3 DUP12 ADD PUSH2 0xC20 JUMP JUMPDEST SWAP5 POP SWAP5 POP POP PUSH1 0x60 DUP9 ADD CALLDATALOAD PUSH8 0xFFFFFFFFFFFFFFFF DUP2 GT ISZERO PUSH2 0xD22 JUMPI PUSH2 0xD21 PUSH2 0xB80 JUMP JUMPDEST JUMPDEST PUSH2 0xD2E DUP11 DUP3 DUP12 ADD PUSH2 0xC20 JUMP JUMPDEST SWAP3 POP SWAP3 POP POP SWAP3 SWAP6 SWAP9 SWAP2 SWAP5 SWAP8 POP SWAP3 SWAP6 POP JUMP JUMPDEST PUSH1 0x0 DUP2 MLOAD SWAP1 POP SWAP2 SWAP1 POP JUMP JUMPDEST PUSH1 0x0 DUP3 DUP3 MSTORE PUSH1 0x20 DUP3 ADD SWAP1 POP SWAP3 SWAP2 POP POP JUMP JUMPDEST PUSH1 0x0 JUMPDEST DUP4 DUP2 LT ISZERO PUSH2 0xD79 JUMPI DUP1 DUP3 ADD MLOAD DUP2 DUP5 ADD MSTORE PUSH1 0x20 DUP2 ADD SWAP1 POP PUSH2 0xD5E JUMP JUMPDEST PUSH1 0x0 DUP5 DUP5 ADD MSTORE POP POP POP POP JUMP JUMPDEST PUSH1 0x0 PUSH1 0x1F NOT PUSH1 0x1F DUP4 ADD AND SWAP1 POP SWAP2 SWAP1 POP JUMP JUMPDEST PUSH1 0x0 PUSH2 0xDA1 DUP3 PUSH2 0xD3F JUMP JUMPDEST PUSH2 0xDAB DUP2 DUP6 PUSH2 0xD4A JUMP JUMPDEST SWAP4 POP PUSH2 0xDBB DUP2 DUP6 PUSH1 0x20 DUP7 ADD PUSH2 0xD5B JUMP JUMPDEST PUSH2 0xDC4 DUP2 PUSH2 0xD85 JUMP JUMPDEST DUP5 ADD SWAP2 POP POP SWAP3 SWAP2 POP POP JUMP JUMPDEST PUSH1 0x0 PUSH1 0x20 DUP3 ADD SWAP1 POP DUP2 DUP2 SUB PUSH1 0x0 DUP4 ADD MSTORE PUSH2 0xDE9 DUP2 DUP5 PUSH2 0xD96 JUMP JUMPDEST SWAP1 POP SWAP3 SWAP2 POP POP JUMP JUMPDEST PUSH2 0xDFA DUP2 PUSH2 0xBEA JUMP JUMPDEST DUP3 MSTORE POP POP JUMP JUMPDEST PUSH1 0x0 PUSH1 0x20 DUP3 ADD SWAP1 POP PUSH2 0xE15 PUSH1 0x0 DUP4 ADD DUP5 PUSH2 0xDF1 JUMP JUMPDEST SWAP3 SWAP2 POP POP JUMP JUMPDEST PUSH1 0x0 PUSH20 0xFFFFFFFFFFFFFFFFFFFFFFFFFFFFFFFFFFFFFFFF DUP3 AND SWAP1 POP SWAP2 SWAP1 POP JUMP JUMPDEST PUSH1 0x0 PUSH2 0xE46 DUP3 PUSH2 0xE1B JUMP JUMPDEST SWAP1 POP SWAP2 SWAP1 POP JUMP JUMPDEST PUSH2 0xE56 DUP2 PUSH2 0xE3B JUMP JUMPDEST DUP2 EQ PUSH2 0xE61 JUMPI PUSH1 0x0 DUP1 REVERT JUMPDEST POP JUMP JUMPDEST PUSH1 0x0 DUP2 CALLDATALOAD SWAP1 POP PUSH2 0xE73 DUP2 PUSH2 0xE4D JUMP JUMPDEST SWAP3 SWAP2 POP POP JUMP JUMPDEST PUSH1 0x0 PUSH1 0x20 DUP3 DUP5 SUB SLT ISZERO PUSH2 0xE8F JUMPI PUSH2 0xE8E PUSH2 0xB7B JUMP JUMPDEST JUMPDEST PUSH1 0x0 PUSH2 0xE9D DUP5 DUP3 DUP6 ADD PUSH2 0xE64 JUMP JUMPDEST SWAP2 POP POP SWAP3 SWAP2 POP POP JUMP JUMPDEST PUSH1 0x0 PUSH1 0x20 DUP3 DUP5 SUB SLT ISZERO PUSH2 0xEBC JUMPI PUSH2 0xEBB PUSH2 0xB7B JUMP JUMPDEST JUMPDEST PUSH1 0x0 PUSH2 0xECA DUP5 DUP3 DUP6 ADD PUSH2 0xC0B JUMP JUMPDEST SWAP2 POP POP SWAP3 SWAP2 POP POP JUMP JUMPDEST PUSH1 0x0 DUP2 SWAP1 POP SWAP2 SWAP1 POP JUMP JUMPDEST PUSH1 0x0 PUSH2 0xEF8 PUSH2 0xEF3 PUSH2 0xEEE DUP5 PUSH2 0xE1B JUMP JUMPDEST PUSH2 0xED3 JUMP JUMPDEST PUSH2 0xE1B JUMP JUMPDEST SWAP1 POP SWAP2 SWAP1 POP JUMP JUMPDEST PUSH1 0x0 PUSH2 0xF0A DUP3 PUSH2 0xEDD JUMP JUMPDEST SWAP1 POP SWAP2 SWAP1 POP JUMP JUMPDEST PUSH1 0x0 PUSH2 0xF1C DUP3 PUSH2 0xEFF JUMP JUMPDEST SWAP1 POP SWAP2 SWAP1 POP JUMP JUMPDEST PUSH2 0xF2C DUP2 PUSH2 0xF11 JUMP JUMPDEST DUP3 MSTORE POP POP JUMP JUMPDEST PUSH1 0x0 PUSH1 0x20 DUP3 ADD SWAP1 POP PUSH2 0xF47 PUSH1 0x0 DUP4 ADD DUP5 PUSH2 0xF23 JUMP JUMPDEST SWAP3 SWAP2 POP POP JUMP JUMPDEST PUSH32 0x4E487B7100000000000000000000000000000000000000000000000000000000 PUSH1 0x0 MSTORE PUSH1 0x21 PUSH1 0x4 MSTORE PUSH1 0x24 PUSH1 0x0 REVERT JUMPDEST PUSH1 0x3 DUP2 LT PUSH2 0xF8D JUMPI PUSH2 0xF8C PUSH2 0xF4D JUMP JUMPDEST JUMPDEST POP JUMP JUMPDEST PUSH1 0x0 DUP2 SWAP1 POP PUSH2 0xF9E DUP3 PUSH2 0xF7C JUMP JUMPDEST SWAP2 SWAP1 POP JUMP JUMPDEST PUSH1 0x0 PUSH2 0xFAE DUP3 PUSH2 0xF90 JUMP JUMPDEST SWAP1 POP SWAP2 SWAP1 POP JUMP JUMPDEST PUSH2 0xFBE DUP2 PUSH2 0xFA3 JUMP JUMPDEST DUP3 MSTORE POP POP JUMP JUMPDEST PUSH1 0x0 PUSH1 0x20 DUP3 ADD SWAP1 POP PUSH2 0xFD9 PUSH1 0x0 DUP4 ADD DUP5 PUSH2 0xFB5 JUMP JUMPDEST SWAP3 SWAP2 POP POP JUMP JUMPDEST PUSH2 0xFE8 DUP2 PUSH2 0xE3B JUMP JUMPDEST DUP3 MSTORE POP POP JUMP JUMPDEST PUSH1 0x0 DUP2 MLOAD SWAP1 POP SWAP2 SWAP1 POP JUMP JUMPDEST PUSH1 0x0 DUP3 DUP3 MSTORE PUSH1 0x20 DUP3 ADD SWAP1 POP SWAP3 SWAP2 POP POP JUMP JUMPDEST PUSH1 0x0 PUSH2 0x1015 DUP3 PUSH2 0xFEE JUMP JUMPDEST PUSH2 0x101F DUP2 DUP6 PUSH2 0xFF9 JUMP JUMPDEST SWAP4 POP PUSH2 0x102F DUP2 DUP6 PUSH1 0x20 DUP7 ADD PUSH2 0xD5B JUMP JUMPDEST PUSH2 0x1038 DUP2 PUSH2 0xD85 JUMP JUMPDEST DUP5 ADD SWAP2 POP POP SWAP3 SWAP2 POP POP JUMP JUMPDEST PUSH1 0x0 PUSH1 0xA0 DUP3 ADD SWAP1 POP PUSH2 0x1058 PUSH1 0x0 DUP4 ADD DUP9 PUSH2 0xFDF JUMP JUMPDEST DUP2 DUP2 SUB PUSH1 0x20 DUP4 ADD MSTORE PUSH2 0x106A DUP2 DUP8 PUSH2 0xD96 JUMP JUMPDEST SWAP1 POP PUSH2 0x1079 PUSH1 0x40 DUP4 ADD DUP7 PUSH2 0xDF1 JUMP JUMPDEST DUP2 DUP2 SUB PUSH1 0x60 DUP4 ADD MSTORE PUSH2 0x108B DUP2 DUP6 PUSH2 0x100A JUMP JUMPDEST SWAP1 POP DUP2 DUP2 SUB PUSH1 0x80 DUP4 ADD MSTORE PUSH2 0x109F DUP2 DUP5 PUSH2 0x100A JUMP JUMPDEST SWAP1 POP SWAP7 SWAP6 POP POP POP POP POP POP JUMP JUMPDEST PUSH1 0x0 PUSH1 0x20 DUP3 ADD SWAP1 POP PUSH2 0x10C0 PUSH1 0x0 DUP4 ADD DUP5 PUSH2 0xFDF JUMP JUMPDEST SWAP3 SWAP2 POP POP JUMP JUMPDEST PUSH1 0x0 PUSH2 0x10D1 DUP3 PUSH2 0xEFF JUMP JUMPDEST SWAP1 POP SWAP2 SWAP1 POP JUMP JUMPDEST PUSH2 0x10E1 DUP2 PUSH2 0x10C6 JUMP JUMPDEST DUP3 MSTORE POP POP JUMP JUMPDEST PUSH1 0x0 PUSH1 0x20 DUP3 ADD SWAP1 POP PUSH2 0x10FC PUSH1 0x0 DUP4 ADD DUP5 PUSH2 0x10D8 JUMP JUMPDEST SWAP3 SWAP2 POP POP JUMP JUMPDEST PUSH1 0x0 DUP1 PUSH1 0x0 DUP1 PUSH1 0x40 DUP6 DUP8 SUB SLT ISZERO PUSH2 0x111C JUMPI PUSH2 0x111B PUSH2 0xB7B JUMP JUMPDEST JUMPDEST PUSH1 0x0 DUP6 ADD CALLDATALOAD PUSH8 0xFFFFFFFFFFFFFFFF DUP2 GT ISZERO PUSH2 0x113A JUMPI PUSH2 0x1139 PUSH2 0xB80 JUMP JUMPDEST JUMPDEST PUSH2 0x1146 DUP8 DUP3 DUP9 ADD PUSH2 0xC20 JUMP JUMPDEST SWAP5 POP SWAP5 POP POP PUSH1 0x20 DUP6 ADD CALLDATALOAD PUSH8 0xFFFFFFFFFFFFFFFF DUP2 GT ISZERO PUSH2 0x1169 JUMPI PUSH2 0x1168 PUSH2 0xB80 JUMP JUMPDEST JUMPDEST PUSH2 0x1175 DUP8 DUP3 DUP9 ADD PUSH2 0xC20 JUMP JUMPDEST SWAP3 POP SWAP3 POP POP SWAP3 SWAP6 SWAP2 SWAP5 POP SWAP3 POP JUMP JUMPDEST PUSH32 0x4E487B7100000000000000000000000000000000000000000000000000000000 PUSH1 0x0 MSTORE PUSH1 0x41 PUSH1 0x4 MSTORE PUSH1 0x24 PUSH1 0x0 REVERT JUMPDEST PUSH32 0x4E487B7100000000000000000000000000000000000000000000000000000000 PUSH1 0x0 MSTORE PUSH1 0x22 PUSH1 0x4 MSTORE PUSH1 0x24 PUSH1 0x0 REVERT JUMPDEST PUSH1 0x0 PUSH1 0x2 DUP3 DIV SWAP1 POP PUSH1 0x1 DUP3 AND DUP1 PUSH2 0x11F9 JUMPI PUSH1 0x7F DUP3 AND SWAP2 POP JUMPDEST PUSH1 0x20 DUP3 LT DUP2 SUB PUSH2 0x120C JUMPI PUSH2 0x120B PUSH2 0x11B2 JUMP JUMPDEST JUMPDEST POP SWAP2 SWAP1 POP JUMP JUMPDEST PUSH1 0x0 DUP2 SWAP1 POP DUP2 PUSH1 0x0 MSTORE PUSH1 0x20 PUSH1 0x0 KECCAK256 SWAP1 POP SWAP2 SWAP1 POP JUMP JUMPDEST PUSH1 0x0 PUSH1 0x20 PUSH1 0x1F DUP4 ADD DIV SWAP1 POP SWAP2 SWAP1 POP JUMP JUMPDEST PUSH1 0x0 DUP3 DUP3 SHL SWAP1 POP SWAP3 SWAP2 POP POP JUMP JUMPDEST PUSH1 0x0 PUSH1 0x8 DUP4 MUL PUSH2 0x1274 PUSH32 0xFFFFFFFFFFFFFFFFFFFFFFFFFFFFFFFFFFFFFFFFFFFFFFFFFFFFFFFFFFFFFFFF DUP3 PUSH2 0x1237 JUMP JUMPDEST PUSH2 0x127E DUP7 DUP4 PUSH2 0x1237 JUMP JUMPDEST SWAP6 POP DUP1 NOT DUP5 AND SWAP4 POP DUP1 DUP7 AND DUP5 OR SWAP3 POP POP POP SWAP4 SWAP3 POP POP POP JUMP JUMPDEST PUSH1 0x0 PUSH2 0x12B1 PUSH2 0x12AC PUSH2 0x12A7 DUP5 PUSH2 0xBEA JUMP JUMPDEST PUSH2 0xED3 JUMP JUMPDEST PUSH2 0xBEA JUMP JUMPDEST SWAP1 POP SWAP2 SWAP1 POP JUMP JUMPDEST PUSH1 0x0 DUP2 SWAP1 POP SWAP2 SWAP1 POP JUMP JUMPDEST PUSH2 0x12CB DUP4 PUSH2 0x1296 JUMP JUMPDEST PUSH2 0x12DF PUSH2 0x12D7 DUP3 PUSH2 0x12B8 JUMP JUMPDEST DUP5 DUP5 SLOAD PUSH2 0x1244 JUMP JUMPDEST DUP3 SSTORE POP POP POP POP JUMP JUMPDEST PUSH1 0x0 SWAP1 JUMP JUMPDEST PUSH2 0x12F4 PUSH2 0x12E7 JUMP JUMPDEST PUSH2 0x12FF DUP2 DUP5 DUP5 PUSH2 0x12C2 JUMP JUMPDEST POP POP POP JUMP JUMPDEST JUMPDEST DUP2 DUP2 LT ISZERO PUSH2 0x1323 JUMPI PUSH2 0x1318 PUSH1 0x0 DUP3 PUSH2 0x12EC JUMP JUMPDEST PUSH1 0x1 DUP2 ADD SWAP1 POP PUSH2 0x1305 JUMP JUMPDEST POP POP JUMP JUMPDEST PUSH1 0x1F DUP3 GT ISZERO PUSH2 0x1368 JUMPI PUSH2 0x1339 DUP2 PUSH2 0x1212 JUMP JUMPDEST PUSH2 0x1342 DUP5 PUSH2 0x1227 JUMP JUMPDEST DUP2 ADD PUSH1 0x20 DUP6 LT ISZERO PUSH2 0x1351 JUMPI DUP2 SWAP1 POP JUMPDEST PUSH2 0x1365 PUSH2 0x135D DUP6 PUSH2 0x1227 JUMP JUMPDEST DUP4 ADD DUP3 PUSH2 0x1304 JUMP JUMPDEST POP POP JUMPDEST POP POP POP JUMP JUMPDEST PUSH1 0x0 DUP3 DUP3 SHR SWAP1 POP SWAP3 SWAP2 POP POP JUMP JUMPDEST PUSH1 0x0 PUSH2 0x138B PUSH1 0x0 NOT DUP5 PUSH1 0x8 MUL PUSH2 0x136D JUMP JUMPDEST NOT DUP1 DUP4 AND SWAP2 POP POP SWAP3 SWAP2 POP POP JUMP JUMPDEST PUSH1 0x0 PUSH2 0x13A4 DUP4 DUP4 PUSH2 0x137A JUMP JUMPDEST SWAP2 POP DUP3 PUSH1 0x2 MUL DUP3 OR SWAP1 POP SWAP3 SWAP2 POP POP JUMP JUMPDEST PUSH2 0x13BD DUP3 PUSH2 0xD3F JUMP JUMPDEST PUSH8 0xFFFFFFFFFFFFFFFF DUP2 GT ISZERO PUSH2 0x13D6 JUMPI PUSH2 0x13D5 PUSH2 0x1183 JUMP JUMPDEST JUMPDEST PUSH2 0x13E0 DUP3 SLOAD PUSH2 0x11E1 JUMP JUMPDEST PUSH2 0x13EB DUP3 DUP3 DUP6 PUSH2 0x1327 JUMP JUMPDEST PUSH1 0x0 PUSH1 0x20 SWAP1 POP PUSH1 0x1F DUP4 GT PUSH1 0x1 DUP2 EQ PUSH2 0x141E JUMPI PUSH1 0x0 DUP5 ISZERO PUSH2 0x140C JUMPI DUP3 DUP8 ADD MLOAD SWAP1 POP JUMPDEST PUSH2 0x1416 DUP6 DUP3 PUSH2 0x1398 JUMP JUMPDEST DUP7 SSTORE POP PUSH2 0x147E JUMP JUMPDEST PUSH1 0x1F NOT DUP5 AND PUSH2 0x142C DUP7 PUSH2 0x1212 JUMP JUMPDEST PUSH1 0x0 JUMPDEST DUP3 DUP2 LT ISZERO PUSH2 0x1454 JUMPI DUP5 DUP10 ADD MLOAD DUP3 SSTORE PUSH1 0x1 DUP3 ADD SWAP2 POP PUSH1 0x20 DUP6 ADD SWAP5 POP PUSH1 0x20 DUP2 ADD SWAP1 POP PUSH2 0x142F JUMP JUMPDEST DUP7 DUP4 LT ISZERO PUSH2 0x1471 JUMPI DUP5 DUP10 ADD MLOAD PUSH2 0x146D PUSH1 0x1F DUP10 AND DUP3 PUSH2 0x137A JUMP JUMPDEST DUP4 SSTORE POP JUMPDEST PUSH1 0x1 PUSH1 0x2 DUP9 MUL ADD DUP9 SSTORE POP POP POP JUMPDEST POP POP POP POP POP POP JUMP JUMPDEST PUSH1 0x0 DUP2 SWAP1 POP DUP2 PUSH1 0x0 MSTORE PUSH1 0x20 PUSH1 0x0 KECCAK256 SWAP1 POP SWAP2 SWAP1 POP JUMP JUMPDEST PUSH1 0x1F DUP3 GT ISZERO PUSH2 0x14DC JUMPI PUSH2 0x14AD DUP2 PUSH2 0x1486 JUMP JUMPDEST PUSH2 0x14B6 DUP5 PUSH2 0x1227 JUMP JUMPDEST DUP2 ADD PUSH1 0x20 DUP6 LT ISZERO PUSH2 0x14C5 JUMPI DUP2 SWAP1 POP JUMPDEST PUSH2 0x14D9 PUSH2 0x14D1 DUP6 PUSH2 0x1227 JUMP JUMPDEST DUP4 ADD DUP3 PUSH2 0x1304 JUMP JUMPDEST POP POP JUMPDEST POP POP POP JUMP JUMPDEST PUSH2 0x14EA DUP3 PUSH2 0xFEE JUMP JUMPDEST PUSH8 0xFFFFFFFFFFFFFFFF DUP2 GT ISZERO PUSH2 0x1503 JUMPI PUSH2 0x1502 PUSH2 0x1183 JUMP JUMPDEST JUMPDEST PUSH2 0x150D DUP3 SLOAD PUSH2 0x11E1 JUMP JUMPDEST PUSH2 0x1518 DUP3 DUP3 DUP6 PUSH2 0x149B JUMP JUMPDEST PUSH1 0x0 PUSH1 0x20 SWAP1 POP PUSH1 0x1F DUP4 GT PUSH1 0x1 DUP2 EQ PUSH2 0x154B JUMPI PUSH1 0x0 DUP5 ISZERO PUSH2 0x1539 JUMPI DUP3 DUP8 ADD MLOAD SWAP1 POP JUMPDEST PUSH2 0x1543 DUP6 DUP3 PUSH2 0x1398 JUMP JUMPDEST DUP7 SSTORE POP PUSH2 0x15AB JUMP JUMPDEST PUSH1 0x1F NOT DUP5 AND PUSH2 0x1559 DUP7 PUSH2 0x1486 JUMP JUMPDEST PUSH1 0x0 JUMPDEST DUP3 DUP2 LT ISZERO PUSH2 0x1581 JUMPI DUP5 DUP10 ADD MLOAD DUP3 SSTORE PUSH1 0x1 DUP3 ADD SWAP2 POP PUSH1 0x20 DUP6 ADD SWAP5 POP PUSH1 0x20 DUP2 ADD SWAP1 POP PUSH2 0x155C JUMP JUMPDEST DUP7 DUP4 LT ISZERO PUSH2 0x159E JUMPI DUP5 DUP10 ADD MLOAD PUSH2 0x159A PUSH1 0x1F DUP10 AND DUP3 PUSH2 0x137A JUMP JUMPDEST DUP4 SSTORE POP JUMPDEST PUSH1 0x1 PUSH1 0x2 DUP9 MUL ADD DUP9 SSTORE POP POP POP JUMPDEST POP POP POP POP POP POP JUMP JUMPDEST PUSH32 0x4E487B7100000000000000000000000000000000000000000000000000000000 PUSH1 0x0 MSTORE PUSH1 0x11 PUSH1 0x4 MSTORE PUSH1 0x24 PUSH1 0x0 REVERT JUMPDEST PUSH1 0x0 PUSH2 0x15ED DUP3 PUSH2 0xBEA JUMP JUMPDEST SWAP2 POP PUSH32 0xFFFFFFFFFFFFFFFFFFFFFFFFFFFFFFFFFFFFFFFFFFFFFFFFFFFFFFFFFFFFFFFF DUP3 SUB PUSH2 0x161F JUMPI PUSH2 0x161E PUSH2 0x15B3 JUMP JUMPDEST JUMPDEST PUSH1 0x1 DUP3 ADD SWAP1 POP SWAP2 SWAP1 POP JUMP JUMPDEST DUP3 DUP2 DUP4 CALLDATACOPY PUSH1 0x0 DUP4 DUP4 ADD MSTORE POP POP POP JUMP JUMPDEST PUSH1 0x0 PUSH2 0x1645 DUP4 DUP6 PUSH2 0xD4A JUMP JUMPDEST SWAP4 POP PUSH2 0x1652 DUP4 DUP6 DUP5 PUSH2 0x162A JUMP JUMPDEST PUSH2 0x165B DUP4 PUSH2 0xD85 JUMP JUMPDEST DUP5 ADD SWAP1 POP SWAP4 SWAP3 POP POP POP JUMP JUMPDEST PUSH1 0x0 PUSH1 0x40 DUP3 ADD SWAP1 POP DUP2 DUP2 SUB PUSH1 0x0 DUP4 ADD MSTORE PUSH2 0x1681 DUP2 DUP6 DUP8 PUSH2 0x1639 JUMP JUMPDEST SWAP1 POP PUSH2 0x1690 PUSH1 0x20 DUP4 ADD DUP5 PUSH2 0xDF1 JUMP JUMPDEST SWAP5 SWAP4 POP POP POP POP JUMP JUMPDEST PUSH2 0x16A1 DUP2 PUSH2 0xE3B JUMP JUMPDEST DUP3 MSTORE POP POP JUMP JUMPDEST PUSH1 0x0 DUP3 DUP3 MSTORE PUSH1 0x20 DUP3 ADD SWAP1 POP SWAP3 SWAP2 POP POP JUMP JUMPDEST PUSH1 0x0 PUSH2 0x16C3 DUP3 PUSH2 0xD3F JUMP JUMPDEST PUSH2 0x16CD DUP2 DUP6 PUSH2 0x16A7 JUMP JUMPDEST SWAP4 POP PUSH2 0x16DD DUP2 DUP6 PUSH1 0x20 DUP7 ADD PUSH2 0xD5B JUMP JUMPDEST PUSH2 0x16E6 DUP2 PUSH2 0xD85 JUMP JUMPDEST DUP5 ADD SWAP2 POP POP SWAP3 SWAP2 POP POP JUMP JUMPDEST PUSH2 0x16FA DUP2 PUSH2 0xBEA JUMP JUMPDEST DUP3 MSTORE POP POP JUMP JUMPDEST PUSH1 0x0 DUP3 DUP3 MSTORE PUSH1 0x20 DUP3 ADD SWAP1 POP SWAP3 SWAP2 POP POP JUMP JUMPDEST PUSH1 0x0 PUSH2 0x171C DUP3 PUSH2 0xFEE JUMP JUMPDEST PUSH2 0x1726 DUP2 DUP6 PUSH2 0x1700 JUMP JUMPDEST SWAP4 POP PUSH2 0x1736 DUP2 DUP6 PUSH1 0x20 DUP7 ADD PUSH2 0xD5B JUMP JUMPDEST PUSH2 0x173F DUP2 PUSH2 0xD85 JUMP JUMPDEST DUP5 ADD SWAP2 POP POP SWAP3 SWAP2 POP POP JUMP JUMPDEST PUSH1 0x0 PUSH1 0xA0 DUP4 ADD PUSH1 0x0 DUP4 ADD MLOAD PUSH2 0x1762 PUSH1 0x0 DUP7 ADD DUP3 PUSH2 0x1698 JUMP JUMPDEST POP PUSH1 0x20 DUP4 ADD MLOAD DUP5 DUP3 SUB PUSH1 0x20 DUP7 ADD MSTORE PUSH2 0x177A DUP3 DUP3 PUSH2 0x16B8 JUMP JUMPDEST SWAP2 POP POP PUSH1 0x40 DUP4 ADD MLOAD PUSH2 0x178F PUSH1 0x40 DUP7 ADD DUP3 PUSH2 0x16F1 JUMP JUMPDEST POP PUSH1 0x60 DUP4 ADD MLOAD DUP5 DUP3 SUB PUSH1 0x60 DUP7 ADD MSTORE PUSH2 0x17A7 DUP3 DUP3 PUSH2 0x1711 JUMP JUMPDEST SWAP2 POP POP PUSH1 0x80 DUP4 ADD MLOAD DUP5 DUP3 SUB PUSH1 0x80 DUP7 ADD MSTORE PUSH2 0x17C1 DUP3 DUP3 PUSH2 0x1711 JUMP JUMPDEST SWAP2 POP POP DUP1 SWAP2 POP POP SWAP3 SWAP2 POP POP JUMP JUMPDEST PUSH1 0x0 PUSH1 0x20 DUP3 ADD SWAP1 POP DUP2 DUP2 SUB PUSH1 0x0 DUP4 ADD MSTORE PUSH2 0x17E8 DUP2 DUP5 PUSH2 0x174A JUMP JUMPDEST SWAP1 POP SWAP3 SWAP2 POP POP JUMP JUMPDEST PUSH1 0x0 DUP2 PUSH1 0x0 SHR SWAP1 POP SWAP2 SWAP1 POP JUMP JUMPDEST PUSH1 0x0 PUSH20 0xFFFFFFFFFFFFFFFFFFFFFFFFFFFFFFFFFFFFFFFF DUP3 AND SWAP1 POP SWAP2 SWAP1 POP JUMP JUMPDEST PUSH1 0x0 PUSH2 0x1830 PUSH2 0x182B DUP4 PUSH2 0x17F0 JUMP JUMPDEST PUSH2 0x17FD JUMP JUMPDEST SWAP1 POP SWAP2 SWAP1 POP JUMP JUMPDEST PUSH1 0x0 DUP2 SLOAD PUSH2 0x1844 DUP2 PUSH2 0x11E1 JUMP JUMPDEST PUSH2 0x184E DUP2 DUP7 PUSH2 0x16A7 JUMP JUMPDEST SWAP5 POP PUSH1 0x1 DUP3 AND PUSH1 0x0 DUP2 EQ PUSH2 0x1869 JUMPI PUSH1 0x1 DUP2 EQ PUSH2 0x187F JUMPI PUSH2 0x18B2 JUMP JUMPDEST PUSH1 0xFF NOT DUP4 AND DUP7 MSTORE DUP2 ISZERO ISZERO PUSH1 0x20 MUL DUP7 ADD SWAP4 POP PUSH2 0x18B2 JUMP JUMPDEST PUSH2 0x1888 DUP6 PUSH2 0x1212 JUMP JUMPDEST PUSH1 0x0 JUMPDEST DUP4 DUP2 LT ISZERO PUSH2 0x18AA JUMPI DUP2 SLOAD DUP2 DUP10 ADD MSTORE PUSH1 0x1 DUP3 ADD SWAP2 POP PUSH1 0x20 DUP2 ADD SWAP1 POP PUSH2 0x188B JUMP JUMPDEST DUP1 DUP9 ADD SWAP6 POP POP POP JUMPDEST POP POP POP SWAP3 SWAP2 POP POP JUMP JUMPDEST PUSH1 0x0 DUP2 SWAP1 POP SWAP2 SWAP1 POP JUMP JUMPDEST PUSH1 0x0 PUSH2 0x18D8 PUSH2 0x18D3 DUP4 PUSH2 0x17F0 JUMP JUMPDEST PUSH2 0x18BB JUMP JUMPDEST SWAP1 POP SWAP2 SWAP1 POP JUMP JUMPDEST PUSH1 0x0 DUP2 SLOAD PUSH2 0x18EC DUP2 PUSH2 0x11E1 JUMP JUMPDEST PUSH2 0x18F6 DUP2 DUP7 PUSH2 0x1700 JUMP JUMPDEST SWAP5 POP PUSH1 0x1 DUP3 AND PUSH1 0x0 DUP2 EQ PUSH2 0x1911 JUMPI PUSH1 0x1 DUP2 EQ PUSH2 0x1927 JUMPI PUSH2 0x195A JUMP JUMPDEST PUSH1 0xFF NOT DUP4 AND DUP7 MSTORE DUP2 ISZERO ISZERO PUSH1 0x20 MUL DUP7 ADD SWAP4 POP PUSH2 0x195A JUMP JUMPDEST PUSH2 0x1930 DUP6 PUSH2 0x1486 JUMP JUMPDEST PUSH1 0x0 JUMPDEST DUP4 DUP2 LT ISZERO PUSH2 0x1952 JUMPI DUP2 SLOAD DUP2 DUP10 ADD MSTORE PUSH1 0x1 DUP3 ADD SWAP2 POP PUSH1 0x20 DUP2 ADD SWAP1 POP PUSH2 0x1933 JUMP JUMPDEST DUP1 DUP9 ADD SWAP6 POP POP POP JUMPDEST POP POP POP SWAP3 SWAP2 POP POP JUMP JUMPDEST PUSH1 0x0 PUSH1 0xA0 DUP4 ADD PUSH1 0x0 DUP1 DUP5 ADD SLOAD SWAP1 POP PUSH2 0x197A DUP2 PUSH2 0x181D JUMP JUMPDEST PUSH2 0x1987 PUSH1 0x0 DUP8 ADD DUP3 PUSH2 0x1698 JUMP JUMPDEST POP PUSH1 0x1 DUP5 ADD DUP6 DUP4 SUB PUSH1 0x20 DUP8 ADD MSTORE PUSH2 0x199E DUP4 DUP3 PUSH2 0x1837 JUMP JUMPDEST SWAP3 POP POP PUSH1 0x2 DUP5 ADD SLOAD SWAP1 POP PUSH2 0x19B1 DUP2 PUSH2 0x18C5 JUMP JUMPDEST PUSH2 0x19BE PUSH1 0x40 DUP8 ADD DUP3 PUSH2 0x16F1 JUMP JUMPDEST POP PUSH1 0x3 DUP5 ADD DUP6 DUP4 SUB PUSH1 0x60 DUP8 ADD MSTORE PUSH2 0x19D5 DUP4 DUP3 PUSH2 0x18DF JUMP JUMPDEST SWAP3 POP POP PUSH1 0x4 DUP5 ADD DUP6 DUP4 SUB PUSH1 0x80 DUP8 ADD MSTORE PUSH2 0x19EE DUP4 DUP3 PUSH2 0x18DF JUMP JUMPDEST SWAP3 POP POP DUP2 SWAP3 POP POP POP SWAP3 SWAP2 POP POP JUMP JUMPDEST PUSH1 0x0 PUSH1 0x20 DUP3 ADD SWAP1 POP DUP2 DUP2 SUB PUSH1 0x0 DUP4 ADD MSTORE PUSH2 0x1A16 DUP2 DUP5 PUSH2 0x1963 JUMP JUMPDEST SWAP1 POP SWAP3 SWAP2 POP POP JUMP INVALID LOG2 PUSH5 0x6970667358 0x22 SLT KECCAK256 0x2F KECCAK256 MULMOD 0xAE 0xC1 LT CODECOPY EXTCODECOPY PUSH9 0x7D5F05490FD2AAFFF0 0xEB GASLIMIT POP PUSH19 0x5A04D0381E41FDE120C64736F6C6343000818 STOP CALLER "},"methodIdentifiers":{"LandMarket()":"5b9677bf","acceptProposal(uint256)":"60c5cc3a","createLandListingProposal(string,uint256,bytes,bytes)":"01c35d0e","joinDaoRequest(bytes,bytes)":"fd843f08","landListingProposals(uint256)":"92e8cca2","location()":"516f279e","name()":"06fdde03","oracleAddress()":"a89ae4ba","oracleContract()":"bece7532","proposalId()":"2dfca445","proposalStatus(uint256)":"74c260cf","setLandMarketAddress(address)":"3789b030","setOracleAddress(address)":"4c69c00f","verifyLandListingProposal(uint256)":"3f51f066"}},"storageLayout":{"storage":[{"astId":3140,"contract":"contracts/Dao.sol:SubDAOContract","label":"name","offset":0,"slot":"0","type":"t_string_storage"},{"astId":3142,"contract":"contracts/Dao.sol:SubDAOContract","label":"location","offset":0,"slot":"1","type":"t_string_storage"},{"astId":3145,"contract":"contracts/Dao.sol:SubDAOContract","label":"LandMarket","offset":0,"slot":"2","type":"t_contract(LandMarketplace)3832"},{"astId":3151,"contract":"contracts/Dao.sol:SubDAOContract","label":"oracleAddress","offset":0,"slot":"3","type":"t_address"},{"astId":3154,"contract":"contracts/Dao.sol:SubDAOContract","label":"oracleContract","offset":0,"slot":"4","type":"t_contract(Oracle)4204"},{"astId":3168,"contract":"contracts/Dao.sol:SubDAOContract","label":"proposalId","offset":0,"slot":"5","type":"t_uint256"},{"astId":3173,"contract":"contracts/Dao.sol:SubDAOContract","label":"landListingProposals","offset":0,"slot":"6","type":"t_mapping(t_uint256,t_struct(LandListingProposal)3845_storage)"},{"astId":3178,"contract":"contracts/Dao.sol:SubDAOContract","label":"proposalStatus","offset":0,"slot":"7","type":"t_mapping(t_uint256,t_enum(ProposalStatus)3182)"}],"types":{"t_address":{"encoding":"inplace","label":"address","numberOfBytes":"20"},"t_bytes_storage":{"encoding":"bytes","label":"bytes","numberOfBytes":"32"},"t_contract(LandMarketplace)3832":{"encoding":"inplace","label":"contract LandMarketplace","numberOfBytes":"20"},"t_contract(Oracle)4204":{"encoding":"inplace","label":"contract Oracle","numberOfBytes":"20"},"t_enum(ProposalStatus)3182":{"encoding":"inplace","label":"enum SubDAOContract.ProposalStatus","numberOfBytes":"1"},"t_mapping(t_uint256,t_enum(ProposalStatus)3182)":{"encoding":"mapping","key":"t_uint256","label":"mapping(uint256 => enum SubDAOContract.ProposalStatus)","numberOfBytes":"32","value":"t_enum(ProposalStatus)3182"},"t_mapping(t_uint256,t_struct(LandListingProposal)3845_storage)":{"encoding":"mapping","key":"t_uint256","label":"mapping(uint256 => struct Lib.LandListingProposal)","numberOfBytes":"32","value":"t_struct(LandListingProposal)3845_storage"},"t_string_storage":{"encoding":"bytes","label":"string","numberOfBytes":"32"},"t_struct(LandListingProposal)3845_storage":{"encoding":"inplace","label":"struct Lib.LandListingProposal","members":[{"astId":3836,"contract":"contracts/Dao.sol:SubDAOContract","label":"owner","offset":0,"slot":"0","type":"t_address"},{"astId":3838,"contract":"contracts/Dao.sol:SubDAOContract","label":"location","offset":0,"slot":"1","type":"t_string_storage"},{"astId":3840,"contract":"contracts/Dao.sol:SubDAOContract","label":"price","offset":0,"slot":"2","type":"t_uint256"},{"astId":3842,"contract":"contracts/Dao.sol:SubDAOContract","label":"contractIPFSHash","offset":0,"slot":"3","type":"t_bytes_storage"},{"astId":3844,"contract":"contracts/Dao.sol:SubDAOContract","label":"imagesIPFSHash","offset":0,"slot":"4","type":"t_bytes_storage"}],"numberOfBytes":"160"},"t_uint256":{"encoding":"inplace","label":"uint256","numberOfBytes":"32"}}}}}}